:020000040000fa
:10000000f8ff0320f11d0000d12a0000d72a0000cc
:10001000e32a0000e92a0000ef2a000000000000a7
:100020000000000000000000000000004b12000073
:10003000dd2a0000000000004b12000055230000e4
:100040004b1200004b1200004b1200004b1200003c
:100050004b1200004b1200004b1200004b1200002c
:100060004b1200004b1200004b1200004b1200001c
:100070004b1200004b1200004b1200004b1200000c
:100080004b1200004b1200004b1200004b120000fc
:100090004b1200004b1200004b1200004b120000ec
:1000a0004b1200004b1200004b120000a122000076
:1000b0004b1200004b1200004b1200004b120000cc
:1000c0004b1200004b1200004b1200004b120000bc
:1000d0004b1200004b1200004b1200004b120000ac
:1000e0004b1200004b120000000000000000000056
:1000f000000000004b1200004b1200004b120000e9
:100100004b1200004b1200004b1200004b1200007b
:100110004b1200004b1200004b1200004b1200006b
:100120004b1200004b1200004b1200004b1200005b
:100130004b1200004b120000490c0000490c00005b
:10014000490c0000490c00004b1200004b1200004b
:100150004b1200004b1200000000000000000000e5
:10016000000000000000000000000000000000008f
:1001700000000000000000004b1200004b120000c5
:100180004b1200004b1200004b1200004b120000fb
:10019000000000004b1200004b1200004b12000048
:1001a0004b1200004b1200004b1200004b120000db
:1001b0004b1200004b1200004b1200004b120000cb
:1001c0004b1200004b1200004b1200004b120000bb
:1001d0004b1200004b1200004b1200004b120000ab
:1001e0004b1200004b1200004b1200004b1200009b
:1001f0004b1200004b1200004b1200004b1200008b
:100200004b12000000000000000000004b12000034
:100210004b1200004b1200004b1200004b1200006a
:100220004b1200004b1200004b1200004b1200005a
:100230004b1200004b1200004b1200004b1200004a
:100240004b1200004b1200004b1200004b1200003a
:100250004b1200004b1200004b1200004b1200002a
:020000040000fa
:10026000f8b500bff8bc08bc9e467047c521000029
:10027000f8b500bff8bc08bc9e467047a12100003d
:020000040000fa
:08028000100300000100000062
:020000040000fa
:100288002de9f041aeb006461546059100270599bf
:100298000b78002b00f0fa8000244ff0ff33cde9f3
:1002a80009430eab0c9380230b940d930b5d0bb19c
:1002b800252b26d134b12246304602f083f8059b1f
:1002c80023440593059b1a78252a40f0d78003f12b
:1002d8000108cdf81480059803782b2b1ad025d85f
:1002e800202b1bd0232b1dd02a2b27d001f0cbfe8f
:1002f8000b90059b1a78303a092a2ed801330593ba
:10030800f7e70134d2e7099b43f001030130099371
:100318000590e0e7099b43f00403f7e7099b43f0e6
:100328000803f3e7099b43f01003efe72d2bead00e
:10033800302bd9d1099b43f00203e7e72b681a1d3c
:100348001b682a600130002b05900b9305da099a87
:100358005b4282f0010209920b93099bda0744bfc2
:1003680023f002030993059b1a782e2a0dd1002247
:10037800581c0a9205905a782a2a25d102330593e7
:100388002b681a1d1b682a600a9305a801f0fcff58
:10039800059b0390187802f072fb6928039979d0bd
:1003a80032dc632800f0cb8019dc252800f0d980e6
:1003b800612853d000234ff0ff32cdf81480099301
:1003c8000b930a920093d4e001f05dfe0a90059b1e
:1003d8001a78303a092ad8d801330593f7e7642800
:1003e80058d06728e6dc2a4606a802f0fdf800285f
:1003f80000f0a180059b5a1c05921b7806aa09a942
:10040800304602f07dfb38e0702873d015dc6e288a
:1004180000f08c806f28cdd12b46002206a800f072
:10042800c3fd002800f08780059b06aa013309a9af
:100438003046059302f062fb1fe075283ad0782811
:1004480048d07328b6d1802975d1059b2a68013315
:100458000593131d2b60126800237de02a4606a829
:1004680002f0c2f8002866d0059b5a1c05921b783a
:1004780006aa09a9304602f043fb04443c44a742bb
:100488007add3e4b4f221a604ff0ff3738462eb0c8
:10049800bde8f0812b46012206a800f085fd002862
:1004a80049d0059b06aa013309a93046059300f0f7
:1004b800d1fde2e72b46002206a800f075fd0028d2
:1004c80039d0059b06aa013309a93046059302f0e5
:1004d80015fbd2e72b46002206a800f065fd50b3b5
:1004e800059b5a1c05921b7806aa09a9304602f0fa
:1004f80007fbc2e72b460022f02106a800f054fdb6
:10050800c8b1059b01330593dde9062313430bd1dd
:100518001b4802f0e3f9099b009319490b9b02461b
:10052800304601f099f8a8e77823dde72b463a1919
:1005380006a801f093f9059b013305939ee78029ee
:10054800f9d1059b013305932b681a1d1b682a6096
:100558008df8183006aa012309a9304602f0d2fa0c
:100568008be78029e7d1059b01330593099b00930d
:100578000b9b04490122d3e7274688e6b0080020f0
:08058800c02a0000c62a000091
:020000040000fa
:100590002de9f04f099f154604468e461e46002b56
:1005a00040f0cc808a42b2fa82fc4cd9bcf1000ff8
:1005b0000bd0ccf1200801fa0cfe20fa08f802fa60
:1005c0000cf548ea0e0e00fa0cf44fea15491ffa32
:1005d00085f8befbf9fa210c09fb1ae30afb08fbbc
:1005e00041ea03439b452ad9eb180af1ff3004d2b4
:1005f0009b4502d9aaf102002b44a3eb0b03a4b242
:10060000b3fbf9f209fb123302fb08f844ea034496
:10061000a04516d92c1902f1ff3303d2a04501d908
:10062000931e2c44a4eb080443ea004027b124faab
:100630000cf400233c607b603146bde8f08f5046ef
:10064000dbe71346eee702b9ffdebcf1000f2ed167
:100650008b1a01264fea154eaab2b3fbfef8210c05
:100660000efb183308fb02f941ea0343994561d9af
:10067000eb1808f1ff3004d2994502d9a8f1020025
:100680002b44a3eb0903a4b2b3fbfef10efb113321
:100690004a4344ea0344a2424ed92c1901f1ff33e4
:1006a00003d2a24201d98b1e2c44a41abce7ccf180
:1006b000200e02fa0cf521fa0ef901fa0cf320fad9
:1006c0000efe4eea03034fea154800fa0cf4b9fb9c
:1006d000f8f11ffa85fe08fb1192180c01fb0ef6cb
:1006e00040ea0242964221d9aa1801f1ff3003d212
:1006f000964201d9881e2a44921b9bb2b2fbf8f99c
:1007000008fb192209fb0efe43ea02439e450fd95e
:10071000eb1809f1ff3604d29e4502d9a9f1020671
:100720002b44a3eb0e0346ea004693e70846e3e7b3
:100730004e46f6e74046a4e70b46b6e78b4206d99d
:10074000002f7ed00026c7e90001304674e7b3fad7
:1007500083fcbcf1000f0fd18b4201d3824209d838
:10076000841a61eb030e0120002f6dd0c7e9004e03
:10077000002661e76046f7e7ccf1200e03fa0cf3a0
:1007800022fa0ef521fa0ef41d4301fa0cf320fab9
:100790000ef10b434fea154a00fa0cf6b4fbfaf9d6
:1007a0001ffa85f80afb19401c0c09fb08f144ea02
:1007b0000044a14202fa0cf23fd92c1909f1ff3092
:1007c00004d2a14202d9a9f102002c44641a9bb2be
:1007d000b4fbfaf90afb194409fb08f843ea04419f
:1007e00088452cd9691809f1ff3304d2884502d90c
:1007f000a9f10203294443ea0040a1eb0801a0fb50
:1008000002894945c2464c4602d306d1464504d228
:10081000b8eb020a69eb05040138afb1b6eb0a0385
:1008200061eb040606fa0efe23fa0cf34eea03030c
:1008300026fa0cf6c7e900369ae74846c6e74b4663
:0c084000d9e73e463846f7e63e46f5e6ae
:020000040000fa
:10084c00580800201c0000000000000008040020d4
:10085c000002000000000000a408002004000000ba
:10086c0000000000830800200100000000000000d0
:10087c00740800200f000000000000000806002093
:10088c00c00000000000000018080020400000001c
:10089c0000000000c806002000010000000000005d
:1008ac00840800200c00000000000000a8080020b4
:1008bc000400000000000000c807002050000000e9
:1008cc0000000000b80800206c00000001000000cf
:1008dc00c4080020c0080020c4080020000000004c
:1008ec0025000000080000200004000000000000ab
:1008fc0000000000000000000000000000000000ec
:10090c00000000000000000000000000112b00009f
:10091c0000000000000000000000000000000000cb
:10092c00d51b0000000000000000000000000000cb
:10093c00000000000000000000000000000000208b
:10094c0008040000000000008409002020000000c2
:10095c000100000001000000030000000000000086
:10096c00000000000000000000000000000000007b
:10097c009c0800209c0800200800000000000000db
:10098c00ac08002008000000000000002409002032
:10099c0060000000010000000100000003000000e6
:1009ac00000000000000000000000000000000003b
:1009bc0000000000f11c000000000000000000001e
:1009cc0000000000f52a00006f2600000000000067
:1009dc00000000000000000000000000000000000b
:1009ec0000000000000000000000000000000000fb
:1009fc000000000000000000a4090020040000001a
:100a0c000100000001000000b408002004000000f8
:100a1c0000000000900800200c0000000000000006
:100a2c00000000000000000066666666666666668a
:020000040000fa
:100a3c0080b5adf5007d00af01f078fe394801f0ce
:100a4c00bdfe322000f0cafe3b46184601f0c2fb48
:100a5c0000bf3b463449184601f079ff0346002b92
:100a6c00f7d101f063fe314801f0a8fe322000f00e
:100a7c00b5fe3b46184601f0adfb00bf3b462a498c
:100a8c00184601f064ff0346002bf7d101f04efe2f
:100a9c00274801f093fe322000f0a0fe3b4618469a
:100aac0001f098fb00bf3b461f49184601f04fff71
:100abc000346002bf7d101f039fe1e4801f07efef3
:100acc00322000f08bfe3b46184601f083fb00bf42
:100adc003b461549184601f03aff0346002bf7d167
:100aec0001f024fe144801f069fe642000f076fe4b
:100afc003b46184601f06efb00bf3b4605220f49f2
:100b0c00184601f0ebfd0346002bf6d14ff4fa60ca
:100b1c0000f064fe01f00afe00bf07f50077bd4649
:100b2c0080bd00bfa02a0000b02a00000c2a0000e3
:100b3c00ec290000fc290000a82a0000b82a0000bb
:020000040000fa
:100b4c0080b400af3b4b1b78dbb23a4a43f0010355
:100b5c00dbb2137000bf374b5b6803f00103012b52
:100b6c00f9d0344b1b78dbb2324a43f01003dbb2c2
:100b7c001370304b0022da612e4b4ff010421a6288
:100b8c002c4b4ff400421a632a4b00225a63294b18
:100b9c004ff400421a61284b10221a81264b102266
:100bac009a82254b10221a84234b10229a85224bb1
:100bbc0010221a87204b1022a3f844201e4b10221f
:100bcc00a3f850201c4b1022a3f85c201a4b1022c7
:100bdc00a3f86820184b1022a3f87420164b10228f
:100bec00a3f88020144b1022a3f88c20124b102257
:100bfc00a3f89820104b1022a3f8a4200e4b10221f
:100c0c00a3f8b0200c4b0f22a3f8bc20094b1b7887
:100c1c00dbb2084a43f00203dbb2137000bf054b92
:100c2c005b6803f00203022bf9d000bfbd465df8f0
:0c0c3c00047b70470028004008060020e0
:020000040000fa
:100c480080b582b000af0023fb714ff086439b7dd7
:100c5800dbb2002b68d04ff086431b7edbb203f07b
:100c68008003802b0cbf01230023fb714ff08643c8
:100c78009b7ddbb203f08003802b04d1fb79002b32
:100c880001d0012300e00023fb71fb7903f001038d
:100c9800fb71fb79002b01d001f0aef94ff08643d0
:100ca8001b7edbb203f00103012b0cbf01230023e1
:100cb800fb714ff086439b7ddbb203f00103012bf0
:100cc80004d1fb79002b01d0012300e00023fb7144
:100cd800fb7903f00103fb71fb79002b01d000f0d5
:100ce80045ff4ff086431b7edbb203f00403002b65
:100cf80014bf01230023fb714ff086439b7ddbb2b9
:100d080003f00403002b04d0fb79002b01d001234e
:100d180000e00023fb71fb7903f00103fb71fb7911
:100d2800002b01d001f0befb00bf0837bd4680bdd7
:020000040000fa
:100d380080b400af4ff08643344a1a604ff08643c0
:100d48004ff622029a814ff086434ff440325a60a0
:100d580000bf4ff08643db69002bfad14ff0864382
:100d68001b684ff0864243f00203136000bf4ff048
:100d78008643db69002bfad1254b00221a62244beb
:100d880000229a62224b0022da62214b002283f869
:100d980034201f4b002283f83c201d4b00229a630d
:100da8001b4b0022da871a4b00221a60184b0022cc
:100db8009a60174b0022da60154b00221a75144b03
:100dc80000221a77124b00229a614ff086435b6823
:100dd80003f00703012b06d00d4b80221a630c4b3e
:100de80080221a6105e00a4b40221a63084b402210
:100df8001a614ff0864380229a754ff08643042289
:100e08009a7500bfbd465df8047b70470401104029
:040e18001808002096
:020000040000fa
:100e1c0080b586b000af0346fb800023fb742d4bde
:100e2c009b6a01337b612b4b1b6b7a699a4201d312
:100e3c0000237b61274bdb6a7a699a4216d1254bda
:100e4c001b6a002b12d0234b5b6afb60214b1b6a85
:100e5c00f968012098471f4b9b6a01337b611d4b3e
:100e6c001b6b7a699a4201d300237b61194bdb6ab5
:100e7c007a699a4229d04ff086435b6803f00703e6
:100e8c00012b0ad0134b9b6abb60fb88d9b2124a68
:100e9c00bb6813440a461a7012e00e4b9b6a5b0047
:100eac00bb60fb88d9b20c4abb6813440a461a7063
:100ebc00fb881b0a9ab2bb680133d1b2064ad154e3
:100ecc00044a7b6993620123fb74fb7c1846183738
:0c0edc00bd4680bd18080020c80600209c
:020000040000fa
:100ee80080b489b000af786039600023fb612c4b77
:100ef800db6abb612a4b9b6a7b6140e0ba697b690c
:100f08009a4241d04ff086435b6803f00703012bf8
:100f18000fd07a68fb6913442249ba690a441278e7
:100f2800d2b21a70fb690133fb61bb690133bb6143
:100f38001ee0bb695b003b61fb695b00fb607a6894
:100f4800fb68134417493a690a441278d2b21a70f6
:100f58003b695a1cfb68013379680b4411498a5c68
:100f6800d2b21a70bb690133bb61fb690133fb6103
:100f78000b4b1b6bba699a4201d30023bb61fa6918
:100f88003b689a42bad300e000bf054abb69d36206
:100f9800fb6918462437bd465df8047b704700bfdf
:080fa80018080020c806002013
:020000040000fa
:100fb000882910b536d012dc812943d003dc802982
:100fc00040d0002010bd82290ed08429f9d11968a3
:100fd00002b30a1d1a60b1f90020d3171ee0a02940
:100fe0002bd00bdc9029ecd11968073121f00701d7
:100ff00001f108021a60d1e900230fe0c02901d0f5
:10100000f029ded11a68111d1960136803600023ee
:10101000436005e00a1d1a600a880023c0e9002326
:101020000120cfe7196822b10a1d1a6091f900204a
:10103000d3e70a1d1a600a78efe71a68111d1960d4
:101040001268cae719681ab10a1d1a600a68c4e76b
:0c1050000c1d1c600b68c0e90032e1e7d9
:020000040000fa
:10105c002de9f041d2e900230c4686b007465fea41
:10106c00d37820684968a5680590e66841d052425b
:10107c0063eb4303002908db20f002000590b8f174
:10108c00000f02d1059948072ad5691e05a80290c0
:10109c000a20cde90010204600f01cfcb8f1000f2e
:1010ac0002d1059b59071fd5b8f1000f00f1ff3095
:1010bc0014bf2d232b2333542269059b0093013a33
:1010cc002b46121a3118384600f0c4fa7b68db053f
:1010dc0003d563689842b8bf184606b0bde8f081e6
:1010ec000807d2d42946d1e71a07e5d501382023c1
:0810fc00e1e70029c0dac5e7b5
:020000040000fa
:1011040080b588b000af786039600023fb777b68d6
:101114007b617b683b610023bb610023fb817b68af
:10112400002b38d000f03afe29e000bf1c4b1b7e98
:10113400dbb203f00403002bf8d0194b5b8b9bb29a
:1011440003f00703fb81fb89002b1dd1144b5b6863
:1011540003f00703012b07d0114b996a7a69bb6925
:101164001344cab21a7007e00d4b996abb695b005d
:101174003a6913448ab21a80bb690133bb61ba6904
:101184003b689a42d1d300e000bf3a68bb699a42f7
:1011940001d10123fb77fb7f18462037bd4680bd74
:0411a4000004004300
:020000040000fa
:1011a80080b584b000af786039600023fb6032e01e
:1011b8004ff086435b6803f00703012b0ed07a6873
:1011c800fb6813441b789bb2184600f08bf8034663
:1011d800002b25d0fb680133fb601ce0fb685b003b
:1011e80001337a6813441b787b817b891b027b81de
:1011f800fb685b007a6813441b789ab27b891343b7
:101208007b817b89184600f06df80346002b09d0d6
:10121800fb680133fb60fa683b689a42c8d302e076
:1012280000bf00e000bf00f095ff0346002b03d08d
:101238004ff0864301229a75fb6818461037bd4661
:0212480080bd67
:020000040000fa
:02124a00fee7bd
:020000040000fa
:10124c0080b489b000af78600023fb77224b9b6899
:10125c007b61214bdb68bb617b683b61ba697b6955
:10126c009a4232d04ff086435b6803f00703012ba0
:10127c000ad01a4abb6913441b78dab23b691a705c
:10128c00bb690133bb6114e0bb695b00fb60134ab3
:10129c00fb6813441b78dab23b691a70fb685a1c62
:1012ac003b6901330d498a5cd2b21a70bb690133b8
:1012bc00bb61094b1b69ba699a4201d30023bb611c
:1012cc00054abb69d3600123fb77fb7f18462437a3
:1012dc00bd465df8047b70471808002048070020c5
:020000040000fa
:1012ec0080b489b000af0346fb80234b9b687b61c5
:1012fc00214bdb683b610023fb767b690133fb618f
:10130c001d4b1b69fa699a4201d30023fb61fa69f0
:10131c003b699a4229d04ff086435b6803f0070380
:10132c00012b07d0fb88d9b2144a7b6913440a46b7
:10133c001a7015e07b695b00fb60fb88d9b20f4a21
:10134c00fb6813440a461a70fb680133fb60fb8888
:10135c001b0a9bb2d9b2094afb6813440a461a709d
:10136c00054afb6993600123fb76fb7e1846243704
:10137c00bd465df8047b7047180800204807002024
:020000040000fa
:10138c0080b5adf5027d00af0023c7f80432002311
:10139c00c7f800321f4b1b78dbb283f00103dbb2c2
:1013ac00002b31d000bf00f0b1fe0346002bfad168
:1013bc003b46184600f00eff0023c7f804321ee02f
:1013cc00d7f804320133c7f800323a46d7f8043262
:1013dc0013441b78572b0dd13a46d7f800321344df
:1013ec001b78432b06d10b4b01221a7001f09ef98e
:1013fc0000bf09e0d7f804320133c7f80432d7f83c
:10140c000432b3f5007fdbdb00bf07f50277bd4686
:08141c0080bd00bf8308002021
:020000040000fa
:1014240080b400af224b4ff490621a60204b48f214
:1014340080421a611e4b022283f842201c4b002278
:1014440083f847201a4b002283f84a20184b0522c0
:1014540083f84f20164b002283f83120144b0022ce
:1014640083f83320124b002283f83520104b0022de
:1014740083f837200e4b012283f8cc200c4b012239
:1014840083f8cd200a4b012283f8d020084b012297
:1014940083f8d120064b222283f8b620044b222263
:1014a40083f8b82000bfbd465df8047b704700bfd9
:0414b4000080004173
:020000040000fa
:1014b80080b500af002000f07bfdbff35f8f62b600
:1014c80007211b2000f03efc1b2000f003ff072132
:1014d8003e2000f037fc3e2000f0fcfe07213f20b4
:1014e80000f030fc3f2000f0f5fe0721402000f01e
:1014f80029fc402000f0eefe0721412000f022fcec
:10150800412000f0e7fe0d4b5b6a0c4a43f4802350
:1015180053620a4b5b69094a43f010035361074b56
:101528005b6a064a43f400335362044b5b6a034a1e
:1015380043f48033536200bf80bd00bf00ed00e07c
:020000040000fa
:1015480080b500af01f086fa01f0bcf901f089fa24
:1015580001f008f800f06efa00f0b8fd00f0ecffba
:10156800184b4122c3f8902000bf164bd3f8903097
:1015780003f04003402bf8d1124b4122c3f8082155
:1015880000bf104bd3f8083103f04003402bf8d1cb
:101598000c4b4122c3f80c2100bf0a4bd3f80c3185
:1015a80003f04003402bf8d1074b6ff07f421a61dc
:1015b800054b40f2ff725a61034b03221a6200bfc7
:0c15c80080bd00bf001c00400008004077
:020000040000fa
:1015d4002de9ff41836946690093f61acde901615b
:1015e40004461746039216444ff002086d464246dd
:1015f4002946206801f024f8b04209d1d4e9023226
:10160400c4e905331a44a262384604b0bde8f08147
:1016140000280dda6268002342f01002b8f1020fcc
:10162400a362c4e90533626015d06b68ff1aebe767
:101634006b68984288bf0835a6eb000688bfc01abd
:101644002b6803442b606b68a3eb000088bf08f190
:0a165400ff386860cbe71f46d6e7b9
:020000040000fa
:02165e007047d3
:020000040000fa
:101660002de9ff471d460c9b13f0010906468a46eb
:10167000144601d195420bd822465146304600f01f
:10168000a5fea54204d82546284604b0bde8f0874b
:101690002f1b102f3a464ff0200128bf102268461a
:1016a000b84601f085f900bfb8f10f0f11d83b091a
:1016b0006ff00f0202fb03726946304600f086feaf
:1016c000b9f1000fe0d122465146304600f07efecf
:1016d000dae710226946304600f078fea8f11008db
:0416e000e2e700bf7e
:020000040000fa
:1016e400f0b51f4c2568a446002d36d000222946ab
:1016f40016461346d1f800e00f6986450ad132b187
:10170400176101f110031846f0bd3946f2e7ccf831
:101714000070f6e705d9ebb11c68a6453cbf164638
:101724000b460a46002ff0d1002becd019461f6956
:1017340051f8102b121a102a05d918600844103acf
:101744000761026007469d420cbfccf80070376108
:101754000b46d8e716460b46e3e72b46d3e700bf14
:04176400b4080020a5
:020000040000fa
:1017680080b487b000af786039600023fb757b6870
:10177800fb607b68bb6000233b617b68002b25d046
:101788001ee000bf154b1b7edbb203f00103002bec
:10179800f8d0124b5b6803f00703012b06d0fa68f8
:1017a8003b6913441a780d4b9a6206e03b695b006b
:1017b800ba6813441a88094b9a623b6901333b6142
:1017c8003a693b689a42dcd30123fb75fb7d1846d6
:1017d8001c37bd465df8047b704700bf000400431a
:020000040000fa
:1017e80080b489b000af78600023fb61194b5b6857
:1017f80001333b617b68184a02fb03f3fb60154b1e
:101808001b6803f00103012b1ed1124b9b687b61ff
:1018180016e0104b9b68bb607a69bb68d31abb6142
:10182800ba687b699a4205d93a69bb68d31a7a695a
:101838001344bb61bb687b61fa69bb691344fb61f4
:10184800fa69fb689a42e4d300bf2437bd465df8c5
:0c185800047b704710e000e0c0d40100e9
:020000040000fa
:10186400842910b523d00cdc812903d0822913d01c
:1018740080290bd119680c1d1c600b6803601a6069
:1018840013e0902921d003dc882917d0002010bd53
:10189400a029efd0c029ece719680c1d1c600b6867
:1018a4000360d1171046c3e900010120efe719686e
:1018b4000c1d1c600b6803601a80f6e719680c1d88
:1018c4001c600b6803601a70efe719680c1d1c603c
:0c18d40009680160d317c1e90023e6e7b2
:020000040000fa
:1018e0002de9f84f04460c9f6668d4f80cb02469c3
:1018f00010463a68013c002502f0020a0b9a0bf8e8
:101900000450002e1946b8bf0126012390464fea25
:10191000e279002c03dcd3b12046bde8f88f50ea11
:10192000010209d1721b002a06dc0a9a521b002a06
:10193000f1ddbaf1000feed042464b4600f0d0fd8b
:10194000013c134630320bf804200135e1e73b68d7
:0819500023f010033b60dfe708
:020000040000fa
:10195800f8b5846a05460f46164654b1ab6a6a69fb
:101968009b1ab3420bd2324639462846fff72efe61
:10197800f8bd00f0bfff0028f0d02046f8e7002ea1
:10198800f1d095f93430002b1bdbdbb23446621ef4
:10199800b95c994212d1224639462846fff716fe0d
:1019a800a042e5d32744341b22463946686900f033
:1019b80053ff6b691c446c613046d9e71446002a12
:0619c800e5d13446f0e712
:020000040000fa
:0219ce00704760
:020000040000fa
:1019d00080b582b000af00237b6000f0c9fafff74a
:1019e0002df800f045fe0346002b1cd0fff7cefc7f
:1019f0000f4b1b78dbb2002bf3d07b685a1c7a604c
:101a00001a460c490c4800f047ff7b68402b01dd6b
:101a100000237b60084800f0d7fec820fff7e4fef3
:101a200000f08afedde7024b00221a70d9e700bf02
:0c1a3000830800201c2a0000740800201d
:020000040000fa
:101a3c0080b400af174b4222c3f8842000bf154b73
:101a4c00d3f8843003f04003402bf8d1124b002222
:101a5c009a63114b77225a6300bf0f4bdb6b03f079
:101a6c000403042bf9d00c4b022283f8302000bf66
:101a7c00094bdb6b03f00203022bf9d000bf064bc2
:101a8c001b6c03f00303032bf9d100bfbd465df8bb
:0c1a9c00047b7047001c0040001000405c
:020000040000fa
:101aa80080b582b000af174b93f83430dbb2002b0f
:101ab80024d000f02dfb7860124b1b6a002b1dd040
:101ac800104b5b6a3b600f4b93f83c30dbb2002b4a
:101ad8000ad00c4b9b6b7a689a420fd3094b1b6a4e
:101ae80039680020984709e0064b9b6b7a689a4250
:101af80004d1044b1b6a39680020984700bf083797
:081b0800bd4680bd1808002055
:020000040000fa
:101b100080b582b000af164b1b7ddbb2002b23d00b
:101b200000f090fe7860124b1b68002b1cd0104b0d
:101b30005b683b600e4b1b7fdbb2002b0ad00c4b6b
:101b40009b697a689a420fd3094b1b683968032056
:101b5000984709e0064b9b697a689a4204d1044b86
:101b60001b6839680320984700bf0837bd4680bd11
:041b70001808002031
:020000040000fa
:101b740080b582b000af1fe0bb1d1846fff764fbc1
:101b84000346002b13d04ff086435b6803f0070332
:101b9400012b05d0fb88dab24ff086439a6203e04a
:101ba400fa884ff086439a62fff7b0ff04e04ff0e3
:101bb400864301221a7507e04ff086431b7edbb291
:101bc40003f00103012bd7d000bf0837bd4680bd09
:020000040000fa
:101bd4007fb5c36800911546002b18bf013a0192e6
:101be40082680446cde902230e4602226946006853
:101bf40000f011fd002808dc00f0180383f008024f
:101c040063681343636005460fe0019a8242fad287
:101c1400a368e363801ae268184420642ab15a1c5a
:101c2400e2632e441b7806f8013c284604b070bddc
:020000040000fa
:101c340037b5154d2b68044673b100f0d3fd019000
:101c440001a800f09efe0f30019920f00f0000f073
:101c54006bfe60b100232b60002c08bf01240f34fd
:101c640034f00f0405d1094b0c221a60204603b04e
:101c740030bd042c38bf04242046fff731fd002872
:101c8400f5d040f8044cf2e7a4090020b008002085
:020000040000fa
:101c94000e4a38b5002313600d4a0e4c13600e4ae9
:101ca4000e4d13600e4a13600e4a13600e4a5362bf
:101cb40013610123936000f0c7fefff786feac4278
:101cc40000d338bd54f8043b9847f8e7ac0800202b
:101cd400d40700206c020000d0070020700200002e
:0c1ce400c8070020cc070020d807002013
:020000040000fa
:101cf00038b50d46044608b9002038bd43689b0638
:101d000007d5d0e905239a4216d80023c4e9053344
:101d1000a362d4e90f13994204d20122c91a2068a0
:101d200000f0fafe0023c4e90f33002de4d0206850
:101d3000bde8384000f0e1be0022c36a1146984772
:0c1d40006369002be1d14ff0ff30d6e7c3
:020000040000fa
:101d4c0080b483b000af03463960fb80b7f906302e
:101d5c00002b0adb3b68dab20c49b7f906305201aa
:101d6c00d2b20b4483f800230ae03b68dab208498c
:101d7c00fb8803f00f03043b5201d2b20b441a76da
:101d8c0000bf0c37bd465df8047b704700e100e0f6
:041d9c0000ed00e076
:020000040000fa
:101da00080b483b000af0023fb71104b5b8b9bb200
:101db00003f00703bb80bb88002b10d00b4b8022a5
:101dc0001a760a4b07225a8302e0084b9b6afb7182
:101dd000064b1b7edbb203f00403042bf5d000bfdf
:101de0000c37bd465df8047b704700bf000400431c
:020000040000fa
:101df00008b50c4b98470c4b984700f061fc00f07d
:101e0000d1fc00f039fb094b23f07f03084a9360b3
:101e1000084b9847084b9847084b984700f006fe38
:101e2000fee700bf5f1600005f1600000000000024
:101e300000ed00e0951c00005f1600005f1600003a
:020000040000fa
:101e400030b589b015464ff0ff32019202f203120d
:101e5000029200b96846cde9030151b14c1e002938
:101e6000059408da094b4f221a604ff0ff3009b091
:101e700030bd0c46f3e700220270cde906001a4699
:101e8000294601a800f0fafcf1e700bfb0080020e5
:020000040000fa
:101e900080b400af0f4b104a1a600e4b4ff622026f
:101ea0009a810c4b4ff440325a6000bf094bdb69fa
:101eb000002bfbd1074b1b68064a43f0020313605b
:101ec00000bf044bdb69002bfbd100bfbd465df8b2
:0c1ed000047b7047000400430401104034
:020000040000fa
:101edc00022a70b5044616461d461ad043689b0666
:101eec0017d441b9002d08bf4ff4806505f10800e7
:101efc00fff79afe01466368012e43f020036360ee
:101f0c00c4e9021514bfff230a2384f83430024bb2
:0c1f1c00e362002070bd00bf59190000f6
:020000040000fa
:101f280080b584b000af03463960fb710023fb60c5
:101f3800fb79002b10d100f0ebf8f860084b1b6818
:101f4800084a1344f9681846fef7caff0246044bcc
:101f58001b681344024a136000bf1037bd4680bd9a
:081f6800a40800200804002079
:020000040000fa
:101f700080b500af00f004fc00210e4800f08cfb9f
:101f8000012000f0ebfb0121012000f0c5f94ff426
:101f90007a70fff729fc00f08dfc4ff4fa70fff720
:101fa00023fc00bf00f0b8f80346002bfad100bfb5
:081fb00080bd00bf291f0000e5
:020000040000fa
:101fb80080b485b000af78607b6803f00703fb60ee
:101fc8000c4bdb68bb60ba684ff6ff031340bb607d
:101fd800fb681a02bb68134343f0bf6343f4003342
:101fe800bb60044abb68d36000bf1437bd465df8c8
:081ff800047b704700ed00e0de
:020000040000fa
:1020000080b582b000af4ff086435b8b9bb203f08c
:102010000703fb80fb88002b10d00a4afb88d3877c
:1020200000f0fef8074b1b6a002b07d0054b5b6adc
:102030003b60044b1b6a39680220984700bf083791
:08204000bd4680bd1808002018
:020000040000fa
:1020480080b586b000aff860b9607a6000237b6124
:102058000023fb74fb68002b10d17b68002b0dd08c
:102068000121b868fff74af80346fb74fb7c83f04c
:102078000103dbb2002bf3d101237b617b69184696
:062088001837bd4680bdc3
:020000040000fa
:10208e0010b50278202a034600f10100f9d0a2f122
:10209e0009010429f5d92b2a07d02d2a11d10121a6
:1020ae000133013b00200a2403e00021f8e76043de
:1020be00801a13f8012f303a092af8d901b9404293
:0620ce0010bd0021ede74a
:020000040000fa
:1020d40080b400af0c4b01225a7100bf0a4bdb786d
:1020e400dbb203f00103012bf8d1084b084a1a6252
:1020f40000bf064b5b6803f00403042bf9d000bf58
:10210400bd465df8047b704700080040001c004099
:0421140007010100be
:020000040000fa
:1021180080b485b000af0e4bdb6abb600c4b9b6a8a
:102128007b607a68bb689a4204d37a68bb68d31a22
:10213800fb6006e0064b1a6bbb68d31a7a68134437
:10214800fb60fb6818461437bd465df8047b704792
:042158001808002043
:020000040000fa
:10215c0080b485b000af0e4b9b68bb600c4bdb684a
:10216c007b60ba687b689a4204d3ba687b68d31ade
:10217c00fb6006e0064b1a697b68d31aba681344f5
:10218c00fb60fb6818461437bd465df8047b70474e
:04219c0018080020ff
:020000040000fa
:1021a00010b5054c227832b9044b13b10448aff393
:1021b00000800123237010bd58080020000000009b
:1021c0000000000008b5034b1bb103490348aff3ff
:1021d000008008bd000000005c0800200000000036
:020000040000fa
:1021e00080b485b000af78600023fb600023fb6003
:1021f0000ae0fb687a6813440849fa680a441278ce
:102200001a70fb680133fb60fb68b3f5007ff0dbfd
:1022100000bf1437bd465df8047b704708040020fa
:020000040000fa
:1022200080b483b000af0023fb804ff08643802250
:102230001a764ff0864307225a8303e04ff0864315
:102240009b6afb804ff086431b7edbb203f00403e6
:10225000042bf3d000bf0c37bd465df8047b7047fc
:020000040000fa
:1022600080b400af0b4b00221a600a4b00229a6028
:10227000084b094a5a60074b06221a60074b002296
:102280009a60064b00221a6000bfbd465df8047bd1
:10229000704700bf10e000e0bfd4010084080020b8
:020000040000fa
:1022a00080b582b000af0b4b4ff400425a610a4b2d
:1022b000d3f8b430002b08d0074bd3f8b8307b608c
:1022c000054bd3f8b4307868984700bf0837bd464f
:0c22d00080bd00bf002800400806002070
:020000040000fa
:1022dc0080b483b000af0346fb80b7f90630002b07
:1022ec000bdbfb8803f01f020749b7f906305b09cb
:1022fc00012000fa02f241f8232000bf0c37bd4642
:0c230c005df8047b704700bf00e100e0ba
:020000040000fa
:1023180080b485b000af03460a46fb711346bb7113
:10232800094b93f83430fb73074afb7982f8343051
:10233800054abb7982f83c30fb7b18461437bd460a
:0c2348005df8047b704700bf18080020ff
:020000040000fa
:1023540080b582b000af0b4b5b687b600a4b1b6897
:10236400084b9b680133074a9360064b1b68002b9c
:1023740003d0044b1b687868984700bf0837bd46f4
:0c23840080bd00bf8408002010e000e0d5
:020000040000fa
:1023900030b50d4a002300bf12f8134024b902ebf8
:1023a00043035b78184630bd01680d78a54209bf2c
:1023b00002eb430301335b78013114bfdbb20160f0
:0c23c0000a2be9d9eee700bf70290000ed
:020000040000fa
:1023cc0038b5436813f4807f0446154611d0036971
:1023dc009a4228bf1d465db12a46406900f03afa80
:1023ec00636922692b44551b0022636125611a70b5
:0c23fc0038bddb06fcd400f087faf9e7de
:020000040000fa
:1024080080b586b000aff860b9607a600023fb75cc
:10241800fb68012b0bd17968b868fff7a1f903466f
:10242800fb75fb7d83f00103dbb2002bf3d17b68e6
:0824380018461837bd4680bdaf
:020000040000fa
:1024400080b582b000af786000f0eef900f0a4f83b
:10245000fef7e8fffff778f800f00efbfff700ff4c
:10246000fff716fdfef768fcfef770fbfff724f898
:0824700000bf0837bd4680bd26
:020000040000fa
:1024780070b50a480a4d4ff6ff76016811b94368ee
:1024880003b970bd83684268334000f10c0455f805
:1024980023302046984704eb8000eee74c08000004
:0424a8009c2900006b
:020000040000fa
:1024ac0080b500af0be04ff086439b6a9bb2184699
:1024bc00fef7aefc0346002b01d0fff7effa4ff00e
:1024cc0086431b7edbb203f00403042bebd000bf6e
:0224dc0080bdc1
:020000040000fa
:0224de00704745
:020000040000fa
:1024e00053b94ab9002908bf00281cbf4ff0ff317b
:1024f0004ff0ff3000f00ebbadf1080c6de904cedb
:10250000fef746f8ddf804e0dde9022304b0704789
:020000040000fa
:10251000064b1a680ab9064a1a60064a116809b9d0
:10252000054911601a68054b1a6070479808002029
:10253000b009002094080020b00b00209008002073
:020000040000fa
:1025400080b400af074b084a5a6200bf054b5b6876
:1025500003f00803082bf9d000bfbd465df8047beb
:0c256000704700bf001c00400701020093
:020000040000fa
:10256c0080b400af074b084a9a6200bf054b5b680a
:10257c0003f01003102bf9d000bfbd465df8047baf
:0c258c00704700bf001c0040060130003a
:020000040000fa
:1025980080b500af074b1b681b680021184600f088
:1025a80049fa054b1b681b680021184600f042fadf
:0c25b80000bf80bdbc080020a00900206e
:020000040000fa
:1025c40010b5084c23680bb9fff7a0ff0649226831
:1025d40009681044814234bf4ff0ff322060104636
:0c25e40010bd00bf9008002094080020eb
:020000040000fa
:1025f000802910db812901dd83290cd11368073381
:1026000023f0070303f108011160d3e90023c0e9b7
:0a26100000230120704700207047ee
:020000040000fa
:10261a002de9f0410024804617460e462546bd4264
:10262a0002db2046bde8f081726856f8081b404676
:0a263a00fff705fd01350444f1e748
:020000040000fa
:102644002de9f0410024804617460e462546bd423a
:1026540002db2046bde8f081726856f8081b40464c
:0a266400fff7d0fe01350444f1e752
:020000040000fa
:02266e007047b3
:020000040000fa
:1026700080b400af074b1b6a9b0803f00103002bdb
:1026800014bf01230023dbb21846bd465df8047b6e
:08269000704700bf008000410b
:020000040000fa
:1026980080b483b000af78603960064a7b68136203
:1026a800044a3b68536200bf0c37bd465df8047ba3
:0826b800704700bf1808002064
:020000040000fa
:1026c000eff3108172b6074ad2f8883043f47003f2
:1026d000c2f88830bff34f8fbff36f8f01b962b676
:0826e000704700bf00ed00e0af
:020000040000fa
:1026e80030b57ab101380a4410f8013f0d4633b1cc
:1026f80011f8014b1cb1914201d0a342f4d02a78c1
:08270800981a30bd1046fce7f1
:020000040000fa
:1027100090f948305a1e1343426880f8483012f04e
:1027200004031bbf42f010024260c0e90f334ff0b8
:08273000ff3008bf1846704796
:020000040000fa
:1027380080b500af054b00221a604ff400720021eb
:10274800034800f031f900bf80bd00bfa408002095
:042758000804002051
:020000040000fa
:10275c0080b483b000af78607b68002b02d0044a51
:10276c007b68936300bf0c37bd465df8047b7047f4
:04277c001808002019
:020000040000fa
:1027800080b400af064b00229a60054b1b68044ad8
:1027900043f00103136000bfbd465df8047b704742
:0427a00010e000e065
:020000040000fa
:1027a400074a936823f001039360d36813f0010f81
:1027b400fbd1034b24225a6001229a60704700bf68
:0427c4000060004170
:020000040000fa
:1027c80080b582b000af7860786800f087f803467b
:1027d80019467868fef7e4fc00bf0837bd4680bd9f
:020000040000fa
:1027e80010b5054c22680ab9fff78efe034b18682e
:1027f8002368c01a10bd00bf90080020940800206c
:020000040000fa
:1028080010b50023934206d113f0030018bf01202e
:0e28180000eb930010bdc45ccc540133f2e71a
:020000040000fa
:1028280080b400af044b40f204521a8000bfbd468a
:0c2838005df8047b704700bf00400041c9
:020000040000fa
:1028440098b500af044b1c6900f07af80346e31a0c
:0c285400013b184698bd00bf180800208a
:020000040000fa
:102860005ab110b40a44431e11f8014b03f8014f4a
:0c2870009142f9d15df8044b70477047ad
:020000040000fa
:10287c0013b50446019201aafdf700fd636813f03d
:0c288c00100f18bf4ff0ff3002b010bd5d
:020000040000fa
:102898000eb403b503aa52f8041b019200f0f6f82f
:0a28a80002b05df804eb03b07047c6
:020000040000fa
:1028b40080b400af034b80229a6100bfbd465df82f
:0828c400047b70470080004115
:020000040000fa
:1028cc0080b400af034b00221a7400bfbd465df804
:0828dc00047b7047001400406a
:020000040000fa
:1028e40003783bb1034600bf13f8012f002afbd144
:0828f400181a704718467047de
:020000040000fa
:1028fc0010b50446fff706ff28b9a368e268c4e9df
:08290c0005331344a36210bd62
:020000040000fa
:1029140010b4c46a1cb123465df8044b1847006820
:082924005df8044bfff76ebde6
:020000040000fa
:10292c00044a136823b910600361016001207047e9
:08293c0000207047b4080020e0
:020000040000fa
:1029440080b582b000affff707fc78607b6818465b
:062954000837bd4680bdfe
:020000040000fa
:10295a0010b50023c25ccc5ca24202d10133002a2a
:06296a00f8d1101b10bda6
:020000040000fa
:1029700068076c094c836a9074a07ac000806888ec
:0629800000846c8200815e
:020000040000fa
:102986000068002808b501da002008bdfff717fe29
:06299600431cfad1f8e732
:020000040000fa
:10299c00d929000009280000012b0000012b0000a0
:0429ac00012b0000fb
:020000040000fa
:1029b00032b1c9b20244034603f8011b9342fbd172
:0429c000704700bf9d
:020000040000fa
:1029c40008b500f07ff8024b1860586008bd00bfde
:0429d4009c0800203b
:020000040000fa
:1029d8000a440023914201d10020704701f8013bcd
:0229e800f8e70e
:020000040000fa
:1029ec0053532c46303030303030300d0a0000bf9d
:020000040000fa
:1029fc0053522c32323030303030300d0a0000bfa0
:020000040000fa
:102a0c00534e2c424c4532436c69636b0d0a0000eb
:020000040000fa
:102a1c005355572c324131392c25640d0a0000bf17
:020000040000fa
:102a2c0080b500af0020fff705fdfef7cbfffee7fa
:020000040000fa
:102a3c0000294ff480630cbf02220022fff748ba32
:020000040000fa
:102a4c0008b5fff7b9fffff744fdfff742fd08bdde
:020000040000fa
:0e2a5c0080b400af00bfbd465df8047b70473c
:020000040000fa
:0e2a6a0080b400af00bfbd465df8047b70472e
:020000040000fa
:0e2a780080b400af00bfbd465df8047b704720
:020000040000fa
:0e2a8600a0f14103192b98bf40f020007047cb
:020000040000fa
:0c2a940013460a466ff00041fff7d0b96e
:020000040000fa
:082aa00053462c310d0a000021
:020000040000fa
:082aa800522c310d0a0000bfa1
:020000040000fa
:082ab000414f4b0d0a0000bf6d
:020000040000fa
:082ab8005265626f6f740000ab
:020000040000fa
:082ac000286e696c2900250055
:020000040000fa
:082ac8000048704724090020ba
:020000040000fa
:062ad00080b400affee738
:020000040000fa
:062ad60080b400affee732
:020000040000fa
:062adc0080b400affee72c
:020000040000fa
:062ae20080b400affee726
:020000040000fa
:062ae80080b400affee720
:020000040000fa
:062aee0080b400affee71a
:020000040000fa
:062af4000068fff787bc3b
:020000040000fa
:062afa004ff0ff307047b1
:020000040000fa
:042b000000207047fa
:020000040000fa
:042b040000207047f6
:020000040000fa
:042b080000207047f2
:020000040000fa
:042b0c0000207047ee
:020000040000fa
:042b100000207047ea
:020000040000fa
:042b1400704700bf47
:020000040000fa
:042b180000207047e2
:020000040000fa
:0200000400807a
:044000003912003c35
:020000040000fa
:0200000400807a
:044004008000a82a66
:020000040000fa
:0200000400807a
:04400800ffffffffb8
:00000001FF
