:020000040000fa
:10000000f03f0020555f00007d7500008375000003
:1000100000000000000000000000000000000000e0
:1000200000000000000000000000000007130000b6
:1000300000000000000000000713000089640000b9
:100040000713000007130000071300000713000048
:100050000713000007130000071300000713000038
:100060000713000007130000071300000913000026
:10007000812700000713000007130000071300008a
:100080000713000007130000cd62000007130000f3
:10009000071300000000000000000000071300002c
:1000a00007130000071300000713000007130000e8
:0800b00000000000071300002e
:020000040000fa
:1000b800f8b5c046f8bc08bc9e4670475d5e0000b7
:1000c800f8b5c046f8bc08bc9e467047355e0000cf
:020000040000fa
:0800d800582f00000100000098
:020000040000fa
:1000e000b0b588b000af78600a00bb1c1a801f2032
:1000f0003b1800221a701b23fb1800221a701e23c3
:10010000fb1800221a701423fb1800221a609a8030
:100110000c23fb1800221a609a801d23fb187a68b2
:100120005521525c1a70bb1c1b880822134006d054
:100130003c187b68180003f0b3fc030023707b6855
:100140005522002199541f22bb181b785bb2002b4b
:1001500006d1bc187b68180002f00efe0300237065
:10016000bb1c1b88102213404ed07b684b331900f8
:100170001f257c1978680723002205f0d1f80300b9
:1001800023701c203b1875221a707b191b785bb2f8
:10019000002b0ad17c191b23f9183b181b7801226c
:1001a000180005f037fc03002370bb1c1b881022cd
:1001b000134013d01b203b181b785bb21c229343c7
:1001c0005ab27b684b215b5c9b005bb21c210b40ed
:1001d0005bb213435bb2dab23b181a701e203b18b5
:1001e0001b781422ba181c2179180978d1543b18ad
:1001f0001b781b22ba1811780c22ba18d1543b185c
:100200001a783b1801321a70bb1c1b88202213403d
:1002100048d07b684d3319001f257c197868082366
:10022000002205f07df8030023701c203b1870228b
:100230001a707b191b785bb2002b0ad17c191b2327
:10024000f9183b181b780122180005f0e3fb0300a6
:1002500023701b203b181b785bb2082293435ab2d1
:100260007b684d215b5c5bb208210b405bb21343a2
:100270005bb2dab204003b181a701e203b181b78e0
:100280001422ba181c2179180978d1543b181b780c
:100290003a1911780c22ba18d1543b181a783b1825
:1002a00001321a70bb1c1b880322134064d07b6888
:1002b000493319001f257c1978680523002205f0b1
:1002c0002ff8030023701c203b1874221a707b192e
:1002d0001b785bb2002b0ad17c191b23f9183b1841
:1002e0001b780122180005f095fb03002370bb1c4e
:1002f0001b880122134010d01b203b181b785bb2d7
:100300001f2213405ab27b6849215b5c5b015bb2e0
:1003100013435bb2dab23b181a70bb1c1b88022273
:10032000134013d01b203b181b785bb21c22934355
:100330005ab27b684a215b5c9b005bb21c210b407c
:100340005bb213435bb2dab23b181a701e203b1843
:100350001b781422ba181c2179180978d1543b183b
:100360001b781b22ba1811780c22ba18d1543b18ea
:100370001a783b1801321a70bb1c1b8804221340e8
:1003800048d07b68483319001f257c1978680523fd
:10039000002204f0c5ff030023701c203b187222ca
:1003a0001a707b191b785bb2002b0ad17c191b23b6
:1003b000f9183b181b780122180005f02bfb0300ed
:1003c00023701b203b181b785bb2072293435ab261
:1003d0007b6848215b5c5bb207210b405bb2134337
:1003e0005bb2dab204003b181a701e203b181b786f
:1003f0001422ba181c2179180978d1543b181b789b
:100400003a1911780c22ba18d1543b181a783b18b3
:1004100001321a70bb1c1b88c022134000d178e047
:100420007b684e3319001f257c1978680123002250
:1004300004f076ff030023702a00bb181b785bb220
:10044000002b0ad17b684c331900bc1878680a234a
:10045000002204f065ff030023701c203b1871226a
:100460001a701f22bb181b785bb2002b0ad1bc1874
:100470001b23f9183b181b780122180005f0cafa53
:1004800003002370bb1c1b884022134013d01b2089
:100490003b181b785bb2102293435ab27b684e2103
:1004a0005b5c1b015bb210210b405bb213435bb280
:1004b000dab23b181a70bb1c1b888022134012d082
:1004c0001b203b181b785bb20f2293435ab27b6808
:1004d0004c215b5c5bb20f210b405bb213435bb200
:1004e000dab23b181a701e203b181b781422ba1877
:1004f0001c2179180978d1543b181b781b22ba1893
:1005000011780c22ba18d1543b181a783b180132d2
:100510001a701f22bb181b785bb2002b0cd1bc18c1
:100520001e23fb181a780c23f9181423fb18180043
:1005300002f098fc030023707b681d22ba18552135
:1005400012785a541f23fb181b785bb21800bd4663
:0405500008b0b0bd82
:020000040000fa
:100554000023f0b506001500b1b007910393079985
:100564000b78002b00d10ce101235b420c9310ab00
:1005740000240e9380230b940d940f930b5d002b9a
:1005840001d0252b2ad1002c06d02200300005f002
:10059400b5ff079b1b190793079b1a78252a00d0e0
:1005a400e4e0013304930793022301219c461027be
:1005b400079803782b2b1ad025d8202b1ad0232b5d
:1005c4001dd02a2b28d005f0dffe0d90079b1a784a
:1005d400303a092a31d801330793f7e70134cde7dc
:1005e4000b9b05930b4301300b930790e0e7042327
:1005f4000b9a0fe00b9b0593059a08230ae00b9bcb
:1006040005933b43efe72d2bead0302bd9d162463b
:100614000b9b05931343e6e72b6801301a1d1b68f7
:1006240007902a600d93002b07da0b9a5b42059220
:10063400012205990d934a400b920b9bda0702d5d0
:10064400022293430b93079b1a782e2a0ed1002281
:10065400581c0c9207905a782a2a27d10233079300
:100664002b681a1d1b682a6005930c9307a806f0d3
:1006740039f9079b0700187806f05bff692800d159
:1006840082e034dc632800d1dbe01adc252800d1c9
:10069400e8e0612858d0049b0122079300235242ca
:1006a4000c920b930d9300930232e5e005f06cfe7f
:1006b4000c90079b1a78303a092ad7d8013307934c
:1006c400f7e7642860d06728e5dc2a00390008a829
:1006d40006f0d7fa002800d1afe0079b0ba95a1cfb
:1006e40007921b7808aa300006f053ff3de07028fb
:1006f40000d17de016dc6e2800d197e06f28cad1c6
:100704002b000022390008a802f0d6fd002800d1f1
:1007140093e0079b08aa01330ba93000079306f066
:1007240036ff22e0752840d078284fd07328b2d104
:10073400802f00d081e0079b2a6801330793131da3
:100744002b601268002388e02a00390008a806f00c
:1007540098fa002800d170e0079b0ba95a1c079255
:100764001b7808aa300006f014ff2418039b1c19f8
:10077400a34200dc82e04f22414b1a6001235b421a
:100784000393039831b0f0bd2b000122390008a86f
:1007940002f092fd002850d0079b08aa01330ba950
:1007a4003000079303f072f8dfe72b0000223900d2
:1007b40008a802f081fd00283fd0079b08aa013356
:1007c4000ba93000079306f0e2fecee72b000022cf
:1007d400390008a802f070fd00282ed0079b5a1c8f
:1007e40007921b7808aa0ba9300001f04cfcbce767
:1007f4002b000022f02108a802f05efd00281cd086
:10080400079b099a01330793089b13430cd11d4f8f
:10081400380006f053fd390002000b9b00930d9b3a
:10082400300004f04df9a0e77823dbe7039b39009f
:100834001a1908a82b0004f03dfd079b0133079308
:1008440094e7802ff9d1079b013307932b681a1d76
:100854001b682a6008aa137001230ba9300006f054
:100864009afe82e7802fe8d10122079b0133079388
:100874000b9b049300930d9b0349d1e703946ee60d
:0c088400d4090020647500006a750000b3
:020000040000fa
:1008900090b587b000af7860396000233b610023da
:1008a000fb600023bb6000237b617b681b6c18002e
:1008b00006f0c5fa031c8021c905181c03f00cfdc5
:1008c000031c3b61a649386906f01efe031c3b6110
:1008d0007b6836229b56180006f0b1fa031c902163
:1008e000c905181c03f0f8fc031cfb603969386962
:1008f00002f018ff031c191cf86802f013ff031c18
:10090000fb607b6834229b5e180006f098fa031c9b
:100910003969181c02f006ff031c191c181c01f091
:1009200017fb031c191cf86801f012fb031cfb6089
:100930008121c905f86803f0cffc031c1c1c7b68ef
:1009400032229b5e180006f07afa031c8f21c9053b
:10095000181c02f0e7fe031c191c201c01f0f8fa19
:10096000031cfb607b6830229b56180006f067fa78
:10097000031c3969181c02f0d5fe031c3969181cc8
:1009800002f0d0fe031c8d21c905181c03f0a4fc45
:10099000031c1c1c7b682e229b5e180006f04ffa7d
:1009a000031c3969181c02f0bdfe031c191c201c15
:1009b00001f0cefa031c9221c905181c03f08cfc2f
:1009c000031c3b618e21c905386903f085fc031cbb
:1009d000fe218905181c01f0bbfa031c1c1c7b6856
:1009e0009b8d180006f0befb031c191c201c02f096
:1009f00099fe031c3b61386806f0b4fb031c191c0c
:100a00009320c00506f080fd031c7b61386905f06a
:100a1000fdfc031e00d19ce08b21c905f86803f0a2
:100a20005bfc031c191c786906f06efd031c4d4924
:100a3000181c02f077fe031c3969181c03f04cfceb
:100a4000031c7b617b683a229b5e180006f0f7f975
:100a5000031c7969181c02f065fe031c7969181cd7
:100a600002f060fe031c9e21c905181c03f034fc33
:100a7000031c3b617b6838229b5e180006f0dff99f
:100a8000031c8e21c905181c03f026fc031c191c2d
:100a9000786902f047fe031cfb608721c90578696d
:100aa00003f01afc031c1c1c8721c905786903f09c
:100ab00013fc031c191c201c02f034fe031c1c1c1c
:100ac0008721c905786903f007fc031c191c201c49
:100ad00002f028fe031c1c1c7b683c229b5c180057
:100ae00006f0adf9031c9021c905181c03f0f4fbb6
:100af000031c191c201c02f015fe031cbb60f968c6
:100b0000386901f025fa031cb968181c01f020fab5
:100b1000031c1c1c7b6837229b56180006f08ff9bb
:100b2000031c8621c905181c02f0fcfd031c191cbe
:100b3000201c01f00dfa031c8321c905181c03f0c9
:100b4000cbfb031c191c786901f002fa031c7b61c2
:100b500001e000237b617b69181cbd4607b090bd96
:080b600000007a470050c34574
:020000040000fa
:100b6800840900201c00000000000000c8090020c3
:100b78000400000000000000000000201000000039
:100b880000000000580900202c00000000000000b0
:100b9800280900203000000000000000a009002003
:100ba8000c00000000000000b80900200800000048
:100bb80000000000a808002040000000000000001d
:100bc800b8070020a000000000000000f60900207f
:100bd80002000000010000000100000010000020d9
:100be8000400000000000000dc09002002000000f2
:100bf80000000000e40a00200400000001000000da
:100c0800ffffffff14000020fc00000000000000b0
:100c1800e40900200100000000000000f0060020a8
:100c2800c800000000000000e509002004000000e2
:100c380000000000de0900200200000000000000a3
:100c4800c40500202c01000000000000e00900207d
:100c58000400000000000000e90900200300000073
:100c6800000000001001002001000000000000004a
:100c7800e8080020400000000000000011010020ea
:100c88000200000000000000ec0900200500000040
:100c98000000000014010020a8000000000000006f
:100ca800f10900200500000000000000cc09002028
:100cb8000400000000000000580800205000000058
:100cc80000000000f80900206c000000010000008e
:100cd800040a0020000a0020040a00200000000086
:100ce80025000000c40100200004000000000000ee
:100cf80000000000000000000000000000000000ec
:100d08000000000000000000000000009f750000c7
:100d180000000000000000000000000000000000cb
:100d28005154000000000000000000000000000016
:100d3800000000000000000000000000bc010020ce
:100d48000804000000000000c40a00202000000081
:100d58000100000001000000030000000000000086
:100d6800000000000000000000000000000000007b
:100d7800c0090020c0090020080000000000000091
:100d8800d00900200800000000000000640a0020cc
:100d980060000000010000000100000003000000e6
:100da800000000000000000000000000000000003b
:100db8000000000051570000000000000000000083
:100dc8000000000053750000db3700000000000041
:100dd800000000000000000000000000000000000b
:100de80000000000000000000000000000000000fb
:100df8000000000000000000e80a002004000000d5
:100e08000100000001000000d809002004000000d3
:100e180000000000ac0900200c00000000000000e9
:100e2800000000000000000066666666666666668a
:020000040000fa
:100e380080b582b000affb1d00221a70894b1800e4
:100e480006f030f90ee0fb1d1b78874ad35c1a00c8
:100e5800864b1100180006f025f9fb1d1a78fb1dba
:100e680001321a70824b1b78fa1d12789a42ead323
:100e7800804b180005f06aff7b4b1b78713b292bd0
:100e880000d9e5e09a007c4bd3181b689f46764b47
:100e98009a787a4b9a72794b07221a73dde0774b6e
:100ea80009221a73764b00221a70764b00221a70a8
:100eb8000021754b0a1c1a70744b0a1c1a70002109
:100ec800734b0a1c1a70734b0a1c1a70c5e0664be8
:100ed8005b78382b00d0bde0634b9b78002b00d0ab
:100ee800b8e0674b01221a70b4e05f4b5b78082bbf
:100ef80010d002dc032b09d0afe0092b02d00c2b59
:100f080008d0aae0002006f0adf807e0012006f0be
:100f1800a9f803e0032006f0a5f8c0469de0524b6f
:100f28005b78802b00d097e04f4b9b78802b00d0cc
:100f380092e04d4bdb78092b0dd14b4b1b79012be4
:100f480009d1524b01221a70474bdb78013bdab2c8
:100f5800514b1a7071e0444bdb78092b0ad1424b94
:100f68001b79002b06d1474b00221a70474b0022f1
:100f78001a7062e03c4bdb780c2b0dd13a4b1b7995
:100f8800012b09d1404b01221a70374bdb78013b0a
:100f9800dab2424b1a7050e0334bdb780c2b0ad193
:100fa800314b1b79002b06d1364b00221a70364b79
:100fb80000221a7041e02c4bdb78232b0dd12a4bf1
:100fc8001b79012b09d1324b01221a70264bdb7891
:100fd800013bdab2324b1a702fe0234bdb78232b1c
:100fe8000ad1214b1b79002b06d1264b00221a70ff
:100ff800274b00221a7020e01b4bdb780f2b0dd1fa
:10100800194b1b79012b09d1224b01221a70164b5f
:10101800db78013bdab2234b1a700ee0124bdb7817
:101028000f2b19d1104b1b79002b15d1154b002212
:101038001a70184b00221a700ee00de00c4b1b784a
:10104800023bdab2184b1100180003f061f804e013
:10105800c04602e0c04600e0c046c046bd4602b0f9
:1010680080bdc0463c6f0000f0060020546f0000b1
:10107800e60900205c6f0000443d000000010020ec
:10108800ee090020f5090020f0090020ec090020f5
:10109800ed090020ef090020f1090020f2090020e5
:0c10a800f3090020f4090020f2060020eb
:020000040000fa
:1010b400b0b58eb000af78600c243b19180029231a
:1010c4001a00002106f0bef90b257b1900221a70c4
:1010d4003b1919221900892004f09afc3b19193391
:1010e40010221900e12004f093fc20003b18222276
:1010f4009b5c1b021ab23b1821215b5c1bb213439d
:101104001bb29ab27b68da843b189b781b021ab232
:101114003b185b781bb213431ab27b681a853b18e1
:10112400db7859b27b682a22995401007b189b7999
:101134001b021ab27b185b791bb213431bb29ab21f
:101144007b689a857b181b7a1b021ab27b18db79a1
:101154001bb213431ab27b68da8508007b185b7aea
:1011640059b27b683022995401007b181b7b1b0207
:101174001ab27b18db7a1bb213431ab27b685a8605
:101184007b189b7b1b021ab27b185b7b1bb213433d
:101194001ab27b689a8608003b181b7c59b27b689c
:1011a400362299543b18db7b59b27b683722995419
:1011b4003b181b7d1b021ab23b18db7c1bb213438a
:1011c4001ab27b681a873b189b7d1b021ab23b1824
:1011d4005b7d1bb213431ab27b685a873b18d97dd7
:1011e4007b683c2299543b18db7e1b011ab23b18e6
:1011f4009b7e1bb20f210b401bb213431bb29ab24e
:101204007b681a833b185b7e1b011ab23b189b7eda
:101214001b09dbb21bb213431bb29ab27b685a831d
:101224003b181b7f5ab27b681a773b185b7f5ab214
:101234007b685a773b189b7f5ab27b689a773b1836
:10124400da7f7b68da773b1820229b5c59b27b6893
:10125400202299543b1825229b5c59b27b68212299
:1012640099543b1824229b5c1b021ab23b1823217d
:101274005b5c1bb213431ab27b685a843b18262268
:101284009b5c59b27b68242299547b190122190072
:10129400022004f0bdfb7b191b781a003023134095
:1012a40000d50f331b11d9b27b68442299540b2407
:1012b4003b1901221900002004f0aafb20003b186e
:1012c4001b7859b27b684522995404003b180122cb
:1012d4001900042004f09cfb3b191b785bb21b1122
:1012e40059b27b68462299547b68df211800fef7c7
:1012f400f5fe7b68180001f03dfdc046bd460eb00a
:02130400b0bd7a
:020000040000fa
:02130600fee700
:020000040000fa
:1013080080b584b000af8e4b9b7ddbb2002b00d143
:1013180012e18c4b9b6afb60894b5b8b9bb21a007a
:1013280002231340022b08d1864b2022ff21995417
:10133800844b212202219954b7e0814b5b8b9bb2ed
:101348001a0001231340012b08d17e4b2022ff21d4
:1013580099547c4b212202219954a6e0784b5b8b4f
:101368009bb21a0004231340042b08d1754b20228a
:10137800ff219954734b21220121995495e0714b17
:1013880020229b5c5bb2022b09d003dc002b00d12e
:101398008ae08ae0032b59d0042b14d085e0694bee
:1013a8001b69002b07d0674b9b889bb20021180054
:1013b80004f0def879e0634b9b889bb201211800aa
:1013c80004f0d6f871e05f4b9b69bb605d4b1b690d
:1013d800ba689a4226d15b4b5b69002b11d0594bf6
:1013e8009b889bb25a00564b01210a435a62c04659
:1013f800534bdb69002bfbd1524b2022032199541c
:1014080053e04f4b5a684e4bc02189020a435a6039
:10141800c0464b4bdb69002bfbd14a4b20220621ef
:10142800995442e0474b9a68bb68d318444a1978e4
:101438002823d154bb680133bb60c046404bdb69ed
:10144800002bfbd13f4bba689a612ee03d4bdb691c
:101458007b603c4b5b69013b7a689a420fd1384b01
:101468005a68374be021c9020a435a60c046344bd8
:10147800db69002bfbd1334b202206219954c0464f
:101488002f4bdb69002bfbd12d492e4bda687b688b
:10149800d31828228a5cd2b21a707b6801337b6029
:1014a800284b7a68da6100e0c046264b20229b5c14
:1014b8005bb201331cd1234b202200219954204bcd
:1014c8005a681f4bc02189020a435a60c0461c4b08
:1014d800db69002bfbd11a4b83221a76194b5b6a06
:1014e800002b29d0174b5b6afa681000984723e055
:1014f800144b20229b5c5bb2062b1dd1114b202282
:10150800002199540f4b2122002199540c4b83221e
:101518001a76c0460a4b5b8b9bb21a0030231340e5
:10152800102bf7d1074b5b6a002b05d0054b5b6a84
:10153800fa6810009847c046c046bd4604b080bd52
:081548000010004258090020c8
:020000040000fa
:10155000b0b58a4ca54400af78600c0010001900ab
:10156000874ba62292009446bc446344221c1a80f6
:10157000844ba62292009446bc446344021c1a7019
:101580007e4ba62292009446bc4463440a1c1a7007
:101590007b4ba62292009446bc4463441a88a02345
:1015a0009b009a4208d9764ba62292009446bc44ee
:1015b0006344a02292001a807b68a4229200ba1889
:1015c0001360714ba62292009446bc446344aa2245
:1015d0001a706d4ba62292009446bc4463440022cc
:1015e0005a70674ba62292009446bc4463441b8801
:1015f000dbb20433dab2644ba62189008c46bc44ca
:1016000063449a70604ba62292009446bc446344a3
:101610003822da705c4ba62292009446bc446344a4
:10162000584aa62189008c46bc44624412781a713b
:10163000554ba62292009446bc44634480225a71c2
:10164000514ba62292009446bc4463444b4aa621c7
:1016500089008c46bc44624412789a714a4ba62297
:1016600092009446bc4463449a78474ba621890073
:101670008c46bc446344db78d318dab2424ba621d3
:1016800089008c46bc4463441b79d318dab23e4bc4
:10169000a62189008c46bc4463445b79d318d9b237
:1016a000394ba62292009446bc4463449a79374b46
:1016b000fb188a181a70a5239b00fb1800221a80b9
:1016c00021e0a52080003b181b880733a424a40038
:1016d0003a19126811782c4aa625ad00ac46bc44d4
:1016e0006244d1543b191b685a1c39190a60197895
:1016f000264abb18ba1812788a181a703b181a882a
:101700003b1801321a80a5239b00fa181c4ba62116
:1017100089008c46bc44634412881b889a42d0d30b
:101720001a497b187a18127852421a70144ba62262
:1017300092009446bc4463441b880733124aa62097
:1017400080008446bc44624479180978d1540c4b1b
:10175000a62292009446bc4463441b88dbb2083343
:10176000dab20823fb181100180003f02ff9c04665
:10177000bd46a6239b009d44b0bdc04668fdffff4b
:101780006afdffff69fdffff70fdffff970200008c
:020000040000fa
:10179000f0b58bb000af786039602723fb180022ca
:1017a0001a700823fb1800221a605a609a60111cf4
:1017b00099810e215a542623fb180a221a702722d7
:1017c000bb181b785bb2002b00d0a8e0bc18082522
:1017d0007b190f2219001d2004f01cf9030023704f
:1017e00028003b181b787f229343dab23b681a70bb
:1017f0003b181b780f221340dab23b685a703b1833
:101800005a783b689a703b189b781a033b18db7830
:101810001b0113433a1812791209d2b213433b62e7
:101820003b185b791a033b189b791b0113433a1849
:10183000d2791209d2b21343fb613b181b7a9bb2d7
:101840001b0299b23b185b7a9ab21a243b190a43dd
:101850001a803b185b7b9bb29b0099b23b189b7b29
:101860009b09dbb29ab218257b190a431a803b18f0
:101870009a7b1726bb190f210a401a703b681b7808
:101880005ab23b189b7b5bb220210b405bb21343e7
:101890005bb2dab23b681a703b681b785ab23b18ed
:1018a0009b7b5bb210210b405bb213435bb2dab29d
:1018b0003b681a703b681b785bb2002b2cdafa6924
:1018c0007b681100180003f04bfb03001a003b6813
:1018d0009a803a6a7b6811001800fef7d9ff021c53
:1018e0003b689a603b191a887b681100180000f069
:1018f00091fd02003b68da60bb191a787b191988e0
:101900007b68180000f05afc031c181c05f03afb19
:1019100002003b681a610de00a2003f011f926214c
:101920007b181a787b18013a1a707b181b78002be9
:1019300000d044e72623fb181b78002b03d1272374
:10194000fb1802221a702723fb181b785bb21800c1
:06195000bd460bb0f0bd26
:020000040000fa
:021956007047d8
:020000040000fa
:1019580080b500af02f0f0fe634b1b7b1a00634baf
:101968001b689a420cd0604b1b7b1a00604b11001d
:10197800180005f097fb5c4b1b7b1a005b4b1a6049
:10198800594b1b7b0a2b00d990e09a00594bd3186e
:101998001b689f46584801230122002103f020fcc0
:1019a8000200564b1a60554b1b68013303d1544b48
:1019b800180005f077fb534b0a221a8005f070fcdb
:1019c800494b01221a7384e04e4b1b88002b00d030
:1019d80070e005f059fc04f093fe4a4b64221a802b
:1019e800414b02221a7365e0464b1b88002b63d1da
:1019f800454b802252055a61424b05221a803a4bc8
:101a080003221a7358e03f4b1b88002b56d101f074
:101a18000ffd3c4b64221a80334b04221a734de0ad
:101a2800384b1b88002b4bd102f0d4fa354b64227b
:101a38001a802d4b05221a7342e0324b1b88002b6b
:101a480040d1012003f0b4f82e4b64221a80264bb3
:101a580006221a7336e02b4b1b88002b34d1012049
:101a680002f0ecfb274b64221a801f4b08221a73e2
:101a78002ae0244b1b88002b28d1002002f0defb33
:101a8800204bfa2252001a80174b0a221a731de0c3
:101a98001c4b1b88002b1bd1134b00229a72194b2d
:101aa800c8221a80104b03221a7311e0c04610e0b6
:101ab800c0460ee0c0460ce0c0460ae0c04608e05a
:101ac800c04606e0c04604e0c04602e0c04600e06a
:101ad800c046054b1b7b022b03d905f019fa04f00d
:101ae8007ff9c046bd4680bd00010020e40a002001
:101af800406a0000306c000079720000f00000209d
:0c1b0800546a0000dc0900200044004189
:020000040000fa
:101b140090b589b000aff860b9607a603b601f236c
:101b2400fc1805f015f80300237005e01f23fc18ca
:101b340005f00ef8030023701f23fb181b78012bfc
:101b4400f4d114243b1908224221180003f0e0face
:101b540021007b185a781c203b181a803b183a182d
:101b6400128852011a807b181b78db08dbb299b209
:101b74003b183a1812880a431a803b1800229a5ece
:101b8400fb681a80fb6800229b5e9bb21a008023cc
:101b94005b01134007d0fb6800229b5e3b4a134362
:101ba4001ab2fb681a8014217b18da781c203b18bf
:101bb4001a803b183a18128852011a807b189b78b5
:101bc400db08dbb299b23b183a1812880a431a8030
:101bd4003b1800229a5ebb681a80bb6800229b5e99
:101be4009bb21a0080235b01134007d0bb6800221c
:101bf4009b5e264a13431ab2bb681a8014217b18d1
:101c04005a791c203b181a803b183a181288d201c2
:101c14001a807b181b795b08dbb299b23b183a181f
:101c240012880a431a803b1800229a5e7b681a8045
:101c34007b6800229b5e9bb21a008023db01134069
:101c440007d07b6800229b5e114a13431ab27b685b
:101c54001a8014217b18da791c203b181a803b184f
:101c64003a18128892011a807b189b799b08dbb280
:101c740099b23b183a1812880a431a803b683a18fa
:101c840012881a80c046bd4609b090bd00e0ffff2f
:041c94000080ffffce
:020000040000fa
:101c980080b586b000af4c4b1b78dbb2002b08d167
:101ca8004a4b1b78dbb201225340dbb2002b00d138
:101cb80085e0454b1b78dbb2002b02d0424b00225b
:101cc8001a70434b1b78dbb2002b1fd0414a4249a4
:101cd800424b180005f015fa404b00229a5e10217d
:101ce8007b181a803c4b00229a5e7b185a80394b2d
:101cf80000229a5e7b189a807b18180003f006ff72
:101d080096235b00180002f017ff58e0344b1b784d
:101d1800dbb2002b1fd0334a3349344b180005f08f
:101d2800e1f9324b00229a5e08217b181a802e4b6b
:101d380000229a5e7b185a802a4b00229a5e7b18f2
:101d48009a807b18180003f00bff96235b0018009d
:101d580002f0f2fe33e0264b1b78dbb2002b07d0f3
:101d680001f0c4fbfa235b00180002f0e5fe26e050
:101d7800204b1b78dbb2002b21d01f4b1f4a204978
:101d8800204805f01ef91f4b00229a5e3b001a807e
:101d98001b4b00229a5e3b005a80184b00229a5e29
:101da8003b009a80144b1a883b00da803b001800ed
:101db80001f010fd96235b00180002f0bdfec0463e
:101dc800bd4606b080bdc046ee090020f5090020da
:101dd800ec090020ba01002078010020a2010020af
:101de800f0090020b80100207a0100206c010020d1
:101df800ed090020ef090020700100209c0100205f
:081e0800940100206e0100208e
:020000040000fa
:101e1000f0b591b000af00230024bb63fc63494bd5
:101e2000fb62fb6a5b6bbb62fb6a5a69fb6a1a6105
:101e3000bb6a002b29d0bb6a9b68434a93420fd9e7
:101e4000fb6a5b69bb610023fb613f4b0024b969fe
:101e5000fa69c91862410b001400bb63fc631fe000
:101e6000bb6a9b687b62fb6a5b693b6100237b61a9
:101e70007b6abb600023fb603b697c69b968fa68d8
:101e80005b185441bb63fc630ae0fb6a5b691800a2
:101e9000002319002c4b00241b184c41bb63fc632e
:101ea000fb6a5b689b69984703003b6300237b6385
:101eb000fb6a1b691d0000231e007b6bb34205d328
:101ec0007b6bb3420ad13b6bab4207d23b6b7c6b63
:101ed0001e4900225b1854413b637c63fb6a1b6a0a
:101ee0003b6000237b603b6b7c6b39687a68c91868
:101ef00062410b001400fa6ba24205d3fa6ba242b6
:101f000009d1ba6b9a4206d23a6bfb6a1b6ad218a5
:101f1000fb6ada6102e0ba6bfb6ada61fb6adb69d1
:101f20001b041b0c02d1fb6a0122da61fb6a5b68ad
:101f30005a69fb6adb699bb218009047c046bd46f0
:101f400011b0f0bda8080020ff7f0000ffff0000d7
:020000040000fa
:101f50000122d20703004b403dd430b4431a01d2d2
:101f6000c01ac9184b004400240eff2c29d0002ca5
:101f700024d01b0e20d0e31a182b1ddc09021143bc
:101f8000c40d000210435d4219350a00aa40d2096f
:101f9000d940451801d36d080234013ce405280af4
:101fa0000121c9072d062a438a4160414100090edb
:101fb000ff2901d3c00dc00530bc7047c00fc0075a
:101fc000fae742001823da41ff2af5d07f2000010a
:101fd0000c300005f0e7a4465140431a02d25340aa
:101fe000c01ac9184b00090211431b0e4400240eed
:101ff000ff2c41d0002b10d05b421b19012b10d3ba
:1020000022d1c30d4002401a10d3db050100400a63
:10201000c90591415841644670472442fbd10020d4
:10202000f9e7c30d40024900401af4d00021013104
:102030004000fcd38c4204d95b1adb05400ac0186f
:10204000e9e7180ac007e6e7192be4d801330c00ca
:10205000d940dc414c40012c4941c30d00021043e2
:10206000441a01d4a4006408013bdb05200a2406bd
:102070009441584164467047ff2b01d04102cad0b9
:0a2080007f2000010c300005c5e7c9
:020000040000fa
:10208a00f0b58fb00d934b680c9006938b680d00da
:10209a000793cb6816000393069b0f68002b44db5b
:1020aa0002239f4310233b400a93079b04930a9bf6
:1020ba00002b07d0726833681343079a02d01300c3
:1020ca00023b049308233b400b935a1e9341049a04
:1020da00d31a04933368039a0893736809932b6994
:1020ea005c1e00231355069b0593012c20dc0a9bda
:1020fa00002b51d10b9b002b03d02023039a013cc8
:10210a0013552b6900975a1e039b121b19190c9819
:10211a00079b02f0d2fc0c9b5b68db0503d56b685e
:10212a00984200da18000fb0f0bd01230693b9e710
:10213a00089b099a13430bd1059b002b08dc069ace
:10214a00049b9b1a059a9b18002bd0ddbb07ced5a2
:10215a000f23089a013c134018005730092b01dc61
:10216a00303318000d9b413b192b06d8202303431b
:10217a00613b192b01d805f0e0f9039b1855059b23
:10218a00013b0593099b1a07089b1b091a43099be4
:10219a0008921b090993a8e70cce1343aad0039b04
:1021aa000d9a1b19013b1a703023039a023c1355ee
:0221ba00a0e79c
:020000040000fa
:1021bc0090b587b000af786008001100bb1c021c02
:1021cc001a807b1c0a1c1a7000237b6100233b6164
:1021dc000023fb607b6846229b56180004f029fe06
:1021ec00031c3949181c01f097fa031c7b61374911
:1021fc007869fff7a7fe031c7b617b1c1a78344bb4
:10220c009200d3583349181c02f060f8031c3b6150
:10221c00fe2189053869fff795fe031c3b6179693e
:10222c00386901f079fa031c3b617b1c1a782a4b44
:10223c009200d3582749181c02f048f8031cfb6085
:10224c00fe218905f868fff77dfe031cfb6023491e
:10225c00f86801f061fa031c1c1c7b1c1b78012222
:10226c009a401300180004f0e4fd031c191c201cf8
:10227c0001f052fa031c1c1cbb1c1b88180004f038
:10228c006bff031c8821c905181c05f037f9031cca
:10229c003969181c02f01af8031cfe218905181c58
:1022ac00fff750fe031c191c201c01f035fa031c0f
:1022bc00191cfe20800502f009f8031cbb60bb68ea
:1022cc00181cbd4607b090bd0000a0400080a7447c
:1022dc004c6200000000c8428c620000bd3706341e
:020000040000fa
:1022ec00f0b58fb000af7861002300243b637c63b2
:1022fc00444b3b623b6a5b6bfb620023bb62172463
:10230c001023fb181b19002018707b69002b04d1bb
:10231c001023fb181b191b7870e07b699b68fb6111
:10232c00fb6a002b33d17b69fa699a603b6a7a6944
:10233c005a63172310229446bc44634401221a703a
:10234c0056e0fb6a9b68bb600023fb603b6b7c6bbd
:10235c00bd68fe685b197441f86901000020020039
:10236c00944218d801d18b4215d8fb6a9b683b600c
:10237c0000237b603b6b7c6b3d687e685b19744112
:10238c003b637c63fb6abb62fb6a9b69fb62fb6a17
:10239c00002bd6d100e0c046bb6a002b0dd13b6aa6
:1023ac007a695a637b69fa6a9a61172310229446f8
:1023bc00bc44634401221a7006e0bb6a9a697b69cb
:1023cc009a61bb6a7a699a613b6bfa69d21a7b692a
:1023dc009a607b699b69002b0ad07b699b68fb61c7
:1023ec007b699b6999687b699b69fa698a1a9a600f
:1023fc00172310229446bc4463441b781800bd4636
:08240c000fb0f0bda80800208c
:020000040000fa
:10241400b0b58ab000af78600a00bb1c1a807b6834
:102424001a6c13009b009b1880331b123b62bb1c6d
:102434001a887b681b8b1b01d41a7b681b7f5bb2d9
:102444001a003b6a53436421180001f0cdfc0300d9
:102454005b10e31afb617b685b8b1c007b685b7f12
:102464005bb21a003b6a53436421180001f0bcfcc0
:1024740003001d007b689b7f5bb21a003b6a5343d9
:102484006421180001f0b0fc03001a003b6a5343b6
:102494009b116421180001f0a7fc0300eb188022b3
:1024a400d2019446634463439b12bb61fb69ba69de
:1024b40053437b617b68db7fdb013b617b682022cc
:1024c4009b561a003b6a53436421180001f08cfcac
:1024d40003001a003b69d3181b113b617b699b13f2
:1024e4007a69921353439b12fb603b69fa68534326
:1024f4005b10bb607a69bb68d3189a1213005b0146
:102504009b1a9b009b18db001b137b627b6a084aa7
:10251400934202dd064b7b6204e07b6a002b01da06
:1025240000237b627b6a1800bd460ab0b0bdc0467a
:04253400a08601007c
:020000040000fa
:1025380080b588b000af0200fb1d1a70bb1d0a1cd5
:102548001a70414b1b785bb2012b02d101235b420d
:1025580076e03d4b1b785bb2022b02d001235b4235
:102568006ee0394bdb78002b06d0374b9b78002b7d
:1025780002d001235b4263e0334bdb78002b07d0aa
:10258800fb1d1b780822134002d001235b4257e051
:102598000023bb61ba6913005b009b189b002b4aa0
:1025a8009b18fb612a4b7b6101235b423b617b6982
:1025b8001b78012b04d17b6900221a70012300e0eb
:1025c8000023012b3ad12ee0fb691b7801225340ee
:1025d800dbb2002b21d0fb6901221a70fb690022b3
:1025e8005a60fb69ba1d12789a70174bdb78013371
:1025f800dab2154bda70164bfb60fb68002b01d181
:10260800002303e0fb6801221a700123012b02d08a
:1026180001235b4214e0fb6912e0fb690c33fb61a8
:10262800bb690133bb61bb69002bcdd0084bbb60d4
:10263800bb68002b02d0bb6801221a7001235b42e1
:102648001800bd4608b080bd00010020dc00002055
:04265800fd00002061
:020000040000fa
:10265c0090b583b000af70e0fc1d03f0a9f9030046
:10266c0023703b4b1b78042b5ed89a00394bd31844
:10267c001b689f46fb1d1b78aa2b57d1344b01229c
:10268c001a7053e0fb1d1b78002b03d1304b022238
:10269c001a704ee02e4b00221a704ae02e4b00228c
:1026ac001a702e4b00221a802d4bfa1d12781a70bc
:1026bc002c4bfa1d12781a702b4bfa1d12781a70cb
:1026cc00234b03221a7034e0264b1a78fb1d1b781f
:1026dc00d318dab2234b1a70234b1b78013bdab2b6
:1026ec00214b1a701d4b1b885a1c91b21b4a11802e
:1026fc0019001e4bfa1d12785a541b4b1b78002bd9
:10270c0016d1134b04221a7012e0164b1a78fb1dcb
:10271c001b78d318dbb2002b02d10f4b01221a709d
:10272c000b4b00221a7004e0c04602e0c04600e0e9
:10273c00c046094b1b78002b05d10d4b1b78dbb227
:10274c00002b89d100e0c046c046bd4603b090bd09
:10275c00e50900200c740000e4090020de090020cb
:10276c00e6090020e7090020e8090020f006002017
:04277c001101002027
:020000040000fa
:1027800080b582b000af3e4b9b7ddbb2002b00d109
:1027900071e03b4b1b7edbb21a0080231a40fb1d0d
:1027a000803a51424a411a70354b9b7ddbb21a0088
:1027b00080231340802b05d1fb1d1b78002b01d0fb
:1027c000012200e00022fb1d1a701a7801210a4044
:1027d0001a70fb1d1b78002b01d002f0fdfe284b68
:1027e0001b7edbb21a0001231a40fb1d013a514245
:1027f0004a411a70224b9b7ddbb21a000123134021
:10280000012b05d1fb1d1b78002b01d0012200e01c
:102810000022fb1d1a701a7801210a401a70fb1d54
:102820001b78002b01d000f0adf8154b1b7edbb2fe
:102830001a0004231a40fb1d043a51424a411a70ff
:102840000f4b9b7ddbb21a0004231340042b05d1f0
:10285000fb1d1b78002b01d0012200e00022fb1d94
:102860001a701a7801210a401a70fb1d1b78002b80
:1028700001d001f067f8c046bd4602b080bdc04639
:0428800000140042fe
:020000040000fa
:1028840090b58bb000af78600a00bb1c1a80bb1ceb
:102894001a88c8235b009a4203d9bb1cc822520081
:1028a4001a80192319007b6824229b564b431a0073
:1028b400fa239900100001f097fa03001b027b62cf
:1028c4007b6821229b56c42292009c187b6822229a
:1028d4009b5e2a4a94466344ba1c128853431421cb
:1028e400180001f081fa0300c8229203944663445d
:1028f4000a21180001f078fa030063433b623b6a43
:10290400002b00da01335b101a007b6a9b18fb6111
:102914007b6844229b5c04331900f86901f064fa73
:102924000300bb617b6845229b561a0013009b0180
:102934009b185b009b1880225202944663447b617f
:102944007969b86901f050fa0300fa3b1a001300e0
:102954001b019b185b003b613b6932336421180007
:1029640001f042fa03001a000f217b181a707b1839
:102974001b781800bd460bb090bdc04699590200a3
:020000040000fa
:1029840080b584b000af3c4b1b7ddbb2002b6ed016
:10299400394b9b68bb60384b5a680e23fb18b968e7
:1029a4009142924152421a70344b1b7edbb21a00a0
:1029b40001231a400f23fb18013a51424a411a706d
:1029c4002ee02e4b5b6807221340012b08d02a4bc4
:1029d4001a68bb68d3181a78284b92b21a8507e094
:1029e400254b1a68bb685b00d318244a1b881385df
:1029f400bb680133bb60204b5a680e23fb18b968cf
:102a04009142924152421a701c4b1b7edbb21a0057
:102a140001231a400f23fb18013a51424a411a700c
:102a24000f23fb181b78002b04d00e23fb181b78f4
:102a3400002bc6d1104bba689a600f4b5b68ba681a
:102a44009a4214d30c4b00221a750b4b00225a6085
:102a54000a4b01221a75084bdb68002b07d0064b82
:102a64001b697b60044bdb687a6810009847c0469a
:102a7400bd4604b080bdc0462809002000140042b1
:020000040000fa
:102a840090b58db000afb9607a600f217b18021c3d
:102a94001a707b181b78012b02d0022b45d05fe003
:102aa400314b5b681422b9181522180001f032fd6d
:102ab400031e54d00023fb6211e014243a19fb6a6c
:102ac400d3181b78180004f034fd0300d9b23a1966
:102ad400fb6ad3180a1c1a70fb6a0133fb621424c4
:102ae4003b19180004f0eafb0200fb6a9a42e4d89e
:102af4001e4a3b191100180004f032fc031e05d1d4
:102b04001b4998228023db008b5028e0194a1423a8
:102b1400fb181100180004f023fc031e1fd11449f4
:102b240094228023db008b5019e0bb68022b03d96d
:102b3400bb68032b09d013e00d4998228023db00e6
:102b44008b500d4b01229a7208e00949942280238c
:102b5400db008b50084b00229a72c04600e0c0464e
:102b6400c046bd460db090bd00000020a874000012
:0c2b740000440041b0740000800100200b
:020000040000fa
:102b800080b588b000aff860b9607a603b6001231f
:102b90005b42fb6100237b6102f0f6fb03001a003d
:102ba00001235340dbb2002b01d0fb6959e02f4bce
:102bb0001b785bb2022b51d1bb68002b4ed0ba6898
:102bc000fb689a424ad32a4bbb6143e0bb691b783e
:102bd00001225340dbb2002b36d0bb6901221a70b0
:102be000bb6900225a70bb6900221a75bb690022ba
:102bf0005a75bb692822ba1812789a70bb69ba68ec
:102c00005a60bb697a68da60bb693a681a61ba6867
:102c1000fb68d21abb699a60164b1b887a6992b21c
:102c20001100180004f0f8f80200bb69da61114bda
:102c30001b88180003f030fd03001a000d4b1a80aa
:102c4000bb69db69fb6109e07b6901337b61bb69bf
:102c50002033bb61ba69084b9a42b7d303f04cfaf0
:102c6000fb691800bd4608b080bdc046a80800201a
:0c2c7000b8070020f609002058080020da
:020000040000fa
:102c7c00b0b588b000af7860374bfb617b68bb6147
:102c8c00bb691a68fb695a60fb695b68db6898472b
:102c9c000200fb69da60fb69db681c0000231d0085
:102cac00c82200232000290003f086fa03000c0040
:102cbc003b617c6138697969284a002303f080fb09
:102ccc0003000c0019002200022300245b1854415d
:102cdc00bb60fc60ba68fb691a62bb6904229a5635
:102cec00fb691a72fb6900221a61fb691c4a9a6122
:102cfc00fb691c4ada61fa69002300249362d462ee
:102d0c00fb6900225a63fb69302200219954fb694c
:102d1c005b681b68144a002110009847fb695b68cc
:102d2c001b69002b07d0fb695b681a69fb699b69ff
:102d3c009bb218009047fb695b685a69fb69db69b9
:102d4c009bb218009047fb695b685b689847c0466c
:102d5c00bd4608b0b0bdc046a8080020006cdc021f
:0c2d6c00ffff0000ff7f0000393f000067
:020000040000fa
:102d7800f0b585b000af78600f23fb1800221a70f9
:102d88000e23fb1800221a700c23fb1874221a70e9
:102d98000f26bc190d257b1901221900742002f099
:102da80035fe0300237034003b191b785bb2002bff
:102db8001fd128003b181a780e257b1903210a40d9
:102dc8001a707b191b78002b13d03b181b78032231
:102dd8009343dab23b181a703c1939180c23fb18c4
:102de8000122180000f03af8030023700a2001f0cd
:102df800a3fe0e23fb181b78002bc9d17b68552234
:102e08009b5c002b22d00d203b181b785bb2032261
:102e180093435ab27b6855215b5c5bb203210b403c
:102e28005bb213435bb2dab23b181a700f22bb18bd
:102e38001b785bb2002b09d1bc1839180c23fb187e
:102e48000122180000f00af8030023700f23fb1872
:0c2e58001b785bb21800bd4605b0f0bd51
:020000040000fa
:102e6400f0b591b000aff860b960fb1d1a703f2354
:102e7400fb1800221a701023fb18180028231a00cc
:102e8400002104f0dffafb1d1b78002b4ed0fb1d44
:102e94001b78132b4ad83c23fb1800221a801be012
:102ea4003c203b181b88fa68d2183b181b885b002f
:102eb400117810243a19d1543b181b88ba68d218d7
:102ec4003b181b885b00013311783a19d1543b1825
:102ed4001a883b1801321a80fb1d1b789bb23c22d6
:102ee400ba1812889a42dbd33f257b191b785bb250
:102ef400002b20d110217b181878fb1d1b789bb266
:102f0400db189bb2013b9ab23b26bc197b180133f8
:102f1400190001f071fa03002370bb191b785bb22e
:102f2400002b08d07b19fe221a7004e03f23fb1803
:102f3400fc221a7000e0c0463f23fb181b785bb2ea
:082f44001800bd4611b0f0bdfc
:020000040000fa
:102f4c0080b584b000af78600a00bb1c1a800f23d8
:102f5c00fb1801221a700e23fb182e4a12781a70d5
:102f6c000c23fb182c4a12881a802a4b1b78022b34
:102f7c0044d034e07b685a1c7a60274a1288511c72
:102f8c0088b2254908801978244b9954224b1a8809
:102f9c002c23ff339a4202d91f4b00221a801e4b5e
:102fac001a881f4b1b889a4216d1bb1c1b88002bfe
:102fbc000ed00f23fb1800221a70164b0e22ba18d3
:102fcc0012781a70144b0c22ba1812881a800de061
:102fdc00104b02221a7009e00e4b01221a70bb1c16
:102fec001b88ba1c591e1180002bc3d10f23fb1850
:102ffc001b78002b06d002f0cbfe03e00f23fb184e
:10300c0000221a700f23fb181b781800bd4604b061
:10301c0080bdc046e9090020e0090020c40500205d
:04302c00e209002095
:020000040000fa
:10303000f0b5060085b00f0015001c008b4265d866
:1030400001d1824262d82100280004f069f93900d8
:103050000090300004f064f9009b21001b1a1a0054
:103060002800039304f050f900900191019bbb42aa
:1030700046d802d1009bb34242d8009b019c039ae0
:1030800001200021f61aa74104f03ef9039b002b12
:103090002fd0019b009adb0754081c43019b5d085d
:1030a000039b9c46bd422ed801d1b4422bd832009e
:1030b0003b00121bab41012692185b410027b6185a
:1030c0005f4101235b429c446346002bead1801997
:1030d0007941039a04000d003000390004f008f92a
:1030e000039a06000f0004f00ff9241a8d41200006
:1030f00029000a9b002b01d01e605f6005b0f0bd67
:1031000000200021c2e7b6197f41dae70020002144
:02311000efe7e7
:020000040000fa
:02311200704704
:020000040000fa
:1031140090b583b000af02003960fb1d1a70fb1d2f
:103124001b787f2b28d82f4afb1d1b785bb29b088a
:10313400c0339b009b58fa1d1278110003220a40e9
:10314400d200ff2191400a00d2431a4011003b688b
:103154009b01ff221a40fb1d1b7818000323034028
:10316400db009a401f48fb1d1b785bb29b080a4397
:10317400c0339b001a5031e01b4afb1d1b78190019
:103184000f230b40083b9b0806339b00d3180433e2
:103194001b68fa1d1278110003220a40d200ff2195
:1031a40091400a00d2431a4011003b689b01ff2260
:1031b4001a40fb1d1b78180003230340db009a40d0
:1031c4000948fb1d1b781c000f232340083b9b0868
:1031d4000a4306339b00c31804331a60c046bd4635
:0c31e40003b090bd00e100e000ed00e051
:020000040000fa
:1031f00080b500af2f4b802252051a602d4b2e4a0e
:103200001a612c4a4c230121d1542a4a4d2305210d
:10321000d154284a54230121d154264a552301214f
:10322000d154244a56230121d154224a5c2300213f
:10323000d154204a36232221d1541e4a3a23332125
:10324000d1541c4a3b230321d1541a4a3e23002166
:10325000d15418498022a023db008b5015499022bd
:10326000d0231b018b50134ac2230221d154114a8f
:10327000c8230021d1540f4aca230021d1540d4a3a
:10328000cb230621d1540b4ad6230121d154094a1c
:10329000b1230021d154074ab4230021d154054a57
:1032a000b5230021d154034abb230321d154c04686
:0c32b000bd4680bd00440041002000101d
:020000040000fa
:1032bc0010b588293cd015dc81294dd003dc802940
:1032cc004ad0002010bd822911d08429f9d1196867
:1032dc00002a26d00a1d1a6000228b5e0360db17c1
:1032ec00436011e0a02930d010dc9029e9d1196895
:1032fc000724002a2ed00919a1430a0008321a60ab
:10330c000b684c68036044600120dbe7c02901d0e6
:10331c00f029d6d11a68111d1960136803600023b7
:10332c00dee70c1d1c600b689bb203604260ebe790
:10333c001968002a04d00a1d1a600023cb56cde769
:10334c000c1d1c600b68dbb2efe71a68111d1960cd
:10335c001368c3e70731cfe71968002a03d00a1da9
:0e336c001a600b68bae70c1d1c600b68dde7e9
:020000040000fa
:02337a0070479a
:020000040000fa
:10337c0080b588b000af786039601f23fb1800223d
:10338c001a707b687b617b683b610023bb610e23f9
:10339c00fb1800221a807b68002b3ed002f084fac6
:1033ac002de0c046204b1b7edbb21a0004231340d9
:1033bc00f8d01d4b5b8b9ab20e203b1807210a40ac
:1033cc001a803b181b88002b1ed1174b5b680722f9
:1033dc001340012b08d0144b1b8d99b27a69bb6931
:1033ec00d318cab21a7007e00f49bb695b003a697f
:1033fc00d3180a8d92b21a80bb690133bb61ba69ca
:10340c003b689a42cdd300e0c0463a68bb699a4209
:10341c0003d11f23fb1801221a701f23fb181b78e2
:0c342c001800bd4608b080bd001c004226
:020000040000fa
:1034380080b58eb000af3b1d180032231a00002162
:1034480003f0feff3b1daa221a703b1d18229a703a
:103458003b1d1122da703b1d01221a713b1d02220d
:103468005a713b1d01229a713b1d0522da713b1de1
:1034780011221a723b1d07225a723b1df0229a72c2
:103488003b1d5a22da723b1dba221a733b1dc02219
:103498005a733b1d39229a733b1d3622da733b1d42
:1034a80011221a743b1de5225a743b1d87229a7417
:1034b8003b1da622da743b1d02225a753b1da5222c
:1034c8009a753b1dd522da753b1dc5221a763b1d20
:1034d8001b225a763b1d04229a763b1d1b2118009d
:0c34e80001f070fac046bd460eb080bd79
:020000040000fa
:1034f40080b586b000af3b0000221a605a609a6023
:10350400da601a611a75244b180003f07ffe021c5e
:10351400224b1a60204b180003f085fe021c1f4b3f
:103524009a601d4b180003f08bfe021c1b4b5a6063
:103534001a4b1a783b001a70194b1a783b005a70d0
:10354400184b1a783b009a70174b1a783b00da70c4
:103554003b0000221a713b0000225a713b000022fa
:103564009a713b000022da710c4b9b68181c03f023
:1035740007fd0300dab23b001a723b000d225a72b7
:103584003b000a229a723b00180003f077f9c04608
:10359400bd4606b080bdc04614010020a401002031
:0c35a400a5010020a8010020a9010020c2
:020000040000fa
:1035b00080b500af03f09efc01f0e2fd244b1b78c8
:1035c000012b14d0022b29d0002b37d12148012305
:1035d0000122002101f008fe02001f4b1a601e4b61
:1035e0001b6801332cd01a4b01221a7028e003f01b
:1035f000f3fd0300032b25d103f028fd174b180022
:1036000003f07cfa164b180003f02cfc154b180045
:1036100003f0dcfb0e4b02221a7013e0fef73cfbba
:103620000b4b1b89002b0fd10f4b5b68180003f06d
:10363000e3fe074bfa2252001a8105e0c04604e07f
:10364000c04602e0c04600e0c046c046bd4680bd60
:1036500080010020816100009801002014010020f9
:0c366000b0010020a001002000000020ac
:020000040000fa
:10366c0080b586b000af786039601723fb18002254
:10367c001a7000233b617b68002b42d0244b1b7dce
:10368c00dbb201225340dbb2002b3ad0204b7a68dc
:10369c001a601f4b3a685a601d4b01221a751c4b5d
:1036ac005b68fb6017e01b4b5b6807221340012b28
:1036bc0007d07a683b69d3181a78164b92b21a85e0
:1036cc0006e03b695b007a68d318124a1b881385a5
:1036dc003b6901333b610f4b1b7edbb21a000123ac
:1036ec001340012b03d13a69fb689a42dbd3084b98
:1036fc003a699a60074b01229a751723fb1801222d
:10370c001a701723fb181b781800bd4606b080bd35
:08371c002809002000140042fe
:020000040000fa
:1037240030b405004d400124e407254042004b001d
:10373400120e32d01b0e3cd0ff2a33d0ff2b3fd0c9
:10374400d21800022043000a09022143090ac4b224
:103754004c43000ac3b24b43000a4843210a5b1896
:10376400190a091801d44900013a080a7f3a2adbe8
:10377400fe2a0fd2d2051c43240601d00124214382
:10378400c9b280295041802901d140084000284312
:1037940030bc7047ff20c005f9e71b0eff2b0ad091
:1037a4002800f5e7400206d1ff2bf3d1490202d1ec
:1037b400f0e7ff2af4d17f2000010c300005e7e791
:1037c4004902f8d1e6e743020132e9d15b12023340
:0637d400e6d9d805e4e788
:020000040000fa
:0237da00704736
:020000040000fa
:1037dc0080b588b000af78607b680221180001f0da
:1037ec0021fa7b680221180001f01cfa7b68022187
:1037fc00180001f017fa7b6806330221180001f05b
:10380c0011fa7b68bb611f23fb1800221a7016e0ab
:10381c0017203b181f217a18127802321a703b18a5
:10382c001b78ba69d21808007b181b7811780c2207
:10383c00ba18d1543b181a783b1801321a701f234e
:10384c00fb181b78052be3d9bb691a780c217b1864
:10385c009a71bb695a787b18da71074b5868074b19
:10386c001b787918082202f02dff054b01221a70e3
:10387c00c046bd4608b080bd00000020f409002001
:04388c00f50900201a
:020000040000fa
:10389000f0b54b6889b005930b6807009c46079309
:1038a000cb680c008e68049310685168cd0f44d02b
:1038b0000b000200002150429941059b002b08dbc0
:1038c0000222634693430793002d02d1079b5a07b8
:1038d0002ad5731e07aa02920a22009301920b00b6
:1038e0000200200001f0e0f9002d02d1079b5a07e9
:1038f0001ed501382d23002d00d1023b049a13540c
:1039000023695a1e049b121a1918079b380000934a
:10391000330001f0d7f87b68db0503d56368984274
:1039200000da180009b0f0bd1b07db0ff31ad1e76e
:103930001b07e5d501382023e0e7059b002bbfda04
:02394000c4e7da
:020000040000fa
:1039440080b584b000af284b2c229b5cdbb2002beb
:1039540046d0254bdb69fb60234b1b6afa689a420d
:103964003ed9214b9b6abb60204abb1d128d1a8035
:103974001d4b1b6a3b601d4b5b6807221340012be8
:1039840008d0194b9a693b68d318ba1d1288d2b271
:103994001a7007e0144b9a693b685b00d318ba1d90
:1039a40012881a803b6801333b600f4b3a681a62f5
:1039b4000d4bdb693a689a4212d10b4b2c22002141
:1039c4009954094b0022da61084b84221a75064b7c
:1039d4005b6a002b04d0044b5b6aba6810009847fa
:1039e400c046bd4604b080bd280900200014004232
:020000040000fa
:1039f400f0b587b000af7860274b7b6100233b6153
:103a04000f23fb1800221a707b695b689b69984737
:103a140003001a007b695a617b695b69180002f034
:103a24004ffa03003b613b69180001f03bfb0e2396
:103a3400fc1803f057fd030023707b69dc6a9b6a62
:103a44003a691500002216005b1974417a69936281
:103a5400d4620e257b191b78180003f063fb0f2634
:103a6400bc197b681800fef73ffc03002370bb19e8
:103a74001b78002b0bd07c1903f034fd030023705a
:103a8400fef7c4f97b191b78180003f04bfbc04602
:0c3a9400bd4607b0f0bdc046a8080020e9
:020000040000fa
:103aa000b0b584b000af78600f23fb1800221a7005
:103ab0000c243b1900221a8008257b1900221a8049
:103ac0007b6855229b5c012b22d13b195a221a702c
:103ad0007b6850229a5a7b6811001800fef7d2fecc
:103ae00003001a007b191a703b1964225a707b6814
:103af00052229a5a7b681100180001f011f9030054
:103b00001a007b195a707b684c220021995403e0fb
:103b10000f23fb1801221a700f22bb181b785bb20f
:103b2000002b0ad1bc180823f9180c23fb18022219
:103b30001800fff797f9030023700f23fb181b7879
:0a3b40005bb21800bd4604b0b0bd32
:020000040000fa
:103b4c0090b585b000af78607b68180001f0a6fadc
:103b5c0000f0acfd0f23fb1800221a7038e00f2187
:103b6c007b181b781f4a5b01d31815331b78dbb20b
:103b7c00002b27d07b181b781a4a5b01d3181533fe
:103b8c0000221a707b181b78164a5b01d31802337b
:103b9c001b78012b16d17b181b780c007a18107827
:103bac00104a5b01d31804331a680e494301cb1831
:103bbc0008331a603b191b785a010a4bd3181800aa
:103bcc00fef78efb0f217b181a787b1801321a70c6
:103bdc000f23fb181b78042bc1d9c046bd4605b07a
:083bec0090bdc046b80700209f
:020000040000fa
:103bf40090b585b000af78600023bb600f243b19fb
:103c040001221a7001f0befb03001a000123534085
:103c1400dbb2002b02d03b191b7837e07b6818001d
:103c240001f022ff0300bb60bb68002b29d0bb68f6
:103c34005b7801225340dbb2002b1ed0bb689b682b
:103c4400002b03d1bb685a68bb689a60114b3022c1
:103c54009b5c002b04d1bb681800fff7c9fe03e08e
:103c6400bb681800fef740fbbb6800221a75bb68ee
:103c740000225a75bb6801225a700f23fb180022d8
:103c84001a7002f037fa0f23fb181b781800bd4690
:083c940005b090bda808002056
:020000040000fa
:103c9c0080b582b000af244b01225a70224b002217
:103cac001a70214b0022da701f4b00221a721e4b25
:103cbc0000229a7202f03efd1b4b00221a7302f096
:103ccc001dfd03f02df803f017f8184b7b607b6893
:103cdc00002b01d1002303e07b6801221a70012321
:103cec00012b1ad1124b1b7801225340dbb2002b53
:103cfc000fd0104b3b603b68002b01d1002303e03d
:103d0c003b6801221a700123012b08d1084b0122b8
:103d1c001a70054b02221a7002e0c04600e0c04641
:103d2c00bd4602b080bdc046000100200901002044
:083d3c00fc000020fd00002046
:020000040000fa
:103d4400960e0000a60e0000581000005810000047
:103d540058100000581000005810000058100000bf
:103d640058100000581000005810000058100000af
:103d7400581000005810000058100000d60e000023
:103d8400f20e0000581000005810000058100000f7
:103d9400581000005810000058100000581000007f
:103da400581000005810000058100000581000006f
:103db400581000005810000058100000581000005f
:103dc400581000005810000058100000581000004f
:103dd400581000005810000058100000260f000072
:083de40058100000441000001b
:020000040000fa
:103dec00002941d010b4041c4c40a44601230022ed
:103dfc00002900d54942002800d5404288422cd3e6
:103e0c0001242407a14204d2814202d209011b01e0
:103e1c00f8e7e400a14204d2814202d249005b00df
:103e2c00f8e7884201d3401a1a434c08a04202d347
:103e3c00001b5c0822438c08a04202d3001b9c0888
:103e4c002243cc08a04202d3001bdc0822430028ea
:103e5c0003d01b0901d00909e3e7101c6446002cb0
:103e6c0000d5404210bc704701b5002003f094fb14
:103e7c0002bdc0460029f7d003b5fff7b3ff0ebc57
:083e8c004243891a1847c046a1
:020000040000fa
:103e940080b588b000af7860254b3b613b695b6bb4
:103ea400fb610023bb611723fb1800221a703b69d6
:103eb4005b6bfb6104e0fb69bb61fb699b69fb61b4
:103ec400fb69002b03d0fa697b689a42f3d1fb6942
:103ed400002b03d11723fb181b7825e07b689b6913
:103ee400002b0ad07b689b68fb607b689b699968a0
:103ef4007b689b69fa688a189a60bb69002b09d1b0
:103f04003b695b6b9a693b695a631723fb1801226f
:103f14001a7003e07b689a69bb699a617b68002226
:103f24009a611723fb181b781800bd4608b080bda2
:043f3400a8080020b9
:020000040000fa
:103f3800f0b587b000af78603960254b7b617b694d
:103f48005b6b3b610023fb607b695b689b699847ff
:103f580003001a007b695a617b695b69180001f0ec
:103f6800adff0300fb607b69dc6a9b6afa68150099
:103f7800002216005b1974417a699362d4623b6926
:103f8800002b13d07b6930229b5c0133d9b27b694b
:103f980030229954fb681800fff7d4fd7b69302262
:103fa8009b5c013bd9b27b69302299540b257c1963
:103fb80003f096fa03002370fdf726ff7b191b78a0
:103fc800180003f0adf8c046bd4607b0f0bdc046c6
:043fd800a808002015
:020000040000fa
:103fdc0080b584b000af3b00aa221a703b000022cf
:103fec005a703b000b229a703b001322da703b0094
:103ffc0006221a713b0040225a713b0000229a7132
:10400c003b000022da713b0000221a723b000022b6
:10401c005a723b0000229a723b000022da723b007b
:10402c0000221a733b0000225a733b009a783b0023
:10403c00db78d318dab23b001b79d318d9b23b002a
:10404c005a790f203b188a181a7001007b187a18bd
:10405c00127852421a703b007a1812789a733b000d
:10406c000f21180000f0acfcc046bd4604b080bd6a
:020000040000fa
:10407c0080b582b000af78600a00fb1c1a707b68b8
:10408c001a1d7b6811001800fdf77cfb7b6855221c
:10409c009b5c012b03d17b681800fef767fefb1cb1
:1040ac001b78012b0cd17b6808229b5e180002f058
:1040bc00c0fe031c1349181c00f008f9031c1de07a
:1040cc00fb1c1b78022b07d17b68db680d49181c85
:1040dc0000f0fcf8031c11e0fb1c1b78032b0bd12c
:1040ec007b681b69180003f037f8031c0649181c81
:1040fc0000f0ecf8031c01e0fe239b05181cbd46e8
:0c410c0002b080bd0000c84200007a44f0
:020000040000fa
:1041180080b584b000af78600a00fb1c1a700f23ca
:10412800fb1800221a7026e01c4b1b68c72b1ad8f4
:104138007b685a1c7a601a4a12681978194b995484
:10414800164b1b685a1c154b1a60154b1b68c62b5f
:1041580005d8134b1b685a1c114b1a6005e0104b0d
:1041680000221a6001e0002313e00f217b181a785f
:104178007b1801321a700f23fa18fb1c12781b786f
:104188009a42d1d3fb1c1b781900012001f02af9af
:1041980001231800bd4604b080bdc046f4000020cd
:0841a800f800002014000020c3
:020000040000fa
:1041b00080b500af1f4b204a1a601e4b1f4a9a81e0
:1041c0001c4bc02292025a60c0461a4bdb69002b7e
:1041d000fbd1184b1a68174b02210a431a60c046dc
:1041e000144bdb69002bfbd1154b00229a61144b59
:1041f0000022da61124b00221a62114b2c2200219c
:1042000099540f4b00225a620d4b00221a600c4b3e
:1042100000225a600a4b00229a60094b00221a754c
:10422000074b0022da60064b0022da85c046bd4605
:1042300080bdc04600140042040131402bf6ffff50
:044240002809002029
:020000040000fa
:1042440090b587b000af0200fb1d1a700c217b18db
:10425400aa221a707b1800225a707b1804229a70c2
:104264007b183522da701a4b9a7a7b181a71fb1d67
:104274001b781a0008003b185a713b1800229a71e7
:104284003b189a783b18db78d318dab23b181b79c1
:10429400d318dab23b185b79d318d9b23b189a79a0
:1042a40017243b198a181a7021007b187a1812787f
:1042b40052421a703b187a181278da713b180821a6
:1042c400180000f081fbc046bd4607b090bdc04653
:0442d40000010020c5
:020000040000fa
:1042d80030b405004d400124e407254042004b005e
:1042e800120e26d01b0e34d0ff2a2dd0ff2b35d02e
:1042f800d21a000220430902214343084908a00dad
:104308005b1a02d2013a5b005b185b008b4200d358
:104318005b1a4041f9d37f3222ddff2a06d2d2054b
:10432800c91a8b425041284330bc7047ff20c00552
:10433800f9e71b0e03d0ff2b12d1490210d07f20c2
:1043480000010c300005efe74002f8d1ff2bedd15a
:10435800f5e7ff2aead14002f1d1e7e74902eed1b9
:044368002800e1e761
:020000040000fa
:10436c0080b582b000af1c4b1b78002b26d01b4baa
:10437c001b885a1c91b2194a11801900fb1d184a4e
:10438c00525c1a70154b1a882c23ff339a4202d9af
:10439c00124b00221a80134b1a88104b1b889a421e
:1043ac0003d10d4b00221a7002e00b4b01221a7044
:1043bc00fb1d1b78180002f0c0fe09e00a4b1b78ad
:1043cc00022b05d1084b03221a70084b0a221a70d3
:1043dc00c046bd4602b080bde9090020e2090020bc
:1043ec00c4050020e009002010010020eb0900208a
:020000040000fa
:1043fc0080b59cb000af39601100fb1d021c1a7017
:10440c003b1d0a1c1a800823fb18fa1d12781a701f
:10441c006e23fb1800221a8015e06e203b18002238
:10442c009b5e3a68d2183b1800215b5e0133117811
:10443c000822ba18d1543b1800229b5e9bb2013360
:10444c009ab23b181a806e23fb1800229a5e3b1d11
:10445c001b889a42e1db3b1d1b8801331a000823a1
:10446c00fb181900762002f081f9c04601f01cfe01
:0e447c00031efbd100231800bd461cb080bdfe
:020000040000fa
:10448c00b0b584b000afb9607a603b600e23fb1806
:10449c00021c1a801c4b20229b5c5bb2002b01d0af
:1044ac0000232de0184b0e203a1812889a80164bd8
:1044bc003a68da60144b3a6a5a61134bba689a60dc
:1044cc00114b7a681a61104b1c2408257a191219a1
:1044dc0012789a700c4b202208218c46bc44624402
:1044ec0012781a70084b2122002199547b191b1940
:1044fc001a783b181b881100180001f037f80123bb
:0c450c001800bd4604b0b0bd58090020e6
:020000040000fa
:1045180080b584b000aff860b960bb1d1a801c4b31
:104528001b68002b2ed025e01a4b1a68bb68591c53
:10453800b96019498a5c1a70bb6800221a70144b5a
:104548001b685a1e124b1a60124b1b68c62b05d8e3
:10455800104b1b685a1c0f4b1a6002e00d4b0022cf
:104568001a60bb1dba1d1288013a1a80bb1d1b8830
:10457800002b04d0064b1b68002bd5d100e0c046a9
:10458800012300e000231800bd4604b080bdc046ea
:0c459800f4000020ec00002014000020c3
:020000040000fa
:1045a400002934d00123002210b488422cd30124e2
:1045b4002407a14204d2814202d209011b01f8e777
:1045c400e400a14204d2814202d249005b00f8e730
:1045d400884201d3401a1a434c08a04202d3001b5c
:1045e4005c0822438c08a04202d3001b9c0822438f
:1045f400cc08a04202d3001bdc082243002803d0cd
:104604001b0901d00909e3e7101c10bc704701b570
:10461400002002f0c5ff02bd0029f8d003b5fff762
:0c462400c1ff0ebc4243891a1847c04673
:020000040000fa
:1046300080b586b000af786039601723fb18002280
:104640001a707b68fb607b68bb6000233b617b6802
:10465000002b28d01fe0c046164b1b7edbb21a0091
:1046600001231340f8d0134b5b6807221340012b42
:1046700007d0fa683b69d3181a780e4b92b21a85a4
:1046800006e03b695b00ba68d3180a4a1b881385a9
:104690003b6901333b613a693b689a42dbd317239c
:1046a000fb1801221a701723fb181b781800bd464f
:0846b00006b080bd001c0042b1
:020000040000fa
:1046b80080b582b000af1f4b3b603b685b6b7b6093
:1046c8002fe07b689b68002b2fd17b6801221a752d
:1046d8007b6801225a757b689b78002b09d17b681f
:1046e800db68002b05d07b68db69180000f0eaf86e
:1046f8000ae07b681800fff7c9fb7b689b78002bf2
:1047080002d17b6800225a707b68db68002b05d0d9
:104718007b68da687b681b69180090473b685b6bad
:104728007b607b68002bccd100e0c046c046bd460c
:0847380002b080bda8080020ba
:020000040000fa
:1047400080b500af1b4b1b78002b02d0012b13d080
:104750002de0194b0021180002f096fb174b0021a9
:10476000180002f0a3fb164b0121180000f0c0fb5b
:10477000104b01221a701ae0124b1b78dbb21a00a0
:1047800001231340012b11d102f022fe03001a0075
:1047900001235340dbb2002b08d0fff7e7fd094ba4
:1047a0001b78dbb2013bdab2064b1a70c046c0463a
:1047b000bd4680bde8080020616f00005152000036
:0847c000240900201201002071
:020000040000fa
:1047c800f0b51600050002278369426987b0029395
:1047d800d31a03939b1904910596019302ac3a00ee
:1047e8002100286802f0dafa019b984208d1ab68e8
:1047f800ea68ab619a18aa626b61300007b0f0bd35
:1048080000280cda102200236968ab620a43ab6106
:104818006b616a60022f12d06368f61aede7019b9c
:104828001b1a01936368984202d9c01a0834013fe1
:1048380023681b1823606368181a6060cfe71e009e
:02484800dbe7ac
:020000040000fa
:10484c0080b582b000af1c4b9b8c9bb21a4a802166
:10485c008b439bb29384c046174bdb6810221340ea
:10486c00102bf9d1154b1b689b0e7b607b683f2b83
:10487c0001d07b6800e01f237b607b689b021b04dc
:10488c001a0c0d4b802189000a439a62c0460a4bd0
:10489c00db6810221340102bf9d1074b02229a84ab
:1048ac00c046054bdb6810221340102bf9d1c046d3
:1048bc00bd4602b080bdc0460008004024608000a8
:020000040000fa
:1048cc0090b585b000af78600023bb600f243b1916
:1048dc0001221a7000f052fd03001a00012353400c
:1048ec00dbb2002b02d03b191b7825e07b6818004b
:1048fc0001f0b6f80300bb60bb68002b17d0bb6897
:10490c005b78002b06d0bb681800fff7bdfabb68bc
:10491c0000225a70bb6800221a75bb6800225a75b7
:10492c00bb6800221a700f23fb1800221a7001f0ca
:10493c00ddfb0f23fb181b781800bd4605b090bd9e
:020000040000fa
:10494c001e4bf0b51c68231e0dd000222100150053
:10495c0013000f68bc460f6984450bd1002a06d0a2
:10496c0017610b0010331800f0bd3900f1e7134b41
:10497c001f60f6e7844504d9002b1ad01e68b44595
:10498c0017d30a00002ff0d1002becd01f001a68af
:10499c001969121a1037102a05d9186038180161d4
:1049ac000100103a02609c4206d1044b19603b0096
:1049bc00d9e715000b00e4e72961f8e7d8090020d6
:020000040000fa
:1049cc0090b585b000af78600a00fb1c1a700f23fd
:1049dc00fb1800221a70164b180002f061fb10e055
:1049ec000f243b191b787a68d3181b781a00114bcb
:1049fc001100180002f054fb3b191a783b190132d4
:104a0c001a700f23fa18fb1c12781b789a42e7d302
:104a1c00094b180002f098f9fb1c1b789ab27b68c2
:104a2c0011001800fef78cfac046bd4605b090bdcb
:0c4a3c008c700000a0700000a87000004a
:020000040000fa
:104a4800f8b5846a05000f001600002c0ad0ab6a7e
:104a58006a699b1ab3420cd2320039002800fff76a
:104a6800affe05e002f0f7fb03002000002beed0bc
:104a7800f8bd002ef0d02b0034331b785bb2002b2e
:104a88001adb3400dbb2621eb95c994212d12200f3
:104a980039002800fff794fea042e9d33f19341be0
:104aa80022003900686902f0c1fc6b6930001c19ea
:0c4ab8006c61dde7141ee6d13400f1e76c
:020000040000fa
:104ac400f0b51d00012389b014000e9a06001a40a7
:104ad4000391029201d1a5420ad822000399300021
:104ae40001f00cfda54203d82500280009b0f0bd53
:104af4002f1b01973a00102f00d91022202104a85f
:104b040002f0a0fc019b0f2b0ed80f2204a93a40ff
:104b1400300001f0f3fc029b002be6d12200039944
:104b2400300001f0ebfce0e7102204a9300001f0b2
:0a4b3400e5fc019b103b0193e4e750
:020000040000fa
:104b400080b588b000af78600023fb61184b5b68cc
:104b500001333b617b68174a5343fb60144b1b686e
:104b600001221340012b1ed1114b9b687b6116e083
:104b70000f4b9b68bb607a69bb68d31abb61ba688c
:104b80007b699a4205d93a69bb68d31a7a69d31806
:104b9000bb61bb687b61fa69bb69d318fb61fa69c9
:104ba000fb689a42e4d3c046bd4608b080bdc0460b
:084bb00010e000e080bb0000f2
:020000040000fa
:104bb80090b585b000af0200fb1d1a7008217b1864
:104bc800aa221a707b1800225a707b1802229a7047
:104bd8007b181c22da70fb1d1b78002b01d0812268
:104be80000e0002208203b181a713b189a783b18fd
:104bf800db78d318d9b23b181a790f243b198a18d5
:104c08001a7021007b187a18127852421a703b18d1
:104c18007a1812785a713b1806211800fff7d2fe4d
:084c2800c046bd4605b090bd79
:020000040000fa
:104c300080b584b000af78600a00bb1c1a807b6826
:104c4000002b01d17b682be07b68fb60bb1c1b88c1
:104c5000013b7a68d318bb601de0fb681a78bb681b
:104c60001b785340dab2fb681a70bb681a78fb688d
:104c70001b785340dab2bb681a70fb681a78bb68bd
:104c80001b785340dab2fb681a70fb680133fb6093
:104c9000bb68013bbb60ba68fb689a42ddd87b68a1
:084ca0001800bd4604b080bd00
:020000040000fa
:104ca800f7b5040019000a9fe368666800933b683b
:104cb800100001932369013b1c00002e00da012635
:104cc8000022009dea5435000123002c03dc002b50
:104cd8001cd02000febd02000a4309d1002d07dccc
:104ce800089a921b5219002af1dd019a9207eed513
:104cf800099b099adb1701f065fb8c460099013c7a
:104d0800130030320a55013d6146dee710233a6848
:064d18009a433a60dde75a
:020000040000fa
:104d200080b584b000af78600a00bb1c1a800f23e6
:104d3000fb1800221a70bb1c1b88154a93420fd91e
:104d40000e23fb18ff221a701ae0bb1cba1c128833
:104d500092081a800f22bb18ba18127801321a7002
:104d6000bb1c1b883f2bf0d8bb1c1b88d9b20f2360
:104d7000fb181b789b01dab20e23fb188a181a70f5
:104d80000e23fb181b781800bd4604b080bdc0463a
:044d9000bf0f000051
:020000040000fa
:104d940080b500af184b01221a60c046164bdb6980
:104da400002bfbd1144b802252005a60c046124b98
:104db400db69002bfbd1104b3422da600e4b0f4a17
:104dc4001a60c0460c4bdb69002bfbd10a4b102246
:104dd4005a83c046084bdb69002bfbd1084b2122c8
:104de40000219954064b202200219954024b83221e
:104df4009a75c046bd4680bd0010004216001000e2
:044e04005809002029
:020000040000fa
:104e080080b584b000af02003960bb1d1a803b68d2
:104e1800002b03d0bb1d1b88002b02d001235b4253
:104e28001de0114bfb60fb68002b01d1002303e060
:104e3800fb6801221a700123012b02d001235b4277
:104e48000de03b681800fdf715ff084ba022002174
:104e5800180002f0f5fa064b02221a70044b1800eb
:104e6800bd4604b080bdc046e0080020b807002059
:044e7800a808002066
:020000040000fa
:104e7c0080b582b000af174b1b78002b25d0164b9a
:104e8c001b885a1c91b2144a11801900fb1d134a3d
:104e9c00525c1a70104b1a882c23ff339a4202d999
:104eac000d4b00221a800e4b1a880b4b1b889a4212
:104ebc0003d1084b00221a7002e0064b01221a7033
:104ecc00fb1d1b78180002f038f9c046bd4602b035
:104edc0080bdc046e9090020e2090020c40500207d
:044eec00e0090020b9
:020000040000fa
:104ef00090b585b000af786039600f243b1900226f
:104f00001a707b68002b20d0134b2c229b5cdbb2e9
:104f100001225340dbb2002b17d000f09ffc0e4b58
:104f20007a689a610c4b3a68da610b4b00221a627c
:104f3000094b2c2201219954074b0022da853b1999
:104f400001221a70054b84229a750f23fb181b78d7
:104f50001800bd4605b090bd28090020001400428d
:020000040000fa
:104f600080b586b000af786039603b68da107b6846
:104f7000db8c5b00d31a7b617b6828229b5e1a0066
:104f80007b695343db123b617b695b107a6952108a
:104f900053431b13fb607b682a229b561b01fa6854
:104fa00053439b13fb603a69fb68d2187b681a6411
:104fb0007b681a6c13009b009b1880331b121bb27a
:0e4fc000bb60bb681bb21800bd4606b080bdca
:020000040000fa
:104fce0090b585b000af0200fb1d1a70bb1d0a1c08
:104fde001a70bb1d1b78180001f01ffb03001a008e
:104fee000c243b191a70fb1d1b78180001f015fbe1
:104ffe0003001a0021007b185a707b181a780e20b5
:10500e003b181a803b183a18128812021a807b1825
:10501e005b7899b23b183a1812880a431a803b18eb
:0c502e0000229b5e1800bd4605b090bd3e
:020000040000fa
:10503a0090b585b000af0200fb1d1a70bb1d0a1c9b
:10504a001a70bb1d1b78180001f005fb03001a003b
:10505a000c243b191a70fb1d1b78180001f0fbfa8f
:10506a0003001a0021007b185a707b181a780e2048
:10507a003b181a803b183a18128812021a807b18b9
:10508a005b7899b23b183a1812880a431a803b187f
:0c509a0000229b5e1800bd4605b090bdd2
:020000040000fa
:1050a80080b584b000af7860174bbb600023fb600d
:1050b800bb685b6bfb6018e0fb689b687a689a4288
:1050c80008d8fb689a687b68d21afb689a60002344
:1050d8007b6007e0fb689b687a68d31a7b60fb6893
:1050e80000229a60fb689b69fb60fb68002b02d07a
:1050f8007b68002be0d1bb685a69bb681a61c0465f
:0c510800bd4604b080bdc046a8080020d1
:020000040000fa
:1051140080b58ab002af786008001100fb1c021c45
:105124001a70bb1c0a1c1a70fb1c1b783f2b03d97a
:10513400fb1c1b78522b01d901231ae0bb1c1b78e2
:10514400132b01d9032314e00c217b18fa1c1278c9
:105154001a70bb1c1b787a6879180093130001221b
:10516400102001f042fac04600f0a2ff031efbd15a
:0a51740000231800bd4608b080bdfe
:020000040000fa
:1051800080b500af174b1b78012b17d0022b21d015
:10519000002b21d102f026f90300022b1ed1102191
:1051a0000120fdf7c9f902000e4b5a600d4b5b68f8
:1051b000013313d00b4b01221a700fe0094b5868d2
:1051c000084b9b680022190000f0b8ff054b022233
:1051d0001a7004e0c04602e0c04600e0c046c04687
:0851e000bd4680bd0000002067
:020000040000fa
:1051e80080b588b002aff860b9607a601a00fb1c1d
:1051f8001a7001235b427b61fb1c1b78002b04d1d6
:10520800fb68002b01d17b691ae07b68002b16d064
:105218007b68180000f076feb968fa68fb1c1b78fa
:1052280000930b0001000020fdf7a6fc03007b6142
:105238007b69013303d07b691800fef7d7fc7b69d3
:085248001800bd4606b080bd50
:020000040000fa
:1052500080b582b000af7860144b3a229b5c5a1c38
:10526000d0b2124a3a2150541900104b3c229b5c98
:10527000dab20e4b5b181a720d4b01211800fff7c2
:1052800037fe0a4b3a229b5c312b03d9074b3a225b
:1052900000219954074b1b78dbb20133dab2054b7e
:1052a0001a70c046bd4602b080bdc046e808002066
:0852b000240900201101002077
:020000040000fa
:1052b80010b584291fd007dc812915d0822922d076
:1052c800802911d0002010bd90291cd008dc882925
:1052d800f8d119680c1d1c600b6803601a7010e087
:1052e800a02901d0c029edd119680c1d1c600b68dc
:1052f80003601a6005e019680c1d1c600b680360e8
:105308001a800120dfe719680c1d1c600b68036018
:085318001a60d2175a60f4e795
:020000040000fa
:1053200080b586b000aff860b9601900fb1d1a7037
:10533000bb1d0a1c1a701723fb1800221a70bb68c9
:10534000002b14d0bb681b78fa1d12789a4203d93f
:10535000bb68fa1d12781a70bb681b78ba1d1278e8
:105360009a4208d2bb68ba1d12781a7003e017235c
:10537000fb18ff221a701723fb181b785bb218006a
:06538000bd4606b080bd31
:020000040000fa
:1053880080b582b000af154b30229b5c002b1fd13b
:10539800134b7b6001235b423b607b681b78012bce
:1053a80004d17b6800221a70012300e00023012b3e
:1053b8000cd10a4b1b7a5bb2180000f024fc0300e6
:1053c8001900064b31229954012302e0002300e022
:1053d80001231800bd4602b080bdc046a8080020c1
:0453e800e0080020b9
:020000040000fa
:1053ec0090b585b000af02003960fb1d1a70002328
:1053fc00bb60ba6813005b009b189b00104a9b189b
:10540c00fb6016e0fb681b78002b0cd0fb685b681c
:10541c00002b08d0fb685c68fb689a683968fb1d38
:10542c001b781800a047fb680c33fb60bb6801338a
:10543c00bb60bb68002be5d0c046bd4605b090bd37
:04544c00dc00002060
:020000040000fa
:105450007fb51600c2680d0013000091591e8b41e4
:10546000f31a0193836804000392694602220068dc
:10547000029301f083fc002808dc18220823024074
:105480005340626813436360060010e0019b83424f
:10549000fad2a268c01ae3681018e2632064002bf5
:1054a00005d0531ce3631378ad19013d2b70300018
:0454b00004b070bd17
:020000040000fa
:1054b40037b5164d04002b68002b0fd001f004fe05
:1054c400019001a801f062ff0f230f309843019966
:1054d40001f08efe00280cd000232b60002c00d19c
:1054e40001340f230f349c4304d10c222000084bb9
:1054f4001a603ebd042c00d204242000fff724fad5
:105504000028f6d0031f1c60f3e7c046e80a002019
:04551400d409002096
:020000040000fa
:1055180080b582b000af0200bb1d1a807b1d0a1c3b
:105528001a707b1d1b78002b04d00f4b20220321ff
:10553800995403e00c4b202204219954bb1d1b886d
:1055480059007b1d1b78002b01d0012200e00022ae
:10555800064b0a435a62c046044bdb69002bfbd159
:10556800c046bd4602b080bd580900200010004268
:020000040000fa
:1055780080b582b000af0200bb1d1a807b1d0a1cdb
:105588001a70104b00229a610e4b0022da610e4b02
:1055980083221a760c4b5a680b4b0c490a405a6006
:1055a800c046094bdb69002bfbd17b1d1a78bb1d5c
:1055b8001b8811001800fff7abffc046bd4602b0bc
:1055c80080bdc0465809002000100042fffffbffc5
:020000040000fa
:1055d80080b582b000af144b5b8b9ab2bb1d07211c
:1055e8000a401a80bb1d1b88002b18d00f4bba1d10
:1055f8001288da8500f02ef90b4b84221a750b4bb2
:105608002c2200219954094b5b6a002b07d0074bc9
:105618009b6a3b60054b5b6a3a6810009847c04636
:10562800bd4602b080bdc0460014004228090020d3
:020000040000fa
:1056380080b582b000af7860124b06225a6001f044
:10564800e3f9fdf7d1fd00f023f8fef7adfd01f019
:10565800b1fefff79bfb00f0f5fe00f075fb00f0d4
:1056680051f9094b19000020fff7cafb0200074b4c
:105678001a6000f067fe00f099ffc046bd4602b010
:1056880080bdc046004000415c750000100000204d
:020000040000fa
:1056980080b500af01f084fefff7d4f801f06cfa92
:1056a8000a4b0b4a5a80094b0a4a5a80074b0a4a46
:1056b8005a80064b094a5a80094b0a4a1a620a4b11
:1056c80000221a62c046bd4680bdc046000c00409c
:1056d8001640000017400000194000001b40000061
:0c56e80000040040b00801000008004071
:020000040000fa
:1056f40000230e4a10b513600d4a13600d4a13605f
:105704000d4a13600d4a13600d4a5362136101334d
:10571400936001f0fffefdf7fafc0a4c0a4b9c4231
:1057240000d310bd08cc9847f8e7c046d009002044
:105734006408002060080020580800205c0800204d
:0c57440068080020c4000000c80000003d
:020000040000fa
:1057500070b504000d00002801d1002070bd436821
:105760009b0607d543698269934215d80023a3623b
:10577000a3616361e16b236c994204d2c91a0122cf
:10578000206801f011ff00232364e3639d42e4d00d
:10579000206801f0f9fee1e70022c36a1100984792
:0c57a0006369002be2d101204042d7e7f2
