:020000040000fa
:10000000f07f002025320000c3250000c726000035
:1000100000000000000000000000000000000000e0
:10002000000000000000000000000000913a000005
:1000300000000000000000008133000009390000ca
:100040001319000013190000131900001319000000
:1000500013190000131900001319000013190000f0
:10006000131900001319000013190000f90500000e
:1000700013190000712f000013190000131900005c
:1000800013190000131900001319000013190000c0
:1000900013190000131900001319000013190000b0
:1000a00013190000131900001319000013190000a0
:0c00b000131900001319000013190000c0
:020000040000fa
:1000bc00f8b5c046f8bc08bc9e46704775310000c8
:1000cc00f8b5c046f8bc08bc9e4670474d310000e0
:020000040000fa
:0800dc005417000001000000b0
:020000040000fa
:1000e4000023f0b506001500b1b0079103930799fa
:1000f4000b78002b00d10ce101235b420c9310ab75
:1001040000240e9380230b940d940f930b5d002b0e
:1001140001d0252b2ad1002c06d02200300003f078
:1001240053fb079b1b190793079b1a78252a00d0ba
:10013400e4e0013304930793022301219c46102732
:10014400079803782b2b1ad025d8202b1ad0232bd1
:100154001dd02a2b28d003f075f90d90079b1a782f
:10016400303a092a31d801330793f7e70134cde750
:100174000b9b05930b4301300b930790e0e704239b
:100184000b9a0fe00b9b0593059a08230ae00b9b3f
:1001940005933b43efe72d2bead0302bd9d16246b0
:1001a4000b9b05931343e6e72b6801301a1d1b686c
:1001b40007902a600d93002b07da0b9a5b42059295
:1001c400012205990d934a400b920b9bda0702d545
:1001d400022293430b93079b1a782e2a0ed10022f6
:1001e400581c0c9207905a782a2a27d10233079375
:1001f4002b681a1d1b682a6005930c9307a803f04b
:1002040043fa079b0700187803f037fe692800d1ea
:1002140082e034dc632800d1dbe01adc252800d13d
:10022400e8e0612858d0049b01220793002352423e
:100234000c920b930d9300930232e5e003f002f964
:100244000c90079b1a78303a092ad7d801330793c0
:10025400f7e7642860d06728e5dc2a00390008a89d
:1002640003f0c7fa002800d1afe0079b0ba95a1c82
:1002740007921b7808aa300003f06efe3de0702858
:1002840000d17de016dc6e2800d197e06f28cad13a
:100294002b000022390008a801f0e2fc002800d15c
:1002a40093e0079b08aa01330ba93000079303f0de
:1002b40051fe22e0752840d078284fd07328b2d15f
:1002c400802f00d081e0079b2a6801330793131d18
:1002d4002b601268002388e02a00390008a803f084
:1002e40088fa002800d170e0079b0ba95a1c0792da
:1002f4001b7808aa300003f02ffe2418039b1c1956
:10030400a34200dc82e04f22414b1a6001235b428e
:100314000393039831b0f0bd2b000122390008a8e3
:1003240001f09efc002850d0079b08aa01330ba9ba
:100334003000079301f0a7fddfe72b00002239000e
:1003440008a801f08dfc00283fd0079b08aa0133c0
:100354000ba93000079303f0fdfdcee72b0000222c
:10036400390008a801f07cfc00282ed0079b5a1cf9
:1003740007921b7808aa0ba9300003f0edfdbce737
:100384002b000022f02108a801f06afc00281cd0f0
:10039400079b099a01330793089b13430cd11d4f04
:1003a400380003f079fc390002000b9b00930d9b8d
:1003b400300002f0c5f9a0e77823dbe7039b39009e
:1003c4001a1908a82b0002f02cfc079b0133079391
:1003d40094e7802ff9d1079b013307932b681a1deb
:1003e4001b682a6008aa137001230ba9300003f0cc
:1003f400b5fd82e7802fe8d10122079b01330793e3
:100404000b9b049300930d9b0349d1e703946ee681
:0c04140068130020403f0000463f00003d
:020000040000fa
:10042000f0b583b000900f0001939500280001f013
:10043000b3ff061e60d0542001f0aeff041e58d05a
:100440005422002103f0a8fc26632a00a5213000d5
:1004500003f0a2fc043d236b9c46654407239d43a7
:100460002e00002f11d03b783422a354002b09d04a
:10047000012322003432f95cd154002902d0013327
:10048000102bf8d143230022e254089f042f00d9f7
:100490000427e7626764251d280003f055fd20004e
:1004a000183003f051fd24610523db1ba361646256
:1004b000019a0099300001f0edfd2060099b002bae
:1004c00000d01c6003f07efb3e4a136801331360ca
:1004d0003d4b1b68002b13d03c4b1b68002b15d1e8
:1004e000394b1b68db6ae26a93420fd8364b1c60bb
:1004f0000ce0300002f0cbfb0120404203b0f0bd25
:10050000314b1c602f4b1b68012b31d0304a1368d4
:1005100001331360e26a2f4b1b689a4201d92d4bbd
:100520001a602d4993009b189b00cb185b68a36051
:100530009a68e26055609d60e06a83001a18920034
:100540008a1862611a18920053580133535003f00d
:1005500045fb1e4b1b680120002bcfd01a4b1b689c
:10056000da6ae36a9a42c9d203f020fb0120c5e7a8
:10057000194e300003f0a9fb3000143003f0a5fb46
:100580003000283003f0a1fb30003c3003f09dfb2d
:100590003000503003f099fb104f380003f095fb0a
:1005a0000f4e300003f091fb0e4803f08efb0e4817
:1005b00003f08bfb0d4803f088fb0d4b1f600d4bc8
:1005c0001e60a3e72c1300202013002050130020ee
:1005d000381300203c13002000100020901200204f
:1005e000a4120020b8120020e0120020cc1200203b
:0805f000241300202813002051
:020000040000fa
:1005f80070b56c4b9b7d002b19d06b4b9c6a694b7b
:100608005b8b9b0714d5684b2022ff21995401323c
:10061800fd399954644a2023d35c5bb2013300d17d
:100628008de0614a2023d35c062b00d1a0e070bd89
:100638005c4b5b8bdb0707d55b4b2022ff21995472
:100648000132fd399954e5e7564b5b8b5b0707d5bb
:10065800554b2022ff2199540132fe399954d9e78c
:10066800514a2023d35c5bb2032b47d0042b11d013
:10067800022bcfd11369002b05d0908880b20021be
:1006880002f048fcc6e7484b988880b2012102f086
:1006980041fcbfe7444a936912699a420dd0424a25
:1006a8009268d05c3f4928228854591c3d4ad36936
:1006b800002bfcd13c4b9961ace73b4b5b69002bb1
:1006c8000ed0394b9b885b0001221343354a536295
:1006d800d369002bfcd1344a20330321d15499e744
:1006e800304a5168c0239b020b435360d369002be7
:1006f800fcd12d4a20330621d1548be72a4bd969e6
:100708005b69013b8b420cd0264ad369002bfcd194
:10071800254bda68234d2820285c50540131d961d3
:1007280078e7204a5068e023db0203435360d3692b
:10073800002bfcd11c4a20330620d054e4e72023a8
:100748000021d154174a5168c0239b020b435360c0
:10075800d369002bfcd1134b83221a76124b5b6aa8
:10076800002b00d163e7104b5b6a200098475ee7d7
:100778001300002220215a5401315a54094b833264
:100788001a761900533a4b8b1340102bfbd1064baa
:100798005b6a002b00d14ae7034b5b6a200098474d
:0c07a80045e7c046000c0042281200206b
:020000040000fa
:1007b40008d1002806d1f54204d801d3002a01d17a
:1007c4006d0d09d10020c143090dc904f0bdf9d153
:1007d4001242f7d1640df5d00020c1434905490800
:1007e400a6e000206146f0bdf0b50127ff070e002a
:1007f4005e403e40b446be0a4c18dd18f442d7d2df
:10080400f542e4d2640decd06d0dead06419c9024e
:100814003943460dc0023143db023b43db0a10b4cb
:100824008e4685b297b26f43140c6c433e0ca419e8
:10083400260c2404bfb227439cb26c43a419190ca0
:100844006943250ca4b249190d04090c6419000c60
:1008540095b245433e0c76193743bfb2360c150c9e
:100864004543ad19a6b2240cad192e0437432e0c02
:1008740036199db24543ad19acb22e0c89191d0c25
:1008840045436d182e04290c3443704680b295b24a
:1008940045433e0c76193743bfb2360c150c45431d
:1008a400ad19a6b2ad19240c2e0437432e0c3619fb
:1008b4009db24543ad19acb22e0c89191d0c4543ac
:1008c4006d182e043443290c75462d0c90b26843e0
:1008d4003e0c80190604bfb23e43070ca0b23f1879
:1008e400120c6a43d019020c80b2240ca4189ab2d8
:1008f4006a43121914042043120c89181b0c6b430d
:10090400c91810bc01273d05294203d1b61940413d
:100914004941013cff077d0d013d641b0bdb6d006c
:10092400ac4209da240500254208be416841614110
:0a09340066463143f0bd54e74ee77c
:020000040000fa
:02093e00704700
:020000040000fa
:10094000f0b5d6464f464646c0b582b0534b1b68fd
:10095000002b00d094e0524b1d6801351d60002d26
:1009600018d0504b1b68ab4221d9002301934e4b4a
:100970001b68da6a93009b189b004c4a9b58012b1a
:1009800001d9012301934a4b1b68002b7ed0012320
:1009900001937be0474a1168474b18681060196063
:1009a000464a13680133136002f0fafed9e70023c8
:1009b0000193404eb246424b9c4698463b4c37e032
:1009c000384b012252421a60d1e7364b1a60cee70b
:1009d000da68426041e01a6a426000229a62026864
:1009e000013a0260d86a62461268904201d94246d2
:1009f0001060820012189200a21852689a609068e3
:100a0000d86041609160d96a8a00501880008146a0
:100a1000a1444846586150188000025901320251e1
:100a2000214a1168da6acb6a9a4201d901230193fb
:100a300033681b68002bc3d053461b68db68db6838
:100a40005a689542c1d358699a68d96891609a6882
:100a50004a60191d42688a42bad000225a6102686f
:100a6000013a0260986a0028bcd01a6adf69ba604d
:100a7000df6957601a00183247689742add1aae77c
:100a8000104a13680133136000230193019802b0e8
:100a90001cbc90469946a246f0bdc04634130020c7
:100aa00054130020441300202013002000100020c5
:100ab000581300202413002028130020481300207e
:080ac0003c1300204c13002040
:020000040000fa
:100ac800741200201c00000000000000c01100206b
:100ad80038000000000000006410002050000000f2
:100ae80000000000281200202c0000000000000078
:100af800f81100203000000000000000541200200f
:100b08002000000000000000481100203c00000008
:100b18000000000004130020140000000000000082
:100b28006c1300200400000001000000aaaaaaaa71
:100b3800181300200400000000000000000000203e
:100b480000100000000000001c130020100000002e
:100b580000000000001000206400000000000000f9
:100b68002c13002014000000000000009012002048
:100b780028000000000000004013002010000000c2
:100b880000000000b812002014000000000000005f
:100b9800501300200400000000000000cc120020c8
:100ba8002800000000000000541300200800000086
:100bb8000000000070130020040000000100000085
:100bc80004000000841100203c0000000000000028
:100bd800041100204400000000000000f41200206e
:100be80010000000000000005c1300200800000056
:100bf80000000000b41000205000000000000000b9
:100c0800641300200800000000000000000000003d
:100c18000000000066666666666666666666666604
:020000040000fa
:100c2800f8b5de4657464e464546e0b502f0c6ffe3
:100c3800494b1a68013a1a601b680024002b03d13b
:100c4800464b1b68002b0ed102f0c4ff20003cbcb1
:100c580090469946a246ab46f8bd336a63601fe0ea
:100c6800f36863602ae000263d48050000213d4bfb
:100c78009b469c463c4a3d4b99460123984603684f
:100c8800002b47d0eb68de68b46af369376a9f6067
:100c9800336af7695f603300183367689f42dcd0b6
:100ca800b1622368013b23607469b768f368bb606d
:100cb800b7685f60371d6368bb42d1d07161236834
:100cc800013b2360f46a5b461b689c4201d963467a
:100cd8001c60a3001b199b00d3185b68b3609c6859
:100ce800f46067609f60f36a9f00fc18a400a24646
:100cf800924454467461fc18a400a3580133a350cd
:100d08001b4b1b68db6af46a9c42b8d94b464446c5
:100d18001c60b4e7002e01d002f03efd154b1c68a4
:100d2800002c0ed0114e012502e0013c002c05d00c
:100d3800fff702fe0028f8d03560f6e70d4b0022d9
:100d48001a600a4b1c68002c00d17de7084b1b6811
:100d580002f028ff012477e7341300202c13002029
:100d6800b81200203c130020001000205813002067
:080d7800201300204c130020a1
:020000040000fa
:100d8000f0b587b00491039202930eab1d7802f088
:100d900001fa061e00d18de0012d14d0022d1bd0ca
:100da000082d19d0029b002b00d18be0039b002b58
:100db00000d189e00d9b002b00d187e00c9b002b1c
:100dc00012d100241ee00d9b002b00d174e00c9b7f
:100dd000002b09d1002415e0029b002b00d16de00f
:100de000039b002b00d16be037682c239c46bc444e
:100df0006346059301214942604602f006fe002445
:100e0000012802d0200007b0f0bd002373717e627c
:100e1000bb69f268934207d030000c303b695b69d4
:100e200000219847f368bb61022d29d0042d30d0f2
:100e3000012d0ed03b691b69984770717379002ba7
:100e400033d128330022fa540024059802f0e8fc3c
:100e5000d8e73b691b680d9a0c99049898470028bd
:100e6000e8d0012138003430494202f0bdfd0024b1
:100e70000128ead12823fc5c63425c41e4b2e4e748
:100e80003b695b68029a0399049898470028e8d167
:100e9000d0e73b690d9a00929c680c9b029a0399db
:100ea0000498a0470028c5d0dbe728230122fa5484
:100eb0000024cae70024a5e70024a3e70024a1e753
:100ec00000249fe700249de700249be7002499e786
:020000040000fa
:100ed0000122d20703004b403dd430b4431a01d263
:100ee000c01ac9184b004400240eff2c29d0002c36
:100ef00024d01b0e20d0e31a182b1ddc090211434d
:100f0000c40d000210435d4219350a00aa40d209ff
:100f1000d940451801d36d080234013ce405280a84
:100f20000121c9072d062a438a4160414100090e6b
:100f3000ff2901d3c00dc00530bc7047c00fc007ea
:100f4000fae742001823da41ff2af5d07f2000019a
:100f50000c300005f0e7a4465140431a02d253403a
:100f6000c01ac9184b00090211431b0e4400240e7d
:100f7000ff2c41d0002b10d05b421b19012b10d34a
:100f800022d1c30d4002401a10d3db050100400af4
:100f9000c90591415841644670472442fbd1002065
:100fa000f9e7c30d40024900401af4d00021013195
:100fb0004000fcd38c4204d95b1adb05400ac01800
:100fc000e9e7180ac007e6e7192be4d801330c005b
:100fd000d940dc414c40012c4941c30d0002104373
:100fe000441a01d4a4006408013bdb05200a24064e
:100ff0009441584164467047ff2b01d04102cad04a
:0a1000007f2000010c300005c5e759
:020000040000fa
:10100a00f0b585b004000191002300930025442621
:10101a00002743e0013ba3632368002b09d023691f
:10102a00002b0ad102f0d5fd01230093009805b0e8
:10103a00f0bd02f084fea060f1e72000103000f05d
:10104a00d2fc0028eed002f0acfdebe702f0c1fdc5
:10105a0000230093eae702a802f0d3fd28e0a7558f
:10106a0030e04523e75432e002f0a7fda06800f023
:10107a0060ff009002f0adfd39e0200001f059fa5e
:10108a00fff7cdfd09e0200001f053fafff7c7fd95
:10109a00200002f04afe002838d1012502f08dfd19
:1010aa00a36b002bb6d1019b002bcfd0002dd2d041
:1010ba0002f08ffd02f0b9fe02f07ffda35d5bb284
:1010ca000133ccd04523e35c5bb20133c9d002f0d3
:1010da0080fd01a902a801f066fe0028d3d12000f4
:1010ea0002f023fe0028c8d02368002bbcd02000c1
:1010fa002430019902f013fd200001f01afafff7db
:10110a008efd0028c9d102f04cfdc6e7009b002bda
:10111a0000d18be702f051fd616a002903d0236bed
:10112a001b680521c91aa06801f0bff902f051fd38
:06113a00002300937ae798
:020000040000fa
:1011400070b505000c003d4b187dc0b22c229b5c95
:10115000dbb2002b6dd1002800d06ce0002d69d0ef
:101160002a68002a66d0002900d1354c1301a34219
:1011700009d9d300a34247d953009b18a34246d8ac
:101180000320042601e0102000260023002102f0a5
:1011900019f9030c0904194300042200002302f08a
:1011a00073f980235b02181a264a136802218b43c5
:1011b0001360d369002bfcd180b2224a90816b6806
:1011c000022b27d01f4a13681f490b4076031e438a
:1011d00080235b041e4316605168ab68e8680343d4
:1011e0001a4801400b4369680b435360154ad369a1
:1011f000002bfcd1134a136802210b431360d369ff
:10120000002bfcd1012015e008200226bde70020bc
:101210000026bae713680c490b4076031e4316609c
:101220005168ab68e8680343472081430b43536030
:10123000dce7002070bd1800fce7c046f811002074
:10124000006cdc0200140042ff1ffff0b8dfffff5c
:020000040000fa
:1012500070b5002841d00468002900d136496300e8
:1012600099423cd3354b9c423bd8080002f02ffcfe
:10127000051c200002f02bfc011c281c01f042f888
:10128000061c2f49281c00f04cfd2e49fff720febc
:10129000011c301c02f0e4fd02f094fb05002a4b17
:1012a0009c4209d8ff235b00ff209d421cd8fe38da
:1012b000012d19d9680817e07e23ff33984212d810
:1012c000032836d94000032101f0aef806020321bd
:1012d000280001f0a9f8304306e0002028e00020b3
:1012e00026e0002024e019481749a14289414942db
:1012f000174a13680224a3431360d369002bfcd15f
:10130000134bd8601a68134802400906114319604c
:101310001a6802210a431a601a00d369002bfcd113
:101320000b4b10225a831a00d369002bfcd10120e9
:1013300070bd0948d8e7c046006cdc0240420f008f
:1013400095bfd63300002041801a06007fff0000c1
:0c135000000c0042fffffffc0102000047
:020000040000fa
:10135c00f0b5ce4600b584b00400009101921f0098
:10136c000025442631e03a000099200001f021fad2
:10137c00636a002b08d100280fd102f029fc012050
:10138c0004b004bc9146f0bd2000243000f02afbd0
:10139c000028f2d002f004fcefe702f001fcece7cd
:1013ac0002f016fc0020ebe702a802f029fc19e081
:1013bc000023a35520e045230022e25421e0200025
:1013cc0001f0b6f8fff72afc012502f0f5fba36b40
:1013dc00e26b9342c7d3022fc5d0019b002bdfd009
:1013ec00002de1d002f0f4fb02f01efd02f0e4fb54
:1013fc00a35d5bb20133dbd04523e35c5bb201330d
:10140c00d9d002f0e5fb01a902a801f0cbfc002821
:10141c0017d102f0d1fba36b9946e56b02f0d8fb18
:10142c00a945ccd120001030019902f077fb2000a7
:10143c0001f07ef8fff7f2fb0028c5d102f0b0fbfb
:10144c00c2e7200001f074f8fff7e8fb002097e7f3
:020000040000fa
:10145c0070b50c00002862d13a4b5b7b5bb2022b5f
:10146c0060d1384b1b7b002b5fd0012135484942a2
:10147c00303002f0c4fa00285ad0324b1b78002bc3
:10148c003bd1304b5b68002b3ed12e4b986800282b
:10149c0051d0db691d00997910330022002907d047
:1014ac000132824247d01d001033a9790029f7d1af
:1014bc000123ab71234b2b602c71002169715b698b
:1014cc00eb60230702d51f4b013119701d494b6886
:1014dc0001334b600b8c1b04ff2002401a43aa60a3
:1014ec000b8c01339bb2184a934216d015480384d7
:1014fc00303002f08ff9a86816e01248303002f054
:10150c0089f9012040420fe02307bed50d48303049
:10151c0002f080f90120404206e00123e6e70120b9
:10152c00404201e00120404270bd01204042fbe7f7
:10153c0001204042f8e70348303002f06bf90120fb
:0c154c004042f1e7c0110020ffff00004a
:020000040000fa
:10155800f0b5c64600b584b004000091019200279a
:1015680044260023984638e00099200002f0ecf960
:101578006b1ea3632369002b06d102f02bfb01200d
:1015880004b004bc9046f0bd2000103000f02cfae6
:101598000028f2d002f006fbefe702f01bfb002068
:1015a800eee702a802f02efb21e04346a35528e00f
:1015b80045234246e25429e0200000f0bbfffff734
:1015c8002ffb09e0200000f0b5fffff729fb200002
:1015d80002f0acfb002835d1012702f0effaa56b29
:1015e800002dc1d1019b002bd7d0002fd9d002f0fc
:1015f800f1fa02f01bfc02f0e1faa35d5bb20133e1
:10160800d3d04523e35c5bb20133d1d002f0e2fad8
:1016180001a902a801f0c8fb0028d3d1200002f0dc
:1016280085fb0028c8d020002430019902f078fa00
:10163800200000f07ffffff7f3fa0028ccd102f07a
:08164800b1fac9e700209be79d
:020000040000fa
:1016500010b584b0384b1b78002b11d00122364cca
:1016600021001031354b18685242fff775ff237c7b
:10167000002b20d0304b1b7c012b45d004b010bd7b
:1016800003210020fff7eafe2b4b5860431c0bd1cf
:101690000021002000f056f8274bd860431cddd015
:1016a000254b01221a70d9e72349254b8b6008315d
:1016b00002f0fef9ece7204b42229a5c5a775a6915
:1016c0009a771a001d3258680223572102f0f2fa65
:1016d000002809d0184c01230f226a445721606862
:1016e00002f0e8fa0028f6d0134a4223d35c013313
:1016f000dbb2042b03d8110042228b54bae70e4a06
:1017000042230021d154b5e70b4b00225a771a002f
:101710001d3258680521019118330093012352317d
:1017200002f02cfa0028a9d003484223c15c1830eb
:1017300000f05afca2e7c046041100205c13002010
:04174000801a060005
:020000040000fa
:1017440070b50c0000285fd1364b1b7b5bb2022bbb
:1017540002d00120404270bd012132484942283064
:1017640002f051f9002852d02e4b5b78002b39d16e
:101774002c4b5b68002b3cd12a4b9868002849d03d
:101784005b691d00197c14330022002907d0013243
:1017940082423fd01d001433297c0029f7d1012354
:1017a4002b74204b2b602c710023ab60230702d5d4
:1017b4001c4b012159701b494b6801334b600b8b47
:1017c4001b04ff2002401a43ea600b8b01339bb2d7
:1017d400154a934216d013480383283002f01ef8aa
:1017e400e868b8e70f48283002f018f801204042b2
:1017f400b1e72307c0d50b48283002f00ff80120c9
:101804004042a8e70123e6e701204042a3e7012084
:101814004042a0e70348283002f000f8012040428b
:0c18240099e7c04664100020ffff0000a0
:020000040000fa
:10183000f0b5060085b00f0015001c008b4265d87e
:1018400001d1824262d82100280002f01bfa39003f
:101850000090300002f016fa009b21001b1a1a00bb
:101860002800039302f002fa00900191019bbb4211
:1018700046d802d1009bb34242d8009b019c039af8
:1018800001200021f61aa74102f0f0f9039b002b7a
:101890002fd0019b009adb0754081c43019b5d0875
:1018a000039b9c46bd422ed801d1b4422bd83200b6
:1018b0003b00121bab41012692185b410027b61872
:1018c0005f4101235b429c446346002bead18019af
:1018d0007941039a04000d003000390002f0baf992
:1018e000039a06000f0002f0c1f9241a8d4120006e
:1018f00029000a9b002b01d01e605f6005b0f0bd7f
:1019000000200021c2e7b6197f41dae7002000215c
:02191000efe7ff
:020000040000fa
:02191200fee7ee
:020000040000fa
:1019140010b500284ed1324b1b78002b4dd13048e6
:10192400012202700b6803618b6843614b6883601a
:1019340000234360c361036243700283cb68c363c3
:101944000b6903644b6943648b698364cb69c36427
:10195400283001f0c5ff002832d021482c3001f096
:10196400bfff00282fd01e48303001f0b9ff0028f7
:101974002cd01b48002300220021343001f072fadd
:10198400002826d01648002300220021383001f018
:1019940069fa002820d0124c23695b6921001148a0
:1019a400984723691b6821000f4898470223237333
:1019b400002004e00120404201e00120404210bd2b
:1019c40001204042fbe701204042f8e70120404269
:1019d400f5e701204042f2e701204042efe7c0462c
:0c19e40064100020e53d0000c52f00004d
:020000040000fa
:1019f00010b5c368db689a6ad869196a8160d869ca
:101a00004860180018305168814240d00021996226
:101a1000116801391160274a1268002a3dd15a69bc
:101a20009868d9688160986848601c1d5168a14217
:101a300030d000215961116801391160d96a1e4afc
:101a40001268914201d91c4a11601c488a00521840
:101a50009200821852689a609168d9604c609460d4
:101a6000dc6aa20011198900411859611119890015
:101a70000a5801320a50124a1168da6acb6a002009
:101a80009a4203d90f4b01221a60013010bd196a26
:101a90005160bbe7d9685160cbe70b4a5168d96107
:101aa0008c681c62606088609a6211680131116004
:101ab000e1e7c046341300203c1300200010002052
:0c1ac0002013002058130020b812002052
:020000040000fa
:101acc0010b52c4b1b68002b03d02b4b01221a603a
:101adc0010bd294b00221a60284b1b681b6b284a2f
:101aec001968914202d15968914235d0234b19683b
:101afc001868343101f03cfc224b1b689a00d21858
:101b0c00920021495258002a0bd19a00d218920007
:101b1c00143a11001c4a5218013b143a516900291d
:101b2c00fad019489a00d118890041184c68646899
:101b3c004c60d218920008328218944213d09a004a
:101b4c00d218920010498a185268d1680b4a116059
:101b5c000c490b601368bbe799689142c6d1db68ee
:101b6c009342c3d1c8e79a00d21892008218d16868
:101b7c005160e4e734130020581300202013002098
:0c1b8c00a5a5a5a53c130020001000201a
:020000040000fa
:101b980030b585b00f236b4400221a702b4b1b788d
:101ba800002b18d0fa20800001f04cff8223db05bf
:101bb80080221202da61254b5868022201921833fa
:101bc800009301230d326a444f2101f0d3ff00280e
:101bd8001cd105b030bd03210020fff73bfc1b4b97
:101be8005860431c0bd100210020fff7a7fd174bbd
:101bf800d860431cd6d0154b01221a70d2e713497e
:101c0800134b8b60083101f04fffece70f4c2000bd
:101c1800183000f02bff38256055002323746061cd
:101c28000122210010310b4b186800235242fff7a4
:101c380091fb625725001a350749280002f04cf835
:101c48000200e068290000f067fec2e78411002066
:0c1c5800a08601005c130020243c00006a
:020000040000fa
:101c640010b588293cd015dc81294dd003dc8029ae
:101c74004ad0002010bd822911d08429f9d11968d5
:101c8400002a26d00a1d1a6000228b5e0360db172f
:101c9400436011e0a02930d010dc9029e9d1196803
:101ca4000724002a2ed00919a1430a0008321a6019
:101cb4000b684c68036044600120dbe7c02901d055
:101cc400f029d6d11a68111d196013680360002326
:101cd400dee70c1d1c600b689bb203604260ebe7ff
:101ce4001968002a04d00a1d1a600023cb56cde7d8
:101cf4000c1d1c600b68dbb2efe71a68111d19603c
:101d04001368c3e70731cfe71968002a03d00a1d17
:0e1d14001a600b68bae70c1d1c600b68dde757
:020000040000fa
:101d220030b405004d400124e407254042004b0039
:101d3200120e32d01b0e3cd0ff2a33d0ff2b3fd0e5
:101d4200d21800022043000a09022143090ac4b240
:101d52004c43000ac3b24b43000a4843210a5b18b2
:101d6200190a091801d44900013a080a7f3a2adb04
:101d7200fe2a0fd2d2051c43240601d0012421439e
:101d8200c9b280295041802901d14008400028432e
:101d920030bc7047ff20c005f9e71b0eff2b0ad0ad
:101da2002800f5e7400206d1ff2bf3d1490202d108
:101db200f0e7ff2af4d17f2000010c300005e7e7ad
:101dc2004902f8d1e6e743020132e9d15b1202335c
:061dd200e6d9d805e4e7a4
:020000040000fa
:101dd800f8b504000d00002851d0c36b0020002b7b
:101de8004ed00021266c370c1a0cb8b200282ed120
:101df80090b200281ed10020002941d101f0defe5a
:101e08002268216ce36b4b43d018a0600020a063cc
:101e180062605b1ad318e360ff234422a3540132a3
:101e2800a354002d22d12369002b16d101f0d2fe34
:101e3800012025e0301cb6b29bb2734380b292b247
:101e480042431b0cd3181b0cd5d00121d3e792b207
:101e5800002afad13a1c181cede720001030fff7d1
:101e6800c3fd0028e2d001f09dfedfe7200010301e
:101e780001f027ff2000243001f023ffd6e70020df
:021e8800f8bda3
:020000040000fa
:101e8a00f0b54b6889b005930b6807009c46079329
:101e9a00cb680c008e68049310685168cd0f44d04b
:101eaa000b000200002150429941059b002b08dbe0
:101eba000222634693430793002d02d1079b5a07d8
:101eca002ad5731e07aa02920a22009301920b00d6
:101eda000200200000f0a9fc002d02d1079b5a073e
:101eea001ed501382d23002d00d1023b049a13542c
:101efa0023695a1e049b121a1918079b380000936b
:101f0a00330000f01afc7b68db0503d5636898424e
:101f1a0000da180009b0f0bd1b07db0ff31ad1e78e
:101f2a001b07e5d501382023e0e7059b002bbfda24
:021f3a00c4e7fa
:020000040000fa
:101f3c0070b5041e4ad0c26a254b1b68db6a9a42f4
:101f4c003cd28369002b05db214b1b68d96a052326
:101f5c005b1a836193009b189b001e4ad31862691d
:101f6c009a4205d01a4b1b68db6ae36201202ce015
:101f7c00251d280001f0d4fc154b1b68da6ae262bf
:101f8c00154b1b689a4201d9134b1a6011499300e7
:101f9c009b189b00cb185b68a3609a68e260556045
:101fac009d60e06a83001a1892008a1862611a1800
:101fbc009200535801335350012006e0044b1b6828
:101fcc00406cdb6a98428041404270bd0020fce7c7
:0c1fdc0020130020001000203c13002007
:020000040000fa
:101fe800f8b5ce46474680b580460e0023480822fd
:101ff80023491f3001f0c2fe042e3cd843469f19e6
:10200800350007241d4b1f22914699440022ba56d9
:102018004b4618191b4901f05ffe2418e4b201353c
:10202800edb20137052df1d1002e12d045464746b5
:102038000137731edbb2ff18104e1f360022aa5656
:102048003019104901f048fe2418e4b20135bd42a8
:10205800f4d10a4e35001f35281903220a4901f028
:102068008dfe0234e2b2f068290000f055fc0cbc89
:1020780090469946f8bd0724d6e7c04604110020cb
:0c2088005c3d0000643d00006c3d000069
:020000040000fa
:1020940010b5031f802464041c60043b1960043bd6
:1020a40016491960043b16491960043b1549196027
:1020b400043b15491960043b14491960043b1a6038
:1020c400043b134a1a60043b124a1a60043b124a46
:1020d4001a60043b114a1a60043b114a1a60043b1b
:1020e400104a1a60043b104a1a60043b0f4a1a60f3
:1020f400443803235b42036010bdc046c13d000069
:10210400121212120303030302020202010101016b
:1021140011111111101010100909090908080808f3
:102124000707070706060606050505050404040453
:020000040000fa
:10213400f0b583b0040001911f4b1e681f4b1f684c
:102144001f4b1d681f4b1868043001f0edfb631c26
:102154000dd034191b4b1b685c60a6421ed9194b69
:1021640019680431280001f0a9fa03b0f0bd019bfd
:10217400002beed0144a5168124b1868816018681d
:102184008c68c46018680430606018680430886023
:102194001b685a61136801331360e6e7094b196839
:1021a4000431380001f08afa084b1b68a342dcd9d9
:1021b400064b1c60d9e7c0465413002024130020aa
:1021c4002813002020130020cc12002044130020e8
:020000040000fa
:1021d40010b5002834d1224b5b7b5bb2022b32d08a
:1021e4001f48012202730b6803614b68c3618b684b
:1021f400836000234360436202840370cb684361bd
:10220400cb688361303001f06bfb00281ed014488a
:102214002c3001f065fb00281bd01148002300225c
:102224000021343000f01efe002815d00c4c236928
:102234009b6921000b48984702236373002007e041
:102244000120404204e00120404201e001204042dc
:1022540010bd01204042fbe701204042f8e7c046a0
:08226400c01100201d3700002d
:020000040000fa
:10226c001f4b5a6852031b68db0c13439b029b0adf
:10227c001c4a936300235375110004228b691a4284
:10228c00fcd118491022cb681a42fcd0154a137d98
:10229c0080210b431375144b00229a611a61134b66
:1022ac00134a1a62190004224b681a42fcd10f4ad5
:1022bc00d4234021d15010009431402243581a426b
:1022cc00fcd00a4adc234021d15010009c31402222
:1022dc0043581a42fcd0074b2822da617047c0469b
:1022ec00206080000010004000140040001c0040e2
:0822fc0006010100000800408a
:020000040000fa
:1023040030b405004d400124e407254042004b0051
:10231400120e26d01b0e34d0ff2a2dd0ff2b35d021
:10232400d21a000220430902214343084908a00da0
:102334005b1a02d2013a5b005b185b008b4200d34c
:102344005b1a4041f9d37f3222ddff2a06d2d2053f
:10235400c91a8b425041284330bc7047ff20c00546
:10236400f9e71b0e03d0ff2b12d1490210d07f20b6
:1023740000010c300005efe74002f8d1ff2bedd14e
:10238400f5e7ff2aead14002f1d1e7e74902eed1ad
:042394002800e1e755
:020000040000fa
:1023980070b50400430707d0072302009a431300cf
:1023a8000833834227d91c0001f040fd184b1b68f5
:1023b800002b0dd0002c24d0164b1b681c19164a74
:1023c80094420bd8a3420cd3fef72afc1be000244e
:1023d8000f4a124b07218b431360ebe7fef720fcf3
:1023e80011e00b4a1568ed180a4b1c60fef718fc43
:1023f800002d0bd107e001f019fd054b1b68002be0
:10240800e5d0fef70dfc01f03dfb0025280070bd6e
:10241800181300201c130020f70f000007000020ed
:020000040000fa
:10242800002934d00123002210b488422cd301247f
:102438002407a14204d2814202d209011b01f8e714
:10244800e400a14204d2814202d249005b00f8e7cd
:10245800884201d3401a1a434c08a04202d3001bf9
:102468005c0822438c08a04202d3001b9c0822432c
:10247800cc08a04202d3001bdc082243002803d06a
:102488001b0901d00909e3e7101c10bc704701b50e
:10249800002001f063fd02bd0029f8d003b5fff765
:0c24a800c1ff0ebc4243891a1847c04611
:020000040000fa
:1024b40070b5041e09d0436c8b4200d20b00e26a53
:1024c4009a4202d0a16c012900d070bde362a169d7
:1024d400002902db0521cb1aa36193009a1892000c
:1024e400134b9a1863699342efd1251d280001f01c
:1024f4001bfae26a0f4b1b689a4201d90d4b1a6012
:102504000b4993009b189b00cb185b68a3609a68e7
:10251400e26055609d60e06a83001a1892008a1890
:1025240062611a189200535801335350cde7c046e4
:08253400001000203c13002000
:020000040000fa
:10253c0070b5050001f040fb4523ec5c64b2002c47
:10254c0004dd2e0024366b6a002b1fd14523ff229d
:10255c00ea5401f03dfb01f02ffb4423ec5c64b228
:10256c00002c04dd2e0010362b69002b1dd14423ca
:10257c00ff22ea5401f02cfb70bd01f0bdfc013cc4
:10258c0064b2002ce2d06b6a002bdfd03000fff776
:10259c0029fa0028f3d0f0e701f0aefc013c64b25c
:1025ac00002ce4d02b69002be1d03000fff71afa95
:0625bc000028f3d0f0e757
:020000040000fa
:0225c200fee732
:020000040000fa
:1025c400f8b51e4b1b7d002b37d01c4a936851680d
:1025d4001b4a127ed2071dd599421bd918490726da
:1025e400164a944617001500012409e03a68d25ca3
:1025f4000a85013368680a7e22420bd0984209d9c1
:102604004a683240012af1d1624612685800825a5f
:102614000a85eee7094a936052689a420dd8074b3f
:1026240000221a755a60064a01211175db68002bd5
:1026340003d0024b1869db689847f8bdf8110020f5
:04264400001400423c
:020000040000fa
:1026480070b505000e00002834d00020090c2b0cb2
:102658008ab2002a29d19ab2002a18d100282cd18e
:102668003000684300240300493324d84830fff77a
:102678008ffe041e1fd00300002e00d048332360b5
:10268800e563266401212000fff7a2fb13e0191c73
:10269800341cb3b2aab25a43a4b28bb26343120c2d
:1026a8009b181b0cdad00120d8e79bb2002bfad17b
:0e26b8002c1ceee70024200070bd0024fbe780
:020000040000fa
:0226c600fee72d
:020000040000fa
:1026c80070b5041e31d0836c013b8364c26a416ccf
:1026d8008a422cd00020002b00d070bd251d280078
:1026e80001f020f9626ce26205239b1aa361114b89
:1026f8001b689a4201d90f4b1a600f4993009b1827
:102708009b00cb185b68a3609a68e26055609d6087
:10271800e06a83001a1892008a1862611a189200f7
:102728005358013353500120d7e70020d5e7002044
:0c273800d3e7c0463c1300200010002036
:020000040000fa
:10274400f0b51d00012389b014000e9a06001a404a
:102754000391029201d1a5420ad8220003993000c4
:1027640001f032f8a54203d82500280009b0f0bdd5
:102774002f1b01973a00102f00d91022202104a802
:1027840001f008fb019b0f2b0ed80f2204a93a403d
:10279400300001f019f8029b002be6d122000399c6
:1027a400300001f011f8e0e7102204a9300001f034
:0a27b4000bf8019b103b0193e4e7d2
:020000040000fa
:1027be0070b504001600856b026c002a0cd1002047
:1027ce002368002b02d00135a56370bda068fff70a
:1027de0074ff0023a360f6e7002e0ed1406801f0cf
:1027ee00cafa6368226c9446634463603000a26840
:1027fe009342e8d323686360e5e7c06801f0bbfa53
:10280e00236c5a42e3689b18e36021688b4203d223
:10281e00a3689c466244e2600020022ed3d1002db4
:06282e00d1d0013dcfe70f
:020000040000fa
:10283400f7b5040019000a9fe368666800933b68d3
:10284400100001932369013b1c00002e00da0126cd
:102854000022009dea5435000123002c03dc002be8
:102864001cd02000febd02000a4309d1002d07dc64
:10287400089a921b5219002af1dd019a9207eed5ab
:10288400099b099adb1700f0fdfd8c460099013c79
:10289400130030320a55013d6146dee710233a68e1
:0628a4009a433a60dde7f3
:020000040000fa
:0228aa00704775
:020000040000fa
:1028ac0070b5002830d0194b1a7d0023002a29d18d
:1028bc00164b1860596001321a755c68144b1b7efc
:1028cc00db0716d5002c17d000231149072601254c
:1028dc0007e0c25c0a8501330a7e2a420bd09c4277
:1028ec000ad04a683240012af3d15a00825a0a852a
:1028fc00f1e7002400e01c00044b9c60044b012217
:10290c009a750123180070bd0023fbe7f811002015
:04291c000014004261
:020000040000fa
:10292000f0b583b00f000091150000f0c3fb061e48
:102930002bd00024002d29d0002f27d007682c236e
:102940009c46bc446346019301214942604601f024
:102950005cf801281ad10023b3603e623b699b6991
:10296000290000989847012138003430494201f08d
:102970003bf8012803d0019800f052ff06e0242321
:10298000fc5c63425c41e4b2f5e70024200003b044
:02299000f0bd98
:020000040000fa
:10299200f0b583b00f000091150000f08afb061e0f
:1029a2002bd00024002d29d0002f27d007683023f8
:1029b2009c46bc446346019301214942604601f0b2
:1029c20023f801281ad10023b360fe613b695b68da
:1029d200290000989847012138003830494201f017
:1029e20002f8012803d0019800f019ff06e0252320
:1029f200fc5c63425c41e4b2f5e70024200003b0d2
:022a0200f0bd25
:020000040000fa
:102a040010b5194a2c23d35c002b18d01300d269bb
:102a14001b6a934213d2144b986a14490a8d92b2da
:102a24001b6a4c6807212140012909d00e49896994
:102a3400ca5401330c4a1362d2699a4205d010bdbc
:102a4400094989695c006252f3e7074b00222c2193
:102a54005a54da61054a583111755b6a002beed07d
:102a6400014b5b6a9847eae7f81100200014004222
:020000040000fa
:102a740010b503781b024078184300b2002819db14
:102a8400c01101f05df80022114bfdf7adfe00f01e
:102a9400e1fd00b200f011ff0e49fff740f90e49c5
:102aa400fff72efc8421c905fef710fa00f00afd99
:102ab40040b210bd404200b2c01101f041f8002202
:102ac400064bfdf791fe00f0c5fd00b2e2e7c046fb
:102ad4000000e03f000010410000a0400000e0bf03
:020000040000fa
:102ae40010b582b08022104b01930124009400237e
:102af40052000e490e48fdf791fc0e4b01930094d1
:102b04000023c0220c490d48fdf788fc0c4b0193af
:102b14000094002340220b490b48fdf77ffc00f092
:102b240015f802b010bdc04610130020003100009b
:102b3400313f00000c13002018310000293f000031
:0c2b44001413002030310000993900000b
:020000040000fa
:102b500000b587b002a949230b70053b4b700833c1
:102b60008b70073bcb7000230b710e4a01920093d0
:102b700080220d48fdf754fc002801d0012803d025
:102b80000a4b1b6807b000bd72b6094b01225242c6
:102b90001a60084b02321a60074b00221a6000f0dc
:102ba000cbfbede740130020f53b00007013002045
:0c2bb00044130020501300205413002098
:020000040000fa
:102bbc00f0b583b00400019101f0b8f90600a36be5
:102bcc000025e26b9a420ad94522a75c7fb20133f9
:102bdc00a3637b1c15d10135636a002b05d1300032
:102bec0001f0aff9280003b0f0bd20002430fef74f
:102bfc00f9fe0028f3d0019a002a0cd001231360af
:102c0c00ede701f073f901258742e8d27b1c5bb23a
:0a2c1c004522a354e3e70125e1e798
:020000040000fa
:102c260010b584291fd007dc812915d0822922d02e
:102c3600802911d0002010bd90291cd008dc8829dd
:102c4600f8d119680c1d1c600b6803601a7010e03f
:102c5600a02901d0c029edd119680c1d1c600b6894
:102c660003601a6005e019680c1d1c600b680360a0
:102c76001a800120dfe719680c1d1c600b680360d1
:082c86001a60d2175a60f4e74e
:020000040000fa
:022c8e0070478d
:020000040000fa
:102c900000b583b0154b1b78002b0ad0134b586836
:102ca00001226b46d91dfff774fe00280dd103b039
:102cb00000bd00210020fef745fd0c4b5860431c71
:102cc000ecd00a4b01221a70e8e7084901230b7285
:102cd0006b4607331b78cb6001220831044b186820
:102ce00000235242fef73afbe1e7c046f41200200f
:042cf0005c13002051
:020000040000fa
:102cf400144b01221a601a00d369002bfcd1114b2a
:102d0400802252005a601a00d369002bfcd10d4b6b
:102d1400e822da600c4a1a601a00d369002bfcd14d
:102d2400084b10225a831a00d369002bfcd1074b9d
:102d3400002221215a5401395a54024b83329a7584
:102d44007047c046000c00421600100028120020f4
:020000040000fa
:102d540010b5124b06225a6000f03efafff784facf
:102d640001f092f8fff7c4fffdf7e7fd00f0a8f8c3
:102d740001f066f80a490020fff72afa094c20609e
:102d840009490020fef7c4fd606001f0bff801f0be
:102d9400c3f800f069fe00f035fb10bd00400041af
:0c2da400243e0000041300202c3a000024
:020000040000fa
:102db00070b505000c0000f005ff124b1a6823687f
:102dc000591c1ad06968104800682e68864205d0e0
:102dd000914203d80023236001240fe0501a83425c
:102de00003d800232360012408e09b1a5b182360aa
:102df000280000f00bff002400e0002400f0eefead
:0c2e0000200070bd541300204813002077
:020000040000fa
:102e0c0000230e4a10b513600d4a13600d4a13606f
:102e1c000d4a13600d4a13600d4a5362136101335e
:102e2c00936000f048f800f046f80a4c0a4b9c42bc
:102e3c0000d310bd08cc9847f8e7c04664130020b7
:102e4c00c0100020bc100020b4100020b8100020ce
:0c2e5c00c4100020c8000000cc000000e2
:020000040000fa
:102e680070b504001d00002906d001291bd00023dd
:102e78000360012040421fe00020012b1cd80322e0
:102e880000210130fff7dcfb2060002810d0012d65
:102e98000ed1002300220021fef75cfa01384342dc
:102ea800584140b208e01900100000f0f1fc206021
:0a2eb8002068431e984140b270bd2f
:020000040000fa
:022ec200704757
:020000040000fa
:102ec400114b124a1a60124a9a81c02292025a6025
:102ed4001a00d369002bfcd10b4a136802210b435f
:102ee4001360d369002bfcd10a4b00229a61da618a
:102ef4001a622c215a545a621a605a609a601a75de
:102f0400da60da857047c04600140042040131409b
:082f14002bf6fffff81100206d
:020000040000fa
:102f1c0010b5114b00229a61da61104b83321a768c
:102f2c005a680f4c22405a601a00d369002bfcd10e
:102f3c0000290cd0084a20330324d4544000084301
:102f4c00064b58621a00d369002bfcd110bd024a03
:102f5c0020230424d454f1e728120020000c004252
:042f6c00fffffbff69
:020000040000fa
:102f700010b5134b9b7d002b1ad0114a137edbb288
:102f8000927d52b2002a14db0d4a137edbb2927d91
:102f9000d20703d5db0701d5fff714fb084a137ee0
:102fa000dbb2927d520703d55b0701d5fff72afdff
:102fb00010bd5bb2002be7da00f0a6fae4e7c046ea
:042fc00000140042b7
:020000040000fa
:102fc40070b50400c56903695b6a9847002808d195
:102fd4000023ab602522a3542000383000f044f9cc
:102fe40070bda36c1a6890420fd05a6890420ad000
:102ff4009a680023904204d0ab6025230122e25456
:10300400eae7023302e0012300e000230133f3e79f
:020000040000fa
:10301400f8b5104b1b68002b1ad00f4f0f4e0d4df7
:1030240000f0cefdfb68dc68201d00f07dfc3368f9
:10303400013b33602b68013b2b6000f0cdfd206b1e
:10304400fff723fe2000fff720fe2b68002be7d1bb
:10305400f8bdc04630130020e01200202c130020dd
:020000040000fa
:1030640030b51500012289b0524201920432ff3278
:103074000292002800d16846002403900491a142e2
:1030840000d04c1e0594002906da4f220120074b7c
:1030940040421a6009b030bd0022079002700690c9
:1030a4001a00290001a800f0c7fdf3e76813002007
:020000040000fa
:1030b4000200431e033317d803041b0e16d1ff204e
:1030c40010400d4b9b68984212d283001b189b0042
:1030d400094948691818c36893420bd1037c5a1ee6
:1030e40093415b42184070470020fce70020fae758
:0c30f4000020f8e70020f6e76410002040
:020000040000fa
:103100004150505f53454e534f525f5448524541d2
:10311000445f5461736b73004150505f454550529a
:103120004f4d5f5448524541445f5461736b730087
:103130004150505f555345525f494e5055545f546e
:0c31400048524541445f5461736b7300ba
:020000040000fa
:10314c0010b5064c2378002b07d1054b002b02d071
:10315c00044800e000bf0123237010bd741200204e
:10316c000000000000000000044b10b5002b03d041
:10317c000349044800e000bf10bdc0460000000039
:08318c00781200200000000091
:020000040000fa
:103194000200431e033315d803041b0e14d1ff335e
:1031a40003400c4989688b4210d21b010949c86944
:1031b4001818836893420bd183795a1e93415b425a
:1031c400184070470020fce70020fae70020f8e7e9
:0831d4000020f6e7c011002005
:020000040000fa
:1031dc0010b58223db05802212021a600d4a1a6197
:1031ec0001224c215a5401315a5400214f201954b8
:1031fc000d3006241c5426381c341c540130195430
:10320c0007301954ca315a5401315a54b4329839ce
:08321c00995410bd0080001060
:020000040000fa
:1032240010b50a4b98470a4b984700f0f9f9094b37
:10323400ff229343084a9360084b9847084b9847ea
:10324400084b984700f012fefee7c046ab2800008a
:10325400ab2800000000000000ed00e00d2e00008f
:08326400ab280000ab280000bc
:020000040000fa
:10326c0000b583b000230193002815d00068002816
:10327c0014d001a9fff79cfc0023002802d11800f0
:10328c0003b000bd0133019a002af8d0044b802210
:10329c0052051a600123f2e70023f0e70023eee762
:0432ac0004ed00e04d
:020000040000fa
:1032b0000e4b002221215a5401395a540c4a1368ea
:1032c0001e398b431360d369002bfcd1084a136865
:1032d00002210b431360d369002bfcd1044b102255
:1032e0005a831a00d369002bfcd1704728120020a2
:0432f000000c00428c
:020000040000fa
:1032f40070b504000d00002815d00c4a2c23d35cb3
:103304000020002b00d070bd00f01cfa074b9c611c
:10331400dd6100221a622c2101205854da85044b05
:1033240084329a75efe70020ede7c046f8110020db
:04333400001400423f
:020000040000fa
:1033380010b50d4b1968ff2212040a431a60196868
:10334800ff2212060a431a600024084b1c6000f092
:103358008bfa074b1c6000f077fdfef7b3fb00f01b
:103368002bfd002010bdc04620ed00e01ced00e064
:043378006c130020b2
:020000040000fa
:04337c0072b6fee740
:020000040000fa
:10338000eff309800e4a1168243808607346f8c0cc
:1033900044464d4656465f46f0c072b6fef796fb71
:1033a00062b6074a116808681430f0c8a046a946fa
:1033b000b246bb4680f309882438f8c81847c0468f
:0433c00020130020b6
:020000040000fa
:1033c400f7b597b201933b00140c86b2050c734316
:1033d4006f4366436543f6191c0ca4199c46a74227
:1033e40002d980235b02ed186346260c7519240468
:1033f4009eb2019ba4194343200051435b19591801
:0434040003b0f0bd64
:020000040000fa
:10340800bff35f8f62b60c4bc22080001a581202bd
:10341800120ac02109060a431a50802212011a60b2
:1034280004301a5805491140c02212020a431a50a2
:10343800802292011a60704700e100e0ff00ffff60
:020000040000fa
:10344800030010b51a78202a0dd011000939042973
:1034580009d900212b2a02d02d2a01d101310133ab
:1034680000200a2404e00133ece760430133801aaa
:103478001a78303a092af8d9002900d1404210bdfb
:020000040000fa
:10348800002b11d1002a0fd1002900d1002802d029
:103498000021c943081c07b4024802a14018029041
:1034a80003bdc046b90a000003b4684601b50298d6
:1034b800fef7baf9019b9e4602b00cbc7047c046a5
:020000040000fa
:1034c8004200110e7f390fd40123db0749421f3117
:1034d8000cdd400003d2c0011843c8407047c0014a
:1034e8001843c8404042704700207047ff21090632
:0e34f8008a4200d99843184000d4d843704748
:020000040000fa
:1035080010b50c4b5b8b0722134000d110bd0a4c41
:10351800e38500f015f9074b84221a752c23002245
:10352800e254636a002bf1d0034b986a5b6a9847b0
:0c353800ece7c04600140042f81100202f
:020000040000fa
:103544001c2101231b04984201d3000c10391b0acf
:10355400984201d3000a08391b09984201d3000993
:10356400043902a2105c40187047c04604030202ea
:0c35740001010101000000000000000047
:020000040000fa
:1035800010b50c4c2023e45c0023002c01d0180063
:1035900010bd084b9880d9605a6100229a601a6168
:1035a000012199701a7020315a542039fff7b6fc66
:0835b0000123ece728120020c2
:020000040000fa
:1035b80070b50c4d20242d5d0024002d01d0200075
:1035c80070bd084ca080e360049b6361a160226128
:1035d8000023a37023702122a3540021fff79afc33
:0835e8000124ece72812002089
:020000040000fa
:1035f00010b50b4c2023e45c0023002c01d01800f4
:1036000010bd074b9880dc605c6199601a619c700a
:103610001c7021229c540021fff780fc0123eee75f
:04362000281200204c
:020000040000fa
:1036240010b50a480168002903d14368002b00d172
:1036340010bd04008368064a9bb20c349b009b585f
:1036440042682000984780002018ebe7c80a000071
:04365400703d0000c5
:020000040000fa
:10365800f4464a1805d200f048f801d5c0174008ca
:10366800604701235b05d34206d200f03ef801d53e
:103678000120c0074042604701d10042f5d0d01771
:04368800400870473f
:020000040000fa
:10368c00f0b5050000200a4a4400a65c002e02d1c9
:10369c0012195078f0bd296801300f78c0b2b742ca
:1036ac0003d112190131507829600a28ebd9f1e7be
:0436bc00f63c0000d8
:020000040000fa
:1036c00030b50c6802000832631c02d1026904e0c4
:1036d0001a0053681d68a542fad953684b60996077
:0e36e0008a605160086103680133036030bde9
:020000040000fa
:1036ee004a0010d2520d03231b02ff33d21a0ad402
:1036fe0052421f3209d4400dc90208430123db0791
:0e370e001843d040704700207047d017704716
:020000040000fa
:10371c0070b50400456a03691b69984768716b7939
:10372c00002b07d128330022e25420003430fff75d
:0c373c0097fd70bd28230122e254f6e73f
:020000040000fa
:10374800094b5b8b5b070dd0074b80221a76793ac1
:103758005a831b7e5b0705d5034b04211a8d1a7efd
:0c3768000a42fbd17047c046001400422a
:020000040000fa
:10377400d53e0000f5320000153e0000c93e0000b1
:1037840049380000bd3e0000ad280000a53e000001
:0c379400b13e0000053e000041110000a5
:020000040000fa
:1037a000084b1b681b68002b04d1074b01225242b7
:1037b0001a607047034b1b68db681a68024b1a607b
:0c37c000f7e7c04624130020441300204b
:020000040000fa
:1037cc0070b505690400954200d91500002d0bd089
:1037dc002a00606900f0d0fa226963695b19551bf5
:0a37ec000022636125611a7070bdb0
:020000040000fa
:1037f600002380290fdb812901dd83290bd10721d5
:10380600136807338b431900083111601a685b6827
:0a38160002604360012318007047b0
:020000040000fa
:1038200010b500280cd0006800280bd0002300221f
:103830000021fdf793fd01384342584140b210bdcd
:083840000020fce70020fae77c
:020000040000fa
:10384800074a2c23d35c002b08d0064b84221a7518
:10385800034b00222c215a54da611a620120704766
:08386800f811002000140042d9
:020000040000fa
:10387000054b04221a60054a00211160044a0549db
:10388000116007221a60704710e000e018e000e0c5
:0838900014e000e07fbb000022
:020000040000fa
:1038980010b503000c0000280bd000208b4209d380
:1038a800022200211800fef7cbfe002802d0846314
:0638b80000e0002010bd3d
:020000040000fa
:1038be00c20f12029d3201000cd001d5494202d432
:1038ce00013a4900fcd5d205080a0906494100d340
:0638de0001295041704772
:020000040000fa
:1038e40010b5041e0cd000202368002b00d010bd9e
:1038f400013000f03df82060431e984140b2f6e7e5
:043904000020f4e7c4
:020000040000fa
:1039080010b500f015fb0400fdf716f8002803d0e9
:10391800034b802252051a60200000f014fb10bdf2
:0439280004ed00e0ca
:020000040000fa
:10392c000369416882688a60416851605a688242c2
:10393c0005d0002202611a68501e18607047826818
:04394c005a60f6e7e0
:020000040000fa
:1039500010b50c00026c002a0bd0c3689b18c36022
:1039600081688b4201d30368c360c168200000f006
:0439700009fa10bd83
:020000040000fa
:1039740010b5020000210120fef764fe041e07d0ea
:10398400002383600360c36000220021fdf7e4fc90
:04399400200010bd42
:020000040000fa
:0839980010b5fff779f9fce717
:020000040000fa
:1039a000074a1168086804c8022181f3148820308e
:1039b00080f30988bff36f8f1047c046c046c046ea
:0439c00020130020b0
:020000040000fa
:1039c40041000dd2090e7f390ad449421f3105d472
:1039d40000020122d2071043c8407047c81770473d
:0439e4000020704708
:020000040000fa
:1039e80010b5002809d00068002808d0fdf709fba9
:1039f80001384342584140b210bd0020fce7002086
:023a0800fae7db
:020000040000fa
:103a0a0010b5002809d00068002808d0fdf7f8fa98
:103a1a0001384342584140b210bd0020fce7002063
:023a2a00fae7b9
:020000040000fa
:103a2c007437000003000000481100200c3d00001a
:103a3c00943b0000ec3e0000e03e00000300000060
:020000040000fa
:103a4c0010b5041e09d000f0eff900212000fef79c
:103a5c006bfbfdf7e3f8002801d100f0a1f810bdd5
:020000040000fa
:103a6c0010b5054b00221a7008210320fef7e6fd65
:103a7c00024b186010bdc046f41200205c130020ed
:020000040000fa
:043a8c0072b6fee729
:020000040000fa
:103a900004207146084202d0eff3098040e1eff3c1
:103aa00008803de1c046c046c046c046c046c0464c
:020000040000fa
:103ab00010b50c1e07d0fff76dfb002805d023685a
:0e3ac000c360012010bd0020fce70020fae7e3
:020000040000fa
:103ace009d2201000ad002d4013a4900fcd5d2054c
:0e3ade00080a0906494100d3012950417047ea
:020000040000fa
:103aec00002310b5934206d103201840421e90418a
:0e3afc009b08c01810bdc45ccc540133f2e727
:020000040000fa
:103b0c0081350000f1350000b9350000b1320000fc
:0c3b1c00f53d000051120000993e000031
:020000040000fa
:103b280010b50c00044b19681831fff7c5fd0121c9
:0c3b38002000fef7fbfa10bd2013002057
:020000040000fa
:103b4400054b004206d5404200b5984708bc012207
:0c3b5400d207114318470000613b00003d
:020000040000fa
:103b600042221201033a010007d002d4013a0018a0
:0c3b7000fcd51205c30a400599187047e7
:020000040000fa
:103b7c0010b584b004240294079c0194069c009414
:083b8c00fdf7f8f804b010bdcc
:020000040000fa
:103b9400020000000000000000000800ffffffff1b
:083ba400ffffffffffffffff21
:020000040000fa
:103bac00044b802252051a60bff34f8fbff36f8f07
:083bbc007047c04604ed00e073
:020000040000fa
:103bc40072b6044a136801331360bff34f8fbff317
:083bd4006f8f70476c13002095
:020000040000fa
:103bdc00044b1a68013a1a601b68002b00d162b6bc
:083bec007047c0466c13002075
:020000040000fa
:103bf40010b5044cfff70cfa2368012bfad9fff730
:083c0400d3fff7e700100020d8
:020000040000fa
:103c0c00034b1b680360034b1b6843607047c04643
:083c1c0048130020541300209e
:020000040000fa
:103c240054656d7065726174757265203d202564fc
:083c340020460d0a0000c04605
:020000040000fa
:103c3c0013b50400019201aafcf74efa6368db0687
:083c4c0001d50120404216bd24
:020000040000fa
:103c5400d0400b1cd1409c46203ad34018435242da
:083c64006346934018437047ca
:020000040000fa
:103c6c009140031c90409c46203a93401943524289
:083c7c006346d3401943704771
:020000040000fa
:103c840010b5002903d1fff75bfc203002e0081ccb
:083c9400fff756fc10bdc0460d
:020000040000fa
:103c9c000378002b06d0030001331a78002afbd1dd
:083cac00181a70470020fce724
:020000040000fa
:103cb40010b584b002240294002401940094fdf70a
:063cc4005df804b010bd24
:020000040000fa
:103cca00030008334360012252428260c3600361e9
:063cda00002303607047a7
:020000040000fa
:103ce0000eb403b503aa02ca019200f05ff802b055
:063cf00008bc03b01847f8
:020000040000fa
:103cf60068076c094c836a9074a07ac00080688853
:063d060000846c820081c4
:020000040000fa
:103d0c000500000006000000070000000000000095
:043d1c0001000000a2
:020000040000fa
:103d200010b58369023b1b78642b00d010bdfff7f0
:043d300037fefbe778
:020000040000fa
:103d340010b50400fff744ffa46bfff74dff60428a
:043d4400604110bd0d
:020000040000fa
:103d4800034b1868002802d0836c013383647047e2
:043d58002013002014
:020000040000fa
:103d5c00454550524f4d3a002564467c000000000a
:043d6c000d0a00003c
:020000040000fa
:103d7000d33d0000ed3a0000553f0000553f0000e4
:043d8000553f0000ab
:020000040000fa
:103d840010b5002a05d00023cc5cc45401339342ff
:043d9400fad110bd93
:020000040000fa
:103d9800002a06d00300c9b2821819700133934271
:043da800fbd1704794
:020000040000fa
:103dac0010b513000a000249fff756f910bdc046c2
:043dbc00ffffff7f87
:020000040000fa
:103dc00082b00023019372b6019b002bfcd002b09d
:023dd00070473a
:020000040000fa
:103dd2008a18914201d10020704700230b700131f3
:023de200f7e701
:020000040000fa
:103de40010b524230022c2543430fff73dfa10bd2d
:020000040000fa
:103df400024a2123d05cc0b27047c046281200207a
:020000040000fa
:103e0400024bd88d80b20022da857047f811002069
:020000040000fa
:103e1400024a2c23d05cc0b27047c046f81100207f
:020000040000fa
:103e24000c3b00005412002002000000640000005b
:020000040000fa
:103e3400024a1368013313607047c04634130020ec
:020000040000fa
:0c3e44008223db05802212029a61704785
:020000040000fa
:103e500062b6bff34f8fbff36f8f64dfc046c046bb
:020000040000fa
:103e60000122d2075140014b18470000d50e000037
:020000040000fa
:0e3e700010b50020fef76efffef734fefce7f3
:020000040000fa
:0e3e7e000300413b192b01d820231843704745
:020000040000fa
:0c3e8c00014b84225a6070470040004146
:020000040000fa
:0c3e9800014b586299627047281200200c
:020000040000fa
:0c3ea400014b187dc0b27047f8110020df
:020000040000fa
:0c3eb000014b98687047c046f8110020d4
:020000040000fa
:0c3ebc00014bd86019617047f81100201c
:020000040000fa
:0c3ec800014b186a7047c046f81100203a
:020000040000fa
:0c3ed400014b586299627047f811002001
:020000040000fa
:0c3ee000040000000000000002000000d0
:020000040000fa
:0c3eec0000000000ffffffff400000008e
:020000040000fa
:0c3ef800014b18687047c0462c130020d6
:020000040000fa
:0c3f0400014b01221a6070475813002086
:020000040000fa
:0c3f1000014b00221a7070478411002041
:020000040000fa
:0c3f1c00014b00221a70704704110020b5
:020000040000fa
:083f280010b5fdf791fbfce769
:020000040000fa
:083f300010b5fdf731fefce7be
:020000040000fa
:083f3800eff3108072b6704730
:020000040000fa
:083f4000286e696c29002500c0
:020000040000fa
:063f480000230361704735
:020000040000fa
:063f4e0080f310887047ab
:020000040000fa
:043f54000020704792
:020000040000fa
:043f5800002070478e
:020000040000fa
:043f5c00002070478a
:020000040000fa
:043f60000020704786
:020000040000fa
:043f64007047c0469c
:020000040000fa
:0200000400807a
:04400000770800003d
:020000040000fa
:0200000400807a
:044004000000ffffba
:00000001FF
