:020000040000fa
:020000040040ba
:10000000f0ff4520490740004112400043124000e4
:1000100047124000491240004b124000000000000f
:100020000000000000000000000000008b114000f4
:1000300045124000000000008b11400009114000f3
:100040008b1140008b1140008b1140008b11400040
:100050008b1140008b1140008b1140008b11400030
:100060008b114000000000008b1140008b114000fc
:100070008b1140008b1140008b1140008b11400010
:100080008b1140008b1140008b1140008b11400000
:100090008b1140008b1140008b1140008b114000f0
:1000a0008b1140008b1140008b1140008b114000e0
:1000b0008b1140008b1140008b1140008b114000d0
:1000c0008b1140008b1140008b1140008b114000c0
:1000d0008b1140008b1140008b1140008b114000b0
:1000e0008b1140008b1140008b1140008b114000a0
:1000f0008b1140008b1140008b1140008b11400090
:100100008b1140008b1140008b1140008b1140007f
:100110008b11400000000000000000000000000003
:100120008b1140008b114000510c40008b1140009e
:100130008b1140008b114000000000008b1140002b
:100140008b1140008b1140008b1140008b1140003f
:100150008b1140008b1140008b1140008b1140002f
:080160008b1140008b114000df
:020000040000fa
:020000040040ba
:10016800f8b500bff8bc08bc9e467047650f400054
:10017800f8b500bff8bc08bc9e467047410f400068
:020000040000fa
:020000040040ba
:1001880030b583b0a54b1b780e2b00f2dc81dfe87d
:1001980013f00f0012002b003a0052006d00870088
:1001a8009900bd00d900bc0101017f016301d001a4
:1001b8009a4b01221a709a480021016081806623b7
:1001c800037000f013ff002800f0c18194489923c0
:1001d80003700021417000f009ff002800f0b7818a
:1001e8008e4b02221a70b5e18d4800210160818092
:1001f8003823037000f0fafe002800f0ad81874b29
:1002080003221a70a6e100f08dff012803d0834b6a
:100218000f221a709ee182480021c0f8021098232c
:1002280003700623437000f0e1fe0028efd07b4bfb
:1002380004221a708ee17b48af23037006234370b3
:10024800022383700322784900f0bcfd002800f0e7
:100258008781724b5a68754b9a4203d06f4b0f22b5
:100268001a7077e16d4b05221a7073e1704b1c68a8
:1002780000f058ff012803d0684b0f221a7069e17b
:1002880067482023037006234370012383702146a7
:1002980000f0acfe0028efd0604b06221a7059e13e
:1002a80000f06afe012840f05581614a136803f5a1
:1002b80080531360b3f5a03f584b34bf0522072283
:1002c8001a7047e15b4b1c6800f02cff012803d033
:1002d800524b0f221a703de15748002303604360d8
:1002e80083600223037006238370544b4ff400226b
:1002f8001a6323464ff480725149214400f01afcd6
:100308000028e5d0454b08221a7023e100f034fe9e
:10031800012840f01f81494b4ff400225a63454a97
:10032800136803f580731360b3f5a03f03d23b4b0a
:1003380007221a700ee1394b09221a703d4b002230
:100348001a6007e13c4800230360436083600b2286
:10035800027006228270c2723a4a042111634ff475
:10036800a032394900f01ef9002800f0fd80354b15
:1003780004225a6334484ff4a0320146104400f076
:10038800f2fe18b9254b0b221a70e3e0234b0f221b
:100398001a70dfe0274b1c6800f0c4fe012803d068
:1003a8001e4b0f221a70d5e025492144224b00220a
:1003b8001a605a609a600220187006259d70009293
:1003c800224b1c63586343f2b6029a639b6b0093fb
:1003d800009b01f01f00bff34f8f0b461c4d01f52a
:1003e80080720244c5f868322033d01a0028f9dc3c
:1003f800bff34f8fbff36f8f164b4ff000421a6356
:100408004ff480732243002000f056fcbff34f8f57
:10041800bff36f8f014b0d221a709be00000402044
:10042800c4804220e080422004004020bf264200d1
:10043800d0804220d4804220b8804220000e0e4056
:100448002040412000100e402000402000c00740fe
:1004580000ed00e000120e40454b1b78002b79d0d0
:1004680000f08afd012875d1424b4ff000425a63d3
:10047800414a136803f580731360404a934294bf5e
:100488000b230c233e4a1370394b00221a7061e08b
:100498003c4c4ff4a0320021204600f09ffe3a4b1e
:1004a80000221a605a609a600b2119700620987011
:1004b800d8720192354b1a635963354a9a639b6b1c
:1004c8000193019b2346bff34f8f04f5a0323149b6
:1004d800c1f85c3220339342fad1bff34f8fbff398
:1004e8006f8f2d4b08221a63264c4ff4a0432246e7
:1004f8004ff00041012000f0dffbbff34f8fbff347
:100508006f8f0a2304f8203c24e0244b1b780bb39c
:100518001c484ff4a0320146104400f024fe002885
:100528000cbf0e220f22164b1a701c4b00221a7099
:1005380010e04ff47a7000f0bbfc194a936b83f01b
:100548002003936306e0164b20225a6302e00c4b0b
:100558000f221a7003b030bd094b0f221a70f9e749
:10056800074b0f221a70f5e7054b0f221a70f1e7b7
:10057800e380422000120e40d4804220ff3f010059
:100588000000402020004020b880422000c00740e2
:10059800b610060000ed00e000100e40ca804220b0
:0405a800000e0e40f3
:020000040000fa
:020000040040ba
:1005ac002de9f04f85b00e4600210291624c236379
:1005bc004578017841ea05416163817887880f436a
:1005cc00817919b10189394341f04007817a09b128
:1005dc0047f48047c17a090401f4f811394341f218
:1005ec00b000084354498863896b0291029916f054
:1005fc00030705d0c7f10407974201d9002102e097
:10060c00b11801f0030143f0004913f0030413d0b7
:10061c00c4f10404a2420fd214464ff0000839442e
:10062c008a4200f08680a4eb070a002c3bd1f31918
:10063c0001939b46254619e009eb020808f00308d4
:10064c0008eb0403934272d2d51a39448b4204d07e
:10065c00032de8d9043d08f10408a4eb070a1cbbe0
:10066c0006eb070b032d26d8cdf804b0baf1000f1a
:10067c0032ddb8f1000f47d118eb05024ad1002c3e
:10068c004fd12d4b1a69bff34f8fbff36f8f4ff0c4
:10069c0080721a601a46136913f4806ffbd0012024
:1006ac0005b0bde8f08f00252246494603a800f0ae
:1006bc0075fda144d4e7a9f1040225f003005844c8
:1006cc005b4652f8041f43f8041b9842f9d1a94425
:1006dc000beb05030193c9e7baf1000f03d05db929
:1006ec00019b53440193b8f1000fc8d042464946d0
:1006fc00019800f053fdc2e70aeb07002a46594661
:10070c00304400f0f5fbebe742464946019800f017
:10071c0045fdb1e70aeb07005946304400f0e8fb11
:10072c00ade7224603a9304600f02afda9e71a4698
:0c073c0075e7002591e700bf00c00740f2
:020000040000fa
:020000040040ba
:1007480008b5504b9847504b9847eff3108172b655
:100758004e4ad2f8883043f47003c2f88830bff3a9
:100768004f8fbff36f8f01b962b6494b494a5a6040
:100778009a6812f0010ffbd0454bdb6813f4c07f79
:1007880013d0454b0c221a60414b444a5a609a6870
:1007980012f0010ffbd03e4b414a5a609a6812f0a2
:1007a800010ffbd03f4b404a1a60bff34f8fbff396
:1007b8006f8f364cd4f8903223f00103c4f890328e
:1007c800d4f8943223f00103c4f89432bff34f8f66
:1007d800bff36f8f00f024fc344b23f07f03a3603a
:1007e800334b984700f06af8636913f4003f12d15d
:1007f800bff34f8fbff36f8f0022c4f85022bff3af
:100808004f8fbff36f8f626942f400326261bff3aa
:100818004f8fbff36f8f1d4b5b6913f4803f29d156
:100828001a4b0022c3f88420bff34f8fd3f88030cf
:10083800c3f3c906c3f34e335a0143f6e0751348b0
:1008480002ea0504334644ea8371c0f86012013baa
:10085800b3f1ff3ff7d1203a12f1200ff0d1bff3e7
:100868004f8f0a4a536943f480335361bff34f8f64
:10087800bff36f8f0f4b98470f4b984700f0b8fcaa
:10088800fee700bf4d1240004d12400000ed00e0b1
:10089800000c0e400d00005acc8042200c08005a73
:1008a8000c07005a00180e40010000a50000400087
:0c08b8001d0d40004d1240004d1240008c
:020000040000fa
:020000040040ba
:1008c400364b00225a60364ada60364a1a611122df
:1008d400da601a6922f001021a611222da601a69d6
:1008e40022f001021a611322da601a6922f001026d
:1008f4001a611422da601a6922f001021a611522bf
:10090400da601a6922f001021a611622da601a69a1
:1009140022f001021a611722da601a6922f0010238
:100924001a611822da601a6922f001021a61192286
:10093400da601a6922f001021a611a22da601a696d
:1009440022f001021a611b22da601a6922f0010204
:100954001a611c22da601a6922f001021a611d224e
:10096400da601a6922f001021a611e22da601a6939
:1009740022f001021a611f22da601a6922f00102d0
:100984001a6109494a6a42f480324a6205225a606d
:10099400bff34f8fbff36f8f704700bf90ed00e040
:0c09a400100000803700000300ed00e0b0
:020000040000fa
:020000040040ba
:1009b00010b400222d4bc3f814212d494ff41e33df
:1009c0004b606ff41e330b604ff0ff334b650b66cb
:1009d000c1f89030c1f8a030264808612648486127
:1009e0008a63c1f8182101f500710b604b650b6635
:1009f000c1f89030c1f8a0300c2008616ff00c00f5
:100a000048618a63c1f8182101f500710b604b65dc
:100a10000b66c1f89030c1f8a0304ff000440c6173
:100a20006ff0004048618a63c1f8182101f5007138
:100a30004c6008604b650b66c1f89030c1f8a0307f
:100a40000a614b618a63c1f8182101f500710b60de
:100a50004b650b66c1f89030c1f8a0300a614b615c
:100a60008a63c1f818215df8044b70470080084084
:0c0a7000000e0e4020000800dffff7ff22
:020000040000fa
:020000040040ba
:100a7c00908042201c00000000000000ac8042204e
:100a8c000c000000000000007080422020000000dc
:100a9c0000000000cc804220040000000000000098
:100aac00c48042200600000000000000b8804220f4
:100abc000c00000000000000e08042200300000059
:100acc0000000000ca80422002000000000000006c
:100adc00d08042200400000000000000e38042208f
:100aec000200000000000000d4804220040000003e
:100afc0000000000000040202080020000000000e8
:100b0c00d880422004000000000000002080422019
:100b1c005000000000000000dc80422004000000b7
:100b2c000000000000000000000000006666666621
:020000040000fa
:020000040040ba
:100b3c0070b582b043f0004500240194244c23632b
:100b4c004678037843ea06436363837884881c43be
:100b5c0083791bb10389234343f04004837a0bb19f
:100b6c0044f48044c37a1b0403f4f813234343f284
:100b7c00b0001843164b98639b6b0193019b032a9f
:100b8c0012d812f003031bd1bff34f8fbff36f8f3b
:100b9c000f4b4ff080721a601a46136913f4806f72
:100bac00fbd0012002b070bd9408013c0b466e1abc
:100bbc00186898510433013cb4f1ff3ff8d1e0e7d9
:100bcc0022f003001a460144284400f0e7fadbe760
:040bdc0000c007400e
:020000040000fa
:020000040040ba
:100be000184b194a9a629a6e12f0020ffbd0154afe
:100bf000136b23f07003136313469a6e12f0080f01
:100c0000fbd0104a136b23f4407343f480731363d7
:100c100013469a6e12f0080ffbd00a4a136b23f0aa
:100c2000030343f00203136313469a6e12f0080f96
:100c3000fbd0044b4ff447321a61044ac3f8002139
:100c4000704700bf00060e40013f18200008000456
:020000040000fa
:020000040040ba
:100c500070b50024184d194e10e013f0010f0ad0a2
:100c600005eb041300221a735b6823b105eb041330
:100c70005b68012098470134022c1cd02301ea183c
:100c8000eb5c9168002bf6d07369e34013f0010f21
:100c9000f1d006eb8413db6d13f0700fddd013463b
:100ca00000221a735b68002be5d005eb04135b6828
:100cb00002209847dfe770bd708042200080074027
:020000040000fa
:020000040040ba
:100cc000f0b482b000240194124c04eb0014247b95
:100cd0002cb1114c646ac44014f0010f18d10e4fae
:100ce00007eb8015ec6d0194019c0a4e06eb001693
:100cf0000124347329666a6623f07f432b67bff3b0
:100d00005f8f04fa00f0f861204602b0f0bc704733
:0c0d10000020fae77080422000800740bd
:020000040000fa
:020000040040ba
:100d1c000e4a38b5002313600d4a0e4c13600e4a70
:100d2c000e4d13600e4a13600e4a13600e4a536246
:100d3c0013610123936000f084fa00f082faac4254
:100d4c0000d338bd54f8043b9847f8e7dc804220c8
:100d5c002c80422074014000288042207801400001
:0c0d6c0020804220248042203080422061
:020000040000fa
:020000040040ba
:100d7800114bd96821f4e0610904090c0f4a0a43b0
:100d8800da60bff35f8f62b60d4ae02182f83a134a
:100d98004ff0806151605a6a42f480225a625a695f
:100da80042f010025a615a6a42f400325a625a6a90
:100db80042f480325a62704700ed00e00000fa0504
:040dc80000e100e066
:020000040000fa
:020000040040ba
:100dcc0030b583b00d46002301930378104c636358
:100ddc0083781b0403f4f81341780b4343f090031e
:100dec00a363a36b0193019b4ff00041284600f0d5
:100dfc00d5f9bff34f8fbff36f8f4ff08073236024
:100e0c002246136913f4806ffbd0012003b030bd70
:040e1c0000c00740cb
:020000040000fa
:020000040040ba
:100e200010b40f4b00221a705a609a601a731a7429
:100e30005a619a611a770b4a4ff4a8219167712081
:100e400010650121d1601970074cc2f8b840c2f892
:100e500090000220d06019745df8044b704700bf09
:0c0e600070804220008007400630050032
:020000040000fa
:020000040040ba
:100e6c0008b50d4b00221a700c490d4818440b465e
:100e7c00c1f10101ca1803f8012f8342fad10022f3
:100e8c000849104600f0ccf900220749012000f077
:100e9c00c7f900f08df908bd000040201f4041202b
:0c0eac001f800200bd1040008d104000af
:020000040000fa
:020000040040ba
:100eb80070b40e4b5e681b6813f0010f14d00c4b16
:100ec80003fb00f0094b9b6870b10021074c013609
:100ed80005e0b51a2b4419441346884204d9a26880
:100ee8009a42f6d89b1af6e770bc704710e000e00b
:040ef800e09304007f
:020000040000fa
:020000040040ba
:100efc00884210b40fd98b1883420cd984183ab19c
:100f0c00224600bf13f8014d02f8014d9942f9d168
:100f1c005df8044b7047002afad00a44431e00bf08
:100f2c0011f8014b03f8014f8a42f9d15df8044bdb
:040f3c00704700bf3b
:020000040000fa
:020000040040ba
:100f400010b5054c227832b9044b13b10448aff305
:100f500000800123237010bd90804220000000001b
:100f60000000000008b5034b1bb103490348aff371
:100f7000008008bd000000009480422000000000b6
:020000040000fa
:020000040040ba
:100f800000b583b000238df807300c4805230370ab
:100f9000062343700223837001220df10701fff73e
:100fa00015ff40b19df8070080f0010000f001003e
:100fb00003b05df804fb0220fae700bfe0804220a6
:020000040000fa
:020000040040ba
:100fc0000b4b82221a601a46136913f0807ffbd103
:100fd000074b40f601025a604ff400721a62012278
:100fe0001a601a46136913f0807ffbd0704700bf68
:040ff00000c00740f6
:020000040000fa
:020000040040ba
:100ff40083782bb10a4b1963838843f0200100e006
:1010040000210378064a536343780b4343f01003eb
:101014009363136913f4806ffbd00120704700bf02
:0410240000c00740c1
:020000040000fa
:020000040040ba
:1010280070b50a480a4d4ff6ff76016811b9436852
:1010380003b970bd83684268334000f10c0455f869
:1010480023302046984704eb8000eee77c0a4000f6
:04105800d011400073
:020000040000fa
:020000040040ba
:10105c0008b500f0ddf8fff7bdfdfff7a3fcfff7c7
:10106c00d9fefff7a7ff00f037f84ff40043034a0f
:10107c005360b03a5360fff779fe08bd00190e407b
:020000040000fa
:020000040040ba
:10108c00012803d0074b01221a707047064b4ff012
:10109c0080721a6003f5ca2308225a63034b01229b
:1010ac001a707047cb80422000c00740ca80422093
:020000040000fa
:020000040040ba
:1010bc00012803d0054b01221a707047044b4ff0e6
:1010cc0080721a60034b01221a707047e480422030
:0810dc0000c00740e380422040
:020000040000fa
:020000040040ba
:1010e400054a00231360936004495160062111608e
:1010f400034a93601360704710e000e0df9304003c
:04110400ac80422059
:020000040000fa
:020000040040ba
:1011080008b5064b5868064a12689a6801329a6010
:101118001b6813b1014b1b68984708bdac8042207f
:0411280010e000e0f3
:020000040000fa
:020000040040ba
:10112c0008b507480021c0f802100623037043706d
:10113c00fff75aff002814bf0120022008bd00bf92
:04114c00c4804220f9
:020000040000fa
:020000040040ba
:1011500010b50023934206d113f0030018bf0120fd
:0e11600000eb930010bdc45ccc540133f2e7e9
:020000040000fa
:020000040040ba
:10116e0030b501390024a24206d0035d01340d5d75
:0c117e00ab42f8d0581b00e0002030bd50
:020000040000fa
:020000040040ba
:02118a00fee77e
:020000040000fa
:020000040040ba
:10118c005ab110b40a44431e11f8014b03f8014f35
:0c119c009142f9d15df8044b7047704798
:020000040000fa
:020000040040ba
:1011a8003ab10139821811f8013f00f8013b904229
:0411b800f9d17047b2
:020000040000fa
:020000040040ba
:1011bc00034b00229a601a6842f001021a607047d1
:0411cc0010e000e04f
:020000040000fa
:020000040040ba
:1011d0000b124000511140003d1240003d124000f2
:0411e0003d1240007c
:020000040000fa
:020000040040ba
:1011e40032b1c9b20244034603f8011b9342fbd156
:0411f400704700bf81
:020000040000fa
:020000040040ba
:1011f80008b50020fff72efffff734fefef7c0ff0b
:02120800fce701
:020000040000fa
:020000040040ba
:10120a000a440023914201d10020704701f8013bb2
:02121a00f8e7f3
:020000040000fa
:020000040040ba
:10121c00014b024a1a607047000c0e400006000495
:020000040000fa
:020000040040ba
:10122c00024b03eb001041608260704770804220db
:020000040000fa
:020000040040ba
:04123c0000207047d7
:020000040000fa
:020000040040ba
:02124000fee7c7
:020000040000fa
:020000040040ba
:02124200fee7c5
:020000040000fa
:020000040040ba
:02124400fee7c3
:020000040000fa
:020000040040ba
:02124600fee7c1
:020000040000fa
:020000040040ba
:02124800fee7bf
:020000040000fa
:020000040040ba
:02124a00fee7bd
:020000040000fa
:020000040040ba
:02124c007047e9
:020000040000fa
:020000040040ba
:02124e007047e7
:020000040000fa
:02000004d0002a
:0400000002000000fa
:00000001FF
