:020000040000fa
:10000000f8ff0320011100004b180000db1800006e
:100010000f1d0000c71e0000071f000000000000a9
:100020000000000000000000000000007f1400003d
:100030004f1c0000000000007f1400007f1400002f
:100040007f1400007f1400007f1400007f14000064
:100050007f1400007f1400007f1400007f14000054
:100060007f1400007f1400007f1400007f14000044
:100070007f1400007f1400007f1400007f14000034
:100080007f1400007f1400007f1400007f14000024
:100090007f1400007f1400007f1400007f14000014
:1000a0007f1400007f1400007f140000511c00002a
:1000b0007f1400007f1400007f140000151f000053
:1000c0007f1400007f1400007f1400007f140000e4
:1000d0007f1400007f1400007f1400007f140000d4
:1000e0007f1400007f1400000000000000000000ea
:1000f000000000007f1400007f1400007f14000047
:100100007f1400007f1400007f1400007f140000a3
:100110007f1400007f1400001d0a00001d0a00006b
:100120001d0a00001d0a00007f1400007f1400005b
:100130007f1400007f1400007f1400007f14000073
:100140007f1400007f1400007f1400007f14000063
:100150007f1400007f140000000000000000000079
:10016000000000000000000000000000000000008f
:1001700000000000000000007f1400007f14000059
:100180007f1400007f1400007f1400007f14000023
:10019000000000007f1400007f1400007f140000a6
:1001a0007f1400007f1400007f1400007f14000003
:1001b0007f1400007f1400007f1400007f140000f3
:1001c0007f1400007f1400007f1400007f140000e3
:1001d0007f1400007f1400007f1400007f140000d3
:1001e0007f1400007f1400007f1400007f140000c3
:1001f0007f1400007f1400007f1400007f140000b3
:100200007f14000000000000000000007f140000c8
:100210007f1400007f1400007f1400007f14000092
:100220007f1400007f1400007f1400007f14000082
:100230007f1400007f1400007f1400007f14000072
:100240007f1400007f1400007f1400007f14000062
:100250007f1400007f1400007f1400007f14000052
:020000040000fa
:10026000f8b500bff8bc08bc9e46704745190000b1
:10027000f8b500bff8bc08bc9e46704721190000c5
:020000040000fa
:08028000100300000100000062
:020000040000fa
:100288002de9f041aeb006461546059100270599bf
:100298000b78002b00f0fa8000244ff0ff33cde9f3
:1002a80009430eab0c9380230b940d930b5d0bb19c
:1002b800252b26d134b12246304601f08bfb059b15
:1002c80023440593059b1a78252a40f0d78003f12b
:1002d8000108cdf81480059803782b2b1ad025d85f
:1002e800202b1bd0232b1dd02a2b27d001f0cefa90
:1002f8000b90059b1a78303a092a2ed801330593ba
:10030800f7e70134d2e7099b43f001030130099371
:100318000590e0e7099b43f00403f7e7099b43f0e6
:100328000803f3e7099b43f01003efe72d2bead00e
:10033800302bd9d1099b43f00203e7e72b681a1d3c
:100348001b682a600130002b05900b9305da099a87
:100358005b4282f0010209920b93099bda0744bfc2
:1003680023f002030993059b1a782e2a0dd1002247
:10037800581c0a9205905a782a2a25d102330593e7
:100388002b681a1d1b682a600a9305a801f004fb54
:10039800059b0390187801f0abfd6928039979d083
:1003a80032dc632800f0cb8019dc252800f0d980e6
:1003b800612853d000234ff0ff32cdf81480099301
:1003c8000b930a920093d4e001f060fa0a90059b1f
:1003d8001a78303a092ad8d801330593f7e7642800
:1003e80058d06728e6dc2a4606a801f0edfb00286d
:1003f80000f0a180059b5a1c05921b7806aa09a942
:10040800304601f09ffd38e0702873d015dc6e2867
:1004180000f08c806f28cdd12b46002206a800f072
:10042800f3fc002800f08780059b06aa013309a980
:100438003046059301f084fd1fe075283ad07828ee
:1004480048d07328b6d1802975d1059b2a68013315
:100458000593131d2b60126800237de02a4606a829
:1004680001f0b2fb002866d0059b5a1c05921b7848
:1004780006aa09a9304601f065fd04443c44a74298
:100488007add3e4b4f221a604ff0ff3738462eb0c8
:10049800bde8f0812b46012206a800f0b5fc002833
:1004a80049d0059b06aa013309a93046059300f0f7
:1004b80001fde2e72b46002206a800f0a5fc002873
:1004c80039d0059b06aa013309a93046059301f0e6
:1004d80037fdd2e72b46002206a800f095fc50b362
:1004e800059b5a1c05921b7806aa09a9304601f0fb
:1004f80029fdc2e72b460022f02106a800f084fc63
:10050800c8b1059b01330593dde9062313430bd1dd
:100518001b4801f075fc099b009319490b9b024687
:10052800304600f06ffea8e77823dde72b463a193e
:1005380006a800f0ebfe059b013305939ee7802992
:10054800f9d1059b013305932b681a1d1b682a6096
:100558008df8183006aa012309a9304601f0f4fce9
:100568008be78029e7d1059b01330593099b00930d
:100578000b9b04490122d3e7274688e6ac050020f7
:08058800261f00002c1f0000db
:020000040000fa
:100590002de9f04f099f154604468e461e46002b56
:1005a00040f0cc808a42b2fa82fc4cd9bcf1000ff8
:1005b0000bd0ccf1200801fa0cfe20fa08f802fa60
:1005c0000cf548ea0e0e00fa0cf44fea15491ffa32
:1005d00085f8befbf9fa210c09fb1ae30afb08fbbc
:1005e00041ea03439b452ad9eb180af1ff3004d2b4
:1005f0009b4502d9aaf102002b44a3eb0b03a4b242
:10060000b3fbf9f209fb123302fb08f844ea034496
:10061000a04516d92c1902f1ff3303d2a04501d908
:10062000931e2c44a4eb080443ea004027b124faab
:100630000cf400233c607b603146bde8f08f5046ef
:10064000dbe71346eee702b9ffdebcf1000f2ed167
:100650008b1a01264fea154eaab2b3fbfef8210c05
:100660000efb183308fb02f941ea0343994561d9af
:10067000eb1808f1ff3004d2994502d9a8f1020025
:100680002b44a3eb0903a4b2b3fbfef10efb113321
:100690004a4344ea0344a2424ed92c1901f1ff33e4
:1006a00003d2a24201d98b1e2c44a41abce7ccf180
:1006b000200e02fa0cf521fa0ef901fa0cf320fad9
:1006c0000efe4eea03034fea154800fa0cf4b9fb9c
:1006d000f8f11ffa85fe08fb1192180c01fb0ef6cb
:1006e00040ea0242964221d9aa1801f1ff3003d212
:1006f000964201d9881e2a44921b9bb2b2fbf8f99c
:1007000008fb192209fb0efe43ea02439e450fd95e
:10071000eb1809f1ff3604d29e4502d9a9f1020671
:100720002b44a3eb0e0346ea004693e70846e3e7b3
:100730004e46f6e74046a4e70b46b6e78b4206d99d
:10074000002f7ed00026c7e90001304674e7b3fad7
:1007500083fcbcf1000f0fd18b4201d3824209d838
:10076000841a61eb030e0120002f6dd0c7e9004e03
:10077000002661e76046f7e7ccf1200e03fa0cf3a0
:1007800022fa0ef521fa0ef41d4301fa0cf320fab9
:100790000ef10b434fea154a00fa0cf6b4fbfaf9d6
:1007a0001ffa85f80afb19401c0c09fb08f144ea02
:1007b0000044a14202fa0cf23fd92c1909f1ff3092
:1007c00004d2a14202d9a9f102002c44641a9bb2be
:1007d000b4fbfaf90afb194409fb08f843ea04419f
:1007e00088452cd9691809f1ff3304d2884502d90c
:1007f000a9f10203294443ea0040a1eb0801a0fb50
:1008000002894945c2464c4602d306d1464504d228
:10081000b8eb020a69eb05040138afb1b6eb0a0385
:1008200061eb040606fa0efe23fa0cf34eea03030c
:1008300026fa0cf6c7e900369ae74846c6e74b4663
:0c084000d9e73e463846f7e63e46f5e6ae
:020000040000fa
:10084c00440500201c00000000000000b40500203e
:10085c0003000000000000006005002030000000d4
:10086c000000000008040020c00000000000000090
:10087c00180500202c00000000000000b705002027
:10088c000100000000000000a4050020040000008e
:10089c0000000000c8040020500000000000000010
:1008ac00b80500206c00000001000000c405002009
:1008bc00c0050020c4050020000000002500000039
:1008cc0008000020000400000000000000000000f0
:1008dc00000000000000000000000000000000000c
:1008ec000000000000000000551f00000000000088
:1008fc00000000000000000000000000491500008e
:10090c0000000000000000000000000000000000db
:10091c00000000000000000000000020080400009f
:10092c0000000000840600202000000001000000f0
:10093c0001000000030000000000000000000000a7
:10094c000000000000000000000000009c050020da
:10095c009c0500200800000000000000a8050020f5
:10096c0008000000000000002406002060000000c9
:10097c000100000001000000030000000000000066
:10098c00000000000000000000000000000000005b
:10099c0065160000000000000000000000000000d0
:1009ac00391f0000651f000000000000000000005f
:1009bc00000000000000000000000000000000002b
:1009cc00000000000000000000000000000000001b
:1009dc0000000000a406002004000000010000003c
:1009ec0001000000b0050020040000000000000021
:1009fc00900500200c00000000000000000000002a
:100a0c000000000066666666666666666666666612
:020000040000fa
:100a1c006c4b9b7d002b00f0d38010b56a4b9c6a0d
:100a2c00684b5b8b13f0020f16d0674bff2283f8d9
:100a3c002020022283f82120634b93f820305bb2f4
:100a4c00b3f1ff3f00f08a805f4b93f820305bb22c
:100a5c00062b00f09c8010bd5a4b5b8b13f0010fe2
:100a6c0007d0594bff2283f82020022283f8212043
:100a7c00e2e7544b5b8b13f0040f07d0524bff2271
:100a8c0083f82020012283f82120d5e74e4b93f8e0
:100a9c0020305bb2032b42d0042b10d0022bcbd1d5
:100aac00494b1b692bb1484b9888002100f056fe2e
:100abc00c2e7454b9888012100f050febce7424a42
:100acc00936912699a420bd03f4a9268d15c3d4ab5
:100adc009162591cd369002bfcd13b4b9961abe75c
:100aec00394b5b6973b1384b9b885b0043f0010356
:100afc00344a5362d369002bfcd1334b032283f865
:100b0c00202099e72f4a536843f440335360d3694c
:100b1c00002bfcd12c4b062283f820208ce72a4b8f
:100b2c00d9695b69013b8b420bd0264ad369002bf8
:100b3c00fcd1244b986a244bda6850540131d961aa
:100b4c007ae7204a536843f4e0235360d369002bbf
:100b5c00fcd11d4b062283f82020e6e71a4b00221d
:100b6c0083f82020174a536843f440335360d36909
:100b7c00002bfcd1134b83221a76134b5b6a002b90
:100b8c003ff469af104b5b6a2046984763e70e4b06
:100b9c00002283f8202083f821200a4b83221a7626
:100bac001a46538b03f03003102bfad1064b5b6ab9
:100bbc00002b3ff450af044b5b6a204698474ae742
:0c0bcc00704700bf002001411805002008
:020000040000fa
:100bd800f0b540f2ff7681ea030c16ea115e1ebffb
:100be800b64516ea1355b54252d021ea465141f4aa
:100bf8008011a1fb024723ea465343f48013ae4415
:100c0800a0fb03650cf0004c36197d41a1fb03479e
:100c180047f10003a0fb0217f619654153f10003e1
:100c2800094218bf46f0010640f2fe74b3f5007f92
:100c380013d2aef5806ea64523d24cea03312803c1
:100c480041ea155140ea16503203450872f1004254
:100c580050f1000051eb0e51f0bdaef2ff3ea6453b
:100c68000fd24ceac321e80241ea555140ea5650f6
:100c7800f202450872f1004250f1000051eb0e51aa
:100c8800f0bd1eea0e0f2dd50cf000410020f0bd7e
:100c980016ea115f04bf01f000410020004218bfae
:100ca80041f0010116ea135f04bf03f0004300227c
:100cb800124218bf43f0010306ea1354b44218bfa6
:100cc800b64503d00cf000410020f0bd21f00041f2
:100cd80023f00043b1eb065f0cd8b3eb065f09d8ed
:100ce80041b13bb10cf0004141f0fe4141f47001cb
:100cf8000020f0bd40f20001c7f6f8710020f0bdf9
:020000040000fa
:100d0800394b00221a7403f50063384a9a621a466e
:100d1800536813f0100ffbd1354b4222c3f88420df
:100d28001a4600bfd2f8843013f0400ffad0314b86
:100d380000229a6377225a631a46d36b13f0040f82
:100d4800fbd12c4b022283f830201a46d36b13f0c8
:100d5800020ffbd1274a136c03f00303032bfad1cc
:100d6800254b01225a711a46d37813f0010ffbd094
:100d78001f4b224a1a621a46536813f0040ffbd11c
:100d88001b4b1f4a5a621a46536813f0080ffbd1cf
:100d9800174b4122c3f890201a4600bfd2f8903072
:100da80013f0400ffad0124b4122c3f8dc201a4648
:100db800d2f8dc3013f0400ffad00d4b4122c3f8c3
:100dc8000c211a46d2f80c3113f0400ffad00a4b16
:100dd8006ff07f421a6140f2ff725a61094a9a61c4
:100de80002221a62704700bf00140040060130005a
:100df800001c0040001000400008004007010100ee
:080e08000701020056820100ff
:020000040000fa
:100e1000882910b536d012dc812943d003dc802923
:100e200040d0002010bd82290ed08429f9d1196844
:100e300002b30a1d1a60b1f90020d3171ee0a029e1
:100e40002bd00bdc9029ecd11968073121f0070178
:100e500001f108021a60d1e900230fe0c02901d096
:100e6000f029ded11a68111d196013680360002390
:100e7000436005e00a1d1a600a880023c0e90023c8
:100e80000120cfe7196822b10a1d1a6091f90020ec
:100e9000d3e70a1d1a600a78efe71a68111d196076
:100ea0001268cae719681ab10a1d1a600a68c4e70d
:0c0eb0000c1d1c600b68c0e90032e1e77b
:020000040000fa
:100ebc002de9f041d2e900230c4686b007465feae3
:100ecc00d37820684968a5680590e66841d05242fd
:100edc0063eb4303002908db20f002000590b8f116
:100eec00000f02d1059948072ad5691e05a8029062
:100efc000a20cde90010204600f044fab8f1000faa
:100f0c0002d1059b59071fd5b8f1000f00f1ff3036
:100f1c0014bf2d232b2333542269059b0093013ad4
:100f2c002b46121a3118384600f06af97b68db053b
:100f3c0003d563689842b8bf184606b0bde8f08187
:100f4c000807d2d42946d1e71a07e5d50138202362
:080f5c00e1e70029c0dac5e756
:020000040000fa
:100f64002de9ff41836946690093f61acde90161d1
:100f740004461746039216444ff002086d46424653
:100f84002946206800f04cfeb04209d1d4e902326f
:100f9400c4e905331a44a262384604b0bde8f081be
:100fa40000280dda6268002342f01002b8f1020f43
:100fb400a362c4e90533626015d06b68ff1aebe7de
:100fc4006b68984288bf0835a6eb000688bfc01a34
:100fd4002b6803442b606b68a3eb000088bf08f107
:0a0fe400ff386860cbe71f46d6e730
:020000040000fa
:020fee0070474a
:020000040000fa
:100ff0001f4a137843f001031370536813f0010f75
:10100000fbd11b490b7843f010030b700022ca611f
:101010004ff010430b624ff400430b634a630b61c4
:10102000144b10221a819a821a849a851a87a3f87f
:101030004420a3f85020a3f85c20a3f86820a3f86c
:101040007420a3f88020a3f88c20a3f89820a3f89c
:10105000a420a3f8b0200f22a3f8bc200b7843f003
:1010600002030b700a46536813f0020ffbd170475e
:081070000028004008040020e4
:020000040000fa
:101078001f4ad36823f4e0631b041b0c43f0bf63cf
:1010880043f40033d360bff35f8f62b6194be0219e
:1010980083f81b134ff00060186083f81f134ff09c
:1010a8000040186083f836134ff48000586083f8c6
:1010b80037134ff40000586083f838134ff08070ee
:1010c800586083f839134ff000715960536a43f43c
:1010d80080235362536943f010035361536a43f406
:1010e80000335362536a43f480335362704700bf3e
:0810f80000ed00e000e100e062
:020000040000fa
:1011000008b5194b9847194b9847eff3108172b601
:10111000174ad2f8883043f47003c2f88830bff31e
:101120004f8fbff36f8f01b962b6124a936823f0f5
:10113000010393601346da6812f0010ffbd10d4be7
:1011400024225a6001229a6000f09afc0a4b23f094
:101150007f03074a9360094b9847094b9847094b0f
:10116000984700f0d7fcfee72f1f00002f1f00005c
:1011700000ed00e0006000410000000009160000e2
:081180002f1f00002f1f0000cb
:020000040000fa
:1011880010b582b000230193030103f1824303f5f4
:10119800204393f84e30dbb20193019b13f0020f0a
:1011a8000dd0010101f1824202f52042022382f8aa
:1011b8004e30134b0b4400221a73012400e0022422
:1011c800019b13f0010f0cd0010101f1824202f5dd
:1011d8002042012382f84e30094b0b4400221a7337
:1011e8000224074b03eb00135b6833b1044a02eb9c
:1011f800001399685b682046984702b010bd00bf8d
:04120800700500204d
:020000040000fa
:10120c002de9ff471d460c9b13f0010906468a4643
:10121c00144601d195420bd822465146304600f077
:10122c00d7fba54204d82546284604b0bde8f08774
:10123c002f1b102f3a464ff0200128bf1022684672
:10124c00b84600f027fe00bfb8f10f0f11d83b09cc
:10125c006ff00f0202fb03726946304600f0b8fbd8
:10126c00b9f1000fe0d122465146304600f0b0fbf8
:10127c00dae710226946304600f0aafba8f1100804
:04128c00e2e700bfd6
:020000040000fa
:10129000f0b51f4c2568a446002d36d00022294603
:1012a00016461346d1f800e00f6986450ad132b1df
:1012b000176101f110031846f0bd3946f2e7ccf88a
:1012c0000070f6e705d9ebb11c68a6453cbf164691
:1012d0000b460a46002ff0d1002becd019461f69af
:1012e00051f8102b121a102a05d918600844103a28
:1012f0000761026007469d420cbfccf80070376161
:101300000b46d8e716460b46e3e72b46d3e700bf6c
:04131000b005002004
:020000040000fa
:10131400842910b523d00cdc812903d0822913d071
:1013240080290bd119680c1d1c600b6803601a60be
:1013340013e0902921d003dc882917d0002010bda8
:10134400a029efd0c029ece719680c1d1c600b68bc
:101354000360d1171046c3e900010120efe71968c3
:101364000c1d1c600b6803601a80f6e719680c1ddd
:101374001c600b6803601a70efe719680c1d1c6091
:0c13840009680160d317c1e90023e6e707
:020000040000fa
:101390002de9f84f04460c9f6668d4f80cb0246918
:1013a00010463a68013c002502f0020a0b9a0bf83d
:1013b0000450002e1946b8bf0126012390464fea7b
:1013c000e279002c03dcd3b12046bde8f88f50ea67
:1013d000010209d1721b002a06dc0a9a521b002a5c
:1013e000f1ddbaf1000feed042464b4600f0aafb09
:1013f000013c134630320bf804200135e1e73b682d
:0814000023f010033b60dfe75d
:020000040000fa
:10140800f8b5846a05460f46164654b1ab6a6a6950
:101418009b1ab3420bd2324639462846fff79efd47
:10142800f8bd00f0d5fc0028f0d02046f8e7002ee3
:10143800f1d095f93430002b1bdbdbb23446621e49
:10144800b95c994212d1224639462846fff786fdf3
:10145800a042e5d32744341b22463946686900f088
:101468008ffc6b691c446c613046d9e71446002a2e
:06147800e5d13446f0e767
:020000040000fa
:02147e00fee787
:020000040000fa
:1014800000b583b002230093134b012213494f2070
:1014900000f0c2fa00f0f0fb0028fbd10e4b1a78e6
:1014a000587840ea022040f3c81000f01ffc0022e8
:1014b0000b4bfff791fb00f0a3f900b200ebc0006b
:1014c000084b83fb0023c017c0eb63002030c0b281
:1014d00003b05df804fb00bfb4050020b605002092
:0814e0000000e03f676666664c
:020000040000fa
:1014e800144b01221a601a46d369002bfcd1114b08
:1014f8004ff480725a601a46d369002bfcd10d4b09
:10150800ff22da600c4a1a601a46d369002bfcd114
:10151800084b10225a831a46d369002bfcd1074b7b
:10152800002283f8212083f82020024b83229a7519
:10153800704700bf00200141160010001805002068
:020000040000fa
:101548007fb5c36800911546002b18bf013a019278
:1015580082680446cde902230e46022269460068e5
:1015680000f047fb002808dc00f0180383f00802ad
:1015780063681343636005460fe0019a8242fad21a
:10158800a368e363801ae268184420642ab15a1ced
:10159800e2632e441b7806f8013c284604b070bd6f
:020000040000fa
:1015a80037b5154d2b68044673b100f0adfb0190bb
:1015b80001a800f048fc0f30019920f00f0000f05e
:1015c8002bfc60b100232b60002c08bf01240f34d2
:1015d80034f00f0405d1094b0c221a60204603b0e1
:1015e80030bd042c38bf04242046fff74dfe0028e8
:1015f800f5d040f8044cf2e7a4060020ac05002022
:020000040000fa
:101608000e4a38b5002313600d4a0e4c13600e4a7b
:101618000e4d13600e4a13600e4a13600e4a536251
:1016280013610123936000f05bfc00f095fcac4271
:1016380000d338bd54f8043b9847f8e7a8050020c4
:10164800d40400206c020000d004002070020000c6
:0c165800c8040020cc040020d8040020ae
:020000040000fa
:1016640038b50d46044608b9002038bd43689b06ca
:1016740007d5d0e905239a4216d80023c4e90533d7
:10168400a362d4e90f13994204d20122c91a206833
:1016940000f062fc0023c4e90f33002de4d020687d
:1016a400bde8384000f049bc0022c36a114698479f
:0c16b4006369002be1d14ff0ff30d6e756
:020000040000fa
:1016c00010b4104a002111705160916011730e4cda
:1016d0000e4b5c630e489863586940f08130586146
:1016e0000c48186440f20940208083f8451001211d
:1016f0001170032283f84d2040f602721a805df8c3
:10170000044b7047700500206005002000a00041d8
:0817100080050020000f2000fd
:020000040000fa
:1017180010b370b506460d4600f0e0f9d5b10024c7
:101728000e4a137e13f0040ffbd0538b13f0070ff0
:101738000bd1536803f00703012b936a14bf335589
:1017480026f814300134a542ebd1a54214bf00207d
:10175800012070bd2c46f8e70020704700040043c4
:020000040000fa
:10176800104b00229a61da610f4b83221a765a686d
:1017780022f480225a601a46d369002bfcd161b149
:10178800084b032283f8202041ea4001064b5962a6
:101798001a46d369002bfcd17047024b042283f808
:0c17a8002020f1e718050020002001417e
:020000040000fa
:1017b400022a70b5044616461d461ad043689b0695
:1017c40017d441b9002d08bf4ff4806505f1080016
:1017d400fff7e8fe01466368012e43f020036360cf
:1017e400c4e9021514bfff230a2384f83430024be2
:0c17f400e362002070bd00bf091400007b
:020000040000fa
:10180000c1f30a5340f21e42d21a0edd202a0ad832
:10181000cb0243ea505040f00040d04090eae170e3
:10182000b0ebe1707047002070474b00004218bfda
:1018300043f0010313f5001f88bf21f0004111f0b0
:0a184000004058bf6ff000407047f1
:020000040000fa
:02184a00fee7b7
:020000040000fa
:10184c0008b500f03bfb0e4b1b680021186800f03c
:10185c003dfb0c4b1b680021186800f037fb00f0b7
:10186c0079f8fff74bfafff739fefff7bafbfff7f2
:10187c0021ff00f0e5f8fff7b5fbfff7f7fb08bd1c
:08188c00bc050020a0060020ad
:020000040000fa
:1018940010b50278202a034600f10100f9d0a2f124
:1018a40009010429f5d92b2a07d02d2a11d10121a8
:1018b4000133013b00200a2403e00021f8e76043e0
:1018c400801a13f8012f303a092af8d901b9404295
:0618d40010bd0021ede74c
:020000040000fa
:0218da00fee727
:020000040000fa
:1018dc00d0b110b40446c9b1084421460c4a644244
:1018ec00137e13f0010ffbd0536803f00703012b99
:1018fc0014bf0b7834f81130936201318142efd16f
:10190c0001205df8044b7047002070470120f8e778
:04191c000004004380
:020000040000fa
:1019200010b5054c227832b9044b13b10448aff31b
:1019300000800123237010bd44050020000000003a
:101940000000000008b5034b1bb103490348aff387
:10195000008008bd000000004805002000000000d5
:020000040000fa
:101960000e4b4ff480421a604ff440421a6101223c
:1019700083f84c2083f84d20002183f84e10052079
:1019800083f84f00222083f8360083f8371083f85d
:10199000d020022283f8b820704700bf00800041a9
:020000040000fa
:1019a00030b50d4a002300bf12f8134024b902ebf2
:1019b00043035b78184630bd01680d78a54209bf26
:1019c00002eb430301335b78013114bfdbb20160ea
:0c19d0000a2be9d9eee700bf381e00002a
:020000040000fa
:1019dc0038b5436813f4807f0446154611d003696b
:1019ec009a4228bf1d465db12a46406900f0c6f9ef
:1019fc00636922692b44551b0022636125611a70af
:0c1a0c0038bddb06fcd400f0edf9f9e772
:020000040000fa
:101a180010b50b4c94f8204064b20cb1002010bdf6
:101a2800074ca080e360029b6361a16022610021f2
:101a3800a170217084f82110fff792fe0120eee7d3
:041a4800180500205d
:020000040000fa
:101a4c000a4b0b4a1a604ff622029a814ff440322d
:101a5c005a601a46d369002bfcd1044a136843f030
:101a6c0002031360d369002bfcd1704700040043c0
:041a7c000401104011
:020000040000fa
:101a800070b50a480a4d4ff6ff76016811b94368f0
:101a900003b970bd83684268334000f10c0455f807
:101aa00023302046984704eb8000eee74c08000006
:041ab000781e00009c
:020000040000fa
:101ab40030b400eb4004094b03eb84031b899bb255
:101ac400834201d030bc7047044b44002518ad005c
:101ad4005951204403eb80035a60f3e708040020c3
:020000040000fa
:101ae4000a4b5b8b13f0070f0ed0084b80221a763b
:101af40007225a831b7e13f0040f05d0034b9a6a06
:101b04001a7e12f0040ffad1704700bf000400439c
:020000040000fa
:101b140008b50020fff798fe002207490f20fff7c1
:101b2400c7ff064c03e00023237000f099f92378e3
:101b3400002bfcd0f7e700bf091f0000b705002009
:020000040000fa
:101b440053b94ab9002908bf00281cbf4ff0ff3120
:101b54004ff0ff3000f0feb9adf1080c6de904ce92
:101b6400fef714fdddf804e0dde9022304b070475c
:020000040000fa
:101b7400064b1a680ab9064a1a60064a116809b976
:101b8400054911601a68054b1a60704798050020d2
:101b9400b006002094050020b00800209005002025
:020000040000fa
:101ba40010b5084c23680bb9fff7e2ff0649226819
:101bb40009681044814234bf4ff0ff322060104660
:0c1bc40010bd00bf90050020940500201b
:020000040000fa
:101bd000802910db812901dd83290cd113680733ab
:101be00023f0070303f108011160d3e90023c0e9e2
:0a1bf0000023012070470020704719
:020000040000fa
:101bfa002de9f0410024804617460e462546bd428f
:101c0a0002db2046bde8f081726856f8081b4046a0
:0a1c1a0000f089f801350444f1e7f9
:020000040000fa
:101c24002de9f0410024804617460e462546bd4264
:101c340002db2046bde8f081726856f8081b404676
:0a1c440000f092f801350444f1e7c6
:020000040000fa
:021c4e00fee7af
:020000040000fa
:101c500008b5074b4ff400425a61064bd3f8b43035
:101c60002bb1044bd3f8b800d3f8b430984708bd73
:081c70000028004008040020d8
:020000040000fa
:101c7800074b93f820305bb23bb9064b588b00f00a
:101c88003000103818bf012070470120704700bf8e
:081c98001805002000200141a5
:020000040000fa
:101ca00090f948305a1e1343426880f8483012f0c9
:101cb00004031bbf42f010024260c0e90f334ff033
:081cc000ff3008bf1846704711
:020000040000fa
:101cc8000fb407b5064b04aa1b6852f8041b186822
:101cd800019200f063f803b05df804eb04b07047bc
:041ce800a006002032
:020000040000fa
:101cec0010f0004160b148bf40420a0d02f21d42a3
:101cfc00b0fa80f3d21a9840c30a400503eb0251a4
:021d0c0070471e
:020000040000fa
:021d0e00fee7ee
:020000040000fa
:101d100010b5054c22680ab9fff72cff034b186871
:101d20002368c01a10bd00bf900500209405002054
:020000040000fa
:101d300038b550b952b10c46012529462046fff767
:0e1d4000ebfc0028f9d0012000e0002038bda7
:020000040000fa
:101d4e0010b50023934206d113f0030018bf0120f3
:0e1d5e0000eb930010bdc45ccc540133f2e7df
:020000040000fa
:101d6c0038b50d461446012801d0204638bd214611
:0c1d7c002846fff7adfd0028f9d0f6e77f
:020000040000fa
:101d88005ab110b40a44431e11f8014b03f8014f2d
:0c1d98009142f9d15df8044b7047704790
:020000040000fa
:101da40013b50446019201aafef76cfa636813f0b6
:0c1db400100f18bf4ff0ff3002b010bd40
:020000040000fa
:101dc00054656d7065726174757265203d202530b3
:081dd000326420460d0a0000f8
:020000040000fa
:101dd80010b50446fff760ff28b9a368e268c4e9b4
:081de80005331344a36210bd92
:020000040000fa
:101df00010b4c46a1cb123465df8044b1847006850
:081e00005df8044bfff7b2bfcf
:020000040000fa
:101e080003783bb1034600bf13f8012f002afbd12a
:081e1800181a704718467047c4
:020000040000fa
:101e2000044a136823b91060036101600120704700
:081e300000207047b0050020fe
:020000040000fa
:101e380068076c094c836a9074a07ac0008068882f
:061e480000846c820081a1
:020000040000fa
:101e4e000068002808b501da002008bdfff7a3fee0
:061e5e00431cfad1f8e775
:020000040000fa
:101e640008b500f05af801460148fff72bff08bdfa
:041e7400c01d00008d
:020000040000fa
:101e7800b51e00004f1d0000451f0000451f000053
:041e8800451f0000f2
:020000040000fa
:101e8c0008b500f04ff8024b1860586008bd00bf51
:041e9c009c05002081
:020000040000fa
:101ea00032b1c9b20244034603f8011b9342fbd18d
:041eb000704700bfb8
:020000040000fa
:101eb4000a440023914201d10020704701f8013bfc
:021ec400f8e73d
:020000040000fa
:021ec600fee735
:020000040000fa
:101ec800024b40f204521a80704700bf00400041a4
:020000040000fa
:101ed80000294ff480630cbf02220022fff766bc82
:020000040000fa
:101ee80008b5fff7cfff00f038f800f036f808bd66
:020000040000fa
:0e1ef800a0f14103192b98bf40f02000704765
:020000040000fa
:021f0600fee7f4
:020000040000fa
:0c1f0800014b01221a707047b705002041
:020000040000fa
:0a1f140008b50020fff736f908bdfc
:020000040000fa
:081f1e0008b5fff7aefa08bd9b
:020000040000fa
:081f2600286e696c29002500fa
:020000040000fa
:021f2e007047fa
:020000040000fa
:081f3000004870472406002060
:020000040000fa
:061f38000068fff717bf6f
:020000040000fa
:061f3e004ff0ff30704778
:020000040000fa
:041f440000207047c2
:020000040000fa
:041f480000207047be
:020000040000fa
:041f4c0000207047ba
:020000040000fa
:041f500000207047b6
:020000040000fa
:041f540000207047b2
:020000040000fa
:041f5800704700bf0f
:020000040000fa
:041f5c0000207047aa
:020000040000fa
:021f60007047c8
:020000040000fa
:021f62007047c6
:020000040000fa
:021f64007047c4
:020000040000fa
:0200000400807a
:044000003912003c35
:020000040000fa
:0200000400807a
:044004008000a82a66
:020000040000fa
:0200000400807a
:04400800ffffffffb8
:00000001FF
