:020000040000fa
:10000000f0ff0320ed0c0000b71500009316000070
:10001000b31b0000cf1d00000f1e000000000000f9
:10002000000000000000000000000000e3110000dc
:10003000db17000000000000e3110000491b000076
:10004000e3110000e3110000e3110000e3110000e0
:10005000e3110000e3110000e3110000e3110000d0
:10006000e3110000e3110000e3110000e3110000c0
:10007000e3110000e3110000e3110000e3110000b0
:10008000e3110000e3110000e3110000e3110000a0
:10009000e3110000e3110000e3110000e311000090
:1000a000e3110000e3110000e3110000ad1a0000ad
:1000b000e3110000e3110000e3110000e311000070
:1000c000e3110000e3110000e3110000e311000060
:1000d000e3110000e3110000e3110000e311000050
:1000e000e3110000e3110000000000000000000028
:1000f00000000000e3110000e3110000e311000024
:10010000e3110000e3110000e3110000e31100001f
:10011000e3110000e3110000e3110000e31100000f
:10012000e3110000e3110000e3110000e3110000ff
:10013000e3110000e311000009130000091300009f
:100140000913000009130000e3110000e31100008f
:10015000e3110000e31100000000000000000000b7
:10016000000000000000000000000000000000008f
:100170000000000000000000e3110000e311000097
:10018000e3110000e3110000e3110000e31100009f
:1001900000000000e3110000e3110000e311000083
:1001a000e3110000e3110000e3110000e31100007f
:1001b000e3110000e3110000e3110000e31100006f
:1001c000e3110000e3110000e3110000e31100005f
:1001d000e3110000e3110000e3110000e31100004f
:1001e000e3110000e3110000e3110000e31100003f
:1001f000e3110000e3110000e3110000e31100002f
:10020000e31100000000000000000000e311000006
:10021000e3110000e3110000e3110000e31100000e
:10022000e3110000e3110000e3110000e3110000fe
:10023000e3110000e3110000e3110000e3110000ee
:10024000e3110000e3110000e3110000e3110000de
:10025000e3110000e3110000e3110000e3110000ce
:020000040000fa
:10026000f8b500bff8bc08bc9e46704741170000b7
:10027000f8b500bff8bc08bc9e4670471d170000cb
:020000040000fa
:100280002de9f041aeb006461546059100270599c7
:100290000b78002b00f0fa8000244ff0ff33cde9fb
:1002a00009430eab0c9380230b940d930b5d0bb1a4
:1002b000252b26d134b12246304601f0adfa059bfc
:1002c00023440593059b1a78252a40f0d78003f133
:1002d0000108cdf81480059803782b2b1ad025d867
:1002e000202b1bd0232b1dd02a2b27d001f0aef9b9
:1002f0000b90059b1a78303a092a2ed801330593c2
:10030000f7e70134d2e7099b43f001030130099379
:100310000590e0e7099b43f00403f7e7099b43f0ee
:100320000803f3e7099b43f01003efe72d2bead016
:10033000302bd9d1099b43f00203e7e72b681a1d44
:100340001b682a600130002b05900b9305da099a8f
:100350005b4282f0010209920b93099bda0744bfca
:1003600023f002030993059b1a782e2a0dd100224f
:10037000581c0a9205905a782a2a25d102330593ef
:100380002b681a1d1b682a600a9305a801f026fa3b
:10039000059b0390187801f033fd6928039979d003
:1003a00032dc632800f0cb8019dc252800f0d980ee
:1003b000612853d000234ff0ff32cdf81480099309
:1003c0000b930a920093d4e001f040f90a90059b48
:1003d0001a78303a092ad8d801330593f7e7642808
:1003e00058d06728e6dc2a4606a801f0f7fa00286c
:1003f00000f0a180059b5a1c05921b7806aa09a94a
:10040000304601f031fd38e0702873d015dc6e28dd
:1004100000f08c806f28cdd12b46002206a800f07a
:10042000ddfa002800f08780059b06aa013309a9a0
:100430003046059301f016fd1fe075283ad0782864
:1004400048d07328b6d1802975d1059b2a6801331d
:100450000593131d2b60126800237de02a4606a831
:1004600001f0bcfa002866d0059b5a1c05921b7847
:1004700006aa09a9304601f0f7fc04443c44a7420f
:100480007add3e4b4f221a604ff0ff3738462eb0d0
:10049000bde8f0812b46012206a800f09ffa002853
:1004a00049d0059b06aa013309a93046059301f0fe
:1004b000d9fce2e72b46002206a800f08ffa0028bc
:1004c00039d0059b06aa013309a93046059301f0ee
:1004d000c9fcd2e72b46002206a800f07ffa50b3f1
:1004e000059b5a1c05921b7806aa09a9304601f003
:1004f000bbfcc2e72b460022f02106a800f06efaf2
:10050000c8b1059b01330593dde9062313430bd1e5
:100510001b4801f0dbfb099b009319490b9b02462a
:10052000304600f027fca8e77823dde72b463a1990
:1005300006a800f0a1fd059b013305939ee78029e5
:10054000f9d1059b013305932b681a1d1b682a609e
:100550008df8183006aa012309a9304600f05eff85
:100560008be78029e7d1059b01330593099b009315
:100570000b9b04490122d3e7274688e6a008002008
:08058000341e00003a1e0000c9
:020000040000fa
:10058800580800201c00000000000000940800200b
:10059800040000000000000008040020c002000061
:1005a80000000000c8060020000100000000000054
:1005b8001808002040000000000000007408002017
:1005c8000c00000000000000a80800200100000046
:1005d800000000009808002004000000000000004f
:1005e800c80700205000000000000000ac080020f0
:1005f8006c00000001000000b8080020b4080020ca
:10060800b8080020000000002500000008000020b5
:1006180000040000000000000000000000000000ce
:1006280000000000000000000000000000000000c2
:10063800000000006d1e0000000000000000000027
:100648000000000000000000491200000000000047
:100658000000000000000000000000000000000092
:100668000000000000000020080400000000000056
:1006780078090020200000000100000001000000af
:10068800030000000000000000000000000000005f
:1006980000000000000000008c0800208c080020ea
:1006a80008000000000000009c080020080000006e
:1006b8000000000018090020600000000100000090
:1006c800010000000300000000000000000000001e
:1006d800000000000000000000000000c11300003e
:1006e800000000000000000000000000551e00008f
:1006f8007b1e000000000000000000000000000059
:1007080000000000000000000000000000000000e1
:1007180000000000000000000000000000000000d1
:1007280098090020040000000100000001000000fa
:10073800a408002004000000000000008008002039
:100748000c00000000000000000000000000000095
:020000040000fa
:10075800384b00221a7403f50063374a9a621a4626
:10076800536813f0100ffbd1344b4222c3f8842096
:100778001a4600bfd2f8843013f0400ffad0304b3d
:1007880000229a6377225a631a46d36b13f0040f38
:10079800fbd12b4b022283f830201a46d36b13f07f
:1007a800020ffbd1264a136c03f00303032bfad183
:1007b800244b01225a711a46d37813f0010ffbd04b
:1007c8001e4b214a1a621a46536813f0040ffbd1d4
:1007d8001a4b1e4a5a621a46536813f0080ffbd187
:1007e800164b4122c3f890201a4600bfd2f8903029
:1007f80013f0400ffad0114b4122c3f808211a46d2
:10080800d2f8083113f0400ffad00c4b4122c3f84c
:100818000c211a46d2f80c3113f0400ffad0094bcc
:100828006ff07f421a6140f2ff725a6103221a6226
:10083800704700bf0014004006013000001c004053
:1008480000100040000800400701010007010200f5
:020000040000fa
:100858002de9f843002960d00f4600244ff0864662
:100868002f4b00f1010edff8bcc006e00cf8018048
:100878009a60621c0134974244d9726802f00702f8
:10088800012a18d09968dd684a1cd3f810804245bf
:1008980028bf0022954236d010f80480756805f00c
:1008a8000705012de2d14d000cf81180691c0025c7
:1008b8000cf80150dce7d3f80880d96808f1010288
:1008c8001d69aa4228bf002291421cd01ef814506c
:1008d80010f8141041ea0521756805f00705012d87
:1008e80005d0c9b20cf808109a60621cc2e74fea3a
:1008f80048055ffa81f90cf818900135090a0cf8d7
:100908000510f1e7144601f0b9f918b14ff0864324
:1009180001229a752046bde8f8830c46f3e700bf2c
:08092800180800204807002018
:020000040000fa
:10093000f8b5284c4ff08646274f13e0226afab1eb
:10094000616a236a01209847a36a0133226b9342ac
:1009500028bf002314e0a26aedb2bd54a36294f84c
:100960003430fbb9337e13f0040f32d0b56aa36a7a
:100970000133226b934228bf0023e26a9a42ddd002
:10098000e26a9a42eed0726802f00702012ae2d1ce
:10099000a16a4a00e8b207f811000132c5f3072541
:1009a000bd54dbe701f07af9236a002bdad0616ae3
:1009b00094f83c3033b1a36b9842d3d3236a002020
:1009c0009847cfe7a36b9842ccd1236a0020984781
:0c09d000c8e7f8bd18080020c806002089
:020000040000fa
:1009dc00882910b536d012dc812943d003dc80295c
:1009ec0040d0002010bd82290ed08429f9d119687d
:1009fc0002b30a1d1a60b1f90020d3171ee0a0291a
:100a0c002bd00bdc9029ecd11968073121f00701b0
:100a1c0001f108021a60d1e900230fe0c02901d0ce
:100a2c00f029ded11a68111d1960136803600023c8
:100a3c00436005e00a1d1a600a880023c0e9002300
:100a4c000120cfe7196822b10a1d1a6091f9002024
:100a5c00d3e70a1d1a600a78efe71a68111d1960ae
:100a6c001268cae719681ab10a1d1a600a68c4e745
:0c0a7c000c1d1c600b68c0e90032e1e7b3
:020000040000fa
:100a880070b582b04ff08645254c264e14e0f25cd6
:100a98008df80620013322699a4298bf0023e3604b
:100aa8006b6803f00703012b14bf9df80630bdf8ef
:100ab8000630ab62237dbbb92b7e13f0010f2dd01e
:100ac800a268e3689a4225d06a6802f00702012a00
:100ad800ddd15a0016f813108df806100132b25cf9
:100ae8008df807200133d6e701f032f92368002b8f
:100af800e2d06168237f33b1a3699842dcd32368cd
:100b080003209847d8e7a3699842d5d123680320e2
:100b18009847d1e74ff0864301221a7502b070bd9d
:080b2800180800204807002016
:020000040000fa
:100b30002d2d2d2d2d2d2d2d2d2d2d2d2d2d2d2de5
:100b40002d2d2d2d2d2d2d494e464f2d2d2d2d2d5d
:100b50002d2d2d2d2d2d2d2d2d2d2d2d2d2d2d2dc5
:100b60002d2d2d0d000000005072657373207377da
:100b7000697463682053573020746f207265616414
:100b80002074686520706172616d65746572732090
:100b90006f66204c5220436c69636b0d00000000af
:100ba0002d2d2d2d2d2d2d2d2d2d2d2d2d2d2d2d75
:100bb0002d2d2d2d2d2d2d2d2d2d2d2d2d2d2d2d65
:100bc0002d2d2d2d2d2d2d2d2d2d2d2d2d2d2d2d55
:080bd0002d2d2d0d000000bfca
:020000040000fa
:100bd8002de9ff41836946690093f61acde9016161
:100be80004461746039216444ff002086d464246e3
:100bf8002946206800f02dffb04209d1d4e902321d
:100c0800c4e905331a44a262384604b0bde8f0814d
:100c180000280dda6268002342f01002b8f1020fd2
:100c2800a362c4e90533626015d06b68ff1aebe76d
:100c38006b68984288bf0835a6eb000688bfc01ac3
:100c48002b6803442b606b68a3eb000088bf08f196
:0a0c5800ff386860cbe71f46d6e7bf
:020000040000fa
:020c62007047d9
:020000040000fa
:100c64001f4a137843f001031370536813f0010f04
:100c7400fbd11b490b7843f010030b700022ca61af
:100c84004ff010430b624ff400430b634a630b6154
:100c9400144b10221a819a821a849a851a87a3f80f
:100ca4004420a3f85020a3f85c20a3f86820a3f8fc
:100cb4007420a3f88020a3f88c20a3f89820a3f82c
:100cc400a420a3f8b0200f22a3f8bc200b7843f093
:100cd40002030b700a46536813f0020ffbd17047ee
:080ce400002800400806002072
:020000040000fa
:100cec0008b5194b9847194b9847eff3108172b61a
:100cfc00174ad2f8883043f47003c2f88830bff337
:100d0c004f8fbff36f8f01b962b6124a936823f00d
:100d1c00010393601346da6812f0010ffbd10d4bff
:100d2c0024225a6001229a6000f0c4fd0a4b23f081
:100d3c007f03074a9360094b9847094b9847094b27
:100d4c00984700f049fafee7751e0000751e00007a
:100d5c0000ed00e0006000410000000065130000a1
:080d6c00751e0000751e000059
:020000040000fa
:100d74002de9ff471d460c9b13f0010906468a46e0
:100d8400144601d195420bd822465146304600f014
:100d940041fda54204d82546284604b0bde8f087a5
:100da4002f1b102f3a464ff0200128bf102268460f
:100db400b84600f0edff00bfb8f10f0f11d83b09a2
:100dc4006ff00f0202fb03726946304600f022fd09
:100dd400b9f1000fe0d122465146304600f01afd29
:100de400dae710226946304600f014fda8f1100835
:040df400e2e700bf73
:020000040000fa
:100df800f0b51f4c2568a446002d36d000222946a0
:100e080016461346d1f800e00f6986450ad132b17b
:100e1800176101f110031846f0bd3946f2e7ccf826
:100e28000070f6e705d9ebb11c68a6453cbf16462d
:100e38000b460a46002ff0d1002becd019461f694b
:100e480051f8102b121a102a05d918600844103ac4
:100e58000761026007469d420cbfccf800703761fd
:100e68000b46d8e716460b46e3e72b46d3e700bf09
:040e7800a4080020aa
:020000040000fa
:100e7c0000b5adf5017d4ff400720021684600f01d
:100e8c0083ff00f0f1fa684600f08efe69461348c5
:100e9c0000f066fe4ff47a7000f05afc104800f037
:100eac006bfd4ff47a7000f053fc684600f07cfe4a
:100ebc0069460c4800f054fe0b4800f05dfd4ff401
:100ecc007a7000f045fc684600f06efe69460748f3
:100edc0000f046fe0df5017d5df804fbfc0f0000f3
:100eec0020100000301000004410000058100000ca
:020000040000fa
:100efc004ff086431c4a1a604ff611429a814ff408
:100f0c0040325a601a46d369002bfcd14ff086420e
:100f1c00136843f002031360d369002bfcd1134b0d
:100f2c0000221a629a62da6283f8342083f83c2039
:100f3c009a63da871a609a60da601a751a779a617e
:100f4c004ff086435b6803f00703012b074b14bf7c
:100f5c00802240221a631a614ff0864380229a75d0
:100f6c0004229a75704700bf040110401808002035
:020000040000fa
:100f7c00f0b51d4ad36a956a99b30e46ab4208bfc9
:100f8c0000222ad00122194c174f0fe014f803c08d
:100f9c00411e01f802c00133396b994298bf0023fe
:100fac00b24219d2511cab4217d00a464ff08641bf
:100fbc00496801f007010129e8d1590014f813e040
:100fcc00a0f1020c0cf812e0013114f801c0411e22
:100fdc0001f812c00133dfe71d46034bdd621046fa
:100fec00f0bd1d460a46f8e718080020c806002088
:020000040000fa
:100ffc004c52206669726d776172652072656c6502
:10100c006173652076657273696f6e203d20257360
:10101c000d0a0000726164696f20676574206d6f42
:10102c00640d0a00526164696f204d6f6465203d48
:10103c002025730d0a000000726164696f206765da
:10104c007420667265710d0a0000000052616469bb
:10105c006f204672657175656e637920696e2048e4
:0c106c007a203d202573200d0a0000bff3
:020000040000fa
:10107800842910b523d00cdc812903d0822913d010
:1010880080290bd119680c1d1c600b6803601a605d
:1010980013e0902921d003dc882917d0002010bd47
:1010a800a029efd0c029ece719680c1d1c600b685b
:1010b8000360d1171046c3e900010120efe7196862
:1010c8000c1d1c600b6803601a80f6e719680c1d7c
:1010d8001c600b6803601a70efe719680c1d1c6030
:0c10e80009680160d317c1e90023e6e7a6
:020000040000fa
:1010f4001b4bda6822f4e0621204120c42f0bf6265
:1011040042f40032da60bff35f8f62b6154ae02121
:1011140082f81b134ff00060106082f83e134ff00a
:101124008040506082f83f134ff00040506082f8d6
:1011340040130120906082f84113022191605a6aa1
:1011440042f480225a625a6942f010025a615a6a81
:1011540042f400325a625a6a42f480325a62704748
:0811640000ed00e000e100e0f5
:020000040000fa
:10116c00f8b5846a05460f46164654b1ab6a6a69ef
:10117c009b1ab3420bd2324639462846fff726fd5e
:10118c00f8bd00f0a9fd0028f0d02046f8e7002ead
:10119c00f1d095f93430002b1bdbdbb23446621ee8
:1011ac00b95c994212d1224639462846fff70efd0a
:1011bc00a042e5d32744341b22463946686900f027
:1011cc003ffd6b691c446c613046d9e71446002a1c
:0611dc00e5d13446f0e706
:020000040000fa
:0211e200fee726
:020000040000fa
:1011e40080b5002000f00cfa002211490f2000f015
:1011f4007ffb104800f06cfc0f4800f069fc0f48be
:1012040000f066fc0e4c0b4f0b4e0c4d0ce0002313
:101214002370fff731fe384600f05afc304600f0e8
:1012240057fc284600f054fc2378002bfcd0eee752
:10123400291e0000300b0000680b0000a00b00000a
:04124400a8080020d6
:020000040000fa
:101248007fb5c36800911546002b18bf013a01927b
:1012580082680446cde902230e46022269460068e8
:1012680000f0e2fb002808dc00f0180383f0080215
:1012780063681343636005460fe0019a8242fad21d
:10128800a368e363801ae268184420642ab15a1cf0
:10129800e2632e441b7806f8013c284604b070bd72
:020000040000fa
:1012a80037b5154d2b68044673b100f08ffc0190db
:1012b80001a800f042fd0f30019920f00f0000f066
:1012c80025fd60b100232b60002c08bf01240f34da
:1012d80034f00f0405d1094b0c221a60204603b0e4
:1012e80030bd042c38bf04242046fff781fd0028b8
:1012f800f5d040f8044cf2e798090020a008002037
:020000040000fa
:1013080008b54ff086439b7d0bb34ff08642137ea2
:10131800dbb2927d12f0800f1ad14ff08642137e15
:10132800dbb2927d12f0010f04d013f0010f01d04f
:10133800fff7a6fb4ff08642137edbb2927d12f0d8
:10134800040f04d013f0040f01d0fff7edfa08bd25
:0c13580013f0800fe1d000f0dbf8dee7be
:020000040000fa
:101364000e4a38b5002313600d4a0e4c13600e4a22
:101374000e4d13600e4a13600e4a13600e4a5362f8
:1013840013610123936000f031fd00f072fdac4263
:1013940000d338bd54f8043b9847f8e79c08002074
:1013a400d40700206c020000d00700207002000067
:0c13b400c8070020cc070020d80700204c
:020000040000fa
:1013c00038b50d46044608b9002038bd43689b0671
:1013d00007d5d0e905239a4216d80023c4e905337e
:1013e000a362d4e90f13994204d20122c91a2068da
:1013f00000f03efd0023c4e90f33002de4d0206847
:10140000bde8384000f029bd0022c36a1146984764
:0c1410006369002be1d14ff0ff30d6e7fc
:020000040000fa
:10141c002de9ff41134dd1f80080af88adf80c7069
:10142c0006462868029002aca8798df80e00002ab6
:10143c0018bf1446d1e901571a461bb9204600f0d3
:10144c003ffc0246002d02dbaa4228bf2a46cdf8fb
:10145c0000803b4621463046fff786fc04b0bde8d1
:08146c00f08100bf4c1e0000de
:020000040000fa
:1014740038b500210f4800f0cffc012000f0c6fc75
:101484000121084600f014fc00f06efc00210a4b18
:1014940019604ff40072094800f07afc084c80256a
:1014a40065611e2000f058f9a5614ff47a7000f0d0
:1014b40053f938bd851a0000940800200804002060
:0414c4000080004163
:020000040000fa
:1014c80010b370b506460d4600f028fad5b10024d1
:1014d8000e4a137e13f0040ffbd0538b13f0070f43
:1014e8000bd1536803f00703012b936a14bf3355dc
:1014f80026f814300134a542ebd1a54214bf0020d0
:10150800012070bd2c46f8e7002070470004004316
:020000040000fa
:1015180008b54ff086435b8b13f0070300d108bd75
:101528000e4ad3874ff0864380221a7607225a83c1
:101538001b7e13f0040f06d04ff086439a6a1a7e7a
:1015480012f0040ffad1054b1b6a002be7d0034bae
:10155800596a1b6a02209847e1e700bf1808002073
:020000040000fa
:1015680013b5836a8df80710044673b16369a26adc
:10157800934212d3e36a01220df1070120469847ee
:10158800012806d19df8070005e000f0a7fb002818
:10159800ecd04ff0ff3002b010bd9df8070094f971
:0e15a80034209042e6d05a1c62611870f3e7be
:020000040000fa
:0215b600fee74e
:020000040000fa
:1015b800022a70b5044616461d461ad043689b0693
:1015c80017d441b9002d08bf4ff4806505f1080014
:1015d800fff766fe01466368012e43f0200363604f
:1015e800c4e9021514bfff230a2384f83430024be0
:0c15f800e362002070bd00bf6d11000018
:020000040000fa
:1016040008b500f0e3fb0e4b1b680021186800f0de
:10161400e5fb0c4b1b680021186800f0dffb00f0b1
:1016240037f8fff797f8fff71afb00f079fa00f0a4
:101634002bf9fff761fcfff713fbfff759fd08bd1a
:08164400b00800209409002009
:020000040000fa
:10164c0010b50278202a034600f10100f9d0a2f16e
:10165c0009010429f5d92b2a07d02d2a11d10121f2
:10166c000133013b00200a2403e00021f8e760432a
:10167c00801a13f8012f303a092af8d901b94042df
:06168c0010bd0021ede796
:020000040000fa
:02169200fee771
:020000040000fa
:101694000f4b80221a6048f280021a61002283f8fc
:1016a4004720052183f84f1083f8332083f837202f
:1016b400012283f8cc2083f8cd2083f8d02083f84e
:1016c400d120222283f8b62083f8b820704700bfc7
:0416d4000080004151
:020000040000fa
:1016d800d0b110b40446c9b1084421460c4a64424a
:1016e800137e13f0010ffbd0536803f00703012b9f
:1016f80014bf0b7834f81130936201318142efd175
:1017080001205df8044b7047002070470120f8e77e
:041718000004004386
:020000040000fa
:10171c0010b5054c227832b9044b13b10448aff321
:10172c0000800123237010bd580800200000000029
:10173c000000000008b5034b1bb103490348aff38d
:10174c00008008bd000000005c08002000000000c4
:020000040000fa
:10175c0070b40d4b5e681b6813f0010f12d00b4b6d
:10176c0003fb00f0084b9b6860b10021064c01366e
:10177c00a2689a4292bf9b1ab51a5b191944134678
:10178c008842f5d870bc704710e000e0c0d401006e
:020000040000fa
:10179c0010b44c68a40602460b4603d45df8044b07
:1017ac0000f052b891f93410c0b2814203d059699b
:1017bc009c6aa14205d3114618465df8044bfff70d
:0e17cc00cdbe4c1c5c610a705df8044b70478a
:020000040000fa
:0217da00fee728
:020000040000fa
:1017dc0030b50d4a002300bf12f8134024b902ebb8
:1017ec0043035b78184630bd01680d78a54209bfec
:1017fc0002eb430301335b78013114bfdbb20160b0
:0c180c000a2be9d9eee700bf2c1d0000fc
:020000040000fa
:1018180038b5436813f4807f0446154611d0036930
:101828009a4228bf1d465db12a46406900f00afa6f
:10183800636922692b44551b0022636125611a7074
:0c18480038bddb06fcd400f055faf9e7cf
:020000040000fa
:1018540007b54a68c0b2d2050b468df8070006d515
:101864004a69511c5961107003b05df804fb0122f0
:101874000df10701184600f03ffa10b19df807007a
:08188400f2e74ff0ff30efe73f
:020000040000fa
:10188c000a4b0b4a1a604ff622029a814ff44032ef
:10189c005a601a46d369002bfcd1044a136843f0f2
:1018ac0002031360d369002bfcd170470004004382
:0418bc0004011040d3
:020000040000fa
:1018c00070b50a480a4d4ff6ff76016811b94368b2
:1018d00003b970bd83684268334000f10c0455f8c9
:1018e00023302046984704eb8000eee7880500008f
:0418f000801d000057
:020000040000fa
:1018f40030b400eb4004094b03eb84031b899bb217
:10190400834201d030bc7047044b44002518ad001d
:101914005951204403eb80035a60f3e70806002082
:020000040000fa
:101924000a4b5b8b13f0070f0ed0084b80221a76fc
:1019340007225a831b7e13f0040f05d0034b9a6ac7
:101944001a7e12f0040ffad1704700bf000400435e
:020000040000fa
:10195400064b1a680ab9064a1a60064a116809b998
:10196400054911601a68054b1a6070478808002001
:10197400a009002084080020a00b0020800800207b
:020000040000fa
:1019840010b504460021074b19604ff40072064855
:1019940000f0fef9204600f097f901462046fef7d4
:0c19a40059ff10bd94080020080400202a
:020000040000fa
:1019b00010b5084c23680bb9fff7ccff0649226825
:1019c00009681044814234bf4ff0ff322060104656
:0c19d00010bd00bf80080020840800202b
:020000040000fa
:1019dc00802910db812901dd83290cd113680733a1
:1019ec0023f0070303f108011160d3e90023c0e9d8
:0a19fc00002301207047002070470f
:020000040000fa
:101a060070b5002902fb01f614460d4618bf1446b0
:101a160001463246184608bf002400f06cf986429b
:0a1a260018bfb0fbf5f4204670bdb8
:020000040000fa
:101a30002de9f0410024804617460e462546bd425a
:101a400002db2046bde8f081726856f8081b40466c
:0a1a500000f0d0f801350444f1e77e
:020000040000fa
:101a5a002de9f0410024804617460e462546bd4230
:101a6a0002db2046bde8f081726856f8081b404642
:0a1a7a0000f0d9f801350444f1e74b
:020000040000fa
:101a840000b1704710b500f007f9054c2368014612
:101a940004481844fff770fa23681844206010bd06
:081aa400940800200804002052
:020000040000fa
:101aac0008b5074b4ff400425a61064bd3f8b430db
:101abc002bb1044bd3f8b800d3f8b430984708bd19
:081acc0000280040080600207c
:020000040000fa
:101ad40010b5084c2368196800f058f8002807db93
:101ae40023680a20196800f0a7f9c00f404210bd0e
:081af4000120fbe7940900202a
:020000040000fa
:101afc0090f948305a1e1343426880f8483012f06f
:101b0c0004031bbf42f010024260c0e90f334ff0d8
:081b1c00ff3008bf18467047b6
:020000040000fa
:101b2400054a002313609360044951600621116043
:101b3400034a93601360704710e000e0bfd40100d3
:041b44007408002001
:020000040000fa
:101b480008b5064b5868064a12689a6801329a60c6
:101b58001b6813b1014b1b68984708bd7408002027
:041b680010e000e0a9
:020000040000fa
:101b6c000fb407b5064b04aa1b6852f8041b18687f
:101b7c00019200f073f803b05df804eb04b0704709
:041b8c009409002098
:020000040000fa
:101b900070b50e46054600f099f8334604460246f5
:101ba00001212846fff72fff001b18bf4ff0ff3021
:021bb00070bd06
:020000040000fa
:021bb200fee74c
:020000040000fa
:101bb40006494b1e013801f2ff1100bf13f8012f33
:101bc40000f8012f8b42f9d1704700bf08040020b0
:020000040000fa
:101bd40010b5054c22680ab9fff7bafe034b186822
:101be4002368c01a10bd00bf8008002084080020ac
:020000040000fa
:101bf40038b550b952b10c46012529462046fff7a5
:0e1c040061fc0028f9d0012000e0002038bd6e
:020000040000fa
:101c120010b50023934206d113f0030018bf012030
:0e1c220000eb930010bdc45ccc540133f2e71c
:020000040000fa
:101c300038b50d461446012801d0204638bd21464e
:0c1c40002846fff749fd0028f9d0f6e720
:020000040000fa
:101c4c005ab110b40a44431e11f8014b03f8014f6a
:0c1c5c009142f9d15df8044b70477047cd
:020000040000fa
:101c680013b50446019201aafef706fb636813f058
:0c1c7800100f18bf4ff0ff3002b010bd7d
:020000040000fa
:101c8400044a9368d06883423ebf024a12699b1893
:081c9400181a7047180800201f
:020000040000fa
:101c9c00044bd86a9b6a984282bf024a126b9b180b
:081cac00181a70471808002007
:020000040000fa
:101cb400044b93f8342083f8340083f83c10104626
:081cc400704700bf1808002062
:020000040000fa
:101ccc0003783bb1034600bf13f8012f002afbd168
:081cdc00181a70471846704702
:020000040000fa
:101ce40010b50446fff708ff28b9a368e268c4e901
:081cf40005331344a36210bd87
:020000040000fa
:101cfc0010b4c46a1cb123465df8044b1847006845
:081d0c005df8044bfff78ebfe8
:020000040000fa
:101d1400044a136823b9106003610160012070470d
:081d240000207047a408002014
:020000040000fa
:101d2c0068076c094c836a9074a07ac0008068883c
:061d3c0000846c820081ae
:020000040000fa
:101d42000068002808b501da002008bdfff72ffe61
:061d5200431cfad1f8e782
:020000040000fa
:101d580010b5034b1c69fff791ff013c201a10bd19
:041d68001808002037
:020000040000fa
:101d6c00034b00229a601a6842f001021a60704715
:041d7c0010e000e093
:020000040000fa
:101d8000bd1d0000131c0000611e0000611e00004c
:041d9000611e0000d0
:020000040000fa
:101d940032b1c9b20244034603f8011b9342fbd19a
:041da400704700bfc5
:020000040000fa
:101da80008b500f04bf8024b1860586008bd00bf3a
:041db8008c08002073
:020000040000fa
:101dbc000a440023914201d10020704701f8013bf5
:021dcc00f8e736
:020000040000fa
:021dce00fee72e
:020000040000fa
:101dd000024b40f204521a80704700bf004000419d
:020000040000fa
:101de00000294ff480630cbf02220022fff7e4bbfe
:020000040000fa
:101df00008b5fff7d9ff00f03ff800f03df808bd47
:020000040000fa
:0e1e0000a0f14103192b98bf40f0200070475d
:020000040000fa
:021e0e00fee7ed
:020000040000fa
:0c1e100008b1014a9063704718080020d8
:020000040000fa
:0c1e1c00014b1862596270471808002042
:020000040000fa
:0c1e2800014b01221a707047a80800202e
:020000040000fa
:081e3400286e696c29002500ed
:020000040000fa
:081e3c0008b5fff7adfc08bd7d
:020000040000fa
:081e4400004870471809002056
:020000040000fa
:071e4c00286e756c6c290083
:020000040000fa
:061e54000068fff7ebbe81
:020000040000fa
:061e5a004ff0ff3070475d
:020000040000fa
:041e600000207047a7
:020000040000fa
:041e640000207047a3
:020000040000fa
:041e6800002070479f
:020000040000fa
:041e6c00002070479b
:020000040000fa
:041e70000020704797
:020000040000fa
:021e74007047b5
:020000040000fa
:021e76007047b3
:020000040000fa
:021e78007047b1
:020000040000fa
:021e7a007047af
:020000040000fa
:0200000400807a
:044000003912003c35
:020000040000fa
:0200000400807a
:044004008000a82a66
:020000040000fa
:0200000400807a
:04400800ffffffffb8
:00000001FF
