:020000040000fa
:10000000f8ff03207d1200003f1a0000ef1d0000e2
:100010001f2100007d2100007f2100000000000062
:100020000000000000000000000000004f1700006a
:10003000df200000000000004f170000651e0000d8
:100040004f1700004f1700004f1700004f17000018
:100050004f1700004f1700004f1700004f17000008
:100060004f1700004f1700004f1700004f170000f8
:100070004f1700004f1700004f1700004f170000e8
:100080004f1700004f1700004f1700004f170000d8
:100090004f1700004f1700004f1700004f170000c8
:1000a0004f1700004f1700004f170000f11d000010
:1000b0004f1700004f1700004f1700004f170000a8
:1000c0004f1700004f1700004f1700004f17000098
:1000d0004f1700004f1700004f1700004f17000088
:1000e0004f1700004f170000000000000000000044
:1000f000000000004f1700004f1700004f170000ce
:100100004f1700004f1700004f1700004f17000057
:100110004f1700004f1700004f1700004f17000047
:100120004f1700004f1700004f1700004f17000037
:100130004f1700004f170000b1170000b117000063
:10014000b1170000b11700004f1700004f17000053
:100150004f1700004f1700000000000000000000d3
:10016000000000000000000000000000000000008f
:1001700000000000000000004f1700004f170000b3
:100180004f1700004f1700004f1700004f170000d7
:10019000000000004f1700004f1700004f1700002d
:1001a0004f1700004f1700004f1700004f170000b7
:1001b0004f1700004f1700004f1700004f170000a7
:1001c0004f1700004f1700004f1700004f17000097
:1001d0004f1700004f1700004f1700004f17000087
:1001e0004f1700004f1700004f1700004f17000077
:1001f0004f1700004f1700004f1700004f17000067
:100200004f17000000000000000000004f17000022
:100210004f1700004f1700004f1700004f17000046
:100220004f1700004f1700004f1700004f17000036
:100230004f1700004f1700004f1700004f17000026
:100240004f1700004f1700004f1700004f17000016
:100250004f1700004f1700004f1700004f17000006
:020000040000fa
:10026000f8b500bff8bc08bc9e467047ed1a000008
:10027000f8b500bff8bc08bc9e467047c91a00001c
:020000040000fa
:08028000100300000100000062
:020000040000fa
:100288002de9f041aeb006461546059100270599bf
:100298000b78002b00f0fa8000244ff0ff33cde9f3
:1002a80009430eab0c9380230b940d930b5d0bb19c
:1002b800252b26d134b12246304601f05ffc059b40
:1002c80023440593059b1a78252a40f0d78003f12b
:1002d8000108cdf81480059803782b2b1ad025d85f
:1002e800202b1bd0232b1dd02a2b27d001f080fbdd
:1002f8000b90059b1a78303a092a2ed801330593ba
:10030800f7e70134d2e7099b43f001030130099371
:100318000590e0e7099b43f00403f7e7099b43f0e6
:100328000803f3e7099b43f01003efe72d2bead00e
:10033800302bd9d1099b43f00203e7e72b681a1d3c
:100348001b682a600130002b05900b9305da099a87
:100358005b4282f0010209920b93099bda0744bfc2
:1003680023f002030993059b1a782e2a0dd1002247
:10037800581c0a9205905a782a2a25d102330593e7
:100388002b681a1d1b682a600a9305a801f0d8fb80
:10039800059b0390187801f0b7fe6928039979d076
:1003a80032dc632800f0cb8019dc252800f0d980e6
:1003b800612853d000234ff0ff32cdf81480099301
:1003c8000b930a920093d4e001f012fb0a90059b6c
:1003d8001a78303a092ad8d801330593f7e7642800
:1003e80058d06728e6dc2a4606a801f0bdfc00289c
:1003f80000f0a180059b5a1c05921b7806aa09a942
:10040800304601f0adfe38e0702873d015dc6e2858
:1004180000f08c806f28cdd12b46002206a800f072
:10042800a1fd002800f08780059b06aa013309a9d1
:100438003046059301f092fe1fe075283ad07828df
:1004480048d07328b6d1802975d1059b2a68013315
:100458000593131d2b60126800237de02a4606a829
:1004680001f082fc002866d0059b5a1c05921b7877
:1004780006aa09a9304601f073fe04443c44a74289
:100488007add3e4b4f221a604ff0ff3738462eb0c8
:10049800bde8f0812b46012206a800f063fd002884
:1004a80049d0059b06aa013309a93046059300f0f7
:1004b80003fee2e72b46002206a800f053fd0028c1
:1004c80039d0059b06aa013309a93046059301f0e6
:1004d80045fed2e72b46002206a800f043fd50b3a4
:1004e800059b5a1c05921b7806aa09a9304601f0fb
:1004f80037fec2e72b460022f02106a800f032fda5
:10050800c8b1059b01330593dde9062313430bd1dd
:100518001b4801f077fd099b009319490b9b024684
:10052800304600f0ebfea8e77823dde72b463a19c2
:1005380006a800f0e7ff059b013305939ee7802995
:10054800f9d1059b013305932b681a1d1b682a6096
:100558008df8183006aa012309a9304601f002fed9
:100568008be78029e7d1059b01330593099b00930d
:100578000b9b04490122d3e7274688e6200c00207c
:08058800442100004a2100009b
:020000040000fa
:100590002de9f04f099f154604468e461e46002b56
:1005a00040f0cc808a42b2fa82fc4cd9bcf1000ff8
:1005b0000bd0ccf1200801fa0cfe20fa08f802fa60
:1005c0000cf548ea0e0e00fa0cf44fea15491ffa32
:1005d00085f8befbf9fa210c09fb1ae30afb08fbbc
:1005e00041ea03439b452ad9eb180af1ff3004d2b4
:1005f0009b4502d9aaf102002b44a3eb0b03a4b242
:10060000b3fbf9f209fb123302fb08f844ea034496
:10061000a04516d92c1902f1ff3303d2a04501d908
:10062000931e2c44a4eb080443ea004027b124faab
:100630000cf400233c607b603146bde8f08f5046ef
:10064000dbe71346eee702b9ffdebcf1000f2ed167
:100650008b1a01264fea154eaab2b3fbfef8210c05
:100660000efb183308fb02f941ea0343994561d9af
:10067000eb1808f1ff3004d2994502d9a8f1020025
:100680002b44a3eb0903a4b2b3fbfef10efb113321
:100690004a4344ea0344a2424ed92c1901f1ff33e4
:1006a00003d2a24201d98b1e2c44a41abce7ccf180
:1006b000200e02fa0cf521fa0ef901fa0cf320fad9
:1006c0000efe4eea03034fea154800fa0cf4b9fb9c
:1006d000f8f11ffa85fe08fb1192180c01fb0ef6cb
:1006e00040ea0242964221d9aa1801f1ff3003d212
:1006f000964201d9881e2a44921b9bb2b2fbf8f99c
:1007000008fb192209fb0efe43ea02439e450fd95e
:10071000eb1809f1ff3604d29e4502d9a9f1020671
:100720002b44a3eb0e0346ea004693e70846e3e7b3
:100730004e46f6e74046a4e70b46b6e78b4206d99d
:10074000002f7ed00026c7e90001304674e7b3fad7
:1007500083fcbcf1000f0fd18b4201d3824209d838
:10076000841a61eb030e0120002f6dd0c7e9004e03
:10077000002661e76046f7e7ccf1200e03fa0cf3a0
:1007800022fa0ef521fa0ef41d4301fa0cf320fab9
:100790000ef10b434fea154a00fa0cf6b4fbfaf9d6
:1007a0001ffa85f80afb19401c0c09fb08f144ea02
:1007b0000044a14202fa0cf23fd92c1909f1ff3092
:1007c00004d2a14202d9a9f102002c44641a9bb2be
:1007d000b4fbfaf90afb194409fb08f843ea04419f
:1007e00088452cd9691809f1ff3304d2884502d90c
:1007f000a9f10203294443ea0040a1eb0801a0fb50
:1008000002894945c2464c4602d306d1464504d228
:10081000b8eb020a69eb05040138afb1b6eb0a0385
:1008200061eb040606fa0efe23fa0cf34eea03030c
:1008300026fa0cf6c7e900369ae74846c6e74b4663
:0c084000d9e73e463846f7e63e46f5e6ae
:020000040000fa
:10084c002de9f04f83b0994b1c88a4b2984b1b78c0
:10085c00002b33d0964b00221a70944b1a88954b70
:10086c001b681344b3f5a06f41d3904d28882a8898
:10087c00914e924fc2f5a0623946304401f05cfbb8
:10088c0029882a888b4b1b68a3f5a063c1f5a0614e
:10089c001a443944304601f04ffb864b1b68834a9f
:1008ac0011880b449bb2138013889bb2b3f5a06fd5
:1008bc0004d31388a3f5a0639bb21380804b1b88d1
:1008cc00a34288bf4ff4a0647e4a11787e4ab2f8e6
:1008dc0000807e4a15787e4a16784ff0000a5746fb
:1008ec00d146d646d4467448cdf804a02de06f4bc3
:1008fc001b88704a126871496f48184401f01cfb40
:10090c00cbe7c25cd2b2312a0cd001339ab293b28b
:10091c009c420dd910f802c05ffa8cfc0132bcf17c
:10092c00310ff4d101339bb201273e46bc460ce09b
:10093c004ff0010c09e0c25cd2b2352a0cbf022682
:10094c00002601339bb20127bc46a34280f08b806a
:10095c00042efad801a252f826f000bf0f090000ad
:10096c00430900007d090000930900001b0a0000e8
:10097c00c25cd2b23b2a0cbf0326002601339bb2c9
:10098c000127bc46e1e71a464ff0010c10e0013399
:10099c009bb201270426b9460021be46019dbc46e8
:1009ac00d3e701339bb201321ffa82fb5c450dd9b0
:1009bc0093b210f802b05ffa8bfbbbf13b0ff0d196
:1009cc000135edb2032de2d0e646eae74ff0010c1b
:1009dc00bbe74ff00109cc46b7e7bcf1000f01d0e3
:1009ec00374a1380bef1000f01d0384b1d70b9f19e
:1009fc00000f01d0334b19700023354a1370324a63
:100a0c001380344a13702f4b93f900004be09b4634
:100a1c00c25cd2b23b2a1ad001331ffa83fc00bf4e
:100a2c0010f80b3001eb810103eb41013039c9b2f5
:100a3c001ffa8cf39c42ccd9e34610f80c20d2b2ae
:100a4c000cf1010c3b2aebd14ff00109cc4608f11b
:100a5c0001081ffa88f8b8f1640fbed04ff0010af4
:100a6c005746002671e7bcf1000f01d0144a1380e1
:100a7c00bef1000f01d0154a1570b9f1000f01d06d
:100a8c00104a11700fb1124a1670baf1000f02d051
:100a9c000d4aa2f80080b3f5a06f02bf084b0022ec
:100aac001a804ff0ff3003b0bde8f08f2a0c002005
:100abc00310c0020140c002000000020c80900207c
:100acc002c0c00202e0c0020280c0020330c0020b5
:080adc002f0c0020320c002059
:020000040000fa
:100ae400d80b00201c000000000000002e0c002089
:100af4000200000000000000280c0020020000009a
:100b040000000000300c0020030000000000000082
:100b1400140c00200400000000000000000000206d
:100b240000050000000000002a0c00200400000062
:100b340000000000c8090020800000000000000040
:100b4400330c002001000000000000000809002010
:100b5400c000000000000000480a0020000100005e
:100b640000000000980b002040000000000000007e
:100b7400f40b00200c00000000000000340c0020e6
:100b84000100000000000000180c00200400000018
:100b940000000000480b002050000000000000008e
:100ba400380c00206c00000001000000440c002000
:100bb400400c0020440c0020000000002500000030
:100bc40008050020000400000000000000000000f0
:100bd4000000000000000000000000000000000011
:100be400000000000000000071210000000000006f
:100bf400000000000000000000000000ef160000ec
:100c040000000000000000000000000000000000e0
:100c1400000000000000000000050020080400009f
:100c240000000000040d002020000000010000006e
:100c340001000000030000000000000000000000ac
:100c44000000000000000000000000000c0c002068
:100c54000c0c002008000000000000001c0c002008
:100c64000800000000000000a40c00206000000048
:100c7400010000000100000003000000000000006b
:100c84000000000000000000000000000000000060
:100c940069180000000000000000000000000000cf
:100ca4005521000087210000000000000000000022
:100cb4000000000000000000000000000000000030
:100cc4000000000000000000000000000000000020
:100cd40000000000240d00200400000001000000ba
:100ce40001000000240c00200400000000000000ab
:100cf400000c00200c0000000000000000000000b8
:100d04000000000066666666666666666666666617
:020000040000fa
:100d1400384b00221a7403f50063374a9a621a4664
:100d2400536813f0100ffbd1344b4222c3f88420d4
:100d34001a4600bfd2f8843013f0400ffad0304b7b
:100d440000229a6377225a631a46d36b13f0040f76
:100d5400fbd12b4b022283f830201a46d36b13f0bd
:100d6400020ffbd1264a136c03f00303032bfad1c1
:100d7400244b01225a711a46d37813f0010ffbd089
:100d84001e4b214a1a621a46536813f0040ffbd112
:100d94001a4b1e4a5a621a46536813f0080ffbd1c5
:100da400164b4122c3f890201a4600bfd2f8903067
:100db40013f0400ffad0114b4122c3f808211a4610
:100dc400d2f8083113f0400ffad00c4b4122c3f88b
:100dd4000c211a46d2f80c3113f0400ffad0094b0b
:100de4006ff07f421a6140f2ff725a6103221a6265
:100df400704700bf0014004006013000001c004092
:100e04000010004000080040070101000701020033
:020000040000fa
:100e140038b5224b1b787bb1214b1b784bb3214b4c
:100e24001988214a214813889bb28b4202d1037846
:100e3400002bf8d0012038bd00211d4801f074f9c1
:100e44004ff4a0611b4800f01ffb0a2001f066f973
:100e54000021012001f0b4f801f00ef9164c8025b0
:100e64006561012000f04efea5610c4b01221a7051
:100e7400d2e741f2883000f045fe4ff4a062002131
:100e84000c4801f00df9064b01221a700023064aa2
:100e94001380044a1380054a1370c0e7300c002005
:100ea400320c00202c0c00202a0c0020310c0020d5
:0c0eb400191d000000000020008000411b
:020000040000fa
:100ec000f8b5284c4ff08646274f13e0226afab156
:100ed000616a236a01209847a36a0133226b934217
:100ee00028bf002314e0a26aedb2bd54a36294f8b7
:100ef0003430fbb9337e13f0040f32d0b56aa36ae5
:100f00000133226b934228bf0023e26a9a42ddd06c
:100f1000e26a9a42eed0726802f00702012ae2d138
:100f2000a16a4a00e8b207f811000132c5f30725ab
:100f3000bd54dbe701f03af8236a002bdad0616a8e
:100f400094f83c3033b1a36b9842d3d3236a00208a
:100f50009847cfe7a36b9842ccd1236a00209847eb
:0c0f6000c8e7f8bd980b0020480a0020ec
:020000040000fa
:100f6c00882910b536d012dc812943d003dc8029c6
:100f7c0040d0002010bd82290ed08429f9d11968e7
:100f8c0002b30a1d1a60b1f90020d3171ee0a02984
:100f9c002bd00bdc9029ecd11968073121f007011b
:100fac0001f108021a60d1e900230fe0c02901d039
:100fbc00f029ded11a68111d196013680360002333
:100fcc00436005e00a1d1a600a880023c0e900236b
:100fdc000120cfe7196822b10a1d1a6091f900208f
:100fec00d3e70a1d1a600a78efe71a68111d196019
:100ffc001268cae719681ab10a1d1a600a68c4e7b0
:0c100c000c1d1c600b68c0e90032e1e71d
:020000040000fa
:1010180070b582b04ff08645254c264e14e0f25c40
:101028008df80620013322699a4298bf0023e360b5
:101038006b6803f00703012b14bf9df80630bdf859
:101048000630ab62237dbbb92b7e13f0010f2dd088
:10105800a268e3689a4225d06a6802f00702012a6a
:10106800ddd15a0016f813108df806100132b25c63
:101078008df807200133d6e700f0f2ff2368002b34
:10108800e2d06168237f33b1a3699842dcd3236837
:1010980003209847d8e7a3699842d5d1236803204d
:1010a8009847d1e74ff0864301221a7502b070bd08
:0810b800980b0020c80a00207b
:020000040000fa
:1010c0002de9f041d2e900230c4686b007465feadd
:1010d000d37820684968a5680590e66841d05242f7
:1010e00063eb4303002908db20f002000590b8f110
:1010f000000f02d1059948072ad5691e05a802905c
:101100000a20cde90010204600f07afab8f1000f6d
:1011100002d1059b59071fd5b8f1000f00f1ff3030
:1011200014bf2d232b2333542269059b0093013ace
:101130002b46121a3118384600f0e4f87b68db05bc
:1011400003d563689842b8bf184606b0bde8f08181
:101150000807d2d42946d1e71a07e5d5013820235c
:08116000e1e70029c0dac5e750
:020000040000fa
:101168002de9ff41836946690093f61acde90161cb
:1011780004461746039216444ff002086d4642464d
:101188002946206800f01afeb04209d1d4e902329b
:10119800c4e905331a44a262384604b0bde8f081b8
:1011a80000280dda6268002342f01002b8f1020f3d
:1011b800a362c4e90533626015d06b68ff1aebe7d8
:1011c8006b68984288bf0835a6eb000688bfc01a2e
:1011d8002b6803442b606b68a3eb000088bf08f101
:0a11e800ff386860cbe71f46d6e72a
:020000040000fa
:0211f200704744
:020000040000fa
:1011f4001f4a137843f001031370536813f0010f6f
:10120400fbd11b490b7843f010030b700022ca6119
:101214004ff010430b624ff400430b634a630b61be
:10122400144b10221a819a821a849a851a87a3f879
:101234004420a3f85020a3f85c20a3f86820a3f866
:101244007420a3f88020a3f88c20a3f89820a3f896
:10125400a420a3f8b0200f22a3f8bc200b7843f0fd
:1012640002030b700a46536813f0020ffbd1704758
:081274000028004008090020d9
:020000040000fa
:10127c0008b5194b9847194b9847eff3108172b684
:10128c00174ad2f8883043f47003c2f88830bff3a1
:10129c004f8fbff36f8f01b962b6124a936823f078
:1012ac00010393601346da6812f0010ffbd10d4b6a
:1012bc0024225a6001229a6000f096fc0a4b23f01b
:1012cc007f03074a9360094b9847094b9847094b92
:1012dc00984700f0d3fcfee781210000812100003b
:1012ec0000ed00e000600041000000000d1800005f
:0812fc008121000081210000a6
:020000040000fa
:101304002de9ff471d460c9b13f0010906468a464a
:10131400144601d195420bd822465146304600f07e
:101324002ffca54204d82546284604b0bde8f08722
:101334002f1b102f3a464ff0200128bf1022684679
:10134400b84600f0adfe00bfb8f10f0f11d83b094d
:101354006ff00f0202fb03726946304600f010fc86
:10136400b9f1000fe0d122465146304600f008fca6
:10137400dae710226946304600f002fca8f11008b2
:04138400e2e700bfdd
:020000040000fa
:10138800f0b51f4c2568a446002d36d0002229460a
:1013980016461346d1f800e00f6986450ad132b1e6
:1013a800176101f110031846f0bd3946f2e7ccf891
:1013b8000070f6e705d9ebb11c68a6453cbf164698
:1013c8000b460a46002ff0d1002becd019461f69b6
:1013d80051f8102b121a102a05d918600844103a2f
:1013e8000761026007469d420cbfccf80070376168
:1013f8000b46d8e716460b46e3e72b46d3e700bf74
:04140800240c002090
:020000040000fa
:10140c004ff086431c4a1a604ff622029a814ff421
:10141c0040325a601a46d369002bfcd14ff08642f9
:10142c00136843f002031360d369002bfcd1134bf8
:10143c0000221a629a62da6283f8342083f83c2024
:10144c009a63da871a609a60da601a751a779a6169
:10145c004ff086435b6803f00703012b074b14bf67
:10146c00802240221a631a614ff0864380229a75bb
:10147c0004229a75704700bf04011040980b00209d
:020000040000fa
:10148c00f0b51d4ad36a956a99b30e46ab4208bfb4
:10149c0000222ad00122194c174f0fe014f803c078
:1014ac00411e01f802c00133396b994298bf0023e9
:1014bc00b24219d2511cab4217d00a464ff08641aa
:1014cc00496801f007010129e8d1590014f813e02b
:1014dc00a0f1020c0cf812e0013114f801c0411e0d
:1014ec0001f812c00133dfe71d46034bdd621046e5
:1014fc00f0bd1d460a46f8e7980b0020480a00206c
:020000040000fa
:10150c00842910b523d00cdc812903d0822913d077
:10151c0080290bd119680c1d1c600b6803601a60c4
:10152c0013e0902921d003dc882917d0002010bdae
:10153c00a029efd0c029ece719680c1d1c600b68c2
:10154c000360d1171046c3e900010120efe71968c9
:10155c000c1d1c600b6803601a80f6e719680c1de3
:10156c001c600b6803601a70efe719680c1d1c6097
:0c157c0009680160d317c1e90023e6e70d
:020000040000fa
:101588001b4bda6822f4e0621204120c42f0bf62cc
:1015980042f40032da60bff35f8f62b6154ae02189
:1015a80082f81b134ff00060106082f83e134ff072
:1015b8008040506082f83f134ff00040506082f83e
:1015c80040130120906082f84113022191605a6a09
:1015d80042f480225a625a6942f010025a615a6ae9
:1015e80042f400325a625a6a42f480325a627047b0
:0815f80000ed00e000e100e05d
:020000040000fa
:101600002de9f84f04460c9f6668d4f80cb02469a5
:1016100010463a68013c002502f0020a0b9a0bf8ca
:101620000450002e1946b8bf0126012390464fea08
:10163000e279002c03dcd3b12046bde8f88f50eaf4
:10164000010209d1721b002a06dc0a9a521b002ae9
:10165000f1ddbaf1000feed042464b4600f02cfb14
:10166000013c134630320bf804200135e1e73b68ba
:0816700023f010033b60dfe7eb
:020000040000fa
:10167800f8b5846a05460f46164654b1ab6a6a69de
:101688009b1ab3420bd2324639462846fff768fd0b
:10169800f8bd00f09ffc0028f0d02046f8e7002ea7
:1016a800f1d095f93430002b1bdbdbb23446621ed7
:1016b800b95c994212d1224639462846fff750fdb7
:1016c800a042e5d32744341b22463946686900f016
:1016d80035fc6b691c446c613046d9e71446002a16
:0616e800e5d13446f0e7f5
:020000040000fa
:1016ee007fb5c36800911546002b18bf013a0192d1
:1016fe0082680446cde902230e460222694600683e
:10170e0000f044fb002808dc00f0180383f0080208
:10171e0063681343636005460fe0019a8242fad272
:10172e00a368e363801ae268184420642ab15a1c45
:10173e00e2632e441b7806f8013c284604b070bdc7
:020000040000fa
:02174e00fee7b4
:020000040000fa
:1017500037b5154d2b68044673b100f0b7fb019007
:1017600001a800f076fc0f30019920f00f0000f086
:1017700059fc60b100232b60002c08bf01240f34fa
:1017800034f00f0405d1094b0c221a60204603b037
:1017900030bd042c38bf04242046fff7f5fd002897
:1017a000f5d040f8044cf2e7240d0020200c002076
:020000040000fa
:1017b00008b54ff086439b7d0bb34ff08642137ef6
:1017c000dbb2927d12f0800f1ad14ff08642137e69
:1017d000dbb2927d12f0010f04d013f0010f01d0a3
:1017e000fff71afc4ff08642137edbb2927d12f0b7
:1017f000040f04d013f0040f01d0fff761fb08bd04
:0c18000013f0800fe1d000f085f8dee767
:020000040000fa
:10180c000e4a38b5002313600d4a0e4c13600e4a75
:10181c000e4d13600e4a13600e4a13600e4a53624b
:10182c0013610123936000f065fc00f0a4fcac4252
:10183c0000d338bd54f8043b9847f8e71c0c002043
:10184c00540b00206c020000500b002070020000b2
:0c185c00480b00204c0b0020580b002013
:020000040000fa
:1018680038b50d46044608b9002038bd43689b06c4
:1018780007d5d0e905239a4216d80023c4e90533d1
:10188800a362d4e90f13994204d20122c91a20682d
:1018980000f06efc0023c4e90f33002de4d020686b
:1018a800bde8384000f055bc0022c36a114698478d
:0c18b8006369002be1d14ff0ff30d6e750
:020000040000fa
:1018c40010b370b506460d4600f0c4f9d5b1002436
:1018d4000e4a137e13f0040ffbd0538b13f0070f43
:1018e4000bd1536803f00703012b936a14bf3355dc
:1018f40026f814300134a542ebd1a54214bf0020d0
:10190400012070bd2c46f8e7002070470004004316
:020000040000fa
:1019140008b54ff086435b8b13f0070300d108bd75
:101924000e4ad3874ff0864380221a7607225a83c1
:101934001b7e13f0040f06d04ff086439a6a1a7e7a
:1019440012f0040ffad1054b1b6a002be7d0034bae
:10195400596a1b6a02209847e1e700bf980b0020f0
:020000040000fa
:10196400022a70b5044616461d461ad043689b06e3
:1019740017d441b9002d08bf4ff4806505f1080064
:10198400fff7e4fe01466368012e43f02003636021
:10199400c4e9021514bfff230a2384f83430024b30
:0c19a400e362002070bd00bf7916000057
:020000040000fa
:1019b00008b500f095fb0e4b1b680021186800f07d
:1019c00097fb0c4b1b680021186800f091fb00f09e
:1019d00037f8fff79ff9fff70cfc00f031fa00f041
:1019e000eff8fff713fdfff705fcfff7cdfd08bd8e
:0819f0003c0c0020200d00203a
:020000040000fa
:1019f80010b50278202a034600f10100f9d0a2f1bf
:101a080009010429f5d92b2a07d02d2a11d1012142
:101a18000133013b00200a2403e00021f8e760437a
:101a2800801a13f8012f303a092af8d901b940422f
:061a380010bd0021ede7e6
:020000040000fa
:021a3e00fee7c1
:020000040000fa
:101a40000f4b80221a6048f280021a61002283f84c
:101a50004720052183f84f1083f8332083f837207f
:101a6000012283f8cc2083f8cd2083f8d02083f89e
:101a7000d120222283f8b62083f8b820704700bf17
:041a800000800041a1
:020000040000fa
:101a8400d0b110b40446c9b1084421460c4a64429a
:101a9400137e13f0010ffbd0536803f00703012bef
:101aa40014bf0b7834f81130936201318142efd1c5
:101ab40001205df8044b7047002070470120f8e7cf
:041ac40000040043d7
:020000040000fa
:101ac80010b5054c227832b9044b13b10448aff372
:101ad80000800123237010bdd80b002000000000f7
:101ae8000000000008b5034b1bb103490348aff3de
:101af800008008bd00000000dc0b00200000000092
:020000040000fa
:101b080070b40d4b5e681b6813f0010f12d00b4bbd
:101b180003fb00f0084b9b6860b10021064c0136be
:101b2800a2689a4292bf9b1ab51a5b1919441346c8
:101b38008842f5d870bc704710e000e0c0d40100be
:020000040000fa
:101b480030b50d4a002300bf12f8134024b902eb48
:101b580043035b78184630bd01680d78a54209bf7c
:101b680002eb430301335b78013114bfdbb2016040
:0c1b78000a2be9d9eee700bf3c2000007a
:020000040000fa
:101b840038b5436813f4807f0446154611d00369c1
:101b94009a4228bf1d465db12a46406900f0d0f93b
:101ba400636922692b44551b0022636125611a7005
:0c1bb40038bddb06fcd400f01bfaf9e79a
:020000040000fa
:101bc0000a4b0b4a1a604ff622029a814ff44032b8
:101bd0005a601a46d369002bfcd1044a136843f0bb
:101be00002031360d369002bfcd17047000400434b
:041bf000040110409c
:020000040000fa
:101bf40070b50a480a4d4ff6ff76016811b943687b
:101c040003b970bd83684268334000f10c0455f891
:101c140023302046984704eb8000eee7e40a0000f6
:041c2400902000000c
:020000040000fa
:101c280030b400eb4004094b03eb84031b899bb2df
:101c3800834201d030bc7047044b44002518ad00e6
:101c48005951204403eb80035a60f3e70809002048
:020000040000fa
:101c58000a4b5b8b13f0070f0ed0084b80221a76c5
:101c680007225a831b7e13f0040f05d0034b9a6a90
:101c78001a7e12f0040ffad1704700bf0004004327
:020000040000fa
:101c880008b50020fff790fe002207490f20fff754
:101c9800c7ff064c03e00023237000f003f9237804
:101ca800002bfcd0f7e700bf39210000340c0020de
:020000040000fa
:101cb80053b94ab9002908bf00281cbf4ff0ff31ab
:101cc8004ff0ff3000f052baadf1080c6de904cec8
:101cd800fef75afcddf804e0dde9022304b07047a2
:020000040000fa
:101ce800064b1a680ab9064a1a60064a116809b901
:101cf800054911601a68054b1a607047080c0020e6
:101d0800300d0020040c0020300f0020000c0020b3
:020000040000fa
:101d180000b1704708b500f045f901460448fff7df
:101d2800b1fb044b1860044b01221a7008bd00bfb8
:0c1d3800c8090020140c0020310c002011
:020000040000fa
:101d440010b5084c23680bb9fff7ccff064922688d
:101d540009681044814234bf4ff0ff3220601046be
:0c1d640010bd00bf000c0020040c00208b
:020000040000fa
:101d7000802910db812901dd83290cd11368073309
:101d800023f0070303f108011160d3e90023c0e940
:0a1d90000023012070470020704777
:020000040000fa
:101d9a002de9f0410024804617460e462546bd42ed
:101daa0002db2046bde8f081726856f8081b4046ff
:0a1dba0000f097f801350444f1e74a
:020000040000fa
:101dc4002de9f0410024804617460e462546bd42c3
:101dd40002db2046bde8f081726856f8081b4046d5
:0a1de40000f0a0f801350444f1e717
:020000040000fa
:021dee00fee70e
:020000040000fa
:101df00008b5074b4ff400425a61064bd3f8b43094
:101e00002bb1044bd3f8b800d3f8b430984708bdd1
:081e1000002800400809002031
:020000040000fa
:101e180090f948305a1e1343426880f8483012f04f
:101e280004031bbf42f010024260c0e90f334ff0b9
:081e3800ff3008bf1846704797
:020000040000fa
:101e4000054a002313609360044951600621116024
:101e5000034a93601360704710e000e0bfd40100b4
:041e6000f40b00205f
:020000040000fa
:101e640008b5064b5868064a12689a6801329a60a7
:101e74001b6813b1014b1b68984708bdf40b002085
:041e840010e000e08a
:020000040000fa
:101e88000fb407b5064b04aa1b6852f8041b186860
:101e9800019200f061f803b05df804eb04b07047fc
:041ea800200d0020e9
:020000040000fa
:101eac0008b5fef7b1ff40b1fef7cafcb0f1ff3f39
:101ebc00fad0c1b20148fff7e1ff08bd7c1f00005a
:020000040000fa
:101ecc0010b5054c22680ab9fff708ff034b1868d8
:101edc002368c01a10bd00bf000c0020040c0020a9
:020000040000fa
:101eec0038b550b952b10c46012529462046fff7aa
:0e1efc00e3fc0028f9d0012000e0002038bdf2
:020000040000fa
:101f0a0010b50023934206d113f0030018bf012035
:0e1f1a0000eb930010bdc45ccc540133f2e721
:020000040000fa
:101f280038b50d461446012801d0204638bd214653
:0c1f38002846fff7a3fd0028f9d0f6e7cb
:020000040000fa
:101f44005ab110b40a44431e11f8014b03f8014f6f
:0c1f54009142f9d15df8044b70477047d2
:020000040000fa
:101f600013b50446019201aafef78ef9636813f0d7
:0c1f7000100f18bf4ff0ff3002b010bd82
:020000040000fa
:101f7c00486561727472617465203d20256420622d
:081f8c00706d20090d0a000030
:020000040000fa
:101f9400044a9368d06883423ebf024a12699b1880
:081fa400181a7047980b002089
:020000040000fa
:101fac00044bd86a9b6a984282bf024a126b9b18f8
:081fbc00181a7047980b002071
:020000040000fa
:101fc400044b93f8342083f8340083f83c10104613
:081fd400704700bf980b0020cc
:020000040000fa
:101fdc0010b50446fff71aff28b9a368e268c4e9f4
:081fec0005331344a36210bd8c
:020000040000fa
:101ff40010b4c46a1cb123465df8044b184700684a
:082004005df8044bfff78ebfed
:020000040000fa
:10200c0003783bb1034600bf13f8012f002afbd124
:08201c00181a704718467047be
:020000040000fa
:10202400044a136823b910600361016001207047fa
:0820340000207047240c00207d
:020000040000fa
:10203c0068076c094c836a9074a07ac00080688829
:06204c0000846c8200819b
:020000040000fa
:102052000068002808b501da002008bdfff771fe0c
:06206200431cfad1f8e76f
:020000040000fa
:1020680010b5034b1c69fff791ff013c201a10bd06
:04207800980b0020a1
:020000040000fa
:10207c00034b00229a601a6842f001021a60704702
:04208c0010e000e080
:020000040000fa
:10209000cd2000000b1f0000612100006121000025
:0420a00061210000ba
:020000040000fa
:1020a40032b1c9b20244034603f8011b9342fbd187
:0420b400704700bfb2
:020000040000fa
:1020b80008b500f047f8024b1860586008bd00bf2b
:0420c8000c0c0020dc
:020000040000fa
:1020cc000a440023914201d10020704701f8013be2
:0220dc00f8e723
:020000040000fa
:0220de00fee71b
:020000040000fa
:1020e000024b40f204521a80704700bf004000418a
:020000040000fa
:1020f00000294ff480630cbf02220022fff732bc9c
:020000040000fa
:1021000008b5fff7d9ff00f03df800f03bf808bd37
:020000040000fa
:0e211000a0f14103192b98bf40f0200070474a
:020000040000fa
:02211e00fee7da
:020000040000fa
:0c21200008b1014a90637047980b002042
:020000040000fa
:0c212c00014b186259627047980b0020ac
:020000040000fa
:0c213800014b01221a707047340c00208b
:020000040000fa
:08214400286e696c29002500da
:020000040000fa
:08214c0000487047a40c0020bc
:020000040000fa
:062154000068fff7e7be82
:020000040000fa
:06215a004ff0ff3070475a
:020000040000fa
:0421600000207047a4
:020000040000fa
:0421640000207047a0
:020000040000fa
:04216800002070479c
:020000040000fa
:04216c000020704798
:020000040000fa
:042170000020704794
:020000040000fa
:04217400704700bff1
:020000040000fa
:04217800002070478c
:020000040000fa
:02217c00fee77c
:020000040000fa
:02217e00fee77a
:020000040000fa
:022180007047a6
:020000040000fa
:022182007047a4
:020000040000fa
:022184007047a2
:020000040000fa
:022186007047a0
:020000040000fa
:0200000400807a
:044000003912003c35
:020000040000fa
:0200000400807a
:044004008000a82a66
:020000040000fa
:0200000400807a
:04400800ffffffffb8
:00000001FF
