:020000040000fa
:10000000f8ff03205d070000170d0000730f0000cc
:10001000ff1100002b130000e3130000000000009c
:10002000000000000000000000000000df090000e8
:100030001b11000000000000df090000b9110000e2
:10004000df090000df090000df090000df09000010
:10005000df090000df090000df090000df09000000
:10006000df090000df090000df090000df090000f0
:10007000df090000df090000df090000df090000e0
:10008000df090000df090000df090000df090000d0
:10009000df090000df090000df090000df090000c0
:1000a000df090000df090000df090000df090000b0
:1000b000df090000df090000df090000d1130000a4
:1000c000df090000df090000df090000df09000090
:1000d000df090000df090000df090000df09000080
:1000e000df090000df090000000000000000000040
:1000f00000000000df090000df090000df09000048
:10010000df090000df090000df090000df0900004f
:10011000df090000df090000810200008102000009
:100120008102000081020000df090000df090000f9
:10013000df090000df090000df090000df0900001f
:10014000df090000df090000df090000df0900000f
:10015000df090000df0900000000000000000000cf
:10016000000000000000000000000000000000008f
:100170000000000000000000df090000df090000af
:10018000df090000df090000df090000df090000cf
:1001900000000000df090000df090000df090000a7
:1001a000df090000df090000df090000df090000af
:1001b000df090000df090000df090000df0900009f
:1001c000df090000df090000df090000df0900008f
:1001d000df090000df090000df090000df0900007f
:1001e000df090000df090000df090000df0900006f
:1001f000df090000df090000df090000df0900005f
:10020000df0900000000000000000000df0900001e
:10021000df090000df090000df090000df0900003e
:10022000df090000df090000df090000df0900002e
:10023000df090000df090000df090000df0900001e
:10024000df090000df090000df090000df0900000e
:10025000df090000df090000df090000df090000fe
:020000040000fa
:10026000f8b500bff8bc08bc9e467047610e0000a0
:10027000f8b500bff8bc08bc9e4670473d0e0000b4
:020000040000fa
:100280006c4b9b7d002b00f0d38010b56a4b9c6ab1
:10029000684b5b8b13f0020f16d0674bff2283f87d
:1002a0002020022283f82120634b93f820305bb298
:1002b000b3f1ff3f00f08a805f4b93f820305bb2d0
:1002c000062b00f09c8010bd5a4b5b8b13f0010f86
:1002d00007d0594bff2283f82020022283f82120e7
:1002e000e2e7544b5b8b13f0040f07d0524bff2215
:1002f00083f82020012283f82120d5e74e4b93f884
:1003000020305bb2032b42d0042b10d0022bcbd178
:10031000494b1b692bb1484b9888002100f0fcfc2d
:10032000c2e7454b9888012100f0f6fcbce7424a41
:10033000936912699a420bd03f4a9268d15c3d4a58
:100340009162591cd369002bfcd13b4b9961abe7ff
:10035000394b5b6973b1384b9b885b0043f00103f9
:10036000344a5362d369002bfcd1334b032283f808
:10037000202099e72f4a536843f440335360d369f0
:10038000002bfcd12c4b062283f820208ce72a4b33
:10039000d9695b69013b8b420bd0264ad369002b9c
:1003a000fcd1244b986a244bda6850540131d9614e
:1003b0007ae7204a536843f4e0235360d369002b63
:1003c000fcd11d4b062283f82020e6e71a4b0022c1
:1003d00083f82020174a536843f440335360d369ad
:1003e000002bfcd1134b83221a76134b5b6a002b34
:1003f0003ff469af104b5b6a2046984763e70e4baa
:10040000002283f8202083f821200a4b83221a76c9
:100410001a46538b03f03003102bfad1064b5b6a5c
:10042000002b3ff450af044b5b6a204698474ae7e5
:0c043000704700bf00200141580400206c
:020000040000fa
:10043c00840400204c000000000000005804002040
:10044c002c00000000000000d00400200c00000074
:10045c0000000000f0040020040000000000000078
:10046c0008040020500000000000000000050020df
:10047c006c000000010000000c05002008050020a5
:10048c000c050020000000002500000008000020e2
:10049c00000400000000000000000000000000004c
:1004ac000000000000000000000000000000000040
:1004bc0000000000fd130000000000000000000020
:1004cc000000000000000000a90a0000000000006d
:1004dc000000000000000000000000000000000010
:1004ec0000000000000000200804000000000000d4
:1004fc00cc050020200000000100000001000000dd
:10050c0003000000000000000000000000000000dc
:10051c000000000000000000e8040020e8040020b7
:10052c000800000000000000f4040020040000009b
:10053c00000000006c0500206000000001000000bd
:10054c00010000000300000000000000000000009b
:10055c00000000000000000000000000c50b0000bf
:10056c00000000000000000000000000ed1300007f
:10057c000b14000000000000000000000000000050
:10058c00000000000000000000000000000000005f
:10059c00000000000000000000000000000000004f
:1005ac00ec05002004000000010000000100000028
:1005bc00f80400200800000000000000dc0400200b
:1005cc000c00000000000000000000000000000013
:020000040000fa
:1005dc00344b00221a7403f50063334a9a621a46ac
:1005ec00536813f0100ffbd1304b4222c3f8842018
:1005fc001a4600bfd2f8843013f0400ffad02c4bbf
:10060c0000229a6377225a631a46d36b13f0040fb5
:10061c00fbd1274b022283f830201a46d36b13f000
:10062c00020ffbd1224a136c03f00303032bfad104
:10063c00204b01225a711a46d37813f0010ffbd0cc
:10064c001a4b1d4a1a621a46536813f0040ffbd159
:10065c00164b1a4a5a621a46536813f0080ffbd10c
:10066c00124b4122c3f8dc201a4600bfd2f8dc3012
:10067c0013f0400ffad00d4b4122c3f80c211a464f
:10068c00d2f80c3113f0400ffad00a4b6ff07f42c6
:10069c001a6140f2ff725a61094a9a6102221a6287
:1006ac00704700bf0014004006013000001c0040e1
:1006bc000010004000080040070101000701020083
:0406cc005682010051
:020000040000fa
:1006d0002de9ff41836946690093f61acde901616e
:1006e00004461746039216444ff002086d464246f0
:1006f0002946206800f0fcfcb04209d1d4e902325e
:10070000c4e905331a44a262384604b0bde8f0815a
:1007100000280dda6268002342f01002b8f1020fdf
:10072000a362c4e90533626015d06b68ff1aebe77a
:100730006b68984288bf0835a6eb000688bfc01ad0
:100740002b6803442b606b68a3eb000088bf08f1a3
:0a075000ff386860cbe71f46d6e7cc
:020000040000fa
:02075a007047e6
:020000040000fa
:10075c0008b5194b9847194b9847eff3108172b6af
:10076c00174ad2f8883043f47003c2f88830bff3cc
:10077c004f8fbff36f8f01b962b6124a936823f0a3
:10078c00010393601346da6812f0010ffbd10d4b95
:10079c0024225a6001229a6000f01afc0a4b23f0c2
:1007ac007f03074a9360094b9847094b9847094bbd
:1007bc00984700f0ddfdfee705140000051400006d
:1007cc0000ed00e00060004100000000690b00003b
:0807dc000514000005140000e3
:020000040000fa
:1007e40010b582b000230193030103f1824303f5a2
:1007f400204393f84e30dbb20193019b13f0020fb8
:100804000dd0010101f1824202f52042022382f857
:100814004e30134b0b4400221a73012400e00224cf
:10082400019b13f0010f0cd0010101f1824202f58a
:100834002042012382f84e30094b0b4400221a73e4
:100844000224074b03eb00135b6833b1044a02eb49
:10085400001399685b682046984702b010bd00bf3a
:04086400b0040020bc
:020000040000fa
:10086800f0b51f4c2568a446002d36d00022294635
:1008780016461346d1f800e00f6986450ad132b111
:10088800176101f110031846f0bd3946f2e7ccf8bc
:100898000070f6e705d9ebb11c68a6453cbf1646c3
:1008a8000b460a46002ff0d1002becd019461f69e1
:1008b80051f8102b121a102a05d918600844103a5a
:1008c8000761026007469d420cbfccf80070376193
:1008d8000b46d8e716460b46e3e72b46d3e700bf9f
:0408e800f8040020f0
:020000040000fa
:1008ec001c4bda6822f4e0621204120c42f0bf6274
:1008fc0042f40032da60bff35f8f62b6164ae02131
:10090c0082f81f134ff00040106082f836134ff43a
:10091c008000506082f837134ff40000506082f86a
:10092c0038134ff08070506082f839134ff000711b
:10093c0051605a6a42f480225a625a6942f010029b
:10094c005a615a6a42f400325a625a6a42f480324c
:0c095c005a62704700ed00e000e100e08e
:020000040000fa
:10096800f8b5846a05460f46164654b1ab6a6a69fb
:100978009b1ab3420bd2324639462846fff7a4feeb
:10098800f8bd00f093fc0028f0d02046f8e7002ed0
:10099800f1d095f93430002b1bdbdbb23446621ef4
:1009a800b95c994212d1224639462846fff78cfe97
:1009b800a042e5d32744341b22463946686900f033
:1009c80067fc6b691c446c613046d9e71446002a01
:0609d800e5d13446f0e712
:020000040000fa
:0209de00fee732
:020000040000fa
:1009e00000b585b000218df80c100122009203abf8
:1009f0004d2000f0bffa00bf00f090fb0028fbd1b3
:100a00009df80c3007ee903af8eee77a9fed0b7afe
:100a100067ee877adfed0a6a87eea67adfed097a5c
:100a200077ee277ab1ee087af4eec77af1ee10fa93
:100a3000acbf0120002005b05df804fb00704e45fe
:080a400000f07f4500000000fa
:020000040000fa
:100a4800144b01221a601a46d369002bfcd1114bb2
:100a58004ff480725a601a46d369002bfcd10d4bb3
:100a6800ff22da600c4a1a601a46d369002bfcd1bf
:100a7800084b10225a831a46d369002bfcd1074b26
:100a8800002283f8212083f82020024b83229a75c4
:100a9800704700bf002001411600100058040020d4
:020000040000fa
:100aa8007fb5c36800911546002b18bf013a019223
:100ab80082680446cde902230e4602226946006890
:100ac80000f0fdfa002808dc00f0180383f00802a3
:100ad80063681343636005460fe0019a8242fad2c5
:100ae800a368e363801ae268184420642ab15a1c98
:100af800e2632e441b7806f8013c284604b070bd1a
:020000040000fa
:100b080037b5154d2b68044673b100f085fb01908d
:100b180001a800f0fbfb0f30019920f00f0000f056
:100b2800e9fb60b100232b60002c08bf01240f34bf
:100b380034f00f0405d1094b0c221a60204603b08b
:100b480030bd042c38bf04242046fff789fe002856
:100b5800f5d040f8044cf2e7ec050020fc04002036
:020000040000fa
:100b68000e4a38b5002313600d4a0e4c13600e4a26
:100b78000e4d13600e4a13600e4a13600e4a5362fc
:100b880013610123936000f017fc00f038fcac42bd
:100b980000d338bd54f8043b9847f8e7f404002024
:100ba800140400206c0200001004002070020000f1
:0c0bb800080400200c0400201804002099
:020000040000fa
:100bc40038b50d46044608b9002038bd43689b0675
:100bd40007d5d0e905239a4216d80023c4e9053382
:100be400a362d4e90f13994204d20122c91a2068de
:100bf40000f004fc0023c4e90f33002de4d0206886
:100c0400bde8384000f0f3bb0022c36a11469847a0
:0c0c14006369002be1d14ff0ff30d6e700
:020000040000fa
:100c200010b4104a002111705160916011730e4c84
:100c30000e4b5c630e489863586940f081305861f0
:100c40000c48186440f20940208083f845100121c7
:100c50001170032283f84d2040f602721a805df86d
:100c6000044b7047b0040020a004002000a0004105
:080c7000c0040020000f200069
:020000040000fa
:100c780010b370b506460d4600f0c6f9d5b100248c
:100c88000e4a137e13f0040ffbd0538b13f0070f9b
:100c98000bd1536803f00703012b936a14bf335534
:100ca80026f814300134a542ebd1a54214bf002028
:100cb800012070bd2c46f8e700207047000400436f
:020000040000fa
:100cc80013b5836a8df80710044673b16369a26a85
:100cd800934212d3e36a01220df107012046984797
:100ce800012806d19df8070005e000f0dffa00288a
:100cf800ecd04ff0ff3002b010bd9df8070094f91a
:0e0d080034209042e6d05a1c62611870f3e766
:020000040000fa
:020d1600fee7f6
:020000040000fa
:100d1800104b00229a61da610f4b83221a765a68c7
:100d280022f480225a601a46d369002bfcd161b1a3
:100d3800084b032283f8202041ea4001064b596200
:100d48001a46d369002bfcd17047024b042283f862
:0c0d58002020f1e7580400200020014199
:020000040000fa
:100d6400022a70b5044616461d461ad043689b06ef
:100d740017d441b9002d08bf4ff4806505f1080070
:100d8400fff7c0fe01466368012e43f02003636051
:100d9400c4e9021514bfff230a2384f83430024b3c
:0c0da400e362002070bd00bf6909000080
:020000040000fa
:100db00008b500f0f5fa0e4b1b680021186800f02a
:100dc000f7fa0c4b1b680021186800f0f1fa00f0ec
:100dd00055f8fff703fcfff737fefff7befc00f006
:100de000d9f9fff71dff00f0dff8fff77ffd08bd21
:080df00004050020e8050020c5
:020000040000fa
:100df800d0b110b40446c9b1084421460c4a644233
:100e0800137e13f0010ffbd0536803f00703012b87
:100e180014bf0b7834f81130936201318142efd15d
:100e280001205df8044b7047002070470120f8e767
:040e3800000400436f
:020000040000fa
:100e3c0010b5054c227832b9044b13b10448aff30a
:100e4c0000800123237010bd8404002000000000ea
:100e5c000000000008b5034b1bb103490348aff376
:100e6c00008008bd00000000880400200000000085
:020000040000fa
:100e7c000e4b4ff480421a604ff440421a6101222b
:100e8c0083f84c2083f84d20002183f84e10052068
:100e9c0083f84f00222083f8360083f8371083f84c
:100eac00d020022283f8b820704700bf0080004198
:020000040000fa
:100ebc0070b40d4b5e681b6813f0010f12d00b4b16
:100ecc0003fb00f0084b9b6860b10021064c013617
:100edc00a2689a4292bf9b1ab51a5b191944134621
:100eec008842f5d870bc704710e000e0c0d4010017
:020000040000fa
:100efc0010b44c68a40602460b4603d45df8044bb0
:100f0c0000f015b891f93410c0b2814203d0596980
:100f1c009c6aa14205d3114618465df8044bfff7b5
:0e0f2c00cdbe4c1c5c610a705df8044b704732
:020000040000fa
:100f3a0007b54a68c0b2d2050b468df8070006d538
:100f4a004a69511c5961107003b05df804fb012213
:100f5a000df10701184600f0b4f910b19df8070029
:080f6a00f2e74ff0ff30efe762
:020000040000fa
:020f7200fee798
:020000040000fa
:100f740010b50b4c94f8204064b20cb1002010bda5
:100f8400074ca080e360029b6361a16022610021a1
:100f9400a170217084f82110fff7bcfe0120eee758
:040fa40058040020cd
:020000040000fa
:100fa8000a4b0b4a1a604ff622029a814ff44032dc
:100fb8005a601a46d369002bfcd1044a136843f0df
:100fc80002031360d369002bfcd17047000400436f
:040fd80004011040c0
:020000040000fa
:100fdc0070b50a480a4d4ff6ff76016811b943689f
:100fec0003b970bd83684268334000f10c0455f8b6
:100ffc0023302046984704eb8000eee73c040000c9
:04100c005413000079
:020000040000fa
:101010000a4b5b8b13f0070f0ed0084b80221a7619
:1010200007225a831b7e13f0040f05d0034b9a6ae4
:101030001a7e12f0040ffad1704700bf000400437b
:020000040000fa
:10104000064b1a680ab9064a1a60064a116809b9b5
:10105000054911601a68054b1a607047e4040020c6
:10106000f8050020e0040020f8070020dc04002040
:020000040000fa
:1010700010b5084c23680bb9fff7e2ff0649226858
:1010800009681044814234bf4ff0ff32206010469f
:0c10900010bd00bfdc040020e0040020c4
:020000040000fa
:10109c0070b5002902fb01f614460d4618bf144624
:1010ac0001463246184608bf002400f009f9864272
:0a10bc0018bfb0fbf5f4204670bd2c
:020000040000fa
:1010c6002de9f0410024804617460e462546bd42ce
:1010d60002db2046bde8f081726856f8081b4046e0
:0a10e60000f0abf801350444f1e717
:020000040000fa
:1010f0002de9f0410024804617460e462546bd42a4
:1011000002db2046bde8f081726856f8081b4046b5
:0a11100000f0b4f801350444f1e7e3
:020000040000fa
:02111a00fee7ee
:020000040000fa
:10111c00074b93f820305bb23bb9064b588b00f071
:10112c003000103818bf012070470120704700bff5
:08113c005804002000200141cd
:020000040000fa
:1011440010b5084c2368196800f046f8002807db3e
:1011540023680a20196800f03ef9c00f404210bd10
:081164000120fbe7e805002073
:020000040000fa
:10116c0090f948305a1e1343426880f8483012f008
:10117c0004031bbf42f010024260c0e90f334ff072
:08118c00ff3008bf1846704750
:020000040000fa
:10119400054a0023136093600449516006211160dd
:1011a400034a93601360704710e000e0bfd401006d
:0411b400d004002043
:020000040000fa
:1011b80008b5064b5868064a12689a6801329a6060
:1011c8001b6813b1014b1b68984708bdd004002069
:0411d80010e000e043
:020000040000fa
:1011dc0070b50e46054600f07ff8334604460246cd
:1011ec0001212846fff754ff001b18bf4ff0ff30ba
:0211fc0070bdc4
:020000040000fa
:0211fe00fee70a
:020000040000fa
:1012000008b54ff47a70fff759fefff7e9fb00b914
:1012100008bd0248fff796fffae700bf2c13000055
:020000040000fa
:1012200010b5054c22680ab9fff70aff034b18688e
:101230002368c01a10bd00bfdc040020e0040020b9
:020000040000fa
:1012400038b550b952b10c46012529462046fff762
:0e12500013fd0028f9d0012000e0002038bd79
:020000040000fa
:10125e0010b50023934206d113f0030018bf0120ee
:0e126e0000eb930010bdc45ccc540133f2e7da
:020000040000fa
:10127c0038b50d461446012801d0204638bd21460c
:0c128c002846fff7b3fd0028f9d0f6e774
:020000040000fa
:101298005ab110b40a44431e11f8014b03f8014f28
:0c12a8009142f9d15df8044b704770478b
:020000040000fa
:1012b40010b50446fff758ff28b9a368e268c4e9eb
:0812c40005331344a36210bdc1
:020000040000fa
:1012cc0010b4c46a1cb123465df8044b184700687f
:0812dc005df8044bfff7ccbfe5
:020000040000fa
:1012e40003783bb1034600bf13f8012f002afbd15a
:0812f400181a704718467047f4
:020000040000fa
:1012fc00044a136823b91060036101600120704730
:08130c0000207047f8040020e6
:020000040000fa
:101314000068002808b501da002008bdfff7a6fe22
:06132400431cfad1f8e7ba
:020000040000fa
:02132a00fee7dc
:020000040000fa
:10132c004d4f54494f4e2044455445435445442059
:04133c000d0000bfe1
:020000040000fa
:10134000034b00229a601a6842f001021a6070474b
:0413500010e000e0c9
:020000040000fa
:101354008f1300005f120000f9130000f91300005e
:04136400f913000079
:020000040000fa
:1013680008b500f03bf8024b1860586008bd00bf94
:04137800e804002065
:020000040000fa
:10137c0008b50020fff716fdfff7dcfffff73aff7b
:02138c00fce77c
:020000040000fa
:10138e000a440023914201d10020704701f8013b2d
:02139e00f8e76e
:020000040000fa
:1013a000024b40f204521a80704700bf00400041d7
:020000040000fa
:1013b00000294ff480630cbf02220022fff7d2bc49
:020000040000fa
:1013c00008b5fff7d1ff00f01ff800f01df808bdc9
:020000040000fa
:0a13d00008b50020fff706fa08bd7b
:020000040000fa
:0813da0008b5fff78efd08bd08
:020000040000fa
:0213e200fee724
:020000040000fa
:0813e400004870476c05002071
:020000040000fa
:0613ec000068fff745bf99
:020000040000fa
:0613f2004ff0ff307047d0
:020000040000fa
:0413f800002070471a
:020000040000fa
:0413fc000020704716
:020000040000fa
:041400000020704711
:020000040000fa
:0214040070472f
:020000040000fa
:0214060070472d
:020000040000fa
:0214080070472b
:020000040000fa
:02140a00704729
:020000040000fa
:0200000400807a
:044000003912003c35
:020000040000fa
:0200000400807a
:044004008000a82a66
:020000040000fa
:0200000400807a
:04400800ffffffffb8
:00000001FF
