:020000040000fa
:10000000f0ff032091070000df0c0000430f000009
:10001000ef120000fb1300004b1400000000000072
:100020000000000000000000000000000f0a0000b7
:10003000bf110000000000000f0a0000a91200001c
:100040000f0a00000f0a00000f0a00000f0a00004c
:100050000f0a00000f0a00000f0a00000f0a00003c
:100060000f0a00000f0a00000f0a00000f0a00002c
:100070000f0a00000f0a00000f0a00000f0a00001c
:100080000f0a00000f0a00000f0a00000f0a00000c
:100090000f0a00000f0a00000f0a00000f0a0000fc
:1000a0000f0a00000f0a00000f0a0000c111000033
:1000b0000f0a00000f0a00000f0a00000f0a0000dc
:1000c0000f0a00000f0a00000f0a00000f0a0000cc
:1000d0000f0a00000f0a00000f0a00000f0a0000bc
:1000e0000f0a00000f0a00000000000000000000de
:1000f000000000000f0a00000f0a00000f0a0000b5
:100100000f0a00000f0a00000f0a00000f0a00008b
:100110000f0a00000f0a0000410400004104000023
:1001200041040000410400000f0a00000f0a000013
:100130000f0a00000f0a00000f0a00000f0a00005b
:100140000f0a00000f0a00000f0a00000f0a00004b
:100150000f0a00000f0a000000000000000000006d
:10016000000000000000000000000000000000008f
:1001700000000000000000000f0a00000f0a00004d
:100180000f0a00000f0a00000f0a00000f0a00000b
:10019000000000000f0a00000f0a00000f0a000014
:1001a0000f0a00000f0a00000f0a00000f0a0000eb
:1001b0000f0a00000f0a00000f0a00000f0a0000db
:1001c0000f0a00000f0a00000f0a00000f0a0000cb
:1001d0000f0a00000f0a00000f0a00000f0a0000bb
:1001e0000f0a00000f0a00000f0a00000f0a0000ab
:1001f0000f0a00000f0a00000f0a00000f0a00009b
:100200000f0a000000000000000000000f0a0000bc
:100210000f0a00000f0a00000f0a00000f0a00007a
:100220000f0a00000f0a00000f0a00000f0a00006a
:100230000f0a00000f0a00000f0a00000f0a00005a
:100240000f0a00000f0a00000f0a00000f0a00004a
:100250000f0a00000f0a00000f0a00000f0a00003a
:020000040000fa
:10026000f8b500bff8bc08bc9e467047290e0000d8
:10027000f8b500bff8bc08bc9e467047050e0000ec
:020000040000fa
:10028000440500201c0000000000000008040020bd
:10029000c000000000000000180500202c00000035
:1002a00000000000600500200c00000000000000bd
:1002b00090050020010000000000000080050020e3
:1002c0000400000000000000c804002050000000ee
:1002d00000000000940500206c00000001000000f8
:1002e000a00500209c050020a005002000000000c3
:1002f00025000000080000200004000000000000ad
:1003000000000000000000000000000000000000ed
:10031000000000000000000000000000a914000020
:1003200000000000000000000000000000000000cd
:10033000710a000000000000000000000000000042
:10034000000000000000000000000000000000208d
:1003500008040000000000006006002020000000eb
:100360000100000001000000030000000000000088
:10037000000000000000000000000000000000007d
:10038000780500207805002008000000000000002b
:10039000840500200400000000000000000600208a
:1003a00060000000010000000100000003000000e8
:1003b000000000000000000000000000000000003d
:1003c000000000008d0b0000000000000000000095
:1003d0000000000099140000b714000000000000a5
:1003e000000000000000000000000000000000000d
:1003f00000000000000000000000000000000000fd
:100400000000000000000000800600200400000042
:100410000100000001000000880500200800000025
:10042000000000006c0500200c000000000000002f
:10043000000000000000000066666666666666668c
:020000040000fa
:100440006c4b9b7d002b00f0d38010b56a4b9c6aef
:10045000684b5b8b13f0020f16d0674bff2283f8bb
:100460002020022283f82120634b93f820305bb2d6
:10047000b3f1ff3f00f08a805f4b93f820305bb20e
:10048000062b00f09c8010bd5a4b5b8b13f0010fc4
:1004900007d0594bff2283f82020022283f8212025
:1004a000e2e7544b5b8b13f0040f07d0524bff2253
:1004b00083f82020012283f82120d5e74e4b93f8c2
:1004c00020305bb2032b42d0042b10d0022bcbd1b7
:1004d000494b1b692bb1484b9888002100f000fc68
:1004e000c2e7454b9888012100f0fafbbce7424a7d
:1004f000936912699a420bd03f4a9268d15c3d4a97
:100500009162591cd369002bfcd13b4b9961abe73d
:10051000394b5b6973b1384b9b885b0043f0010337
:10052000344a5362d369002bfcd1334b032283f846
:10053000202099e72f4a536843f440335360d3692e
:10054000002bfcd12c4b062283f820208ce72a4b71
:10055000d9695b69013b8b420bd0264ad369002bda
:10056000fcd1244b986a244bda6850540131d9618c
:100570007ae7204a536843f4e0235360d369002ba1
:10058000fcd11d4b062283f82020e6e71a4b0022ff
:1005900083f82020174a536843f440335360d369eb
:1005a000002bfcd1134b83221a76134b5b6a002b72
:1005b0003ff469af104b5b6a2046984763e70e4be8
:1005c000002283f8202083f821200a4b83221a7608
:1005d0001a46538b03f03003102bfad1064b5b6a9b
:1005e000002b3ff450af044b5b6a204698474ae724
:0c05f000704700bf0020014118050020ea
:020000040000fa
:1005fc00394b00221a7403f50063384a9a621a4682
:10060c00536813f0100ffbd1354b4222c3f88420f2
:10061c001a4600bfd2f8843013f0400ffad0314b99
:10062c0000229a6377225a631a46d36b13f0040f95
:10063c00fbd12c4b022283f830201a46d36b13f0db
:10064c00020ffbd1274a136c03f00303032bfad1df
:10065c00254b01225a711a46d37813f0010ffbd0a7
:10066c001f4b224a1a621a46536813f0040ffbd12f
:10067c001b4b1f4a5a621a46536813f0080ffbd1e2
:10068c00174b4122c3f890201a4600bfd2f8903085
:10069c0013f0400ffad0124b4122c3f8dc201a465b
:1006ac00d2f8dc3013f0400ffad00d4b4122c3f8d6
:1006bc000c211a46d2f80c3113f0400ffad00a4b29
:1006cc006ff07f421a6140f2ff725a61094a9a61d7
:1006dc0002221a62704700bf00140040060130006d
:1006ec00001c004000100040000800400701010001
:0806fc00070102005682010013
:020000040000fa
:100704002de9ff41836946690093f61acde9016139
:1007140004461746039216444ff002086d464246bb
:100724002946206800f034fdb04209d1d4e90232f0
:10073400c4e905331a44a262384604b0bde8f08126
:1007440000280dda6268002342f01002b8f1020fab
:10075400a362c4e90533626015d06b68ff1aebe746
:100764006b68984288bf0835a6eb000688bfc01a9c
:100774002b6803442b606b68a3eb000088bf08f16f
:0a078400ff386860cbe71f46d6e798
:020000040000fa
:02078e007047b2
:020000040000fa
:1007900008b5194b9847194b9847eff3108172b67b
:1007a000174ad2f8883043f47003c2f88830bff398
:1007b0004f8fbff36f8f01b962b6124a936823f06f
:1007c000010393601346da6812f0010ffbd10d4b61
:1007d00024225a6001229a6000f022fc0a4b23f086
:1007e0007f03074a9360094b9847094b9847094b89
:1007f000984700f067fbfee7b1140000b114000059
:1008000000ed00e00060004100000000310b00003e
:08081000b1140000b114000056
:020000040000fa
:10081800f0b51f4c2568a446002d36d00022294685
:1008280016461346d1f800e00f6986450ad132b161
:10083800176101f110031846f0bd3946f2e7ccf80c
:100848000070f6e705d9ebb11c68a6453cbf164613
:100858000b460a46002ff0d1002becd019461f6931
:1008680051f8102b121a102a05d918600844103aaa
:100878000761026007469d420cbfccf800703761e3
:100888000b46d8e716460b46e3e72b46d3e700bfef
:0408980088050020af
:020000040000fa
:10089c001d4a137843f001031370536813f0010fd2
:1008ac00fbd119490022ca614ff010430b624ff47f
:1008bc0000430b634a630b61144b10221a819a821a
:1008cc001a849a851a87a3f84420a3f85020a3f819
:1008dc005c20a3f86820a3f87420a3f88020a3f868
:1008ec008c20a3f89820a3f8a420a3f8b0200f2202
:1008fc00a3f8bc200b7843f002030b700a46536834
:10090c0013f0020ffbd170470028004008040020b0
:020000040000fa
:10091c001c4bda6822f4e0621204120c42f0bf6243
:10092c0042f40032da60bff35f8f62b6164ae02100
:10093c0082f81b134ff00060106082f836134ff4ee
:10094c008000506082f837134ff40000506082f83a
:10095c0038134ff08070506082f839134ff00071eb
:10096c0051605a6a42f480225a625a6942f010026b
:10097c005a615a6a42f400325a625a6a42f480321c
:0c098c005a62704700ed00e000e100e05e
:020000040000fa
:10099800f8b5846a05460f46164654b1ab6a6a69cb
:1009a8009b1ab3420bd2324639462846fff7a6feb9
:1009b800f8bd00f0e3fc0028f0d02046f8e7002e50
:1009c800f1d095f93430002b1bdbdbb23446621ec4
:1009d800b95c994212d1224639462846fff78efe65
:1009e800a042e5d32744341b22463946686900f003
:1009f800b7fc6b691c446c613046d9e71446002a81
:060a0800e5d13446f0e7e1
:020000040000fa
:020a0e00fee701
:020000040000fa
:100a1000144b01221a601a46d369002bfcd1114bea
:100a20004ff480725a601a46d369002bfcd10d4beb
:100a30004322da600c4a1a601a46d369002bfcd1b3
:100a4000084b10225a831a46d369002bfcd1074b5e
:100a5000002283f8212083f82020024b83229a75fc
:100a6000704700bf0020014116001000180500204b
:020000040000fa
:100a70007fb5c36800911546002b18bf013a01925b
:100a800082680446cde902230e46022269460068c8
:100a900000f06bfb002808dc00f0180383f008026c
:100aa00063681343636005460fe0019a8242fad2fd
:100ab000a368e363801ae268184420642ab15a1cd0
:100ac000e2632e441b7806f8013c284604b070bd52
:020000040000fa
:100ad00037b5154d2b68044673b100f009fc019041
:100ae00001a800f07ffc0f30019920f00f0000f00a
:100af0006dfc60b100232b60002c08bf01240f3473
:100b000034f00f0405d1094b0c221a60204603b0c3
:100b100030bd042c38bf04242046fff77dfe00289a
:100b2000f5d040f8044cf2e7800600208c05002048
:020000040000fa
:100b30000e4a38b5002313600d4a0e4c13600e4a5e
:100b40000e4d13600e4a13600e4a13600e4a536234
:100b500013610123936000f089fc00f0aafcac4211
:100b600000d338bd54f8043b9847f8e784050020cb
:100b7000d40400206c020000d004002070020000a9
:0c0b8000c8040020cc040020d804002091
:020000040000fa
:100b8c0038b50d46044608b9002038bd43689b06ad
:100b9c0007d5d0e905239a4216d80023c4e90533ba
:100bac00a362d4e90f13994204d20122c91a206816
:100bbc0000f076fc0023c4e90f33002de4d020684c
:100bcc00bde8384000f065bc0022c36a1146984766
:0c0bdc006369002be1d14ff0ff30d6e739
:020000040000fa
:100be80000b583b08df80400030a8df80530000cb9
:100bf8008df80600012201a9382000f0d9f900bfbc
:100c080000f0eefa0028fbd101220df10501382091
:100c180000f0cef900f0e4fa0028fbd101220df132
:100c28000601382000f0c4f900f0dafa0028fbd1f8
:080c380003b05df804fb00bfee
:020000040000fa
:100c400010b370b506460d4600f01cfad5b100246d
:100c50000e4a137e13f0040ffbd0538b13f0070fd3
:100c60000bd1536803f00703012b936a14bf33556c
:100c700026f814300134a542ebd1a54214bf002060
:100c8000012070bd2c46f8e70020704700040043a7
:020000040000fa
:100c900013b5836a8df80710044673b16369a26abd
:100ca000934212d3e36a01220df1070120469847cf
:100cb000012806d19df8070005e000f063fb00283d
:100cc000ecd04ff0ff3002b010bd9df8070094f952
:0e0cd00034209042e6d05a1c62611870f3e79f
:020000040000fa
:020cde00fee72f
:020000040000fa
:100ce000104b00229a61da610f4b83221a765a6800
:100cf00022f480225a601a46d369002bfcd161b1dc
:100d0000084b032283f8202041ea4001064b596238
:100d10001a46d369002bfcd17047024b042283f89a
:0c0d20002020f1e7180500200020014110
:020000040000fa
:100d2c00022a70b5044616461d461ad043689b0627
:100d3c0017d441b9002d08bf4ff4806505f10800a8
:100d4c00fff7c0fe01466368012e43f02003636089
:100d5c00c4e9021514bfff230a2384f83430024b74
:0c0d6c00e362002070bd00bf9909000088
:020000040000fa
:100d780008b500f067fb0e4b1b680021186800f0ef
:100d880069fb0c4b1b680021186800f063fb00f03e
:100d980055f8fff72ffcfff737fefff7f4fc00f0dc
:100da8006dfa00f01ff9fff775fdfff7b3fd08bdf9
:080db800980500207c060020d4
:020000040000fa
:100dc000d0b110b40446c9b1084421460c4a64426b
:100dd000137e13f0010ffbd0536803f00703012bc0
:100de00014bf0b7834f81130936201318142efd196
:100df00001205df8044b7047002070470120f8e7a0
:040e000000040043a7
:020000040000fa
:100e040010b5054c227832b9044b13b10448aff342
:100e140000800123237010bd440500200000000061
:100e24000000000008b5034b1bb103490348aff3ae
:100e3400008008bd000000004805002000000000fc
:020000040000fa
:100e44000e4b4ff480421a604ff470421a6105222f
:100e540083f84c2083f84d20002183f84e1083f84a
:100e64004f20222283f8362083f83710012283f89a
:100e7400d020022283f8b820704700bf00800041d0
:020000040000fa
:100e840070b40d4b5e681b6813f0010f12d00b4b4e
:100e940003fb00f0084b9b6860b10021064c01364f
:100ea400a2689a4292bf9b1ab51a5b191944134659
:100eb4008842f5d870bc704710e000e0c0d401004f
:020000040000fa
:100ec40008b50020fff756ff00220a490f2000f062
:100ed400bff8094800f09af9084c0026064d05e0d1
:100ee40000f02ef82670284600f090f92378002ba5
:100ef400fcd0f5e77d140000b4100000900500203c
:020000040000fa
:100f040010b44c68a40602460b4603d45df8044ba7
:100f140000f034b891f93410c0b2814203d0596959
:100f24009c6aa14205d3114618465df8044bfff7ad
:0e0f3400adbe4c1c5c610a705df8044b70474a
:020000040000fa
:020f4200fee7c8
:020000040000fa
:100f440008b500f059fa242000f088f90848fff7a2
:100f540049fe4ff4fa70fff793ff0648fff742fe8d
:100f64004ff4fa70fff78cff0348fff73bfe08bd10
:0c0f740080605f00807f40009f604000b4
:020000040000fa
:100f800007b54a68c0b2d2050b468df8070006d5f2
:100f90004a69511c5961107003b05df804fb0122cd
:100fa0000df10701184600f0f9f910b19df807009e
:080fb000f2e74ff0ff30efe71c
:020000040000fa
:100fb8000b4b93f820305bb20bb10020704710b593
:100fc8000c46074b98800021d96059619c601a61d2
:100fd8009970197083f82110fff77efe012010bd6b
:040fe80018050020c8
:020000040000fa
:100fec000a4b0b4a1a604ff622029a814ff4403298
:100ffc005a601a46d369002bfcd1044a136843f09b
:10100c0002031360d369002bfcd17047000400432a
:04101c00040110407b
:020000040000fa
:1010200070b50a480a4d4ff6ff76016811b943685a
:1010300003b970bd83684268334000f10c0455f871
:1010400023302046984704eb8000eee78002000042
:041050001014000078
:020000040000fa
:1010540030b400eb4004094b03eb84031b899bb2bf
:10106400834201d030bc7047044b44002518ad00c6
:101074005951204403eb80035a60f3e7080400202d
:020000040000fa
:101084000a4b5b8b13f0070f0ed0084b80221a76a5
:1010940007225a831b7e13f0040f05d0034b9a6a70
:1010a4001a7e12f0040ffad1704700bf0004004307
:020000040000fa
:1010b4000d0a507265737320737769746368206fc7
:1010c4006e2074686520626f61726420746f20738f
:1010d4007769746368206f6e204c45440d0000bf2f
:020000040000fa
:1010e400064b1a680ab9064a1a60064a116809b911
:1010f400054911601a68054b1a6070477405002091
:101104008806002070050020880800206c05002057
:020000040000fa
:1011140010b5084c23680bb9fff7e2ff06492268b3
:1011240009681044814234bf4ff0ff3220601046fa
:0c11340010bd00bf6c05002070050020fd
:020000040000fa
:1011400070b5002902fb01f614460d4618bf14467f
:1011500001463246184608bf002400f01ff98642b7
:0a11600018bfb0fbf5f4204670bd87
:020000040000fa
:10116a002de9f0410024804617460e462546bd4229
:10117a0002db2046bde8f081726856f8081b40463b
:0a118a0000f0c1f801350444f1e75c
:020000040000fa
:101194002de9f0410024804617460e462546bd42ff
:1011a40002db2046bde8f081726856f8081b404611
:0a11b40000f0caf801350444f1e729
:020000040000fa
:0211be00fee74a
:020000040000fa
:1011c00008b5074b4ff400425a61064bd3f8b430d0
:1011d0002bb1044bd3f8b800d3f8b430984708bd0e
:0811e000002800400804002073
:020000040000fa
:1011e800074b93f820305bb23bb9064b588b00f0a5
:1011f8003000103818bf012070470120704700bf29
:0812080018050020002001413f
:020000040000fa
:1012100010b5084c2368196800f058f8002807db5f
:1012200023680a20196800f02ff9c00f404210bd52
:081230000120fbe77c06002011
:020000040000fa
:1012380090f948305a1e1343426880f8483012f03b
:1012480004031bbf42f010024260c0e90f334ff0a5
:08125800ff3008bf1846704783
:020000040000fa
:1012600000b583b08df8070001220df10701382089
:10127000fff7a2fefff7b8ff0028fbd103b05df82f
:0412800004fb00bfac
:020000040000fa
:10128400054a0023136093600449516006211160ec
:10129400034a93601360704710e000e0bfd401007c
:0412a40060050020c1
:020000040000fa
:1012a80008b5064b5868064a12689a6801329a606f
:1012b8001b6813b1014b1b68984708bd60050020e7
:0412c80010e000e052
:020000040000fa
:1012cc0070b50e46054600f06ff8334604460246ec
:1012dc0001212846fff72eff001b18bf4ff0ff30ef
:0212ec0070bdd3
:020000040000fa
:0212ee00fee719
:020000040000fa
:1012f00010b5054c22680ab9fff7f4fe034b1868d5
:101300002368c01a10bd00bf6c05002070050020c6
:020000040000fa
:1013100038b550b952b10c46012529462046fff791
:0e1320008ffc0028f9d0012000e0002038bd2d
:020000040000fa
:10132e0010b50023934206d113f0030018bf01201d
:0e133e0000eb930010bdc45ccc540133f2e709
:020000040000fa
:10134c0038b50d461446012801d0204638bd21463b
:0c135c002846fff72ffd0028f9d0f6e727
:020000040000fa
:101368005ab110b40a44431e11f8014b03f8014f57
:0c1378009142f9d15df8044b70477047ba
:020000040000fa
:1013840010b50446fff756ff28b9a368e268c4e91c
:0813940005331344a36210bdf0
:020000040000fa
:10139c0010b4c46a1cb123465df8044b18470068ae
:0813ac005df8044bfff7ccbf14
:020000040000fa
:1013b40003783bb1034600bf13f8012f002afbd189
:0813c400181a70471846704723
:020000040000fa
:1013cc00044a136823b9106003610160012070475f
:0813dc00002070478805002085
:020000040000fa
:1013e4000068002808b501da002008bdfff790fe68
:0613f400431cfad1f8e7ea
:020000040000fa
:0213fa00fee70c
:020000040000fa
:1013fc00034b00229a601a6842f001021a6070478f
:04140c0010e000e00c
:020000040000fa
:10141000391400002f130000a5140000a5140000cb
:04142000a51400000f
:020000040000fa
:1014240008b500f033f8024b1860586008bd00bfdf
:041434007805002017
:020000040000fa
:101438000a440023914201d10020704701f8013b82
:02144800f8e7c3
:020000040000fa
:02144a00fee7bb
:020000040000fa
:10144c00024b40f204521a80704700bf004000412a
:020000040000fa
:10145c0000294ff480630cbf02220022fff760bc0e
:020000040000fa
:10146c0008b5fff7d9ff00f01ff800f01df808bd14
:020000040000fa
:0c147c00014b01221a70704790050020ff
:020000040000fa
:0814880008b5fff73bfd08bdac
:020000040000fa
:0814900000487047000600202f
:020000040000fa
:061498000068fff757bfda
:020000040000fa
:06149e004ff0ff30704723
:020000040000fa
:0414a400002070476d
:020000040000fa
:0414a8000020704769
:020000040000fa
:0414ac000020704765
:020000040000fa
:0214b000704783
:020000040000fa
:0214b200704781
:020000040000fa
:0214b40070477f
:020000040000fa
:0214b60070477d
:020000040000fa
:0200000400807a
:044000003912003c35
:020000040000fa
:0200000400807a
:044004008000a82a66
:020000040000fa
:0200000400807a
:04400800ffffffffb8
:00000001FF
