:020000040000fa
:10000000f0ff0320f10c0000ef0f0000ab13000025
:100010002f1a00008f1a0000e91a000000000000eb
:10002000000000000000000000000000ef0c0000d5
:10003000cb16000000000000ef0c00006917000064
:10004000ef0c0000ef0c0000ef0c0000ef0c0000c4
:10005000ef0c0000ef0c0000ef0c0000ef0c0000b4
:10006000ef0c0000ef0c0000ef0c0000cd190000b9
:10007000ef0c0000ef0c0000ef0c0000ef0c000094
:10008000ef0c0000ef0c0000ef0c0000ef0c000084
:10009000ef0c0000ef0c0000ef0c0000ef0c000074
:1000a000ef0c0000ef0c0000ef0c0000f516000054
:1000b000ef0c0000ef0c0000ef0c0000ef0c000054
:1000c000ef0c0000ef0c0000ef0c0000ef0c000044
:1000d000ef0c0000ef0c0000ef0c0000ef0c000034
:1000e000ef0c0000ef0c000000000000000000001a
:1000f00000000000ef0c0000ef0c0000ef0c00000f
:10010000ef0c0000ef0c0000ef0c0000ef0c000003
:10011000ef0c0000ef0c0000ef0c0000ef0c0000f3
:10012000ef0c0000ef0c0000ef0c0000ef0c0000e3
:10013000ef0c0000ef0c0000ef0c0000ef0c0000d3
:10014000ef0c0000ef0c0000ef0c0000ef0c0000c3
:10015000ef0c0000ef0c0000ef0c0000ef0c0000b3
:10016000ef0c0000ef0c0000ef0c0000ef0c0000a3
:10017000ef0c0000ef0c0000ef0c0000ef0c000093
:10018000ef0c0000ef0c0000ef0c0000ef0c000083
:10019000ef0c0000ef0c0000ef0c0000ef0c000073
:1001a000ef0c0000ef0c0000ef0c0000ef0c000063
:1001b000ef0c0000ef0c0000ef0c0000ef0c000053
:1001c000ef0c0000ef0c0000ef0c0000ef0c000043
:1001d000ef0c0000ef0c0000ef0c0000ef0c000033
:1001e000ef0c0000ef0c0000ef0c0000ef0c000023
:1001f000ef0c0000ef0c0000ef0c0000ef0c000013
:10020000ef0c0000ef0c0000ef0c0000ef0c000002
:10021000ef0c0000ef0c0000cd160000ef0c00000a
:10022000ef0c0000ef0c0000ef0c0000ef0c0000e2
:10023000ef0c0000ef0c0000ef0c0000ef0c0000d2
:10024000ef0c0000ef0c0000ef0c0000ef0c0000c2
:10025000ef0c0000ef0c0000ef0c0000ef0c0000b2
:04026000ef0c00009f
:020000040000fa
:10026400f8b500bff8bc08bc9e46704715140000e2
:10027400f8b500bff8bc08bc9e467047f1130000f7
:020000040000fa
:100284002de9f041aeb006461546059100270599c3
:100294000b78002b00f0fa8000244ff0ff33cde9f7
:1002a40009430eab0c9380230b940d930b5d0bb1a0
:1002b400252b26d134b12246304601f015f9059b91
:1002c40023440593059b1a78252a40f0d78003f12f
:1002d4000108cdf81480059803782b2b1ad025d863
:1002e400202b1bd0232b1dd02a2b27d001f038f82c
:1002f4000b90059b1a78303a092a2ed801330593be
:10030400f7e70134d2e7099b43f001030130099375
:100314000590e0e7099b43f00403f7e7099b43f0ea
:100324000803f3e7099b43f01003efe72d2bead012
:10033400302bd9d1099b43f00203e7e72b681a1d40
:100344001b682a600130002b05900b9305da099a8b
:100354005b4282f0010209920b93099bda0744bfc6
:1003640023f002030993059b1a782e2a0dd100224b
:10037400581c0a9205905a782a2a25d102330593eb
:100384002b681a1d1b682a600a9305a801f08ef8d1
:10039400059b0390187801f071fb6928039979d0c3
:1003a40032dc632800f0cb8019dc252800f0d980ea
:1003b400612853d000234ff0ff32cdf81480099305
:1003c4000b930a920093d4e000f0caff0a90059bb5
:1003d4001a78303a092ad8d801330593f7e7642804
:1003e40058d06728e6dc2a4606a801f042f900281e
:1003f40000f0a180059b5a1c05921b7806aa09a946
:10040400304601f069fb38e0702873d015dc6e28a3
:1004140000f08c806f28cdd12b46002206a800f076
:1004240081fb002800f08780059b06aa013309a9f7
:100434003046059301f04efb1fe075283ad078282a
:1004440048d07328b6d1802975d1059b2a68013319
:100454000593131d2b60126800237de02a4606a82d
:1004640001f007f9002866d0059b5a1c05921b78f9
:1004740006aa09a9304601f02ffb04443c44a742d4
:100484007add3e4b4f221a604ff0ff3738462eb0cc
:10049400bde8f0812b46012206a800f043fb0028aa
:1004a40049d0059b06aa013309a93046059301f0fa
:1004b40011fbe2e72b46002206a800f033fb0028dc
:1004c40039d0059b06aa013309a93046059301f0ea
:1004d40001fbd2e72b46002206a800f023fb50b311
:1004e400059b5a1c05921b7806aa09a9304601f0ff
:1004f400f3fac2e72b460022f02106a800f012fb13
:10050400c8b1059b01330593dde9062313430bd1e1
:100514001b4801f0f9f9099b009319490b9b02460a
:10052400304600f027fca8e77823dde72b463a198c
:1005340006a800f0e1fc059b013305939ee78029a2
:10054400f9d1059b013305932b681a1d1b682a609a
:100554008df8183006aa012309a9304601f0befa25
:100564008be78029e7d1059b01330593099b009311
:100574000b9b04490122d3e7274688e6680500203f
:08058400b41a0000ba1a0000cd
:020000040000fa
:10058c001c0500201c00000000000000500500208d
:10059c0008000000000000000c040020c000000057
:1005ac0000000000380500200c00000000000000d6
:1005bc007005002003000000000000000000002077
:1005cc000100000000000000600500200400000095
:1005dc0000000000cc0400205000000000000000cf
:1005ec00740500206c000000010000008005002054
:1005fc007c05002080050020000000002500000084
:10060c000c000020000400000000000000000000ae
:10061c0000000000000000000000000000000000ce
:10062c000000000000000000d51a000000000000cf
:10063c00000000000000000000000000511000004d
:10064c00000000000000000000000000000000009e
:10065c00000000000000000004000020080400005e
:10066c0000000000400600202000000001000000f7
:10067c00010000000300000000000000000000006a
:10068c0000000000000000000000000058050020e1
:10069c005805002008000000000000006405002040
:1006ac000800000000000000e005002060000000d1
:1006bc000100000001000000030000000000000029
:1006cc00000000000000000000000000000000001e
:1006dc006d11000000000000000000000000000090
:1006ec00c51a0000f11a0000000000000000000014
:1006fc0000000000000000000000000000000000ee
:10070c0000000000000000000000000000000000dd
:10071c000000000060060020040000000100000042
:10072c00010000006c050020040000000000000027
:10073c00440500200c000000000000000000000038
:10074c0000000000666666666666666666666666d5
:020000040000fa
:10075c000a0a0d2d2d2d2d2d2d2d2d2d2d2d2d2d23
:10076c002d2d2d2d2d2d2d2d2d2d2d2d2d2d2d2dad
:10077c002d2d2d2d2d2d2d2d2d2d2d2d2d2d2d2d9d
:10078c002d2d2d2d2d2d2d2d2d2d2d2d0000000041
:10079c000a0d202020202020202020202020536cf7
:1007ac0065657057616c6b696e672077697468203a
:1007bc004576656e742053797374656d2020202006
:1007cc002020202020202020202020000a0d2d2d4c
:1007dc002d2d2d2d2d2d2d2d2d2d2d2d2d2d2d2d3d
:1007ec002d2d2d2d2d2d2d2d2d2d2d2d2d2d2d2d2d
:1007fc002d2d2d2d2d2d2d2d2d2d2d2d2d2d2d2d1d
:10080c002d2d2d2d2d2d2d0a0a0d0000416e204170
:10081c0044432057696e646f77206d6f6e69746ff7
:10082c0072696e6720696e74657272757074206f70
:10083c00636375727265642e2057616b652d7570dc
:10084c002066726f6d205374616e646279206d6fd7
:10085c00646520746f20416374697665206d6f64e4
:10086c00652e0a0d000000005072657373205357fb
:10087c003020627574746f6e20746f207377697496
:10088c006368206d6f64652e0a0a0d005374616ee7
:10089c00646279206d6f64652077697468204952b1
:1008ac00512e0a0d000000005374616e64627920b1
:1008bc006d6f64652077697468204576656e742069
:0c08cc0053797374656d2e0a0d0000bf97
:020000040000fa
:1008d80080b5002000f0cafc0021464801f0d4f899
:1008e800012000f08fff002243490f2000f04cfe4a
:1008f800424800f047ff424800f044ff414800f0fa
:1009080041ff414e414c4ff480273d464ce00023c7
:1009180033703f4800f036ff3e4800f033ff00f0e8
:10092800a3fd01f091f800f0a5ff00f0c7ff3a4bd6
:100938001a782378dbb25ab953b9dff8dc8000f0b3
:10094800b1ff98f800202378dbb20ab9002bf6d063
:100958000023314a137002223270304a137023e0a8
:10096800012b2ed00029d4d0022b1fd12c4800f007
:1009780009ff284800f006ff01f01af823785bb950
:10098800dff8a0904ff0c808c9f81c51404600f0a5
:100998004bfd2378002bf7d001f04ef81e4b0022b8
:1009a8001a70204bc3f81871337859b22278002a8c
:1009b800d6d000232370194b1b78012ba7d0012315
:1009c8003370194800f0defe124800f0dbfe00f03c
:1009d80053fa00f021fc00f04dff00f06fff00f02b
:1009e80061ff0d4b00221a70022333700b4b01225a
:1009f8001a70d9e7a91a00009d1a00005c070000c8
:100a08009c070000d807000072050020710500202f
:100a180098080000740800007005002000000020fd
:0c0a28001808000000800041b408000025
:020000040000fa
:100a3400354b42f206629a611a46136913f0020fab
:100a4400fbd00123314a1374a2f540625371d37869
:100a540013f0010ffbd02e4b2e4a1a621a4653682c
:100a640013f0040ffbd12a4b2b4a5a621a465368df
:100a740013f0080ffbd1264b4122c3f88c201a46f1
:100a8400d2f88c3013f0400ffad0214b4022c3f837
:100a940090201a46d2f8903013f0400ffad01c4b35
:100aa4004122c3f8ac201a46d2f8ac3013f0400f00
:100ab400fad0174b4022c3f8dc201a46d2f8dc30b7
:100ac40013f0400ffad0124b4022c3f820211a46eb
:100ad400d2f8203113f0400ffad0104b6ff07f4260
:100ae4001a6140f2ff725a610d4a9a6180221a62b9
:100af400054a137f03f0fd03137700bf92f82c30ef
:100b040013f0020ffad170470010004000140040a7
:100b1400001c004001010c000421010000080040f9
:040b2400d682010074
:020000040000fa
:100b2800882910b536d012dc812943d003dc80290e
:100b380040d0002010bd82290ed08429f9d119682f
:100b480002b30a1d1a60b1f90020d3171ee0a029cc
:100b58002bd00bdc9029ecd11968073121f0070163
:100b680001f108021a60d1e900230fe0c02901d081
:100b7800f029ded11a68111d19601368036000237b
:100b8800436005e00a1d1a600a880023c0e90023b3
:100b98000120cfe7196822b10a1d1a6091f90020d7
:100ba800d3e70a1d1a600a78efe71a68111d196061
:100bb8001268cae719681ab10a1d1a600a68c4e7f8
:0c0bc8000c1d1c600b68c0e90032e1e766
:020000040000fa
:100bd400214a137843f001031370536813f0010f93
:100be400fbd11d490b7843f010030b700023cb613c
:100bf4004ff010430b624ff400438b610b634ff4cf
:100c040080324a630b61154b10221a819a821a842e
:100c14009a851a87a3f84420a3f85020a3f85c20ef
:100c2400a3f86820a3f87420a3f88020a3f88c20ec
:100c3400a3f89820a3f8a420a3f8b0200f22a3f8c7
:100c4400bc200b7843f002030b700a46536813f080
:100c5400020ffbd1704700bf002800400c040020a5
:020000040000fa
:100c64002de9ff41836946690093f61acde90161d4
:100c740004461746039216444ff002086d46424656
:100c84002946206800f00afdb04209d1d4e90232b5
:100c9400c4e905331a44a262384604b0bde8f081c1
:100ca40000280dda6268002342f01002b8f1020f46
:100cb400a362c4e90533626015d06b68ff1aebe7e1
:100cc4006b68984288bf0835a6eb000688bfc01a37
:100cd4002b6803442b606b68a3eb000088bf08f10a
:0a0ce400ff386860cbe71f46d6e733
:020000040000fa
:020cee00fee71f
:020000040000fa
:100cf00008b5194b9847194b9847eff3108172b616
:100d0000174ad2f8883043f47003c2f88830bff332
:100d10004f8fbff36f8f01b962b6124a936823f009
:100d2000010393601346da6812f0010ffbd10d4bfb
:100d300024225a6001229a6000f010fc0a4b23f032
:100d40007f03074a9360094b9847094b9847094b23
:100d50009847fff7c1fdfee7eb1a0000eb1a000011
:100d600000ed00e0006000410000000011110000f3
:080d7000eb1a0000eb1a000071
:020000040000fa
:100d78002de9ff471d460c9b13f0010906468a46dc
:100d8800144601d195420bd822465146304600f010
:100d9800a9fba54204d82546284604b0bde8f0873b
:100da8002f1b102f3a464ff0200128bf102268460b
:100db800b84600f025fe00bfb8f10f0f11d83b0967
:100dc8006ff00f0202fb03726946304600f08afb9f
:100dd800b9f1000fe0d122465146304600f082fbbf
:100de800dae710226946304600f07cfba8f11008cb
:040df800e2e700bf6f
:020000040000fa
:100dfc00f0b51f4c2568a446002d36d0002229469c
:100e0c0016461346d1f800e00f6986450ad132b177
:100e1c00176101f110031846f0bd3946f2e7ccf822
:100e2c000070f6e705d9ebb11c68a6453cbf164629
:100e3c000b460a46002ff0d1002becd019461f6947
:100e4c0051f8102b121a102a05d918600844103ac0
:100e5c000761026007469d420cbfccf800703761f9
:100e6c000b46d8e716460b46e3e72b46d3e700bf05
:040e7c006c050020e1
:020000040000fa
:100e80001d4b01221a801a46136b13f0010ffbd180
:100e90004ff080131b681a0902f07002d90001f4a8
:100ea000e0610a43c3f382031a43134ba3f84820bb
:100eb00000221a808022da7283221a7241f60c0212
:100ec0009a804ff48072da804ff47a62da8140f6c9
:100ed000b8329a81072283f82e20042283f82d202d
:100ee00012229a701a8842f0c0021a801a46136bb6
:0c0ef000002bfcd1704700bf001c004329
:020000040000fa
:100efc00842910b523d00cdc812903d0822913d08e
:100f0c0080290bd119680c1d1c600b6803601a60da
:100f1c0013e0902921d003dc882917d0002010bdc4
:100f2c00a029efd0c029ece719680c1d1c600b68d8
:100f3c000360d1171046c3e900010120efe71968df
:100f4c000c1d1c600b6803601a80f6e719680c1df9
:100f5c001c600b6803601a70efe719680c1d1c60ad
:0c0f6c0009680160d317c1e90023e6e723
:020000040000fa
:100f7800f8b5846a05460f46164654b1ab6a6a69e5
:100f88009b1ab3420bd2324639462846fff766fe13
:100f9800f8bd00f09ffc0028f0d02046f8e7002eae
:100fa800f1d095f93430002b1bdbdbb23446621ede
:100fb800b95c994212d1224639462846fff74efebf
:100fc800a042e5d32744341b22463946686900f01d
:100fd80035fc6b691c446c613046d9e71446002a1d
:060fe800e5d13446f0e7fc
:020000040000fa
:020fee00fee71c
:020000040000fa
:100ff000154bda6822f4e0621204120c42f0bf6270
:1010000042f40032da60bff35f8f62b60f4ae0212c
:1010100082f81b134ff00060106082f876134ff4d3
:101020008001d1605a6a42f480225a625a6942f0c1
:1010300010025a615a6a42f400325a625a6a42f401
:1010400080325a62704700bf00ed00e000e100e02e
:020000040000fa
:101050007fb5c36800911546002b18bf013a019275
:1010600082680446cde902230e46022269460068e2
:1010700000f0ecfa002808dc00f0180383f0080206
:1010800063681343636005460fe0019a8242fad217
:10109000a368e363801ae268184420642ab15a1cea
:1010a000e2632e441b7806f8013c284604b070bd6c
:020000040000fa
:1010b00037b5154d2b68044673b100f079fb0190ec
:1010c00001a800f046fc0f30019920f00f0000f05d
:1010d00029fc60b100232b60002c08bf01240f34d1
:1010e00034f00f0405d1094b0c221a60204603b0de
:1010f00030bd042c38bf04242046fff77ffe0028b3
:10110000f5d040f8044cf2e76006002068050020a6
:020000040000fa
:101110000e4a38b5002313600d4a0e4c13600e4a78
:101120000e4d13600e4a13600e4a13600e4a53624e
:1011300013610123936000f09bfc00f0d7fcac42ec
:1011400000d338bd54f8043b9847f8e76405002005
:10115000d804002070020000d404002074020000b3
:0c116000cc040020d0040020dc0400209f
:020000040000fa
:10116c0038b50d46044608b9002038bd43689b06c7
:10117c0007d5d0e905239a4216d80023c4e90533d4
:10118c00a362d4e90f13994204d20122c91a206830
:10119c0000f0a2fc0023c4e90f33002de4d020683a
:1011ac00bde8384000f08bbc0022c36a114698475a
:0c11bc006369002be1d14ff0ff30d6e753
:020000040000fa
:1011c800144b4ff00042c3f88020c3f8902001224e
:1011d80083f8c02083f8d82083f8d92083f8df204b
:1011e80083f8b020332283f8bc20032283f8bf2081
:1011f8004ff41012c3f800214ff48022c3f81021d5
:10120800002283f8522183f8552183f8392183f885
:081218003a21704700800041fb
:020000040000fa
:10122000134b01221a801a46136913f0010ffbd1e8
:101230000f4b48f280121a801a46136913f4004fbc
:10124000fbd10b4b40f247121a621a46136913f096
:10125000200ffbd1064b00225a621a46136913f085
:10126000400ffbd1024b4ff480725a60704700bfb1
:041270000024004016
:020000040000fa
:1012740008b500f0dbfb114b1b680021186800f077
:10128400edfb0f4b1b680021186800f0e7fbfff72c
:1012940099fffff7cdfb00f045f900f063fbfff782
:1012a400edfd00f04dfa00f067fb00f079fbfff76d
:1012b4008ffcfff7b3fffff799fe08bd7805002008
:0412c4005c060020a4
:020000040000fa
:1012c80010b370b506460d4600f076f9d5b1002486
:1012d8000e4a137e13f0040ffbd0538b13f0070f45
:1012e8000bd1536803f00703012b936a14bf3355de
:1012f80026f814300134a542ebd1a54214bf0020d2
:10130800012070bd2c46f8e70020704700200141fd
:020000040000fa
:10131800022a70b5044616461d461ad043689b0635
:1013280017d441b9002d08bf4ff4806505f10800b6
:10133800fff7bafe01466368012e43f0200363609d
:10134800c4e9021514bfff230a2384f83430024b82
:0c135800e362002070bd00bf790f0000b0
:020000040000fa
:1013640010b50278202a034600f10100f9d0a2f159
:1013740009010429f5d92b2a07d02d2a11d10121dd
:101384000133013b00200a2403e00021f8e7604315
:10139400801a13f8012f303a092af8d901b94042ca
:0613a40010bd0021ede781
:020000040000fa
:0213aa00fee75c
:020000040000fa
:1013ac00d0b110b40446c9b1084421460c4a644279
:1013bc00137e13f0010ffbd0536803f00703012bce
:1013cc0014bf0b7834f81130936201318142efd1a4
:1013dc0001205df8044b7047002070470120f8e7ae
:0413ec00002001419b
:020000040000fa
:1013f00010b5054c227832b9044b13b10448aff351
:1014000000800123237010bd1c0500200000000097
:101410000000000008b5034b1bb103490348aff3bc
:10142000008008bd00000000200500200000000032
:020000040000fa
:1014300070b40e4b5e681b6813f0010f13d04ff4ad
:101440007a7303fb00f0094b9b6860b10021074ce5
:101450000136a2689a4292bf9b1ab51a5b191944c9
:1014600013468842f5d870bc704700bf10e000e01a
:020000040000fa
:1014700010b50e4b01221a801a46136913f0010fa2
:10148000fbd10a4c48f28013238040f2471000f051
:101490007ffa4ff48073638103f1e0234ff400621d
:1014a0001a60e02283f80b2310bd00bf0024004027
:020000040000fa
:1014b00030b50d4a002300bf12f8134024b902ebe7
:1014c00043035b78184630bd01680d78a54209bf1b
:1014d00002eb430301335b78013114bfdbb20160df
:0c14e0000a2be9d9eee700bf3c19000020
:020000040000fa
:1014ec0038b5436813f4807f0446154611d0036960
:1014fc009a4228bf1d465db12a46406900f09cf90e
:10150c00636922692b44551b0022636125611a70a3
:0c151c0038bddb06fcd400f0e7f9f9e76d
:020000040000fa
:101528000a4b0b4a1a6041f212429a814ff4403238
:101538005a601a46d369002bfcd1044a136843f059
:1015480002031360d369002bfcd1704700200141ce
:0415580004411040fa
:020000040000fa
:10155c0070b50a480a4d4ff6ff76016811b9436819
:10156c0003b970bd83684268334000f10c0455f830
:10157c0023302046984704eb8000eee78c050000f2
:04158c00e019000062
:020000040000fa
:1015900030b400eb4004094b03eb84031b899bb27e
:1015a000834201d030bc7047044b44002518ad0085
:1015b0005951204403eb80035a60f3e70c040020e8
:020000040000fa
:1015c0000a4b5b8b13f0070f0ed0084b80221a7664
:1015d00007225a831b7e13f0040f05d0034b9a6a2f
:1015e0001a7e12f0040ffad1704700bf00200141ab
:020000040000fa
:1015f000064b1a680ab9064a1a60064a116809b900
:10160000054911601a68054b1a6070474c050020a7
:1016100068060020480500206808002044050020d6
:020000040000fa
:1016200010b5084c23680bb9fff7e2ff06492268a2
:1016300009681044814234bf4ff0ff3220601046e9
:0c16400010bd00bf44050020480500203c
:020000040000fa
:10164c002de9f0410024804617460e462546bd4242
:10165c0002db2046bde8f081726856f8081b404654
:0a166c0000f0b0f801350444f1e786
:020000040000fa
:10167600802910db812901dd83290cd1136807330a
:1016860023f0070303f108011160d3e90023c0e941
:0a1696000023012070470020704778
:020000040000fa
:1016a0002de9f0410024804617460e462546bd42ee
:1016b00002db2046bde8f081726856f8081b404600
:0a16c00000f0b2f801350444f1e730
:020000040000fa
:0216ca00fee739
:020000040000fa
:1016cc0008b5074b93f82e00062283f82e20054b05
:1016dc001b6823b1c0b2034b59681b68984708bdff
:0816ec00001c00435005002022
:020000040000fa
:1016f40008b5074b4ff400425a61064bd3f8b43097
:101704002bb1044bd3f8b800d3f8b430984708bdd4
:08171400002800400c04002035
:020000040000fa
:10171c0090f948305a1e1343426880f8483012f052
:10172c0004031bbf42f010024260c0e90f334ff0bc
:08173c00ff3008bf184670479a
:020000040000fa
:10174400054a002313609360044951600621116027
:10175400034a93601360704710e000e09f86010025
:041764003805002024
:020000040000fa
:1017680008b5064b5868064a12689a6801329a60aa
:101778001b6813b1014b1b68984708bd380500204a
:0417880010e000e08d
:020000040000fa
:10178c000fb407b5064b04aa1b6852f8041b186863
:10179c00019200f05ff803b05df804eb04b0704701
:0417ac005c060020b7
:020000040000fa
:1017b00010b5054c22680ab9fff71aff034b1868e9
:1017c0002368c01a10bd00bf440500204805002052
:020000040000fa
:1017d00038b550b952b10c46012529462046fff7cd
:0e17e00073fd0028f9d0012000e0002038bd84
:020000040000fa
:1017ee0010b50023934206d113f0030018bf012059
:0e17fe0000eb930010bdc45ccc540133f2e745
:020000040000fa
:10180c00054a936923f0040343ea80009061d3688e
:0c181c0013f4807ffbd0704700180040e0
:020000040000fa
:1018280038b50d461446012801d0204638bd21465a
:0c1838002846fff7b7fd0028f9d0f6e7be
:020000040000fa
:101844005ab110b40a44431e11f8014b03f8014f76
:0c1854009142f9d15df8044b70477047d9
:020000040000fa
:1018600013b50446019201aafef70cfd636813f05c
:0c187000100f18bf4ff0ff3002b010bd89
:020000040000fa
:10187c00044a138843f002031380136b13f0020f16
:08188c00fbd17047001c004372
:020000040000fa
:10189400044a137d43f002031375136b13f4006fb2
:0818a400fbd17047001c00435a
:020000040000fa
:1018ac00044b04225a701a46937913f0010ffbd0a3
:0818bc0030bf7047000400403a
:020000040000fa
:1018c400044a138843f002031380136913f0020fd0
:0818d400fbd170470024004025
:020000040000fa
:1018dc0010b50446fff71cff28b9a368e268c4e9f9
:0818ec0005331344a36210bd93
:020000040000fa
:1018f40010b4c46a1cb123465df8044b1847006851
:081904005df8044bfff78ebff4
:020000040000fa
:10190c0003783bb1034600bf13f8012f002afbd12b
:08191c00181a704718467047c5
:020000040000fa
:10192400044a136823b91060036101600120704701
:08193400002070476c05002043
:020000040000fa
:10193c0068076c094c836a9074a07ac00080688830
:06194c0000846c820081a2
:020000040000fa
:101952000068002808b501da002008bdfff75ffe25
:06196200431cfad1f8e776
:020000040000fa
:10196800034b0122c3f8fc214cf20c621a62704747
:0419780000e000414a
:020000040000fa
:10197c00034b01221a7205225a7202229a72704784
:04198c000004004013
:020000040000fa
:10199000034b18621a46136913f0200ffbd17047ee
:0419a00000240040df
:020000040000fa
:1019a400034b0022da619a6902f006029a617047d9
:0419b40000180040d7
:020000040000fa
:1019b800034b00229a601a6842f001021a607047cd
:0419c80010e000e04b
:020000040000fa
:1019cc0008b5034b4ff480729a81fff75dff08bd99
:0419dc0000240040a3
:020000040000fa
:1019e0001d1a0000ef170000d11a0000d11a0000e4
:0419f000d11a000008
:020000040000fa
:1019f40008b500f061f8024b1860586008bd00bfdc
:041a04005805002061
:020000040000fa
:101a080032b1c9b20244034603f8011b9342fbd129
:041a1800704700bf54
:020000040000fa
:101a1c000a440023914201d10020704701f8013b98
:021a2c00f8e7d9
:020000040000fa
:021a2e00fee7d1
:020000040000fa
:101a3000024b4cf244021a80704700bf0040004144
:020000040000fa
:101a4000024a136823f001031360704710e000e0be
:020000040000fa
:101a5000024a937803f0fd0393707047001c004323
:020000040000fa
:101a600000294ff480630cbf02220022fff754bc10
:020000040000fa
:101a700008b5fff7bfff00f03af800f038f808bdee
:020000040000fa
:0e1a8000a0f14103192b98bf40f020007047e1
:020000040000fa
:021a8e00fee771
:020000040000fa
:0c1a9000014b18605960704750050020a1
:020000040000fa
:0c1a9c00014b01221a70704771050020f8
:020000040000fa
:0c1aa800014b01221a70704770050020ed
:020000040000fa
:081ab400286e696c2900250071
:020000040000fa
:081abc0000487047e00500201e
:020000040000fa
:061ac4000068fff7afbe51
:020000040000fa
:061aca004ff0ff307047f1
:020000040000fa
:041ad000002070473b
:020000040000fa
:041ad4000020704737
:020000040000fa
:041ad8000020704733
:020000040000fa
:041adc00002070472f
:020000040000fa
:041ae000002070472b
:020000040000fa
:041ae4000020704727
:020000040000fa
:021ae800fee717
:020000040000fa
:021aea00704743
:020000040000fa
:021aec00704741
:020000040000fa
:021aee0070473f
:020000040000fa
:021af00070473d
:020000040000fa
:0200000400807a
:044000003912003c35
:020000040000fa
:0200000400807a
:044004008000a82a66
:020000040000fa
:0200000400807a
:04400800ffffffffb8
:00000001FF
