:020000040000fa
:10000000f0ff032039360000d9370000df37000049
:10001000eb370000f1370000f73700000000000068
:100020000000000000000000000000001b3800007d
:10003000e5370000000000001b3800001b380000fe
:100040001b3800001b3800001b3800001b38000064
:100050001b3800001b3800001b3800001b38000054
:100060001b3800001b3800001b3800001b38000044
:100070001b3800001b3800001b3800001b38000034
:100080001b3800001b3800001b3800001b38000024
:100090001b3800001b3800001b3800001b38000014
:1000a0001b3800001b3800001b380000692f0000bf
:1000b0001b3800001b3800001b3800001b380000f4
:1000c0001b3800001b3800001b3800001b380000e4
:1000d0001b3800001b3800001b3800001b380000d4
:1000e0001b3800001b38000000000000000000006a
:1000f000000000001b380000151b0000151b00004d
:10010000151b0000151b00001b3800001b380000e9
:100110001b3800001b3800001b3800001b38000093
:100120001b3800001b3800001b3800001b38000083
:100130001b3800001b3800001b3800001b38000073
:100140001b3800001b3800001b3800001b38000063
:100150001b3800001b3800000000000000000000f9
:10016000000000000000000000000000000000008f
:1001700000000000000000001b3800001b380000d9
:100180001b3800001b3800001b3800001b38000023
:10019000000000001b3800001b3800001b38000066
:1001a0001b3800001b3800001b3800001b38000003
:1001b0001b3800001b3800001b3800001b380000f3
:1001c0001b3800001b3800001b3800001b380000e3
:1001d0001b3800001b3800001b3800001b380000d3
:1001e0001b3800001b3800001b3800001b380000c3
:1001f0001b3800001b3800001b3800001b380000b3
:100200001b38000000000000000000001b38000048
:100210001b3800001b3800001b3800001b38000092
:100220001b3800001b3800001b3800001b38000082
:100230001b3800001b3800001b3800001b38000072
:100240001b3800001b3800001b3800001b38000062
:100250001b3800001b3800001b3800001b38000052
:020000040000fa
:10026000f8b500bff8bc08bc9e467047f5360000e4
:10027000f8b500bff8bc08bc9e467047d1360000f8
:020000040000fa
:080280001c2600000100000033
:020000040000fa
:1002880080b500af104b5b69012098470e4bdb69c6
:10029800012098470c4b5b69002098470a4bdb69a3
:1002a800c820984706e0084b5b68984703461a46fb
:1002b800064b1a70044bdb6898470346002bf2d1b3
:1002c8000123184680bd00bf3c3500008401002092
:1002d80080b584b000af78600b46fb700023fb73d9
:1002e800114b9b6898470346002b0ad00e4b1b689e
:1002f800fa7b79680a44127810469847fb7b0133e9
:10030800fb73fa7bfb789a42ead300bf064b9b68e3
:100318009847034683f00103dbb2002bf6d100bff8
:100328001037bd4680bd00bf3c35000090b585b094
:1003380000af78600b46fb700023fb730023bb7390
:10034800fb7819467868fff7c3ff06e01b4bdb69ab
:1003580001209847bb7b0133bb73184bdb68984778
:10036800034683f00103dbb2002b02d0bb7b412b99
:10037800ecd9124bdb6898470346002b12d00f4b81
:100388005b68fc7b984703461a460d4b1a55fb7b66
:100398000b4ad35c3e2b03d0fb7b0133fb7301e09c
:1003a800fb7b06e0fb7b002b02d0fb7bff2be0d125
:1003b800fb7b18461437bd4690bd00bf3c35000096
:1003c8009801002080b586b000af78600b46fb70be
:1003d80000237b6100233b610023fb6006e0244b84
:1003e800db69012098473b6901333b61204bdb689f
:1003f8009847034683f00103dbb2002befd13b693a
:10040800412becd90ce01a4b5b6898470346194618
:10041800184a7b6913440a461a707b6901337b6169
:10042800134bdb6898470346002becd1fb787a69bd
:100438009a4201d0002316e00023fb600ee00d4a2b
:10044800fb6813441a787968fb680b441b789a4256
:1004580001d0002307e0fb680133fb60fa687b6981
:100468009a42ecd3012318461837bd4680bd00bf19
:100478003c3500009801002080b58cb000af002307
:1004880087f82f300023bb6200237b6206e0254bf0
:10049800db6901209847bb6a0133bb62214bdb68eb
:1004a8009847034683f00103dbb2002befd1bb6a08
:1004b800412becd90ce01b4b5b6898470346194667
:1004c8003a1d7b6a13440a461a707b6a01337b62c1
:1004d800144bdb6898470346002becd13b79412b42
:1004e80002d0452b0ad016e07b794f2b10d1bb796f
:1004f8004b2b0dd1012387f82f3009e07b79722b24
:1005080008d1bb79722b05d1002387f82f3001e081
:1005180000bf00e000bf97f82f3018463037bd46bf
:1005280080bd00bf3c35000080b588b000aff860e2
:100538007a601a460b46fb721346bb720023fb61b6
:100548000023bb6100237b6102e02b4b5b6898476b
:10055800294bdb6898470346002bf6d1fb7a1946ee
:10056800f868fff7b5fe06e0234bdb6901209847e2
:10057800bb690133bb61204bdb689847034683f0b6
:100588000103dbb2002befd1bb69412becd90ce0a6
:10059800194b5b68984703461946184afb69134488
:1005a8000a461a70fb690133fb61134bdb689847f5
:1005b8000346002becd1bb7afa699a4201d000239a
:1005c80016e000237b610ee00c4a7b6913441a781d
:1005d80079687b690b441b789a4201d0002307e0b5
:1005e8007b6901337b617a69fb699a42ecd3012309
:1005f80018462037bd4680bd3c35000098010020d4
:1006080080b582b000af0d4a3b4692e803001860ff
:10061800043319700a4b24221a70094b24225a7089
:10062800074b24229a703a46052303210448fff712
:100638007bff034618460837bd4680bd8836000054
:100648004401002080b582b000af104a3b4692e8d2
:1006580003001860043319700d4b2d221a700c4bcf
:100668002d225a700a4b2d229a70094b0d22da70ee
:10067800074b0a221a713a46052305210448fff759
:1006880053ff034618460837bd4680bd9036000024
:100698004401002080b586b000af78600b46fb703f
:1006a8001e4a07f10c0307ca03c31a801c4b5322c6
:1006b8001a701b4b4e225a70194b2c229a70002329
:1006c800fb750ae0fb7d7a681a44fb7d03331178d9
:1006d800134ad154fb7d0133fb75fa7dfb789a42ae
:1006e800f0d3fb7d0333fb75fb7d5a1cfa751a4664
:1006f8000b4b0d219954fb7d094a0a21d154fb78f3
:100708000533d9b207f10c020a230548fff70cff9d
:10071800034618461837bd4680bd00bf983600000e
:100728004401002080b586b000af0346fb71fb7919
:100738001b09fb75204a07f10c0307ca03c31a807b
:100748001e4b53221a701d4b42225a701b4b2c22ef
:100758009a70fb7d092b03d8fb7d3033dbb202e0b6
:10076800fb7d5733dbb2fb75144afb7dd370fb79f5
:1007780003f00f03fb75fb7d092b03d8fb7d30339a
:10078800dbb202e0fb7d5733dbb2fb750b4afb7d26
:1007980013710a4b0d225a71084b0a229a7107f1fc
:1007a8000c020a2307210548fff7befe0346184638
:1007b8001837bd4680bd00bf9836000044010020b0
:1007c80080b586b000af0346fb71224a07f10c03df
:1007d80007ca03c31a80fb791b09fb751e4b5322fa
:1007e8001a701d4b53225a701b4b2c229a70fb7d9a
:1007f800092b03d8fb7d3033dbb202e0fb7d573396
:10080800dbb2fb75144afb7dd370fb7903f00f0351
:10081800fb75fb7d092b03d8fb7d3033dbb202e08f
:10082800fb7d5733dbb2fb750b4afb7d13710a4b1b
:100838000d225a71084b0a229a7107f10c020a23f9
:1008480007210548fff770fe034618461837bd46ce
:1008580080bd00bf983600004401002080b586b0f6
:1008680000af0346fb803b4a07f10c0307ca03c3ea
:100878001a80fb881b0b9bb2fb75374b53221a70ef
:10088800354b52225a70344b2c229a70fb7d03f060
:100898000f03fb75fb7d092b03d8fb7d3033dbb2df
:1008a80002e0fb7d5733dbb2fb752b4afb7dd3702f
:1008b800fb881b0a9bb2fb75fb7d03f00f03fb75de
:1008c800fb7d092b03d8fb7d3033dbb202e0fb7dd7
:1008d8005733dbb2fb75204afb7d1371fb881b097c
:1008e8009bb2fb75fb7d03f00f03fb75fb7d092baa
:1008f80003d8fb7d3033dbb202e0fb7d5733dbb23c
:10090800fb75154afb7d5371fb88fb75fb7d03f076
:100918000f03fb75fb7d092b03d8fb7d3033dbb25e
:1009280002e0fb7d5733dbb2fb750b4afb7d93710d
:10093800094b0d22da71084b0a221a7207f10c02d0
:100948000a2309210448fff7effd03461846183724
:10095800bd4680bd983600004401002080b586b0b1
:1009680000af0346fb710023fb75174a07f10c0320
:1009780007ca03c31a80154b53221a70134b41221e
:100988005a70124b2c229a70fb79092b03d8fb79e9
:100998003033dbb202e0fb795733dbb2fb750b4a2d
:1009a800fb7dd370094b0d221a71084b0a225a712c
:1009b80007f10c020a2306210448fff7b5fd034698
:1009c80018461837bd4680bd9836000044010020ff
:1009d80080b586b000af78600b46fb701e4a07f101
:1009e8000c0307ca03c31a801c4b53221a701b4bf3
:1009f80050225a70194b2c229a700023fb750ae07a
:100a0800fb7d7a681a44fb7d03331178134ad1546d
:100a1800fb7d0133fb75fa7dfb789a42f0d3fb7db1
:100a28000333fb75fb7d5a1cfa751a460b4b0d21d7
:100a38009954fb7d5a1cfa751a46084b0a21995499
:100a480007f10c02f97d0a230448fff76dfd034600
:100a580018461837bd4680bd98360000440100206e
:100a680080b586b000af03460a46fb711346bb71da
:100a7800144a07f10c0307ca03c31a80124b532206
:100a88001a70114b25225a700f4b2c229a700e4a5d
:100a9800fb79d3700c4b2c221a710b4abb7953711a
:100aa800094b0d229a71084b0a22da7107f10c02e0
:100ab8000a2308210448fff737fd0346184618376c
:100ac800bd4680bd983600004401002080b586b040
:100ad80000af3b4683e803002c4a07f1080307ca26
:100ae80003c31a803023fb7530237b753023bb7515
:100af80030233b753b7803f01003dbb2002b02d0a8
:100b08003123fb7501e03023fb753b7803f00f03bd
:100b1800dbb230337b753b7903f01003dbb2002b7b
:100b280002d03123bb7501e03023bb753b7903f05c
:100b38000f03dbb230333b75154b7c221a70144b14
:100b48004f225a70124b2c229a70114afb7dd37097
:100b58000f4a7b7d13710e4b2c225a710c4abb7db8
:100b680093710b4a3b7dd371094b0d221a72084bc6
:100b78000a225a7207f108020a230a210448fff7d9
:100b8800d3fc034618461837bd4680bd983600008a
:100b98004401002080b586b000af78600023bb75a3
:100ba8003023fb7530237b75224b1b883b82002347
:100bb8003b733b7903f01003dbb2002b02d03123e7
:100bc800fb7501e03023fb753b7903f00f03dbb2c3
:100bd8003033bb75bb7d7b75174b7c221a70164b67
:100be80049225a70144b2c229a70134afb7dd370f9
:100bf800114a7b7d1371104b0d225a710e4b0a223c
:100c08009a7107f11002022307210b48fff78cfca9
:100c18003b7c1b015ab27b7c5bb203f00f035bb2d7
:100c280013435bb2dbb23b73fb6818461837bd460b
:100c380080bd00bfa43600004401002080b582b00a
:100c480000af00237b6000233b60234b4d221a70ca
:100c5800214b0d225a70204b0a229a7003211e48fc
:100c6800fff736fb06e01d4bdb69012098473b6820
:100c780001333b60194bdb689847034683f0010357
:100c8800dbb2002befd13b68412becd90ce0134bc6
:100c98005b68984703461946114a7b6813440a461d
:100ca8001a707b6801337b600c4bdb6898470346fe
:100cb800002becd10a4b1a780a4b1a70084b5a7859
:100cc800084b5a70064b9a78064b9a70054b184693
:100cd8000837bd4680bd00bf440100203c350000f8
:100ce80098010020fc01002080b584b000af0023eb
:100cf800fb73144a3b1d07ca03c31a800233120c44
:100d08001a70114b52221a700f4b2c225a700e4b2c
:100d180031229a700c4b0d221a710b4b0a225a7110
:100d28003a1d0b2305210848fff7fefb0346fb731a
:100d3800064bdb69fa209847fb7b18461037bd46ff
:100d480080bd00bfa8360000440100203c350000eb
:100d5800b0b58ab000af0346fb71002387f827308f
:100d6800174b07f108041d460fcd0fc495e807007f
:100d780084e80700134b53221a70124b46225a700c
:100d8800104b2c229a700f4afb7913710d4b0d22d0
:100d98005a710c4b0a229a7107f108021c2306218a
:100da8000848fff7c1fb034687f82730064bdb6985
:100db800fa20984797f8273018462837bd46b0bd1f
:100dc800b4360000440100203c35000080b500af77
:100dd8000b4b4b221a700a4b2c225a70084b3122ab
:100de8009a70074b0d22da70054b0a221a710521f9
:100df8000348fff76dfafff73ffb0346184680bd2f
:100e08004401002080b483b000af0346fb71044a5c
:100e1800fb79137000bf0c37bd465df8047b704743
:100e28001102002080b400af034b1b781846bd4662
:100e38005df8047b704700bf1102002080b483b0c6
:100e480000af0346fb71044afb79137000bf0c37ef
:100e5800bd465df8047b70474001002080b400afb8
:100e6800034b1b781846bd465df8047b704700bfee
:100e78004001002080b483b000af78600b46fb705f
:100e88007b68002b0cd0fb78012b09d9084a7b68ba
:100e98001360fb78013bdab2064b1a70012300e0bd
:100ea800002318460c37bd465df8047b704700bf29
:100eb800880100208c01002080b500af094b1b7809
:100ec800002b01d001230ae0074bdb689847034653
:100ed800002b03d000f020f8034600e0002318465a
:100ee80080bd00bf950100203c35000080b500aff3
:100ef80000bffff7e1ff034683f00103dbb2002bdd
:100f0800f7d1034b00221a70024b1b78184680bd9c
:100f1800950100209401002080b582b000af3e4bbf
:100f28005b6898470346fb713c4b1b78002b23d02a
:100f38003b4b1b78fa799a420dd1384b00221a7034
:100f4800384b1b6800221a70334b1b6a364a1268ea
:100f58001046984759e0344b1b68344a12781a44b3
:100f6800304b1b689a4250d92e4b1b685a1c2d498e
:100f78000a60fa791a7048e0294b1b78fa799a4284
:100f88001ed001f06bf9034683f00103dbb2002b9e
:100f980016d001f06ff9034683f00103dbb2002b92
:100fa8000ed01e4b01221a701f4b1b681d4a13607e
:100fb8001c4b1b685a1c1b490a60fa791a7024e0fa
:100fc800174b1b78fa799a4216d1194b1b7883f084
:100fd8000103dbb2002b0fd001f040f9034683f088
:100fe8000103dbb2002b07d00c4b01221a700e4b09
:100ff8001b680c4a136008e00d4b01221a700d4b58
:1010080001221a700c4afb7913700a4b1b78184698
:101018000837bd4680bd00bf3c35000010020020e7
:101028001102002090010020880100208c0100207e
:0c103800400100209501002094010020e0
:020000040000fa
:1010440080b400af304b314a1a602f4b4ff6220266
:101054009a812d4b4ff440325a6000bf2a4bdb6912
:10106400002bfbd1284b1b68274a43f00203136073
:1010740000bf254bdb69002bfbd1254b00221a62f4
:10108400234b00229a62224b0022da62204b002278
:1010940083f834201e4b002283f83c201c4b002292
:1010a4009a631b4b0022da87194b00221a60184bf3
:1010b40000229a60164b0022da60154b00221a7542
:1010c400134b00221a77124b00229a610e4b5b6875
:1010d40003f00703012b06d00d4b80221a630c4b3f
:1010e40080221a6105e00a4b40221a63084b402211
:1010f4001a61054b80229a75034b04229a7500bf2e
:10110400bd465df8047b7047003000400401104088
:101114000000002080b400af024b1846bd465df8c5
:10112400047b704700879303b0b586b000af786046
:1011340039600023fb750023bb6000233b6100235f
:10114400fb607b68002b00f0c2807b681b68002b6f
:1011540000f0bd803b68002b02d1fff7dbff386055
:101164007b681b681b013a689a4204d300233b61e5
:101174001023fb6016e07b681b68db003a689a4228
:1011840004d302233b610823fb600be07b681a68ed
:1011940013465b0013443a689a4203d304233b6129
:1011a4000323fb60fb6819464ff000027b681b6851
:1011b4004ff0000403fb02f501fb04f02844a1fbfb
:1011c4000334021914464ff000004ff000012104cb
:1011d40041ea134118043b684ff000041a462346c1
:1011e40002f0cafa03460c46c3f58033bb603a4b9f
:1011f4001b68394a23f00203136000bf364bdb69d6
:10120400002bfbd1344bba6892b29a817b685b683d
:10121400022b18d1304b1b6823f0706323f4604316
:101224003a69520392b22c4913430b602a4b5b6810
:1012340023f047027b6899687b68db680b43264987
:1012440013434b601ee0244b1b6823f0706323f4ac
:1012540060433a69520392b213431f4a43f08073c6
:1012640013601d4b5b6823f4015323f007037a6872
:1012740092681a437b68db681a437b685b6816498b
:1012840013434b6000bf144bdb69002bfbd1124ba3
:101294001b68114a43f00203136000bf0e4bdb6965
:1012a400002bfbd10c4b5b6803f00703012b06d02a
:1012b4000a4b80221a63094b80221a6105e0074b0e
:1012c40040221a63054b40221a610123fb75fb7d02
:1012d40018461837bd46b0bd00300040000000205d
:1012e40080b400af0a4b1b6803f00203002b0ad141
:1012f400074b1b68064a43f00203136000bf044b0c
:10130400db69002bfbd100bfbd465df8047b704751
:101314000030004080b400af0a4b1b6803f00203a6
:10132400002b0ad0074b1b68064a23f00203136004
:1013340000bf044bdb69002bfbd100bfbd465df849
:10134400047b70470030004080b483b000af0023ba
:10135400fb800b4b80221a76094b07225a8302e04a
:10136400074b9b6afb80064b1b7edbb203f0040336
:10137400042bf5d000bf0c37bd465df8047b7047e5
:101384000030004080b483b000af064bdb8ffb809d
:10139400044b0022da87fb8818460c37bd465df8fb
:1013a400047b70470000002080b586b000af034680
:1013b400fb800023fb742d4b9b6a01337b612b4b19
:1013c4001b6b7a699a4201d300237b61274bdb6a4a
:1013d4007a699a4216d1254b1b6a002b12d0234bf3
:1013e4005b6afb60214b1b6af968012098471f4b1d
:1013f4009b6a01337b611d4b1b6b7a699a4201d353
:1014040000237b61194bdb6a7a699a4228d0184b16
:101414005b6803f00703012b0ad0144b9b6abb6083
:10142400fb88d9b2134abb6813440a461a7012e007
:101434000e4b9b6a5b00bb60fb88d9b20d4abb684c
:1014440013440a461a70fb881b0a9ab2bb6801331c
:10145400d1b2084ad154054a7b6993620123fb74d3
:10146400fb7c18461837bd4680bd00bf0000002035
:10147400003000404000002080b582b000af174b20
:1014840093f83430dbb2002b24d000f08df8786070
:10149400124b1b6a002b1dd0104b5b6a3b600f4b39
:1014a40093f83c30dbb2002b0ad00c4b9b6b7a6870
:1014b4009a420fd3094b1b6a39680020984709e008
:1014c400064b9b6b7a689a4204d1044b1b6a3968b9
:1014d4000020984700bf0837bd4680bd00000020ab
:1014e40080b489b000af786039600023fb612b4b76
:1014f400db6abb61294b9b6a7b613fe0ba697b690c
:101504009a4240d0264b5b6803f00703012b0fd0af
:101514007a68fb6913442349ba690a441278d2b23f
:101524001a70fb690133fb61bb690133bb611ee0c7
:10153400bb695b003b61fb695b00fb607a68fb682d
:10154400134418493a690a441278d2b21a703b69b2
:101554005a1cfb68013379680b4412498a5cd2b285
:101564001a70bb690133bb61fb690133fb610b4b2f
:101574001b6bba699a4201d30023bb61fa693b68c9
:101584009a42bbd300e000bf044abb69d362fb6943
:1015940018462437bd465df8047b704700000020e0
:1015a400003000404000002080b485b000af0e4bf6
:1015b400db6abb600c4b9b6a7b607a68bb689a42af
:1015c40004d37a68bb68d31afb6006e0064b1a6b37
:1015d400bb68d31a7a681344fb60fb681846143757
:1015e400bd465df8047b70470000002098b500af4d
:1015f400044b1c6bfff7d8ff0346e31a013b184664
:1016040098bd00bf0000002080b400af034b1b6beb
:10161400013b1846bd465df8047b7047000000207e
:1016240080b485b000af03460a46fb711346bb7114
:10163400094b93f83430fb73074afb7982f8343052
:10164400054abb7982f83c30fb7b18461437bd460b
:101654005df8047b704700bf0000002080b483b0b5
:1016640000af78607b68002b02d0044a7b689363e8
:1016740000bf0c37bd465df8047b704700000020b6
:1016840080b483b000af78603960064a7b68136227
:10169400044a3b68536200bf0c37bd465df8047bc7
:1016a400704700bf0000002080b483b000af002367
:1016b400fb71084b1b7edbb203f00203022b01d14a
:1016c4000123fb71fb7918460c37bd465df8047b9a
:1016d400704700bf0030004080b489b000af78602c
:1016e4000023fb77224b9b687b61214bdb68bb614a
:1016f4007b683b61ba697b699a4231d01d4b5b6858
:1017040003f00703012b0ad01b4abb6913441b785f
:10171400dab23b691a70bb690133bb6114e0bb697f
:101724005b00fb60144afb6813441b78dab23b6924
:101734001a70fb685a1c3b6901330f498a5cd2b2a8
:101744001a70bb690133bb61094b1b69ba699a42c0
:1017540001d30023bb61064abb69d3600123fb7735
:10176400fb7f18462437bd465df8047b704700bff5
:101774000000002000300040c000002080b489b088
:1017840000af0346fb80234b9b687b61214bdb68e6
:101794003b610023fb767b690133fb611d4b1b69b5
:1017a400fa699a4201d30023fb61fa693b699a42c0
:1017b40028d0194b5b6803f00703012b07d0fb8883
:1017c400d9b2164a7b6913440a461a7015e07b693c
:1017d4005b00fb60fb88d9b2104afb6813440a46dd
:1017e4001a70fb680133fb60fb881b0a9bb2d9b2f9
:1017f4000a4afb6813440a461a70064afb69936056
:101804000123fb76fb7e18462437bd465df8047b36
:10181400704700bf0000002000300040c0000020de
:1018240080b582b000af164b1b7ddbb2002b23d0fa
:1018340000f0a6f87860124b1b68002b1cd0104bec
:101844005b683b600e4b1b7fdbb2002b0ad00c4b5a
:101854009b697a689a420fd3094b1b683968032045
:10186400984709e0064b9b697a689a4204d1044b75
:101874001b6839680320984700bf0837bd4680bd00
:101884000000002080b485b000af0e4b9b68bb60a5
:101894000c4bdb687b60ba687b689a4204d3ba68f5
:1018a4007b68d31afb6006e0064b1a697b68d31a7f
:1018b400ba681344fb60fb6818461437bd465df8ec
:1018c400047b70470000002080b582b000affff7b2
:1018d400d9ff78607b6818460837bd4680bd80b55f
:1018e40084b000af786039600023fb6031e0234ba3
:1018f4005b6803f00703012b0ed07a68fb6813447e
:101904001b789bb21846fff739ff0346002b25d0fe
:10191400fb680133fb601ce0fb685b0001337a6801
:1019240013441b787b817b891b027b81fb685b00f2
:101934007a6813441b789ab27b8913437b817b8931
:101944001846fff71bff0346002b09d0fb68013341
:10195400fb60fa683b689a42c9d302e000bf00e02a
:1019640000bffff78fff0346002b02d0034b012279
:101974009a75fb6818461037bd4680bd003000409c
:1019840098b500af044b1c69fff79eff0346e31aaa
:10199400013b184698bd00bf0000002080b400af92
:1019a400034b1b69013b1846bd465df8047b704739
:1019b4000000002080b485b000af03460a46fb71e6
:1019c4001346bb71074b1b7dfb73064afb791375ea
:1019d400044abb791377fb7b18461437bd465df880
:1019e400047b70470000002080b483b000af7860af
:1019f4007b68002b02d0044a7b68936100bf0c37dc
:101a0400bd465df8047b70470000002080b483b0bd
:101a140000af78603960064a7b681360044a3b680b
:101a2400536000bf0c37bd465df8047b704700bfb0
:101a34000000002080b582b000af0f4b5b8b9bb2df
:101a440003f00703fb80fb88002b10d00b4afb88b4
:101a5400d387fff779fc094b1b6a002b07d0074b90
:101a64005b6a3b60054b1b6a39680220984700bfdc
:101a74000837bd4680bd00bf003000400000002094
:101a840080b500af0ae00a4b9b6a9bb21846fff789
:101a94008bfc0346002b01d0fff7eefc044b1b7eae
:101aa400dbb203f00403042bedd000bf80bd00bf04
:101ab4000030004080b582b000af1be0bb1d18466b
:101ac400fff70afe0346002b10d0104b5b6803f0af
:101ad4000703012b04d0fb88dab20c4b9a6202e0b4
:101ae400fa880a4b9a62fff79bfe03e0074b012238
:101af4001a7506e0054b1b7edbb203f00103012bd4
:101b0400dcd000bf0837bd4680bd00bf00300040b8
:101b140080b582b000af0023fb71364b9b7ddbb2f6
:101b2400002b62d0334b1b7edbb203f08003802b8f
:101b34000cbf01230023fb712e4b9b7ddbb203f012
:101b44008003802b04d1fb79002b01d0012300e01a
:101b54000023fb71fb7903f00103fb71fb79002b7c
:101b640001d0fff767ff234b1b7edbb203f00103b9
:101b7400012b0cbf01230023fb711e4b9b7ddbb2a9
:101b840003f00103012b04d1fb79002b01d00123c5
:101b940000e00023fb71fb7903f00103fb71fb7987
:101ba400002b01d0fff786ff124b1b7edbb203f044
:101bb4000403002b14bf01230023fb710d4b9b7df9
:101bc400dbb203f00403002b04d0fb79002b01d01b
:101bd400012300e00023fb71fb7903f00103fb7197
:101be400fb79002b01d0fff74bff00bf0837bd4640
:081bf40080bd00bf003000407d
:020000040000fa
:101bfc0080b400af044b40f204521a8000bfbd46c3
:101c0c005df8047b704700bf0040004180b586b092
:101c1c0000aff860b9607a607b687b61ba687969fb
:101c2c00f86801f0f5fd012318461837bd4680bd54
:101c3c0080b483b000af0346fb800a4b1b889bb279
:101c4c001bb223f030031ab2b7f9063013431ab2a1
:101c5c00044b92b21a8000bf0c37bd465df8047b72
:101c6c00704700bf0040004180b586b000af78607f
:101c7c0039600023bb753b683b61194b1b889bb2d9
:101c8c0003f03003fb81174b00221a803b6803f0f2
:101c9c000f03002b02d00023bb751be02020fff7a5
:101cac00c7ff0023fb750ce0fb7d9b007a68134497
:101cbc001a683b691a603b6904333b61fb7d013355
:101ccc00fb75fb7d032befd9fb891846fff7b0ffa3
:101cdc000123bb75bb7d18461837bd4680bd00bfc0
:101cec00004000411202002080b586b000af786041
:101cfc0039600023bb753b683b61194b1b889bb259
:101d0c0003f03003fb81174b00221a803b6803f071
:101d1c000703002b02d00023bb751be01020fff73c
:101d2c0087ff0023fb750ce0fb7d9b007a68134456
:101d3c001a683b691a603b6904333b61fb7d0133d4
:101d4c00fb75fb7d012befd9fb891846fff770ff64
:101d5c000123bb75bb7d18461837bd4680bd00bf3f
:101d6c00004000411202002080b485b000af7860c2
:101d7c0039603b68bb600e4b00221a800023fb606d
:101d8c000ce0fb689b007a6813441a68bb681a6005
:101d9c00bb680433bb60fb680133fb60fb687f2bc3
:101dac00efd9012318461437bd465df8047b704704
:101dbc001202002080b483b000af78600b4b00227d
:101dcc001a800b4a7b685361094b1b889bb203f04a
:101ddc003003002b03d1064b4af203529a800123a5
:101dec0018460c37bd465df8047b70471202002084
:101dfc000040004180b485b000af786039603b682a
:101e0c00bb60144b00221a800023fb600ce0fb68c3
:101e1c009b007a6813441a68bb681a60bb68043369
:101e2c00bb60fb680133fb60fb687f2befd90a4b6f
:101e3c001b889bb203f03003002b03d1064b4af2f4
:101e4c0003529a80012318461437bd465df8047b73
:101e5c00704700bf120200200040004180b483b0e4
:101e6c0000af7860084b00221a80084a7b685361e7
:101e7c00064b4af201529a80012318460c37bd4694
:101e8c005df8047b704700bf120200200040004147
:101e9c0080b588b000af786039603b687b617b6847
:101eac003b610023fb733b681e4a934234d93b6869
:101ebc001d4a934230d81d4b00221a800023bb616f
:101ecc0025e00023fb610ce03b691a687b691a6012
:101edc007b6904337b613b6904333b61fb690133f0
:101eec00fb61fb69032befd9bb691a0110493b68f5
:101efc0013444b610e4b4af204529a8000bf00f01f
:101f0c0073f80346002bfad1bb690133bb61bb6983
:101f1c001f2bd6d90123fb73fb7b18462037bd46fc
:101f2c0080bd00bfff3f80000040800012020020f7
:101f3c000040004180b485b000af78600023fb7393
:101f4c007b680d4a93420fd97b680c4a93420bd89d
:101f5c000b4b00221a800b4a7b685361094b4ff4e0
:101f6c0025429a800123fb73fb7b18461437bd4630
:101f7c005df8047b704700bfff3f8000004280008b
:101f8c00120200200040004180b483b000af0c4b23
:101f9c001b8afb800b4b1b889ab2fb8813439ab2ab
:101fac00084b1a80064b074a128892b21a82054bcc
:101fbc001b889bb218460c37bd465df8047b7047f6
:101fcc00004000411202002080b483b000af054bea
:101fdc005b8afb80fb8818460c37bd465df8047b9a
:101fec00704700bf0040004180b400af074b5b8ad4
:101ffc009bb203f00103002b0cbf01230023dbb2c7
:10200c001846bd465df8047b704700bf0040004198
:10201c0080b483b000af7860064a7b685361054b8f
:10202c004af211529a8000bf0c37bd465df8047b12
:10203c00704700bf0040004180b483b000af7860af
:10204c00064a7b685361054b4af212529a8000bfd4
:10205c000c37bd465df8047b704700bf0040004163
:10206c0080b400af034b9b691846bd465df8047bfa
:10207c00704700bf0040004180b400af044b4af2ef
:10208c0016529a8000bfbd465df8047b704700bfb6
:10209c000040004180b400af064bdb6a03f0040340
:1020ac00002b14bf01230023dbb21846bd465df89c
:1020bc00047b70470040004180b483b000af054bf7
:1020cc00db6a7b607b6818460c37bd465df8047b89
:1020dc00704700bf0040004180b400af074b1b8a23
:1020ec009bb203f48073002b14bf01230023dbb2db
:1020fc001846bd465df8047b704700bf00400041a8
:10210c0080b400af044b4af217529a8000bfbd4610
:10211c005df8047b704700bf0040004180b400af05
:10212c00044b4af232529a8000bfbd465df8047be4
:10213c00704700bf0040004180b400af054b002247
:10214c001a80054b4af233529a8000bfbd465df8a7
:0c215c00047b704712020020004000418c
:020000040000fa
:1021680080b483b000af0023fb712be01a4b1b68cf
:102178001b091a4a1360194b1b681b013b60164b5d
:102188001a683b68d31a154a1360144b1b68092b4d
:1021980005d8124b1b683033104a136004e00f4b0c
:1021a8001b6837330d4a13600c4b1968fb795a1cae
:1021b800fa711a46c9b20a4b9954074b1b681b0996
:1021c800054a1360044b1b68002bcfd100bf0c37a6
:1021d800bd465df8047b70473004002044030020ae
:1021e8003404002080b487b000aff860b9607a602a
:1021f80000237b6100233b61bb683b6113e0104b0c
:102208001b681b020e4a13603b695a1c3a61fa6844
:1022180013441b781a460a4b1b681343084a136079
:102228007b6901337b617a697b689a42e7d3044b07
:102238001b6818461c37bd465df8047b704700bf15
:102248004803002080b400af034b1b781846bd46f6
:102258005df8047b704700bfd402002080b400af53
:10226800034b1b781846bd465df8047b704700bfda
:10227800d502002080b400af034b1b781846bd463a
:102288005df8047b704700bfd602002080b582b09d
:1022980000af0346fb71fb79184600f02ff800bf2a
:1022a8000837bd4680bd80b500af00f016f803467c
:1022b800184680bd80b500af00f03bf803461846cd
:1022c80080bd80b500af00f02df80346002b14bf89
:1022d80001230023dbb2184680bd80b500af012181
:1022e8000448fff7fbf80246034b1a60014b1b78c2
:1022f800184680bdd8020020dc02002080b582b0dc
:1023080000af0346fb71fb1d01211846fff7e5faf4
:102318000246034b1a6000bf0837bd4680bd00bfa8
:10232800dc02002080b500affff73cf903461846f1
:1023380080bd80b500affff7c5fa0346002b0cbf80
:1023480001230023dbb2184680bd80b483b000af00
:1023580078607b68002b0dd0094b1a687b6802fbfc
:1023680003f37b6003e07b68013b7b6000bf7b6815
:10237800002bf8d100bf0c37bd465df8047b7047d1
:102388002c04002080b483b000af0346fb71fb79b6
:10239800002b04d0074b4022c3f8942003e0054be0
:1023a8004022c3f8982000bf0c37bd465df8047b77
:1023b800704700bf0080004180b483b000af03467f
:1023c800fb7100bf0c37bd465df8047b704780b4d5
:1023d80083b000af0346fb7100bf0c37bd465df804
:1023e800047b704780b584b000af7860fff7b8fe13
:1023f8006a49786801f040f80346002b09d0684b19
:1024080000221a70674b00221a70674b00221a705c
:10241800bfe06649786801f02ff80346002b03d027
:10242800614b01221a70b4e06149786801f024f820
:102438000346002b00f095805b4b00221a700023a6
:10244800fb730ae0fb7b7a6811785a4ad1547b689f
:1024580001337b60fb7b0133fb73fb7b302bf1d9b2
:10246800042208215348fff7bdfe0246524bda60aa
:1024780008220d214f48fff7b5fe02464e4b1a6061
:10248800082216214b48fff7adfe02464a4b5a6018
:1024980008221f214748fff7a5fe0246464b9a60cf
:1024a800042228214348fff79dfe0246424b1a6149
:1024b80004222d213f48fff795fe02463e4b5a6104
:1024c8003e4b1b68ed2b1bd13d4b4f2098473c4b97
:1024d800542098473a4b41209847394b4120984718
:1024e800374b2c209847364b30209847344b3120b7
:1024f8009847334b0d209847314b0a20984748e0be
:102508002f4b4f2098472e4b542098472c4b412057
:1025180098472b4b41209847294b2c209847284b0c
:1025280030209847264b31209847254b2c20984738
:10253800234b30209847224b224a927810469847de
:102548001f4b204a5278104698471d4b1d4a127857
:10255800104698471a4b0d209847194b0a20984760
:1025680017e01949786800f087ff0346002b06d06a
:102578000c4b01221a700c4b00221a7009e0134907
:10258800786800f079ff0346002b02d0044b012243
:102598001a7000bf1037bd4680bd00bf603500000f
:1025a800d4020020d5020020d60200206c3500009d
:1025b80078350000e00200204c0300203804002099
:1025c8009522000034040020803500008c3500007e
:020000040000fa
:1025d80080b485b000af78607b6803f00703fb60c8
:1025e8000c4bdb68bb60ba684ff6ff031340bb6057
:1025f800fb681a02bb68134343f0bf6343f400331c
:10260800bb60044abb68d36000bf1437bd465df8a1
:10261800047b704700ed00e080b483b000af034650
:10262800fb80b7f90630002b0bdbfb8803f01f0299
:102638000749b7f906305b09012000fa02f241f8b0
:10264800232000bf0c37bd465df8047b704700bff0
:1026580000e100e080b483b000af0346fb80b7f927
:102668000630002b0ddb0a4ab7f906305b0952f831
:102678002320fb8803f01f0322fa03f303f001036e
:1026880000e0002318460c37bd465df8047b704710
:1026980000e100e080b483b000af0346fb80b7f9e7
:1026a8000630002b10dbfb8803f01f020949b7f93d
:1026b80006305b09012000fa02f2203341f823209a
:1026c800bff34f8fbff36f8f00bf0c37bd465df868
:1026d800047b704700e100e080b483b000af03469c
:1026e8003960fb80b7f90630002b0adb3b68dab2a9
:1026f8000c49b7f906305201d2b20b4483f80023d3
:102708000ae03b68dab20849fb8803f00f03043b90
:102718005201d2b20b441a7600bf0c37bd465df8a1
:10272800047b704700e100e000ed00e080b500aff9
:102738000020fff74dffbff35f8f62b607211b2014
:10274800fff7caff1b20fff767ff07212e20fff7bf
:10275800c3ff2e20fff760ff07212f20fff7bcffe4
:102768002f20fff759ff07213020fff7b5ff302052
:10277800fff752ff07213120fff7aeff3120fff7a7
:102788004bff0d4b5b6a0c4a43f4802353620a4ba0
:102798005b69094a43f010035361074b5b6a064ab9
:1027a80043f400335362044b5b6a034a43f48033b7
:1027b800536200bf80bd00bf00ed00e080b400aff1
:1027c800bff35f8f62b600bfbd465df8047b7047fc
:1027d80080b483b000afeff310833b603b68002bfd
:1027e8000cbf01230023fb7172b6bff35f8ffb7927
:1027f80018460c37bd465df8047b704780b483b03b
:1028080000af0346fb71fb79002b03d0bff35f8f4a
:1028180062b602e072b6bff35f8f00bf0c37bd46e9
:102828005df8047b704780b584b000af0346fb8039
:10283800fff7ceff0346fb73b7f906301846fff7dc
:1028480009ff0346002b14bf01230023bb73b7f90c
:1028580006301846fff71efffb7b1846fff7ceff32
:10286800bb7b18461037bd4680bd80b582b000af2f
:1028780003460a46fb8013467b717b79002b05d003
:10288800b7f906301846fff7c7fe00bf00bf083784
:04289800bd4680bdfc
:020000040000fa
:10289c002de9f04f099f154604468e461e46002b27
:1028ac0040f0cc808a42b2fa82fc4cd9bcf1000fc9
:1028bc000bd0ccf1200801fa0cfe20fa08f802fa31
:1028cc000cf548ea0e0e00fa0cf44fea15491ffa03
:1028dc0085f8befbf9fa210c09fb1ae30afb08fb8d
:1028ec0041ea03439b452ad9eb180af1ff3004d285
:1028fc009b4502d9aaf102002b44a3eb0b03a4b213
:10290c00b3fbf9f209fb123302fb08f844ea034467
:10291c00a04516d92c1902f1ff3303d2a04501d9d9
:10292c00931e2c44a4eb080443ea004027b124fa7c
:10293c000cf400233c607b603146bde8f08f5046c0
:10294c00dbe71346eee702b9ffdebcf1000f2ed138
:10295c008b1a01264fea154eaab2b3fbfef8210cd6
:10296c000efb183308fb02f941ea0343994561d980
:10297c00eb1808f1ff3004d2994502d9a8f10200f6
:10298c002b44a3eb0903a4b2b3fbfef10efb1133f2
:10299c004a4344ea0344a2424ed92c1901f1ff33b5
:1029ac0003d2a24201d98b1e2c44a41abce7ccf151
:1029bc00200e02fa0cf521fa0ef901fa0cf320faaa
:1029cc000efe4eea03034fea154800fa0cf4b9fb6d
:1029dc00f8f11ffa85fe08fb1192180c01fb0ef69c
:1029ec0040ea0242964221d9aa1801f1ff3003d2e3
:1029fc00964201d9881e2a44921b9bb2b2fbf8f96d
:102a0c0008fb192209fb0efe43ea02439e450fd92f
:102a1c00eb1809f1ff3604d29e4502d9a9f1020642
:102a2c002b44a3eb0e0346ea004693e70846e3e784
:102a3c004e46f6e74046a4e70b46b6e78b4206d96e
:102a4c00002f7ed00026c7e90001304674e7b3faa8
:102a5c0083fcbcf1000f0fd18b4201d3824209d809
:102a6c00841a61eb030e0120002f6dd0c7e9004ed4
:102a7c00002661e76046f7e7ccf1200e03fa0cf371
:102a8c0022fa0ef521fa0ef41d4301fa0cf320fa8a
:102a9c000ef10b434fea154a00fa0cf6b4fbfaf9a7
:102aac001ffa85f80afb19401c0c09fb08f144ead3
:102abc000044a14202fa0cf23fd92c1909f1ff3063
:102acc0004d2a14202d9a9f102002c44641a9bb28f
:102adc00b4fbfaf90afb194409fb08f843ea044170
:102aec0088452cd9691809f1ff3304d2884502d9dd
:102afc00a9f10203294443ea0040a1eb0801a0fb21
:102b0c0002894945c2464c4602d306d1464504d2f9
:102b1c00b8eb020a69eb05040138afb1b6eb0a0356
:102b2c0061eb040606fa0efe23fa0cf34eea0303dd
:102b3c0026fa0cf6c7e900369ae74846c6e74b4634
:0c2b4c00d9e73e463846f7e63e46f5e67f
:020000040000fa
:102b580080b400af164b4ff480421a60144b4ff408
:102b680080421a61124b012283f84820104b01223f
:102b780083f849200e4b002283f84e200c4b22226a
:102b880083f834200a4b002283f83720084b402270
:102b9800c3f88020064b002283f8c620044b00228d
:102ba80083f8b32000bfbd465df8047b704700bfc3
:102bb8000080004180b483b000af78607b681b6af6
:102bc80018460c37bd465df8047b704780b485b065
:102bd80000aff860b9607a60fb681a69bb68db43cc
:102be80002ea0301ba687b681a40fb680a431a6163
:102bf80000bf1437bd465df8047b704780b483b0ce
:102c080000af78607b681b6918460c37bd465df8d5
:102c1800047b704780b483b000af786039607b680c
:102c28003a689a6100bf0c37bd465df8047b70476f
:102c380080b483b000af786039607b683a685a61c5
:102c480000bf0c37bd465df8047b704780b483b085
:102c580000af786039607b683a68da6100bf0c378a
:102c6800bd465df8047b704780b485b000af7860de
:102c780039607b683a685a600023fb6019e03a685b
:102c8800fb6822fa03f303f00103002b0ed07a68e5
:102c9800fb68134440331b78dbb27a6843f00203c5
:102ca800d9b2fb68134440330a461a70fb680133f3
:102cb800fb60fb681f2be2d900bf1437bd465df8e7
:102cc800047b704780b483b000af786039607b685c
:102cd8003a689a6000bf0c37bd465df8047b7047c0
:102ce80080b487b000af03460a46fb8013467b7169
:102cf8007b793b61fb885b099bb203f5020303f513
:102d08008073db01fb60fb8803f01f03bb60fa687c
:102d1800bb685b08134493f83030dbb27b61bb6857
:102d280003f00103002b07d07b6923f0f0023b6915
:102d38001b0113437b6105e07b6923f00f033a69ac
:102d480013437b61fa68bb685b087969c9b21344ad
:102d58000a4683f83020fa68bb68134440331b786e
:102d6800dbb2fa6843f00103d9b2bb6813444033bd
:102d78000a461a7000bf1c37bd465df8047b7047d1
:102d880080b485b000af0346fb80fb885b099bb22b
:102d980003f5020303f58073db01fb60fb8803f096
:102da8001f03bb60fa68bb68134440331b78dbb26f
:102db800fa6823f00103d9b2bb68134440330a46ca
:102dc8001a7000bf1437bd465df8047b704700bf1a
:020000040000fa
:102dd80080b400af344b1b78dbb2334a43f00103b5
:102de800dbb2137000bf304b5b6803f00103012bab
:102df800f9d02d4b0022da612b4b4ff010421a62aa
:102e0800294b4ff400421a61284b10221a81274b94
:102e180010229a82254b10221a84244b10229a855c
:102e2800224b10221a87214b1022a3f844201f4b53
:102e38001022a3f850201d4b1022a3f85c201b4b36
:102e48001022a3f86820194b1022a3f87420174bfe
:102e58001022a3f88020154b1022a3f88c20134bc6
:102e68001022a3f89820114b1022a3f8a4200f4b8e
:102e78001022a3f8b0200d4b0f22a3f8bc200a4b58
:102e88001b78dbb2084a43f00203dbb2137000bfc1
:102e9800054b5b6803f00203022bf9d000bfbd4667
:102ea8005df8047b704700bf002800401402002032
:102eb80080b483b000af0346fb80fb88054a01213c
:102ec80001fa03f3136100bf0c37bd465df8047bbc
:102ed800704700bf0028004080b483b000af0346ad
:102ee800fb80fb88054a012101fa03f3d36000bf88
:102ef8000c37bd465df8047b704700bf00280040d2
:102f080080b485b000af0346b9607a60fb81fa8966
:102f1800124913465b0013449b000b4408331b887b
:102f28009bb2fa899a4212d1fa890c4913465b007e
:102f380013449b000b44ba681a60fa890749134680
:102f48005b0013449b000b4404337a681a6000bf8b
:102f58001437bd465df8047b704700bf140200209b
:102f680080b582b000af0b4b4ff400425a610a4b58
:102f7800d3f8b430002b08d0074bd3f8b8307b60b7
:102f8800054bd3f8b4307868984700bf0837bd467a
:0c2f980080bd00bf002800401402002093
:020000040000fa
:102fa40080b400af00bfbd465df8047b704780b4b9
:102fb40000af044b00221a7400bfbd465df8047bc9
:102fc400704700bf0014004080b400af174b42228a
:102fd400c3f8842000bf154bd3f8843003f04003ba
:102fe400402bf8d1124b00229a63114b77225a637b
:102ff40000bf0f4bdb6b03f00403042bf9d00c4b25
:10300400022283f8302000bf094bdb6b03f002037c
:10301400022bf9d000bf064b1b6c03f00303032bf8
:10302400f9d100bfbd465df8047b7047001c004029
:103034000010004080b400af00bfbd465df8047bc3
:10304400704780b400af0d4b01225a7100bf0b4b87
:10305400db78dbb203f00103012bf8d1084b094afa
:103064001a6200bf064b5b6803f00403042bf9d01b
:1030740000bfbd465df8047b704700bf00080040f8
:10308400001c00400701010080b400af074b084a50
:103094005a6200bf054b5b6803f00803082bf9d0a4
:1030a40000bfbd465df8047b704700bf001c0040b4
:1030b4000701020080b400af074b084a9a6200bfc0
:1030c400054b5b6803f01003102bf9d000bfbd461d
:1030d4005df8047b704700bf001c0040060130000f
:1030e40080b500affff75cfffff761fffff7a2ffba
:1030f400fff7e0fffff768fffff7a3fffff7c4ff49
:10310400104b4122c3f8902000bf0e4bd3f89030ef
:1031140003f04003402bf8d10a4b4122c3f89c2012
:1031240000bf084bd3f89c3003f04003402bf8d188
:10313400054b6ff07f421a61034b41f2ff725a61f3
:0c31440000bf80bd001c004000080040df
:020000040000fa
:1031500080b400af084b9b68074a23f001039360db
:1031600000bf054bdb6803f00103012bf9d000bf62
:10317000bd465df8047b70470060004180b400af3d
:103180000d4b9b680c4a23f00103936000bf0a4b70
:10319000db6803f00103012bf9d0074b5b68064a9b
:1031a00023f002035360044b01229a6000bfbd4626
:1031b0005df8047b704700bf0060004180b400af41
:1031c0000d4b9b680c4a23f00103936000bf0a4b30
:1031d000db6803f00103012bf9d0074b5b68064a5b
:1031e00043f002035360044b01229a6000bfbd46c6
:1031f0005df8047b704700bf0060004180b400af01
:103200000d4b9b680c4a23f00103936000bf0a4bef
:10321000db6803f00103012bf9d0074b5b68064a1a
:1032200023f004035360044b01229a6000bfbd46a3
:103230005df8047b704700bf0060004180b400afc0
:103240000d4b9b680c4a23f00103936000bf0a4baf
:10325000db6803f00103012bf9d0074b5b68064ada
:1032600043f004035360044b01229a6000bfbd4643
:103270005df8047b704700bf0060004180b400af80
:103280000a4b9b68094a23f00103936000bf074b78
:10329000db6803f00103012bf9d0044b01221a6211
:1032a00000bfbd465df8047b704700bf0060004171
:020000040000fa
:1032b00080b500affcf7e8ff0346184680bd80b537
:1032c00000affef7cfff0346184680bd80b500afc4
:1032d000fef7d4ff0346184680bd80b500affdf76a
:1032e000effd0346184680bd80b500affdf702fe36
:1032f0000346184680bd80b582b000af284b00223f
:103300001a70fff7e3ff0346fb71fff7d8ff034690
:10331000bb71244b4ff480429a61fb79002b34d06f
:10332000bb7983f00103dbb2002b2ed009e0fff75d
:10333000dbff0346002b14bf01230023dab2184b36
:103340001a70fff7caff0346002bf0d1164b1b88fb
:10335000642b0fd1154b1b6831209847124b00226c
:103360001a80104b4ff480425a61104bdb69962053
:10337000984710e00c4b1b8801339ab20a4b1a8015
:103380000a4bdb690120984705e000bffff7a5ff66
:103390000346002bfad1fb7918460837bd4680bd9d
:1033a0002004002000800041220400203c35000061
:020000040000fa
:1033b0003c040020040000000100000000000000a8
:1033c000040400202000000000000000640300202e
:1033d000500000000000000014020020c0000000a7
:1033e00000000000120200200200000000000000a7
:1033f0000000002040010000000000002c0400201c
:103400001000000001000000c0d401000001000015
:1034100030303030ed000000d40200209000000079
:103420000000000011020020010000000100000067
:103430002500000040010020d10000000000000035
:10344000240400200400000000000000b403002059
:1034500050000000000000002804002004000000cc
:1034600000000000400400200400000001000000f3
:1034700000000000000000000000000066666666b4
:020000040000fa
:1034800091f800c0f0b4bcf1000f24d00678f6b17a
:10349000b4450346074606d04678c6b1581cb44525
:1034a00003460746f8d14a7872b146789642f4d17d
:1034b000013004464a1c03e014f8015f9d42e7d145
:1034c00012f8013f002bf7d13846f0bc7047374661
:1034d0003846f0bc704707463846f0bc704700bf1e
:020000040000fa
:1034e0000e4a38b5002313600d4a0e4c13600e4a85
:1034f0000e4d13600e4a13600e4a13600e4a53625b
:1035000013610123936000f0c0f900f0bef9ac42f2
:1035100000d338bd54f8043b9847f8e7280400204e
:10352000c00300206c020000bc03002070020000f9
:0c353000b4030020b8030020c4030020f6
:020000040000fa
:10353c0095220000af220000bd220000cb2200002b
:10354c00c12300008d230000d7230000532300006b
:10355c00ed230000444953434f4e4e454354000065
:10356c0053545245414d5f4f50454e004f54415faf
:10357c00524551004f54415f53544152540000bfc7
:08358c00434f4e4e454354002d
:020000040000fa
:1035940080b582b000af78600b46fb70fb781946ab
:1035a4007868fdf769fc034618460837bd4680bdb8
:1035b40080b582b000affff779fe0023fb71502184
:1035c4000748fff7e5ff0346fb71fb79002b02d0a8
:1035d400fff78ffefce7002318460837bd4680bd81
:0435e400640300205c
:020000040000fa
:1035e800074a936823f001039360d36813f0010f2f
:1035f800fbd1034b24225a6001229a60704700bf16
:1036080000600041eff3108172b6074ad2f88830a3
:1036180043f47003c2f88830bff34f8fbff36f8f46
:1036280001b962b6704700bf00ed00e0704700bf07
:020000040000fa
:1036380008b50c4b98470c4b9847fff7e3fffff78b
:10364800cfff00f07df8094b23f07f03084a936011
:10365800084b9847084b9847084b984700f0fbf8e9
:10366800fee700bf353600003536000000000000d8
:1036780000ed00e0e134000035360000353600008a
:020000040000fa
:10368800434d443e200000bf454e440d0a0000bf94
:10369800414f4b0d0a434d443e2000bf303000bf20
:1036a8005265626f6f74696e670d0a005265626fca
:1036b8006f7420616674657220466163746f7279f5
:0836c8002052657365740d0ac0
:020000040000fa
:1036d00010b5054c227832b9044b13b10448aff34e
:1036e00000800123237010bd0404002000000000ae
:1036f0000000000008b5034b1bb103490348aff3ba
:10370000008008bd00000000080400200000000048
:020000040000fa
:1037100080b485b000aff860b9607a604ff0ff33d5
:1037200018461437bd465df8047b704780b485b0f9
:1037300000aff860b9607a604ff0ff331846143775
:08374000bd465df8047b7047f3
:020000040000fa
:1037480070b50a480a4d4ff6ff76016811b943680b
:1037580003b970bd83684268334000f10c0455f822
:1037680023302046984704eb8000eee7b033000092
:0437780038380000dd
:020000040000fa
:10377c0053b94ab9002908bf00281cbf4ff0ff31cc
:10378c004ff0ff3000f07cb8adf1080c6de904cec1
:10379c00fff77ef8ddf804e0dde9022304b07047a2
:020000040000fa
:1037ac0080b582b000af7860fef722fafff7cef951
:1037bc00fff792fc00f055f8fdf73efcfff706fb17
:0c37cc00fef7b2ff00bf0837bd4680bd0d
:020000040000fa
:1037d80080b400affee780b400affee780b400af6e
:1037e800fee780b400affee780b400affee780b428
:0437f80000affee739
:020000040000fa
:1037fc0010b50023934206d113f0030018bf01202b
:0e380c0000eb930010bdc45ccc540133f2e716
:020000040000fa
:02381a00fee7c7
:020000040000fa
:10381c005ab110b40a44431e11f8014b03f8014f7e
:0c382c009142f9d15df8044b70477047e1
:020000040000fa
:103838004d380000fd370000873800008738000049
:0438480087380000bd
:020000040000fa
:10384c000a440023914201d10020704701f8013b4a
:02385c00f8e78b
:020000040000fa
:10385e0080b500af0020fff7a2fffff7a4fefee742
:020000040000fa
:0e386e0080b400af00bfbd465df8047b70471c
:020000040000fa
:0a387c0080b483b000af7860fee76f
:020000040000fa
:043886000020704767
:020000040000fa
:02388a00704785
:020000040000fa
:04388c00704700bfc2
:020000040000fa
:0200000400807a
:044000003912003c35
:020000040000fa
:0200000400807a
:044004008000a82a66
:020000040000fa
:0200000400807a
:04400800ffffffffb8
:00000001FF
