:020000040000fa
:10000000f8ff0320f10c0000c9190000cb19000013
:10001000cf190000d1190000d31900000000000022
:10002000000000000000000000000000c5190000f2
:10003000cd19000000000000c5190000c51900001e
:10004000c5190000c5190000c5190000c519000038
:10005000c5190000c5190000c5190000c519000028
:10006000c5190000c5190000c5190000c519000018
:10007000c5190000c5190000c5190000c519000008
:10008000c5190000c5190000c5190000c5190000f8
:10009000c5190000c5190000c5190000c5190000e8
:1000a000c5190000c5190000c5190000c5190000d8
:1000b000c5190000c5190000c5190000c5190000c8
:1000c000c5190000c5190000c5190000c5190000b8
:1000d000c5190000c5190000c5190000c5190000a8
:1000e000c5190000c5190000000000000000000054
:1000f00000000000c5190000c5190000c519000066
:10010000c5190000c519000079090000790900002f
:100110007909000079090000c5190000c51900001f
:10012000c5190000c5190000c5190000c519000057
:10013000c5190000c5190000c5190000c519000047
:10014000c5190000c5190000c5190000c519000037
:10015000c5190000c51900000000000000000000e3
:10016000000000000000000000000000000000008f
:100170000000000000000000c5190000c5190000c3
:10018000c5190000c5190000c5190000c5190000f7
:1001900000000000c5190000c5190000c5190000c5
:1001a000c5190000c5190000c5190000c5190000d7
:1001b000c5190000c5190000c5190000c5190000c7
:1001c000c5190000c5190000c5190000c5190000b7
:1001d000c5190000c5190000c5190000c5190000a7
:1001e000c5190000c5190000c5190000c519000097
:1001f000c5190000c5190000c5190000c519000087
:10020000c51900000000000000000000c519000032
:10021000c5190000c5190000c5190000c519000066
:10022000c5190000c5190000c5190000c519000056
:10023000c5190000c5190000c5190000c519000046
:10024000c5190000c5190000c5190000c519000036
:10025000c5190000c5190000c5190000c519000026
:020000040000fa
:10026000f8b500bff8bc08bc9e467047d11300002b
:10027000f8b500bff8bc08bc9e467047ad1300003f
:020000040000fa
:1002800038b57b4b5b780a2b1bd8dfe813f00b00eb
:1002900025003800540064007f00a100bd00de008e
:1002a000de00de00724c216962690023e362236391
:1002b000a162626304f12801204601f0d5f8012310
:1002c00063706b4b9b7833b1694bdb691bb1684a38
:1002d0009078116a984738bd654c94f9190000f080
:1002e0001f010125c0f34a1000f5020000f58070df
:1002f00005fa01f1c00101f05bfba570e1e75c4c80
:1003000094f9190000f01f03c0f34a1000f5020031
:1003100000f5807001219940c00101f049fbe168be
:10032000207e01f063f810b103226270c9e7504be0
:1003300002229a70c5e74e4c63692269e262236328
:100340000023a362636304f12801204601f08cf8c6
:1003500004236370b5e7464b93f9190000f01f03bf
:10036000c0f34a1000f5020000f5807001219940a9
:10037000c00101f01dfb01f0b3f818b13c4b0522a0
:100380005a709ee73a4b02229a709ae7384b93f9db
:10039000190000f01f03c0f34a1000f5020000f539
:1003a000807001219940c00101f002fb314b5b7864
:1003b00013f0010f03d12e4b01229a7081e701f057
:1003c0008ff800287ff47daf294b02229a7078e7de
:1003d000274c94f9190000f01f03c0f34a1000f5f0
:1003e000020000f5807001219940c00101f0e0fa9f
:1003f000e168207e00f0faff10b10422627060e72d
:100400001b4b02229a705ce7194c94f9190000f01a
:100410001f010125c0f34a1000f5020000f58070ad
:1004200005fa01f1c00101f0c3fa134b98221a70ca
:10043000e36225630023a362636304f1280120467d
:1004400001f012f8082363703be7094c94f9190096
:1004500000f01f010125c0f34a1000f5020000f56d
:10046000807005fa01f1c00101f0a2faa57028e739
:0c0470008c8400203085002020850020b6
:020000040000fa
:10047c00f08400202000000000000000000000209c
:10048c0034800000000000005485002004000000af
:10049c00000000008c8400203800000000000000e8
:1004ac001085002030000000000000006c8500204a
:1004bc000100000000000000c48400202c0000009b
:1004cc00000000005885002008000000000000001b
:1004dc003c840020500000000000000070850020cb
:1004ec006c000000010000007c8500207885002055
:1004fc007c85002000000000250000003c800020ce
:10050c0000040000000000000000000000000000db
:10051c0000000000000000000000000000000000cf
:10052c0000000000bd1900000000000000000000e9
:10053c0000000000000000006d0f00000000000033
:10054c00000000000000000000000000000000009f
:10055c0000000000348000200804000000000000af
:10056c003c8600202000000001000000010000007b
:10057c00030000000000000000000000000000006c
:10058c0000000000000000004c8500204c8500207d
:10059c00080000000000000060850020040000003e
:1005ac0000000000dc85002060000000010000005d
:1005bc00010000000300000000000000000000002b
:1005cc000000000000000000000000008910000086
:1005dc00000000000000000000000000a519000051
:1005ec00db1900000000000000000000000000000b
:1005fc0000000000000000000000000000000000ef
:10060c0000000000000000000000000000000000de
:10061c005c860020040000000100000001000000c6
:10062c0064850020080000000000000040850020c8
:10063c000c000000000000000000000000000000a2
:020000040000fa
:10064c0010b5654b1b780a2b00f2be80dfe803f077
:10065c00060f1b2f3852657f91a1b100002001f0cd
:10066c0079f902282bd15c4b01221a7027e0032167
:10067c00002000f09dfa584b5860b0f1ff3f1ed09f
:10068c0002221a701be0554b194653f8040c00f06b
:10069c006dfb18b9504b0b221a7010e00023504a16
:1006ac001360504a13604c4b03221a7007e04a4cfb
:1006bc004b4b1968606801f033f80423237010bdac
:1006cc00454b586801f0ecf8012805d00228f6d10a
:1006dc00414b0b221a70f2e7414a3f4b1b6a1168df
:1006ec000b441360b3f5804f3b4b34bf0322052200
:1006fc001a70e4e73b4b1a6802f580413431364bf3
:10070c001944586800f0defd18b9334b0b221a70ef
:10071c00d5e7314b06221a70d1e72f4b586801f000
:10072c00bff8012805d00228c9d12b4b0b221a7017
:10073c00c5e72c4a284b5b6911680b441360b3f571
:10074c00804f254b34bf052207221a70b7e7264885
:10075c0000234ff48042014650f8300c00f03afd73
:10076c0018b91d4b0b221a70a9e71b4b08221a70e3
:10077c00a5e7194b586801f093f8012805d0022819
:10078c009dd1154b0b221a7099e7134b09221a7045
:10079c0095e715484ff480420146104401f01ef8cd
:1007ac0018b90d4b0a221a7089e70b4b0b221a70e1
:1007bc0085e7094c606801f02df80c2323700b4b76
:1007cc004ff480425a617ae7034c606801f022f8da
:1007dc000c23237073e700bf0000002008000020ea
:1007ec000c8500205485002034000020008000413e
:020000040000fa
:1007fc0030b45c4c247f002c40f0ad80054604f0f6
:10080c00ff0000294cd0002d4ad0574c646804f0ee
:10081c000704012c61d053480560426000244461f8
:10082c00846104614f488160002a5cd04d4ad360da
:10083c004c4a012111774c4a127e12f0040f05d05c
:10084c00494a916a117e11f0040ffad1464a518b34
:10085c0041f004015183117e41f080011176414930
:10086c008a68c968914203d93e48c168891a0161f6
:10087c003d49496811f0070f45d13a4989699142c0
:10088c0035d2384a11680878374988629169013144
:10089c009161002b5bd0344b04229a7501205be0f4
:1008ac00002b59d0002a57d02f4c646804f0070451
:1008bc00012c0cd02b4805604260002444618461fb
:1008cc000461002daed1274900208860ace70029d7
:1008dc0044d113f0010fedd03ee011f0010f3bd1ec
:1008ec00002be7d0f5e71f4a0021d160a0e71d4a95
:1008fc001269002acdd01c4aff21916219490a695c
:10090c00013a0a61c5e7174a916849089160116973
:10091c0049081161d1684908d160916892698a428d
:10092c0008d2104a116808880f4988629169013110
:10093c009161aee70b4a1269002aaad00a4a4ff617
:10094c00ff71916207490a69013a0a61a1e7012026
:10095c00054b987500e0002030bc704711f0010f7a
:0c096c00b7d0f9e7c4840020003400403c
:020000040000fa
:10097800524b586a524b9b7d002b00f09d8070b5fe
:100988004f494c6804f007044c4b5a699d699e68ae
:100998000b7e13f0040f56d0896a484bdb689342ec
:1009a80051d9002c41d1454b5b6899540132444bd5
:1009b8001b7e13f0010f15d0414b012119753f4bd8
:1009c8009b68ab4255d93d4b1b68595d3c4b9962be
:1009d80001353a4b1b690bb9b54263d0374bdb681d
:1009e800934263d0354b5a619d61354b1b7e13f0a2
:1009f800020f13d0334b1b78b3b1304bdb689342f3
:100a08000fd12e4b00221a772d4907240c752d493a
:100a18000a701b6a43b1294b1b6a9847294b1b78fc
:100a280013b1274b02229a7570bd244b5b6823f8db
:100a380012100132224b1b7e13f0010fd2d0204b33
:100a48000121197509e01e4b1b7e13f0010fc9d057
:100a58001b4b01211975002cb1d0184b9b68ab4278
:100a680013d9164b1b6833f81510154b99620135cd
:100a7800afe7124b1b69002babd0114bff219962da
:100a88000e490b69013b0b61a3e70c4b1b69002b5b
:100a98009fd00b4b4ff6ff71996208490b69013bd8
:100aa8000b6196e7074b012119709be7044b012165
:100ab80099750421197595e7704700bfc484002013
:080ac800003400406c850020a1
:020000040000fa
:100ad000334b00221a7403f50063324a9a621a46b5
:100ae000536813f0100ffbd12f4b4222c3f8842020
:100af0001a4600bfd2f8843013f0400ffad02b4bc7
:100b000000229a6377225a631a46d36b13f0040fbc
:100b1000fbd1264b022283f830201a46d36b13f008
:100b2000020ffbd1214a136c03f00303032bfad10c
:100b30001f4b01225a711a46d37813f0010ffbd0d4
:100b4000194b1c4a1a621a46536813f0040ffbd162
:100b5000154b194a5a621a46536813f0080ffbd115
:100b6000114b4122c3f8a0201a4600bfd2f8a03092
:100b700013f0400ffad00c4b4122c3f80c211a4657
:100b8000d2f80c3113f0400ffad0094b6ff07f42ce
:100b90001a6142f2ff725a6102221a62704700bf64
:100ba0000014004006013000001c0040001000400e
:0c0bb000000800400701010007010200de
:020000040000fa
:100bbc0038b5274b93f90330022b3fd1244b9b685c
:100bcc00002b3ed10d460446214883700923437007
:100bdc00204b66221a70c3620123036300f12801c3
:100bec0000f03cfc1a4a9378002bfcd018480023e8
:100bfc00837009224270174a99211170c262836274
:100c0c0001220263436300f1280100f027fc104a23
:100c1c009378002bfcd015f0020f06d10c4b9a6880
:100c2c0001329a601d7120460ae0204600f0f8fb64
:100c3c0050b1074a9378002bfcd0efe74ff0ff3010
:100c4c0038bd4ff0ff30fbe74ff0ff30f8e700bf47
:080c5c008c840020208500209b
:020000040000fa
:100c64002de9ff41836946690093f61acde90161d4
:100c740004461746039216444ff002086d46424656
:100c84002946206800f0fffcb04209d1d4e90232c1
:100c9400c4e905331a44a262384604b0bde8f081c1
:100ca40000280dda6268002342f01002b8f1020f46
:100cb400a362c4e90533626015d06b68ff1aebe7e1
:100cc4006b68984288bf0835a6eb000688bfc01a37
:100cd4002b6803442b606b68a3eb000088bf08f10a
:0a0ce400ff386860cbe71f46d6e733
:020000040000fa
:020cee0070474d
:020000040000fa
:100cf00008b5194b9847194b9847eff3108172b616
:100d0000174ad2f8883043f47003c2f88830bff332
:100d10004f8fbff36f8f01b962b6124a936823f009
:100d2000010393601346da6812f0010ffbd10d4bfb
:100d300024225a6001229a6000f006fc0a4b23f03c
:100d40007f03074a9360094b9847094b9847094b23
:100d5000984700f095fdfee7c7190000c71900008d
:100d600000ed00e000600041000000002d100000d8
:080d7000c7190000c7190000bb
:020000040000fa
:100d780010b50c461d4900f007fa034670b11b4b2d
:100d8800db78012b12d0412b0ad0022b0ad0422b40
:100d98000ad0432b08bf042209d00023184610bdef
:100da800012204e0022202e0032200e00022104bac
:100db80003ebc2035a68b2f5805f15d3131c18bf42
:100dc80001230121216062604ff48070e060100a05
:100dd80020614ff48050a061120be261a160616153
:100de800216200226262d9e70023d7e7108500203c
:040df800dc16000005
:020000040000fa
:100dfc00f0b51f4c2568a446002d36d0002229469c
:100e0c0016461346d1f800e00f6986450ad132b177
:100e1c00176101f110031846f0bd3946f2e7ccf822
:100e2c000070f6e705d9ebb11c68a6453cbf164629
:100e3c000b460a46002ff0d1002becd019461f6947
:100e4c0051f8102b121a102a05d918600844103ac0
:100e5c000761026007469d420cbfccf800703761f9
:100e6c000b46d8e716460b46e3e72b46d3e700bf05
:040e7c006485002069
:020000040000fa
:100e8000f8b5846a05460f46164654b1ab6a6a69de
:100e90009b1ab3420bd2324639462846fff7e2fe90
:100ea000f8bd00f0d5fc0028f0d02046f8e7002e71
:100eb000f1d095f93430002b1bdbdbb23446621ed7
:100ec000b95c994212d1224639462846fff7cafe3c
:100ed000a042e5d32744341b22463946686900f016
:100ee00091fc6b691c446c613046d9e71446002aba
:060ef000e5d13446f0e7f5
:020000040000fa
:020ef600704743
:020000040000fa
:100ef8001a4bda6822f4e0621204120c42f0bf6264
:100f080042f40032da60bff35f8f62b6144ae02120
:100f180082f832134ff48020506082f833134ff474
:100f28000020506082f834134ff48010506082f82b
:100f380035134ff4001151605a6a42f480225a6204
:100f48005a6942f010025a615a6a42f400325a62ef
:100f58005a6a42f480325a62704700bf00ed00e0de
:040f680000e100e0c4
:020000040000fa
:100f6c007fb5c36800911546002b18bf013a01925a
:100f7c0082680446cde902230e46022269460068c7
:100f8c0000f068fb002808dc00f0180383f008026e
:100f9c0063681343636005460fe0019a8242fad2fc
:100fac00a368e363801ae268184420642ab15a1ccf
:100fbc00e2632e441b7806f8013c284604b070bd51
:020000040000fa
:100fcc0037b5154d2b68044673b100f0cbfb01907f
:100fdc0001a800f05afc0f30019920f00f0000f02e
:100fec003dfc60b100232b60002c08bf01240f34a2
:100ffc0034f00f0405d1094b0c221a60204603b0c3
:10100c0030bd042c38bf04242046fff7f1fe002825
:10101c00f5d040f8044cf2e75c860020688500208f
:020000040000fa
:10102c000e4a38b5002313600d4a0e4c13600e4a5d
:10103c000e4d13600e4a13600e4a13600e4a536233
:10104c0013610123936000f07dfc00f0befcac4208
:10105c0000d338bd54f8043b9847f8e7608500206e
:10106c00488400206c0200004484002070020000c0
:0c107c003c840020408400204c840020b4
:020000040000fa
:1010880038b50d46044608b9002038bd43689b06ac
:1010980007d5d0e905239a4216d80023c4e90533b9
:1010a800a362d4e90f13994204d20122c91a206815
:1010b80000f082fc0023c4e90f33002de4d020683f
:1010c800bde8384000f06dbc0022c36a114698475d
:0c10d8006369002be1d14ff0ff30d6e738
:020000040000fa
:1010e40008b500f01bfc104b1b680021186800f0c9
:1010f40025fc0e4b1b680021186800f01ffc00f053
:1011040095f8fff7e3fcfff7f0fd00f0c9f9fff7ee
:10111400f0fe00f0fdf90649002000f00df8054b43
:101124001860fff7e7fe08bd74850020588600208c
:08113400941900005885002009
:020000040000fa
:10113c00134b1b7803bb70b50646114ce3700125ad
:10114c002570a36091f904306376204600f0b2fb61
:10115c0094f9193003f01f01c3f34a1303f502038a
:10116c0003f5807305fa01f1d80100f01bfca570a2
:10117c000223e370304670bd4ff0ff30704700bf64
:04118c008c8400202f
:020000040000fa
:10119000b0f1ff3f1dd008b50f4b9b780bb9002075
:1011a00008bd0d48002383700a2343700b4b9f2218
:1011b0001a70c3620123036381620423436300f155
:1011c000280100f051f9044a9378002bfcd001204b
:1011d000e6e70020704700bf8c84002020850020b7
:020000040000fa
:1011e000b0f1ff3f1ad0d9b1e2b11048807808b908
:1011f000002318e010b508460c4900248c704a61a1
:101200000861cb604c7019460b2000f0eff80346e4
:1012100010b9064a02219170184610bd002302e061
:10122000002300e000231846704700bf8c84002094
:020000040000fa
:10123000124b4ff488221a604ff498221a61002151
:1012400083f84e10062283f84f20012283f85020a5
:1012500083f8512083f8521083f8532083f8371015
:10126000222183f83810202083f8390083f8d02019
:1012700083f8d12083f8b810704700bf0080004188
:020000040000fa
:1012800010b370b506460d4600f078f9d5b10024cc
:101290000e4a137e13f0040ffbd0538b13f0070f8d
:1012a0000bd1536803f00703012b936a14bf335526
:1012b00026f814300134a542ebd1a54214bf00201a
:1012c000012070bd2c46f8e7002070470004004361
:020000040000fa
:1012d000b0f1ff3f1bd0e1b10f4b9b7813b9002356
:1012e0001846704710b50c4b0020987002201876f5
:1012f0004ff480745c611961da60587000f06ef927
:10130000034610b9044a02219170184610bd00230b
:0c131000e6e70023e4e700bf8c84002027
:020000040000fa
:10131c00022a70b5044616461d461ad043689b0631
:10132c0017d441b9002d08bf4ff4806505f10800b2
:10133c00fff746fe01466368012e43f0200363600d
:10134c00c4e9021514bfff230a2384f83430024b7e
:0c135c00e362002070bd00bf810e0000a5
:020000040000fa
:10136800d0b110b40446c9b1084421460c4a6442bd
:10137800137e13f0010ffbd0536803f00703012b12
:1013880014bf0b7834f81130936201318142efd1e8
:1013980001205df8044b7047002070470120f8e7f2
:0413a80000040043fa
:020000040000fa
:1013ac0010b5054c227832b9044b13b10448aff395
:1013bc0000800123237010bdf08400200000000089
:1013cc000000000008b5034b1bb103490348aff301
:1013dc00008008bd00000000f48400200000000024
:020000040000fa
:1013ec0008b50d4b18700a0c5a700a0a9a70d9700d
:1013fc000b2803bfff221a71052304230748064a52
:10140c00c262036300238362436300f1280100f08e
:10141c0025f8012008bd00bf208500208c84002009
:020000040000fa
:10142c0008b5b0f1ff3f15d00b4b9b7813b90023d7
:10143c00184608bd084b00229a7098221a7607228b
:10144c005a7000f0c5f803460028f1d1024a022177
:0c145c009170ede70023ebe78c8400208a
:020000040000fa
:1014680070b505460c4690f9190000f01f010126d9
:10147800c0f34a1000f5020000f5807006fa01f189
:10148800c00100f093fa0023ab706b6a1d68e36833
:0c1498002268a1686068a847304670bd5b
:020000040000fa
:1014a4000b4b00221a621a779a60da60094b4ff4e8
:1014b40000325a601a46d369002bfcd1054b1d2219
:1014c4001a73054a1a601a46d369002bfcd1704777
:0c14d400c4840020003400400e003000f2
:020000040000fa
:1014e00010b5094b00225a70084a052111700848ae
:1014f000c2620124046383620223436300f1280172
:10150000fff7b2ff204610bd308500202085002067
:041510008c840020a7
:020000040000fa
:101514000a4b0b4a1a604ff622029a814ff440326a
:101524005a601a46d369002bfcd1044a136843f06d
:1015340002031360d369002bfcd1704700040043fd
:04154400040110404e
:020000040000fa
:1015480070b50a480a4d4ff6ff76016811b943682d
:1015580003b970bd83684268334000f10c0455f844
:1015680023302046984704eb8000eee77c04000017
:04157800d418000083
:020000040000fa
:10157c000a4b5b8b13f0070f0ed0084b80221a76a8
:10158c0007225a831b7e13f0040f05d0034b9a6a73
:10159c001a7e12f0040ffad1704700bf000400430a
:020000040000fa
:1015ac00064b1a680ab9064a1a60064a116809b944
:1015bc00054911601a68054b1a6070474885002070
:1015cc006886002044850020688800204085002023
:020000040000fa
:1015dc0010b5084b06221a700748c36200238362b9
:1015ec0001240463436300f12801fff737ff204611
:0c15fc0010bd00bf208500208c84002062
:020000040000fa
:10160800084b9a68187fc0b2db68134307d0064bb3
:101618001b7e03f00203002b08bf01207047002047
:0c162800704700bfc48400200034004064
:020000040000fa
:1016340010b5084c23680bb9fff7b6ff06492268ba
:1016440009681044814234bf4ff0ff3220601046d5
:0c16540010bd00bf408500204485002030
:020000040000fa
:101660002de9f0410024804617460e462546bd422e
:1016700002db2046bde8f081726856f8081b404640
:0a16800000f086f801350444f1e79c
:020000040000fa
:10168a002de9f0410024804617460e462546bd4204
:10169a0002db2046bde8f081726856f8081b404616
:0a16aa0000f08ff801350444f1e769
:020000040000fa
:1016b40008b5084b00229a701876d96006225a7031
:1016c400fff78aff034610b9024a022191701846b7
:0816d40008bd00bf8c8400205a
:020000040000fa
:1016dc00010000000000200041000000000020007c
:1016ec00020000000000400042000000000040002a
:0816fc00430000000000800023
:020000040000fa
:1017040090f948305a1e1343426880f8483012f06a
:1017140004031bbf42f010024260c0e90f334ff0d4
:08172400ff3008bf18467047b2
:020000040000fa
:10172c00b0f1ff3f09d008b5054b9b780bb90020f1
:10173c0008bd2020fff7b8fffae70020704700bf74
:04174c008c84002069
:020000040000fa
:101750000023054a1370054a02f8013f0133b3f52f
:10176000804ff9d1704700bf0000002033400020b7
:020000040000fa
:1017700010b5054c22680ab9fff718ff034b18682b
:101780002368c01a10bd00bf40850020448500209a
:020000040000fa
:1017900038b550b952b10c46012529462046fff70d
:0e17a0006ffd0028f9d0012000e0002038bdc8
:020000040000fa
:1017ae0010b50023934206d113f0030018bf012099
:0e17be0000eb930010bdc45ccc540133f2e785
:020000040000fa
:1017cc0038b50d461446012801d0204638bd2146b7
:0c17dc002846fff7c3fd0028f9d0f6e70f
:020000040000fa
:1017e80030b501390024a24206d0035d01340d5df5
:0c17f800ab42f8d0581b00e0002030bdd0
:020000040000fa
:101804005ab110b40a44431e11f8014b03f8014fb6
:0c1814009142f9d15df8044b7047704719
:020000040000fa
:10182000b0f1ff3f05d0034b9b6813b1013b014a68
:08183000936070478c840020d6
:020000040000fa
:10183800fd070000791900003119000009160000a1
:08184800000000006d19000012
:020000040000fa
:1018500010b50446fff756ff28b9a368e268c4e94b
:0818600005331344a36210bd1f
:020000040000fa
:10186800044a136823b910600361016001207047be
:08187800002070476485002088
:020000040000fa
:1018800008b50020fff72efc00f07cf800f0a2f86d
:0618900000f07cf8fae70d
:020000040000fa
:101896000068002808b501da002008bdfff7c7fe7a
:0618a600431cfad1f8e733
:020000040000fa
:1018ac00b0f1ff3f1dbf024b9878c0b202207047c9
:0418bc008c840020f8
:020000040000fa
:1018c00008b50b6843625b6901460148984708bd4b
:0418d000fd180000ff
:020000040000fa
:1018d4000f190000af170000b9190000b919000072
:0418e400b91900002e
:020000040000fa
:1018e80008b500f057f8024b1860586008bd00bff3
:0418f8004c850020fb
:020000040000fa
:1018fc0008b50023436303638362c362fef7bafc3b
:02190c0008bd14
:020000040000fa
:10190e000a440023914201d10020704701f8013ba7
:02191e00f8e7e8
:020000040000fa
:10192000024b40f204521a80704700bf0040004151
:020000040000fa
:1019300008b50b46024600210846fef75fff08bdca
:020000040000fa
:1019400000294ff480630cbf02220022fff7e6bc9f
:020000040000fa
:1019500008b5fff7c9ff00f03ff800f03df808bdfb
:020000040000fa
:0c196000014b93f9030070478c840020b9
:020000040000fa
:0c196c00014b186259627047c4840020cf
:020000040000fa
:0c19780008b500231a46fef73dff08bd2d
:020000040000fa
:0819840008b5fff7e3fe08bd02
:020000040000fa
:08198c0008b5fef75dfe08bd81
:020000040000fa
:081994003818000012000000e9
:020000040000fa
:08199c0000487047dc850020c3
:020000040000fa
:0619a4000068fff711bf0f
:020000040000fa
:0619aa004ff0ff30704712
:020000040000fa
:0419b000816170479a
:020000040000fa
:0419b40041617047d6
:020000040000fa
:0419b8000020704754
:020000040000fa
:0419bc000020704750
:020000040000fa
:0419c000002070474c
:020000040000fa
:0219c400fee73c
:020000040000fa
:0219c600704768
:020000040000fa
:0219c800fee738
:020000040000fa
:0219ca00fee736
:020000040000fa
:0219cc00fee734
:020000040000fa
:0219ce00fee732
:020000040000fa
:0219d000fee730
:020000040000fa
:0219d200fee72e
:020000040000fa
:0219d40070475a
:020000040000fa
:0219d600704758
:020000040000fa
:0219d800704756
:020000040000fa
:0219da00704754
:020000040000fa
:0200000400807a
:044000003912003c35
:020000040000fa
:0200000400807a
:044004008000a82a66
:020000040000fa
:0200000400807a
:04400800ffffffffb8
:00000001FF
