:020000040000fa
:020000040040ba
:10000000f0ff452089014000a70b40001d0c400077
:10001000210c4000230c4000250c40000000000093
:100020000000000000000000000000007f0b400006
:100030001f0c4000000000007f0b40007f0b4000c1
:100040007f0b40007f0b40007f0b40007f0b400088
:100050007f0b40007f0b40007f0b40007f0b400078
:100060007f0b4000000000007f0b40007f0b400032
:100070007f0b400019084000b50740007f0b40008f
:100080007f0b40007f0b40007f0b40007f0b400048
:100090007f0b40007f0b40007f0b40007f0b400038
:1000a0007f0b40007f0b40007f0b40007f0b400028
:1000b0007f0b40007f0b40007f0b40007f0b400018
:1000c0007f0b40007f0b40007f0b40007f0b400008
:1000d0007f0b40007f0b40007f0b40007f0b4000f8
:1000e0007f0b40007f0b40007f0b40007f0b4000e8
:1000f0007f0b40007f0b40007f0b40007f0b4000d8
:100100007f0b40007f0b40007f0b40007f0b4000c7
:100110007f0b400000000000000000000000000015
:100120007f0b40007f0b40007f0b40007f0b4000a7
:100130007f0b40007f0b4000000000007f0b400061
:100140007f0b40007f0b40007f0b40007f0b400087
:100150007f0b40007f0b40007f0b40007f0b400077
:080160007f0b40007f0b400003
:020000040000fa
:020000040040ba
:10016800f8b500bff8bc08bc9e4670475d09400062
:10017800f8b500bff8bc08bc9e4670473909400076
:020000040000fa
:020000040040ba
:1001880008b5374b9847374b9847eff3108172b64d
:10019800354ad2f8883043f47003c2f88830bff388
:1001a8004f8fbff36f8f01b962b6304b304a5a6038
:1001b8009a6812f0010ffbd02c4bdb6813f4c07f58
:1001c80013d02c4b0c221a60284b2b4a5a609a6881
:1001d80012f0010ffbd0254b284a5a609a6812f09a
:1001e800010ffbd0264b274a1a60bff34f8fbff38e
:1001f8006f8f1d4cd4f8903223f00103c4f890326d
:10020800d4f8943223f00103c4f89432bff34f8f2b
:10021800bff36f8f00f02cfc1b4b23f07f03a36010
:100228001a4b9847636913f4003f12d1bff34f8ffd
:10023800bff36f8f0022c4f85022bff34f8fbff374
:100248006f8f626942f400326261bff34f8fbff370
:100258006f8f0f4b98470f4b984700f07ff8fee7da
:10026800270c4000270c400000ed00e0000c0e4079
:100278000d00005ad40040200c08005a0c07005a00
:1002880000180e40010000a500004000dd084000f5
:08029800270c4000270c400078
:020000040000fa
:020000040040ba
:1002a0002e4b0022c3f81421d3f8141141f0100191
:1002b000c3f814112a494ff400134b606ff4001374
:1002c0000b604ff0ff334b650b66c1f89030c1f8ff
:1002d000a0300a614b618a63c1f8182101f50071f1
:1002e000102008671320486748606ff0130008600b
:1002f0004b650b66c1f89030c1f8a0300a614b61c4
:100300008a63c1f8182101f500710b604b650b661b
:10031000c1f89030c1f8a0300a614b618a63c1f81e
:10032000182101f500710b604b650b66c1f8903028
:10033000c1f8a0300a614b618a63c1f8182101f548
:1003400000710b604b650b66c1f89030c1f8a030ae
:100350000a614b618a63c1f8182170470080084028
:04036000000e0e403d
:020000040000fa
:020000040040ba
:1003640080b582b0002000f0e3fb00f09dfb00218b
:10037400244800f01ffc0021234800f021fc002148
:10038400224800f023fc0021214800f025fc012133
:100394000df1070000f00efb01210df1070000f044
:1003a40049fb1c4f1c4e1d4d1d4c1ee000233b7091
:1003b40001210df1070000f075f819e000233370f6
:1003c40001210df1070000f035fb14e000232b7030
:1003d40001210df1070000f0a1f80fe000232370c4
:1003e40001210df1070000f0e5fa3b78002bddd187
:1003f4003378002be2d12b78002be7d12378002b24
:10040400f3d0ebe7e90b4000010c4000f50b400092
:100414000d0c4000e2004020e5004020e4004020b4
:04042400e300402091
:020000040000fa
:020000040040ba
:10042800b80040201c0000000000000050004020e0
:100438006800000000000000d40040200400000014
:1004480000000000e200402004000000000000005e
:10045800e00040200200000000000000e60040200c
:100468000100000000000000d80040200400000047
:1004780000000000000040205000000000000000c4
:10048800dc00402004000000000000000000000024
:10049800000000006666666666666666666666668c
:020000040000fa
:020000040040ba
:1004a800002830d010b40446194b1b7d002b2cd1ea
:1004b800174b1860596000229a6001221a75586813
:1004c8009b68144a526912f0020f13d0984211d94e
:1004d80010494a6812f4003f14bf34f81320e25c54
:1004e800c2f30802ca6101334a6912f0020f01d04f
:1004f8009842eed8064a9360064b02229a60012081
:100508005df8044b7047002070470020f8e700bff3
:08051800500040200080024069
:020000040000fa
:020000040040ba
:10052000002830d010b40446194b1b7d002b2cd171
:10053000174b1860596000229a6001221a7558689a
:100540009b68144a526912f0020f13d0984211d9d5
:1005500010494a6812f4003f14bf34f81320e25cdb
:10056000c2f30802ca6101334a6912f0020f01d0d6
:100570009842eed8064a9360064b02229a60012008
:100580005df8044b7047002070470020f8e700bf7b
:080590008400402000400240fd
:020000040000fa
:020000040040ba
:1005980038b51a4b1c681d681b7d002b2cd0174bd7
:1005a80058689b68164a526912f0020f13d0984295
:1005b80011d913494a6812f4003f14bf35f81320c3
:1005c800e25cc2f30802ca6101334a6912f0020f01
:1005d80001d09842eed8094a9360936883420bd3be
:1005e800134600221a75064a0221d160db681bb146
:1005f800024b1869db68984738bd00bf500040209f
:04060800008002402c
:020000040000fa
:020000040040ba
:10060c0038b51a4b1c681d681b7d002b2cd0174b62
:10061c0058689b68164a526912f0020f13d0984220
:10062c0011d913494a6812f4003f14bf35f813204e
:10063c00e25cc2f30802ca6101334a6912f0020f8c
:10064c0001d09842eed8094a9360936883420bd349
:10065c00134600221a75064a0221d160db681bb1d1
:10066c00024b1869db68984738bd00bf84004020f6
:04067c0000400240f8
:020000040000fa
:020000040040ba
:1006800070b5174b9d699e6993f82c303bb3144ba2
:10069000dc691b6a13494a6912f0010f0dd09c42b4
:1006a0000bd98a69c2f30802486810f4003f14bfee
:1006b00026f81320ea540133ede7094a1362136a5e
:1006c000a3420cd31346002283f82c20054ae121d3
:1006d000d1605b6a1bb1024b986a5b6a984770bd38
:0806e0005000402000800240a0
:020000040000fa
:020000040040ba
:1006e80070b5174b9d699e6993f82c303bb3144b3a
:1006f800dc691b6a13494a6912f0010f0dd09c424c
:100708000bd98a69c2f30802486810f4003f14bf85
:1007180026f81320ea540133ede7094a1362136af5
:10072800a3420cd31346002283f82c20054ae1216a
:10073800d1605b6a1bb1024b986a5b6a984770bdcf
:08074800840040200040024043
:020000040000fa
:020000040040ba
:10075000164b174a9a629a6e12f0020ffbd0134a98
:10076000136b23f07003136313469a6e12f0080f95
:10077000fbd00e4a136b23f4407343f4807313636e
:1007800013469a6e12f0080ffbd0084a136b23f041
:10079000030343f00203136313469a6e12f0080f2b
:1007a000fbd0024b4ff45f321a61704700060e40d7
:0407b000013f1820cd
:020000040000fa
:020000040040ba
:1007b40010b5164b5b6913f0e0030fd1134b5b6963
:1007c40013f0010f1bd1114b5b6913f0020f04d01e
:1007d4000e4b1b6913f0020f14d110bd0c4c236394
:1007e40000f07af9094be122da60002384f82c3016
:1007f400636a002be2d0a06a636a9847dee7fff7da
:100804003dffe0e7fff7c6fee7e700bf00800240d8
:040814005000402030
:020000040000fa
:020000040040ba
:1008180010b5164b5b6913f0e0030fd1134b5b69fe
:1008280013f0010f1bd1114b5b6913f0020f04d0b9
:100838000e4b1b6913f0020f14d110bd0c4c23632f
:1008480000f05ef9094be122da60002384f82c30cd
:10085800636a002be2d0a06a636a9847dee7fff775
:100868003fffe0e7fff7cefee7e700bf00400240aa
:040878008400402098
:020000040000fa
:020000040040ba
:10087c00144bd96821f4e0610904090c124a0a43ab
:10088c00da60bff35f8f62b6104ae02182f80d1375
:10089c004ff40050106082f80e134ff48041116039
:1008ac005a6a42f480225a625a6942f010025a6122
:1008bc005a6a42f400325a625a6a42f480325a62dc
:1008cc00704700bf00ed00e00000fa0500e100e019
:020000040000fa
:020000040040ba
:1008dc000e4a38b5002313600d4a0e4c13600e4ab5
:1008ec000e4d13600e4a13600e4a13600e4a53628b
:1008fc0013610123936000f091f900f08ff9ac4281
:10090c0000d338bd54f8043b9847f8e7dc0040208e
:10091c000c00402074014000080040207801400089
:0c092c000000402004004020100040208b
:020000040000fa
:020000040040ba
:1009380010b5054c227832b9044b13b10448aff313
:1009480000800123237010bdb80040200000000083
:100958000000000008b5034b1bb103490348aff37f
:10096800008008bd00000000bc004020000000001e
:020000040000fa
:020000040040ba
:100978000d4b4ff486721a6050221a604ff40c62c5
:100988005a604ff474721a62084b00229a61da6155
:100998001a6283f82c205a621a605a609a601a7593
:1009a800da601a63704700bf0080024050004020a0
:020000040000fa
:020000040040ba
:1009b800b8b138b505460c4a92f82c200ab1002087
:1009c80038bd0c4600f086f8074b00221a639d617b
:1009d800dc611a62012083f82c00044be1229a6042
:1009e800eee70020704700bf500040200080024022
:020000040000fa
:020000040040ba
:1009f8000d4b4ff486721a6050221a604ff40c6245
:100a08005a604ff474721a62084b00229a61da61d4
:100a18001a6283f82c205a621a605a609a601a7512
:100a2800da601a63704700bf00400240840040202b
:020000040000fa
:020000040040ba
:100a3800b8b138b505460c4a92f82c200ab1002006
:100a480038bd0c4600f05cf8074b00221a639d6124
:100a5800dc611a62012083f82c00044be1229a60c1
:100a6800eee70020704700bf8400402000400240ad
:020000040000fa
:020000040040ba
:100a780070b50a480a4d4ff6ff76016811b9436808
:100a880003b970bd83684268334000f10c0455f81f
:100a980023302046984704eb8000eee72804400006
:040aa800800b40007f
:020000040000fa
:020000040040ba
:100aac00084a4ff455731380074902230b70074b08
:100abc0000201860128809780a431a6250221a60c2
:100acc00704700bfe0004020e6004020004002409c
:020000040000fa
:020000040040ba
:100adc00094b5b6913f0e00f0dd0074b4ff480729c
:100aec001a605b6913f0010f05d0034b9a695a69c0
:0c0afc0012f0010ffad170470080024098
:020000040000fa
:020000040040ba
:100b0800094b5b6913f0e00f0dd0074b4ff480726f
:100b18001a605b6913f0010f05d0034b9a695a6993
:0c0b280012f0010ffad1704700400240ab
:020000040000fa
:020000040040ba
:100b340008b500f037f8fff709fefff7affb4ff4f5
:100b44000043054a5360b03a5360fff713fffff7c1
:0c0b540051fffff791fe08bd00190e4094
:020000040000fa
:020000040040ba
:100b600010b50023934206d113f0030018bf0120f3
:0e0b700000eb930010bdc45ccc540133f2e7df
:020000040000fa
:020000040040ba
:020b7e00fee790
:020000040000fa
:020000040040ba
:100b8000950b4000610b4000190c4000190c40000f
:040b9000190c4000fc
:020000040000fa
:020000040040ba
:100b94000a440023914201d10020704701f8013b2f
:020ba400f8e770
:020000040000fa
:020000040040ba
:020ba600fee768
:020000040000fa
:020000040040ba
:100ba800014b024a1a607047000c0e400006000410
:020000040000fa
:020000040040ba
:0c0bb800014bd8601961704750004020cc
:020000040000fa
:020000040040ba
:0c0bc400014b58629962704750004020bd
:020000040000fa
:020000040040ba
:0c0bd000014bd860196170478400402080
:020000040000fa
:020000040040ba
:0c0bdc00014b5862996270478400402071
:020000040000fa
:020000040040ba
:0c0be800014b01221a707047e50040200c
:020000040000fa
:020000040040ba
:0c0bf400014b01221a707047e300402002
:020000040000fa
:020000040040ba
:0c0c0000014b01221a707047e4004020f4
:020000040000fa
:020000040040ba
:0c0c0c00014b01221a707047e2004020ea
:020000040000fa
:020000040040ba
:040c18000020704701
:020000040000fa
:020000040040ba
:020c1c00fee7f1
:020000040000fa
:020000040040ba
:020c1e00fee7ef
:020000040000fa
:020000040040ba
:020c2000fee7ed
:020000040000fa
:020000040040ba
:020c2200fee7eb
:020000040000fa
:020000040040ba
:020c2400fee7e9
:020000040000fa
:020000040040ba
:020c2600704715
:020000040000fa
:020000040040ba
:020c2800704713
:020000040000fa
:02000004d0002a
:0400000002000000fa
:00000001FF
