:020000040000fa
:10000000f03f0020511800007f190000bb1a0000cb
:1000100000000000000000000000000000000000e0
:10002000000000000000000000000000d7150000e4
:100030000000000000000000d7150000d7150000e8
:10004000d7150000d7150000351b0000d71500009c
:10005000d7150000d7150000d71500006115000066
:10006000d7150000d7150000d71500005113000068
:10007000d7150000d7150000d7150000d7150000d0
:10008000d7150000d7150000d7150000d7150000c0
:10009000d7150000d7150000d7150000d7150000b0
:1000a000d7150000d715000067070000670700009c
:1000b0006707000067070000d7150000d71500008c
:1000c000d7150000d7150000d7150000d715000080
:1000d000d7150000d7150000d7150000d715000070
:1000e000d7150000d7150000d7150000d715000060
:0400f000d715000020
:020000040000fa
:1000f400f8b5c046f8bc08bc9e467047a519000078
:10010400f8b5c046f8bc08bc9e467047811900008b
:020000040000fa
:080114003803000001000000a7
:020000040000fa
:10011c000023f0b506001500b1b0079103930799c1
:10012c000b78002b00d10ae101235b420c9310ab3e
:10013c0000240e9380230b940d940f930b5d0bb145
:10014c00252b29d134b12200300001f09dfd079bf5
:10015c001b190793079b1a78252a00d0e4e040f27c
:10016c00020c01211027013304930793079803789d
:10017c002b2b1ad025d8202b1ad0232b1dd02a2b71
:10018c0028d001f057fc0d90079b1a78303a092ab9
:10019c0031d801330793f7e70134cfe70b9b059375
:1001ac000b4301300b930790e0e704230b9a0fe00d
:1001bc000b9b0593059a08230ae00b9b05933b4385
:1001cc00efe72d2bead0302bd9d162460b9b059350
:1001dc001343e6e72b6801301a1d1b6807902a6051
:1001ec000d93002b07da0b9a5b42059201220599bd
:1001fc000d934a400b920b9bda0702d502229343d4
:10020c000b93079b1a782e2a0ed10022581c0c92a5
:10021c0007905a782a2a27d1023307932b681a1d84
:10022c001b682a6005930c9307a801f0cffc079b71
:10023c000700187801f034fe692800d182e034dc24
:10024c00632800d1d7e01adc252800d1e4e061282e
:10025c0058d0049b01220793002352420c920b931b
:10026c000d9300930232e1e001f0e4fb0c90079b4c
:10027c001a78303a092ad7d801330793f7e764285c
:10028c0060d06728e5dc2a00390008a801f0e7fcfb
:10029c00002800d1abe0079b0ba95a1c07921b78d6
:1002ac0008aa300001f00bfe3de0702800d17be085
:1002bc0016dc6e2800d193e06f28cad12b000022e7
:1002cc00390008a800f0eafe002800d18fe0079b57
:1002dc0008aa01330ba93000079301f0eefd22e0d0
:1002ec00752840d078284ed07328b2d1802f00d0fa
:1002fc007de0079b2a6801330793131d2b6012685e
:10030c00002384e02a00390008a801f0a8fc00288a
:10031c0000d16ce0079b0ba95a1c07921b7808aa0a
:10032c00300001f0ccfd2418039b1c19a34200dc07
:10033c007ee04f223f4b1a6001235b4203930398ec
:10034c0031b0f0bd2b000122390008a800f0a6fe48
:10035c0000284cd0079b08aa01330ba93000079347
:10036c0000f0f7fedfe72b000022390008a800f0b0
:10037c0095fee0b3079b08aa01330ba93000079345
:10038c0001f09bfdcfe72b000022390008a800f0fc
:10039c0085fe60b3079b5a1c07921b7808aa0ba911
:1003ac00300001f08cfdbee72b000022f02108a8e4
:1003bc0000f074fed8b1079b099a01330793089b90
:1003cc0013435bb91c4801f0bdfc02000b9b1a499e
:1003dc0000930d9b300001f080f8a4e77823dde753
:1003ec00039b39001a1908a82b0001f099f9079bf7
:1003fc000133079398e7802ff9d1079b01330793bb
:10040c002b681a1d1b682a6008aa137001230ba9fc
:10041c00300001f056fd86e7802fe8d10122079bc2
:10042c00013307930b9b049300930d9b0349d1e776
:10043c00039474e6a0010020ba1e0000c01e000048
:020000040000fa
:10044c00f0b585b000930393009b02900c0016004e
:10045c00150001900f00002b00d0c9e08a424ad948
:10046c00100001f025fb48b12023019f1b1adf402f
:10047c00019b84408340854027430193aab22b0cf7
:10048c00b7fbf3f1160094461a004a434e43bf1ac9
:10049c00019a3f04140c27430a00be4207d97f1966
:1004ac00013abd4203d8be4201d98a1e7f19be1b38
:1004bc00b6fbf3f14b436446f61a6b464c439b88f0
:1004cc0036041e430f00b44207d97619013fb542da
:1004dc0003d8b44201d98f1e76191204341b3a4347
:1004ec000a9b23b1c4401c6000230a994b60100086
:1004fc00009905b0f0bd02b9ffde100001f0d8fa8a
:10050c00b8bb0123a41b00932b0cb4fbf3f21f000c
:10051c0011005743aeb27143e41b019f24043f0cfe
:10052c003c439446a1420ad9012764197f42bc443a
:10053c00a54204d8a14202d9023a94466419641a1d
:10054c00b4fbf3f77b43e41a6b467e439b8824048d
:10055c001c433900a64207d964190139a54203d8b6
:10056c00a64201d9b91e641963461a04a41b0a4396
:10057c00b6e7202223000199121ad3408440d140bf
:10058c00019a8540824021438c46290cb3fbf1f43f
:10059c0001920a00624326009b1a6246afb27e4368
:1005ac00120c1b04134322009e4207d95b19013a1b
:1005bc009d4203d89e4201d9a21e5b199b1bb3fb23
:1005cc00f1f671435b1a614677438cb21b041c43f2
:1005dc003100a74207d964190139a54203d8a742b3
:1005ec0001d9b11e641912040a43e41b00928be773
:1005fc00009b8b420ad90a9b002b00d1abe0029adc
:10060c0059601a60002300931a0070e7039801f0f8
:10061c004ffad8b9039ba34203d3029b02009e421c
:10062c000ad8029b01229e1b039b0196e41a029b93
:10063c00b342ad416d42671b0a9b0093002b00d166
:10064c0055e7019982c30023009350e720231b1a1e
:10065c0001933300019a039fd34087401f4323002b
:10066c000199d340029a8440ca4022439446029a8c
:10067c00390c8240b3fbf1f402920a0086406243cb
:10068c00009626009b1a6246bdb26e43120c1b04e8
:10069c00134322009e4207d9db19013a9f4203d82b
:1006ac009e4201d9a21edb199e1bb6fbf1f46346d8
:1006bc0061436543761a360499b20e432300b54262
:1006cc0007d9f619013bb74203d8b54201d9a31e8d
:1006dc00f61912041a436b461c88009b711b8c463e
:1006ec00190c230096b2150c6c4373434d437143a4
:1006fc001e0c091971188c4202d9802464022d1920
:10070c000c0c9bb209046519c918ac4503d30bd169
:10071c00029b8b4208d2009b013ace1ab14289410e
:10072c004942cf193100ed1b0a9b0093002b00d1dd
:10073c00dde6029b019c591a63465d1b029b8b42b2
:10074c009b415b42ed1a2b00c140a340c5401943ad
:0a075c000a9b22c377e70a9b55e7ca
:020000040000fa
:1007660070b540f60003c4f200239b7d43b340f20c
:100776001413c2f200039c6a40f60003c4f200237d
:100786005b8b9b071dd540f21413c2f20003202297
:10079600ff2199540132fd39995440f21413c2f2e3
:1007a600000320229b5c5bb2013300d1e6e040f2fd
:1007b6001413c2f2000320229b5c062b00d109e130
:1007c60070bd40f60003c4f200235b8bdb070ad53d
:1007d60040f21413c2f200032022ff219954013281
:1007e600fd399954d9e740f60003c4f200235b8b28
:1007f6005b070ad540f21413c2f200032022ff2140
:1008060099540132fe399954c7e740f21413c2f2e3
:10081600000320229b5c5bb2032b78d0042b1bd0f9
:10082600022bbad140f21413c2f200031b694bb17a
:1008360040f21413c2f20003988880b2002100f03f
:10084600c8feaae740f21413c2f20003988880b2e9
:10085600012100f0befea0e740f21413c2f200032d
:100866009a691b69934219d040f21413c2f200032d
:100876009b68985c40f60003c4f200232821585474
:10088600511c40f60002c4f20022d369002bfcd1b1
:1008960040f21413c2f2000399617ee740f214138a
:1008a600c2f200035b69d3b140f21413c2f2000333
:1008b6009b885b0001221343d202c4f200225362da
:1008c60040f60002c4f20022d369002bfcd140f2ac
:1008d6001413c2f200032022032199545de740f667
:1008e6000003c4f200235968c02292020a435a60e8
:1008f60040f60002c4f20022d369002bfcd140f27c
:100906001413c2f2000320220621995445e740f24f
:100916001413c2f20003d9695b69013b8b4215d0ff
:1009260040f60002c4f20022d369002bfcd140f24b
:100936001413c2f20003d86840f60002c4f2002283
:100946002825525d42540131d96126e740f600035d
:10095600c4f200235868e022d20202435a6040f6ed
:100966000002c4f20022d369002bfcd140f214131a
:10097600c2f20003202206209854d1e740f2141355
:10098600c2f200030021995440f60003c4f200238a
:100996005968c02292020a435a6040f60002c4f225
:1009a6000022d369002bfcd140f60003c4f20023d9
:1009b60083221a7640f21413c2f200035b6a002bfc
:1009c60000d1fde640f21413c2f200035b6a200078
:1009d6009847f5e640f21413c2f2000300222021e4
:1009e6005a5401315a5440f60003c4f200238332ac
:1009f6001a7640f60002c4f200220f31538b0b40e8
:100a0600102bfbd140f21413c2f200035b6a002bd9
:100a160000d1d5e640f21413c2f200035b6a20004f
:040a26009847cde63a
:020000040000fa
:100a2a00f0b585b0002001f025f841f68150c0f2fa
:100a3a000000002101f027fa41f6d751c0f2000167
:100a4a000022002001f0b8f941f64f60c0f2000020
:100a5a00002101f011fa41f69f61c0f20001002263
:100a6a00052001f07ef801f024f9002740f2a916ca
:100a7a00c2f2000640f20004c2f2000440f2284327
:100a8a00c4f2002303934de02f7040f2a413c2f284
:100a9a00000340f2a711c2f2000102220092013ab9
:100aaa004f2000f088ff33781bb92b78002bfad03f
:100aba00eae7377040f2a613c2f200031b78b3bb11
:100aca0040f2a413c2f200031a78120258781043b3
:100ada0000b2c01101f01bf900220023c3f6e07333
:100aea0000f0b1f801f058f800b2c200121805235c
:100afa0092fbf3f22032d2b240f6f071c0f200015a
:100b0a00200001f043f943f20003c4f200038022fb
:100b1a00da61200001f017f90300039a2100380076
:100b2a0000f0d0f940f2a815c2f20005bde740f284
:100b3a00a613c2f200031f7040f2ab13c2f2000305
:100b4a001b78e3b1012b34d0022b4ad0032be0d11e
:100b5a0040f2ab13c2f200031f7041f28003c0f2ed
:100b6a000003220023cb23c223cb23c223cb23c2dd
:100b7a001b78137040f2002001f0bbf8c9e740f27d
:100b8a00ab13c2f2000301221a7041f20803c0f249
:100b9a000003220023cb23c223cb23c223cb23c2ad
:100baa00198811809b78937040f2004001f0a1f8f7
:100bba00afe740f2ab13c2f2000302221a7041f20d
:100bca003003c0f20003220023cb23c223cb23c26b
:100bda0023cb23c21b68136040f6000001f089f89a
:100bea0097e740f2ab13c2f2000303221a7041f2f4
:100bfa005803c0f20003220023cb23c223cb23c213
:100c0a0023cb23c21b68136041f2000001f071f884
:020c1a007fe772
:020000040000fa
:100c1c0006d128b9f54203d800d30ab96d0d09d114
:100c2c000020c143090dc904f0bdf9d11242f7d11e
:100c3c00640df5d00020c14349054908a6e0002009
:100c4c006146f0bdf0b50127ff070e005e403e4047
:100c5c00b446be0a4c18dd18f442d9d2f542e4d29f
:100c6c00640decd06d0dead06419c9023943460d00
:100c7c00c0023143db023b43db0a10b48e4685b223
:100c8c0097b26f43140c6c433e0ca419260c24042d
:100c9c00bfb227439cb26c43a419190c6943250cb1
:100cac00a4b249190d04090c6419000c95b2454302
:100cbc003e0c76193743bfb2360c150c4543ad19b3
:100ccc00a6b2240cad192e0437432e0c36199db246
:100cdc004543ad19acb22e0c89191d0c45436d184a
:100cec002e04290c3443704680b295b245433e0c19
:100cfc0076193743bfb2360c150c4543ad19a6b265
:100d0c00ad19240c2e0437432e0c36199db24543d5
:100d1c00ad19acb22e0c89191d0c45436d182e045f
:100d2c003443290c75462d0c90b268433e0c801947
:100d3c000604bfb23e43070ca0b23f18120c6a4324
:100d4c00d019020c80b2240ca4189ab26a4312195e
:100d5c0014042043120c89181b0c6b43c91810bccb
:100d6c0001273d05294203d1b61940414941013cb7
:100d7c00ff077d0d013d641b0bdb6d00ac4209daf6
:100d8c00240500254208be41684161416646314355
:060d9c00f0bd54e74ee734
:020000040000fa
:100da20041f20003c4f2000302221a7641f2004328
:100db200c4f2000300221a7441f60043c4f2000395
:100dc2000632ff32c0f204025a6241f60042c4f215
:100dd2000002082153681942fcd141f60043c4f2d3
:100de200000380224121995041f60042c4f20002e0
:100df2008020013913581942fcd041f20003c4f299
:100e0200000320225a631f321a6341f20002c4f225
:100e120000023c200421135c0b42fcd141f200038e
:100e2200c4f200032c220221995441f20002c4f2be
:100e320000023c20135c0b42fcd141f20002c4f2de
:100e4200000240200321135c0b40032bfbd141f62f
:100e52000043c4f2000340f20712c0f202021a6217
:100e620041f60042c4f20002042153681942fcd147
:100e720041f60043c4f200038c224021995041f60e
:100e82000042c4f200028c2013581942fcd041f6f1
:100e92000043c4f20003ac224021995041f60042c3
:100ea200c4f20002ac2013581942fcd041f60043b0
:100eb200c4f20003b0224021995041f60042c4f22c
:0c0ec2000002b02013581942fcd0704709
:020000040000fa
:100ece00f0b5040140f27015c2f20005ac46644460
:100ede00267bf6b246f20004c4f200143f27e55d0d
:100eee00edb2e0550f37e45da40702d10024002ec9
:100efe005cd146f20004c4f200144e260327a75517
:100f0e00060140f27014c2f200043419023f277336
:100f1e0040f26014c2f20004345b64054ed5c91869
:100f2e00340040f26016c2f20006b44664446160ba
:100f3e0040f26011c2f200010401615a090546d562
:100f4e00d218210040f26014c2f20004a44661449b
:100f5e008a6040f26012c2f2000201018a5a9205c2
:100f6e00920fd3409bb240f26012c2f2000294463e
:100f7e0061444b8046f20002c4f200124021535ce1
:100f8e00022423435354516c536cdb04db0e0822b2
:100f9e000a40134301244bb946f20002c4f2001278
:100fae001169012383400b431361012446f20003b0
:100fbe00c4f200133f229d542000f0bd040140f204
:100fce006016c2f20006b44664446160b0e70101e7
:100fde0040f26014c2f20004a44661448a60b8e78d
:020000040000fa
:020fee0070474a
:020000040000fa
:100ff00054656d7065726174757265203d20253091
:10100000326420460d0a000053616d706c696e6792
:101010002054656d706572617475726520657665c2
:1010200072792031207365636f6e64200d0a0000b1
:1010300053616d706c696e672054656d7065726187
:1010400074757265206576657279203220736563e8
:101050006f6e6473200d0a0053616d706c696e676a
:101060002054656d70657261747572652065766572
:1010700072792034207365636f6e6473200d0a00eb
:1010800053616d706c696e672054656d7065726137
:101090007475726520657665727920353030206d03
:0810a00073200d0a0000c04698
:020000040000fa
:1010a80010b588293ad014dc81294ad003dc80297c
:1010b80047d0002010bd822910d08429f9d11968a1
:1010c8002ab30a1d1a6000228b5e0360db17436097
:1010d80010e0a0292ed00fdc9029ead11968072446
:1010e8006ab30919a1430a0008321a600b684c68f0
:1010f800036044600120dde7c02901d0f029d8d180
:101108001a68111d1960136803600023dfe70c1dbe
:101118001c600b689bb203604260ebe7196822b160
:101128000a1d1a600023cb56cfe70c1d1c600b6804
:10113800dbb2f0e71a68111d19601368c5e70731bb
:10114800d0e719681ab10a1d1a600b68bde70c1db3
:061158001c600b68dfe7dc
:020000040000fa
:10115e00f0b54b6889b005930b6807009c46079362
:10116e00cb680c008e6810685168cd0f0493002d6b
:10117e0041d00b000200002150429941059b002beb
:10118e0007db022263469343079315b9079b5a0761
:10119e0028d5731e07aa02920a22009301920b0011
:1011ae000200200000f04bfa15b9079b5a071dd517
:1011be0001382d2305b9023b049a135423695a1e94
:1011ce00049b121a1918079b38000093330000f085
:1011de0083f97b68db0503d56368984200da180053
:1011ee0009b0f0bd1b07db0ff31ad3e71b07e5d5dc
:0e11fe0001382023e0e7059b002bc2dac6e78c
:020000040000fa
:10120c0030b5bff35f8f62b64ef20013cef200031f
:10121c0040f200315a58214c2240c02000040243b5
:10122c005a5004221a6040f204355a591202120a1a
:10123c00c02109060a435a5180221a6004355a59b2
:10124c001202120a0a435a5140f600021a60103573
:10125c005a591440204358518022d2041a605a59ca
:10126c001202120a11435951802212051a6040f2df
:10127c001c315a58ff2082433f3802435a50802277
:10128c0052051a605a58064802404cf200000243bc
:10129c005a50802292051a6030bdc046ffff00fff5
:0412ac00ff00ffff41
:020000040000fa
:1012b000400100201c000000000000006001002030
:1012c000300000000000000064000020600000000a
:1012d00000000000900100200c0000000000000051
:1012e000140100202c00000000000000a6010020d6
:1012f0000100000000000000a40100200200000026
:1013000000000000a7010020050000000000000010
:101310000000002064000000000000005c010020cc
:101320000400000000000000c40000205000000085
:10133000000000009c0100200800000000000000e8
:10134000000000000000000066666666666666666d
:020000040000fa
:1013500010b582b00021019146f20003c4f20013df
:101360003f229c5ce4b299540f329b5cdbb2019348
:10137000019b02209b070cd546f20003c4f2001328
:101380000231995440f27013c2f2000300221a7322
:101390000138019bdb070dd546f20003c4f20013b0
:1013a0004e220121995440f27013c2f20003002230
:1013b0001a73022040f27013c2f200035b6833b16b
:1013c00040f27013c2f2000399685b68984746f2d6
:0e13d0000003c4f200133f229c5402b010bd73
:020000040000fa
:1013de0040f60003c4f2002301221a60d202c4f2c6
:1013ee000022d369002bfcd140f60003c4f2002387
:1013fe0040f200125a60d200c4f20022d369002bd0
:10140e00fcd140f60003c4f200239922da60833a3d
:10141e00c0f210021a6040f60002c4f20022d36934
:10142e00002bfcd140f60003c4f2002310225a8395
:10143e00d201c4f20022d369002bfcd140f2141366
:10144e00c2f20003002221215a5401395a5440f6a7
:0c145e000003c4f2002383329a7570472b
:020000040000fa
:10146a0010b542f60003c4f200031a7801210a43b8
:10147a001a7042f60002c4f20002012153681942ae
:10148a00fcd142f60002c4f20002137810211020a7
:10149a000343137090231b04d3612020106140f290
:1014aa006403c2f200031972197519540c301954e5
:1014ba000c3019540c3005241c540c3019540c30bf
:1014ca001954137802210b43137042f60002c4f236
:0c14da000002022153681942fcd110bd31
:020000040000fa
:1014e600f0b51d00012389b014000e9a06001a40bb
:1014f600039102920ab9a5420ad822000399300044
:1015060000f0c5fba54203d82500280009b0f0bdb0
:101516002f1b01973a00102f00d91022202104a872
:1015260000f07ffc019b0f2b0ed80f2204a93a4036
:10153600300000f0acfb029b002be6d122000399a1
:10154600300000f0a4fbe0e7102204a9300000f010
:0a1556009efb019b103b0193e4e7ac
:020000040000fa
:10156000f0b5c64600b5042442f60005c4f20005f5
:10157000012604e06f616b690134082c28d06300f8
:101580001b199b0040f26401c2f200018c466344c7
:101590001b7adbb2e1b28b42eed16b693700a74018
:1015a0001f42e9d040f26401c2f2000163001b193e
:1015b0009b005b58002bddd08c4663001919890015
:1015c000614448681b199b0062469b589847d1e7c5
:0615d00004bc9046f0bdd2
:020000040000fa
:0215d600fee72e
:020000040000fa
:1015d80010b540f21413c2f2000300229a61da61d6
:1015e80040f60003c4f2002383321a765a68144c7a
:1015f80022405a6040f60002c4f20022d369002b50
:10160800fcd1a9b140f21413c2f200032022032432
:101618009c544000084340f60003c4f2002358627b
:1016280040f60002c4f20022d369002bfcd110bda1
:1016380040f21413c2f20003202204249c54e8e769
:04164800fffffbffa6
:020000040000fa
:10164c00f7b5040019000a9fe368666800933b68cd
:10165c00100001932369013b1c00002e00da0126c7
:10166c000022009dea5435000123002c02dce3b17a
:10167c002000febd02000a434ab9002d07dc089a7f
:10168c00921b5219002af2dd019a9207efd5099ba1
:10169c00099adb1700f0aef98c460099013c130057
:1016ac0030320a55013d6146dfe710233a689a4310
:0416bc003a60dde7cc
:020000040000fa
:1016c00042f20043c4f2000301221a8042f20042b7
:1016d000c4f20002012113691942fcd142f2004315
:1016e000c4f20003104a1a8042f20042c4f200021f
:1016f00048f2000113691942fcd142f20043c4f2de
:10170000000340f200221a6242f20042c4f20002d8
:10171000202113691942fcd142f20043c4f20003b4
:0c17200040f200125a8170478081ffffe8
:020000040000fa
:10172c0010b584291fd007dc812915d0822922d03d
:10173c00802911d0002010bd90291cd008dc8829ec
:10174c00f8d119680c1d1c600b6803601a7010e04e
:10175c00a02901d0c029edd119680c1d1c600b68a3
:10176c0003601a6005e019680c1d1c600b680360af
:10177c001a800120dfe719680c1d1c600b680360e0
:08178c001a60d2175a60f4e75d
:020000040000fa
:1017940010b540f27012c2f20002002111705160c3
:1017a4009160117340f26010c2f2000046f200032f
:1017b400c4f20013586340f28014c2f200049c6324
:1017c40048f28114c8f281145c613f24195540f237
:1017d4000051c0f28001596440f2094101800121a5
:1017e40011704d220231995440f602721a8010bdd4
:020000040000fa
:1017f40000230e4a10b513600d4a0e4c13600e4ab6
:1018040013600e4a13600e4a13600e4a536213614a
:101814000133936000f0ddf900f0dbf90a4b9c42e0
:1018240000d310bd08cc9847f8e7c0469c010020bf
:10183400d000002000010000cc000020c4000020e3
:0c184400c8000020d400002004010000b7
:020000040000fa
:1018500010b541f63333c0f20003984741f63333f5
:10186000c0f20003984700f0d1f940f20003c0f243
:1018700000037f2293434ef60052cef200029360a3
:1018800041f2f573c0f20003984741f63333c0f2da
:101890000003984741f63333c0f200039847fff73f
:0418a000c4f8fee7a3
:020000040000fa
:1018a40040f20043c4f2002340f20412c4f20102e5
:1018b4001a600d4a9a81802252025a609209c4f237
:1018c4000022d369002bfcd140f20043c4f2002370
:1018d4001a6802210a431a6040f20042c4f200224c
:0c18e400d369002bfcd1704741f1ffffdd
:020000040000fa
:1018f00030b51500012289b0524201920432ff3204
:10190000029200b9684603900491002401b14c1e74
:101910000594002906da4f220120074b40421a6045
:1019200009b030bd00220790027006901a0029000d
:0c19300001a800f019faf3e7a001002064
:020000040000fa
:10193c0043f20003c4f2000380221a60c0f60002d6
:10194c001a61002247215a5446395020195401304b
:10195c001954073019545a315338585428395a5499
:10196c0005311d30585404312038585401315a5423
:02197c007047b2
:020000040000fa
:02197e00fee782
:020000040000fa
:1019800010b5054c227832b9044b13b1044800e07d
:1019900000bf0123237010bd4001002000000000a3
:1019a00000000000034b10b51bb10349034800e0e1
:1019b00000bf10bd00000000440100200000000036
:020000040000fa
:1019c00070b5050040f21414c2f200042020245c1b
:1019d000002004b170bd40f21414c2f20004a580ce
:1019e000e360049b6361a16022610023a370237004
:1019f0002122a35400212800fff7eefd0120e9e792
:020000040000fa
:101a0000002b11d1002a0fd1002900d1002802d0cb
:101a10000021c943081c07b4024802a140180290e3
:101a200003bdc046b104000003b4684601b5029886
:101a3000fef70cfd019b9e4602b00cbc7047c046f1
:020000040000fa
:101a4000030010b51a78202a0dd011000939042995
:101a500009d900212b2a02d02d2a01d101310133cd
:101a600000200a2404e00133ece760430133801acc
:0e1a70001a78303a092af8d901b9404210bd5f
:020000040000fa
:101a7e0010b544f20003c4f2001304225a6000f0c1
:101a8e0034f8fff754fffff785f900f0d0f9fff7b0
:101a9e009ffcfff700fffff7a3fafff774fefff7b7
:0c1aae00ddfcfff706fefff7aafb10bdf1
:020000040000fa
:021aba00fee745
:020000040000fa
:101abc001c2101231b04984201d3000c10391b0a72
:101acc00984201d3000a08391b09984201d3000936
:101adc00043902a2105c40187047c046040302028d
:0c1aec00010101010000000000000000ea
:020000040000fa
:101af80040f20043c4f2000300221a819a790121be
:101b08000a439a719b7803221340022b0cd040f2af
:101b18000043c4f20003013a9a705202c4f2000270
:0a1b2800012193790b42fcd07047b5
:020000040000fa
:021b32007047fa
:020000040000fa
:101b340010b542f20042c4f20002918989b240f227
:101b44009013c2f2000359600649918192891b687f
:101b54003bb140f29013c2f20003586899681b68c5
:081b6400984710bdffc1ffff0f
:020000040000fa
:101b6c0030b543001b189b0040f26404c2f2000421
:101b7c00a44663441b7adbb2834200d030bd40f2f2
:101b8c006404c2f2000443001d18ad002951280062
:061b9c0060444260f2e724
:020000040000fa
:101ba200f4464a1805d200f04af801d5c017400899
:101bb200604701235b05d34206d200f040f801d50d
:101bc2000120c0074042604701d10042f5d0d01742
:041bd2004008704710
:020000040000fa
:021bd600704756
:020000040000fa
:101bd80070b5040000200a4b4200d55c15b9d21834
:101be800507870bd216801300e78c0b2ae4204d181
:101bf800034b0131d218507821600a28ebd9f0e75d
:041c0800ac1d00000f
:020000040000fa
:101c0c0010b50948016811b9436803b910bd040047
:101c1c008368064a9bb20c349b009b584268200098
:101c2c00984780002018ede7b0120000ec1d000072
:020000040000fa
:101c3c004a0010d2520d03231b02ff33d21a0ad4ce
:101c4c0052421f3209d4400dc90208430123db075d
:0e1c5c001843d040704700207047d0177047e3
:020000040000fa
:101c6a00002380290fdb812901dd83290bd107217c
:101c7a00136807338b431900083111601a685b68cf
:0a1c8a000260436001231800704758
:020000040000fa
:101c940070b505690400954200d915005db12a00ac
:101ca400606900f0abf8226963695b19551b002277
:081cb400636125611a7070bd27
:020000040000fa
:101cbc0042f20043c4f200031a8802210a431a803c
:101ccc0042f20042c4f20002022113691942fcd113
:021cdc0070474f
:020000040000fa
:101cde00002310b5934206d103201840421e9041b6
:0e1cee009b08c01810bdc45ccc540133f2e753
:020000040000fa
:101cfc0042f20043c4f20003186242f20042c4f202
:0c1d0c000002202113691942fcd170472d
:020000040000fa
:101d180041f63553c0f20003004206d5404200b5f3
:0c1d2800984708bc0122d207114318475d
:020000040000fa
:101d340040f21d42010007d002d4013a0018fcd53c
:0a1d44001205c30a40059918704704
:020000040000fa
:101d5000037833b1030001331a78002afbd1181a33
:081d600070470020fce7c046bb
:020000040000fa
:101d680013b50400019201aafef7d4f96368db06f3
:081d780001d50120404216bd17
:020000040000fa
:101d800010b500f076f828b940f2a913c2f20003aa
:061d900001221a7010bdd3
:020000040000fa
:101d96000eb403b503aa02ca019200f038f802b0e5
:061da60008bc03b0184761
:020000040000fa
:101dac0068076c094c836a9074a07ac000806888bc
:061dbc0000846c8200812e
:020000040000fa
:101dc200000140f27013c2f200039c46604441607d
:041dd2008260704774
:020000040000fa
:101dd600012800d0704740f2aa13c2f20003012284
:041de6001a70f7e791
:020000040000fa
:101dec00611e0000df1c0000c31e0000c31e0000ab
:041dfc00c31e000002
:020000040000fa
:101e000010b52ab10023cc5cc45401339342fad1fb
:041e100010bdc046fb
:020000040000fa
:101e140010b513000a000249fff768fd10bdc04663
:041e2400ffffff7f3e
:020000040000fa
:101e280032b10300c9b28218197001339342fbd151
:041e38007047c046e9
:020000040000fa
:101e3c0044f20003c4f2001302225a60013a1a72ef
:021e4c007047dd
:020000040000fa
:101e4e00c30505d540f2a813c2f2000301221a7091
:021e5e007047cb
:020000040000fa
:101e60008a18914201d10020704700230b70013184
:021e7000f7e792
:020000040000fa
:101e720040f21413c2f200032122985cc0b27047f0
:020000040000fa
:0e1e820040f29013c2f200031860996070479e
:020000040000fa
:0e1e900040f21413c2f20003586299627047c8
:020000040000fa
:0e1e9e0040f2a613c2f2000301221a70704730
:020000040000fa
:0e1eac000300413b192b01d820231843704737
:020000040000fa
:081eba00286e696c2900250067
:020000040000fa
:041ec2000020704745
:020000040000fa
:041ec6000020704741
:020000040000fa
:041eca00002070473d
:020000040000fa
:041ece000020704739
:020000040000fa
:041ed4007047c0464d
:020000040000fa
:0200000400807a
:044000007f438fb0bb
:020000040000fa
:0200000400807a
:04400400bbfcffff03
:020000040000fa
:0200000400807a
:04c0040000ffffff3b
:020000040000fa
:0200000400807a
:04c04000ffffffff00
:020000040000fa
:0200000400807a
:04c04400fffffffffc
:020000040000fa
:0200000400807a
:04c04800fffffffff8
:020000040000fa
:0200000400807a
:04c04c00fffffffff4
:00000001FF
