:020000040000fa
:10000000f8ff0320f1c7000061e3000067e3000090
:1000100073e3000079e300007fe3000000000000cc
:10002000000000000000000000000000ff5400007d
:100030006de3000000000000ff540000ff540000ca
:10004000ff540000ff540000ff540000ff54000064
:10005000ff540000ff540000ff540000ff54000054
:10006000ff540000ff540000ff540000ff54000044
:10007000ff540000ff540000ff540000ff54000034
:10008000ff540000ff540000ff540000ff54000024
:10009000ff540000ff540000ff540000ff54000014
:1000a000ff540000ff540000ff540000ff54000004
:1000b000ff540000ff540000ff540000ebe200007a
:1000c000f9e20000ff540000ff540000ff5400005c
:1000d000ff540000ff540000ff540000ff540000d4
:1000e000ff540000ff54000000000000000000006a
:1000f00000000000ff540000ff540000ff54000007
:10010000ff540000ff5400004564000045640000f7
:100110004564000045640000ff540000ff540000e7
:10012000ff540000ff540000ff540000ff54000083
:10013000ff540000ff540000ff540000ff54000073
:10014000ff540000ff540000ff540000ff54000063
:10015000ff540000ff5400000000000000000000f9
:10016000000000000000000000000000000000008f
:100170000000000000000000ff540000ff540000d9
:10018000ff540000ff540000ff540000ff54000023
:1001900000000000ff540000ff540000ff54000066
:1001a000ff540000ff540000ff540000ff54000003
:1001b000ff540000ff540000ff540000ff540000f3
:1001c000ff540000ff540000ff540000ff540000e3
:1001d000ff540000ff540000ff540000ff540000d3
:1001e000ff540000ff540000ff5400008dc80000c1
:1001f000ff540000ff540000ff540000ff540000b3
:10020000ff5400000000000000000000ff54000048
:10021000ff540000ff540000ff540000ff54000092
:10022000ff540000ff540000ff540000ff54000082
:10023000ff540000ff540000ff540000ff54000072
:10024000ff540000ff540000ff540000ff54000062
:10025000ff540000ff540000ff540000ff54000052
:020000040000fa
:10026000f8b500bff8bc08bc9e467047c1d000007e
:10027000f8b500bff8bc08bc9e4670479dd0000092
:020000040000fa
:08028000ca3200000100000079
:020000040000fa
:1002880080b5a0b000aff860b9607a603b6007f154
:100298000c0318460af0e4fdf864fb6c002b02da44
:1002a8000b2300f098bca74afb6c52f82330002bb4
:1002b80005d0a44afb6c52f8233000221a70a24ad7
:1002c800fb6c12f8133087f84b309f4afb6c5b00cd
:1002d80013445b7887f84a3097f84b3018460df08e
:1002e800a5fd034687f8493097f8493003f0010324
:1002f800002b02d0032300f06ebc97f8493003f0be
:100308000403002b02d00a2300f065bcbb68002b55
:1003180001d18e4bbb60bb685b68fb61fb69002b3e
:1003280007d107f11c0297f84b30032118460bf050
:10033800bef9fb69002b09d0fb69b3f5004f05d85e
:10034800fb695a1efb691340002b01d00123fb6196
:100358004ff40073a7f84630bb681b7803f00f030f
:1003680087f84530bb685b78002b06d0bb685b78a4
:10037800022b02d8bb685b7800e001233b64bb68b2
:100388009b68002b14d0bb689b68b3f5004f0fd84f
:10039800bb689b68b7f84620520992b2b3fbf2f1ea
:1003a80002fb01f29b1a002b02d1bb689b6801e09b
:1003b8004ff40073fb63bb68db68b3f1807f0ad836
:1003c800bb68da68bb68db68013b1340002b02d1cd
:1003d800bb68db6800e000237b65b7f846307a6dc0
:1003e800b2fbf3f37b65b7f846303a68b2fbf3f338
:1003f800bb63bb6b002b01d11123ece37b687b63f0
:100408007b6b002b01d11123e5e30023bb61bb69a2
:10041800fb6697f84a30002b3cd097f84b00012335
:100428000022796b0df06af90346002b01d00123f5
:10043800d1e37b6b03f5ff7318460df0e9f803462b
:100448001a464af655239a4201d00e23c3e397f879
:100458004a30013b1b0103f5df731a467b6b1344db
:100468003b6397f84a30042b04d83b6b04331b7862
:10047800002b01d10e23aee33b6b083318460cf07a
:100488006ffcf8663b6b0c3318460cf069fc0346ae
:10049800bb611be007f1180297f84b3001211846a1
:1004a8000bf005f90346002b01d0012393e397f8dd
:1004b800453003f00803002b08d1bb693f2b05d951
:1004c8003f23fb66ba69fb6ed31abb61bb697f2bfe
:1004d80001d80e237fe37b6d802b01d980237b65b8
:1004e80097f8453003f00203002b09d097f8453000
:1004f80003f00103002b03d1032387f87f300ae0c0
:1005080097f8453003f00103002b01d1132362e370
:10051800022387f87f300cf0edf80246bb691344dc
:10052800fb627b6dbb6797f87f30032b44d1bb6fb1
:10053800002b21d1bb695b0c3b6700233b65012382
:10054800bb670be04c180020141a002080e2000062
:100558003b6d01333b65bb6f5b00bb67974a3b6de7
:1005680032f81330002b07d0944a3b6d32f8133021
:100578001a463b6f9342ebd2ba69bb6fb2fbf3f3f7
:10058800bb62bb6a02339a00b7f8463013445a1e5e
:10059800b7f84630b2fbf3f3fb6520233b66002334
:1005a800bb65bb6a4ff6f572934203d9bb6a844aae
:1005b80093424dd90e230ee3bb6f002b1bd1bb69b1
:1005c8001b0b3b6700233b650123bb6705e03b6dc5
:1005d80001333b65bb6f5b00bb677a4a3b6d32f802
:1005e8001330002b07d0774a3b6d32f813301a4688
:1005f8003b6f9342ebd2ba69bb6fb2fbf3f3bb62ba
:10060800bb6a40f6f572934204d9bb6a02335b00b9
:100618003b670ae0012387f87f30ba6a13465b001c
:10062800134401335b0803333b67b7f846203b6f3d
:1006380013445a1eb7f84630b2fbf3f3fb650123a7
:100648003b66fb6b5a01b7f84630b2fbf3f3bb6568
:10065800fa6e3b6e1344bb66fb6d3a6c02fb03f209
:10066800bb6e1344ba6d13447b62fa697b6a134408
:100678005a1efb695b421a407b6ad31a3b6797f89c
:100688007f30032b08d13a6e3b6f13443b66ba6e3a
:100698003b6f1344bb6619e03b6f3a6cb3fbf2f255
:1006a800396c01fb02f29b1a002b08d03b6f013b0f
:1006b8003b673b6e01333b66bb6e0133bb663a6feb
:1006c8003b6cb2fbf3f3fa6d1344fb65bb6f1a0185
:1006d8007b6a1a44fb6ed21abb699a4201d90e236f
:1006e80079e2ba693b6ed21afb6d396c01fb03f3f0
:1006f800d21abb6dd21abb6fb2fbf3f3bb6297f889
:100708007f30032b0fd1bb6a4ff6f57293420ad89c
:100718007b6d002b05d1bb6f5b087b657b6d002b68
:1007280045d10e2357e297f87f30022b34d1bb6aac
:100738004ff6f57293421fd97b6d002b07d1bb6f23
:100748005b00402b03d8bb6f5b007b6534e097f8f8
:10075800453003f00203002b03d0032387f87f30d2
:100768002ae07b6d002b05d1bb6f5b007b657b6d41
:10077800802b1ed90e232ee2bb6a40f6f5729342f7
:100788000ad87b6d002b05d1bb6f5b007b657b6d49
:10079800802b10d90e231ee297f87f30012b13d13e
:1007a800bb6a40f6f57293420ed90e2313e200bfde
:1007b800b7e600bfb5e600bfb3e600bf90e20000b1
:1007c800f5ffff0fa0e2000000bfb7f846301a4659
:1007d8000021786b0df02afd0b22bd49786b0df0d6
:1007e80097fc7b6b0b33b7f84620114618460cf084
:1007f800c1fd7b6b0d33ba6fd2b21a707b6b0e33af
:100808003a6e92b2114618460cf0b4fd7b6b103369
:100818003a6cd2b21a707b6b03f1110297f87f30f1
:10082800032b02d0fb6b9bb200e000231946104655
:100838000cf0a0fdbb69b3f5803f08d27b6b133386
:10084800ba6992b2114618460cf094fd06e07b6b2b
:100858002033ba69114618460bf01efe7b6b153320
:10086800f8221a707b6b18333f2118460cf082fd72
:100878007b6b1a33ff2118460cf07cfd7b6b1c3315
:10088800f96e18460bf008fe97f87f30032b2dd130
:100898007b6b4333f96a18460bf0fefd7b6b243300
:1008a800f96d18460bf0f8fd7b6b2c3302211846c6
:1008b8000bf0f2fd7b6b3033012118460cf05afd2a
:1008c8007b6b3233062118460cf054fd7b6b4033aa
:1008d80080221a707b6b423329221a707b6b473354
:1008e80013227c4918460df013fc1ce07b6b273360
:1008f800f96a18460bf0d0fd7b6b1633fa6d92b28d
:10090800114618460cf036fd7b6b243380221a7092
:100918007b6b263329221a707b6b2b3313226e498b
:1009280018460df0f5fb7b6b03f5ff734af655216e
:1009380018460cf01ffd97f84b000123fa6e796bef
:100948000bf052fb0346002b01d0012343e197f83b
:100958007f30032b41d1fb6e9a1d97f84b00012382
:10096800796b0bf041fbb7f846301a460021786bdb
:100978000df05cfc5949786b0bf08efd7b6b03f531
:10098800f273574918460bf087fd7b6b03f5f47239
:10099800bb6a013b194610460bf07efd7b6b03f5e5
:1009a800f673022118460bf077fd7b6b03f5ff7396
:1009b8004af6552118460cf0ddfcfb6eda1d97f857
:1009c8004b000123796b0bf00ffbfb6e5a1c97f859
:1009d8004b000123796b0bf007fbb7f84630ba6b75
:1009e80002fb03f31a460021786b0df01ffcbb6e67
:1009f8007b6600233b654ce097f87f30032b13d1cf
:100a08006ff00701786b0bf047fd7b6b04334ff0f9
:100a1800ff3118460bf040fd7b6b08336ff07041d7
:100a280018460bf039fd0be097f87f30012b01d108
:100a38002c4b01e06ff007031946786b0bf02cfd87
:100a4800fb6d7b677a6fbb6b934228bf13463b678e
:100a580097f84b003b6f7a6e796b0bf0c5fa03463b
:100a6800002b01d00123b6e0b7f846301a46002122
:100a7800786b0df0dbfb7a6e3b6f13447b667a6f05
:100a88003b6fd31a7b677b6f002bdbd13b6d013348
:100a98003b653a6d3b6c9a42aed397f87f30032b97
:100aa80001d1bb6f00e0bb6d7b677a6fbb6b934274
:100ab80028bf13463b6797f84b003b6f7a6e796bfc
:100ac8000bf092fa0346002b0ed0012383e000bfff
:100ad80074c6000080c6000094c6000052526141ee
:100ae80072724161f8ffff007a6e3b6f13447b66b8
:100af8007a6f3b6fd31a7b677b6f002bd5d197f842
:100b08007f30032b03d10c2387f87e3012e0bb69ba
:100b1800b3f5803f03d3062387f87e300ae097f8c1
:100b28007f30022b03d1042387f87e3002e00123b3
:100b380087f87e3097f84a30002b22d097f84b0080
:100b480001230022796b0cf0d9fd0346002b01d05c
:100b5800012340e097f84a30013b1b0103f5e1739c
:100b68007a6b134497f87e201a7097f84b0001238c
:100b78000022796b0bf038fa0346002b1ed00123b4
:100b880029e097f8453003f00803002b16d1bb691c
:100b98003b6100237b6197f87e2007f1100197f8ed
:100ba8004b007b6b04f04ef9034687f8233097f827
:100bb8002330002b02d097f823300ce097f84b3005
:100bc8000022002118460af072fd0346002b01d0ce
:100bd800012300e0002318468037bd4680bd00bfd2
:020000040000fa
:100be80080b58ab000af7860002387f827307b682b
:100bf800c42202fb03f3b44a13443b623b6a9433b6
:100c08007b614ff0ff333b617b691b78012b02d17d
:100c18007b6900221a70386a0df0d8f8f8613b6acf
:100c280093f88530192b00f2828301a252f823f041
:100c3800a10c0000ad0c00003b0d00007d0f000072
:100c48008f0d0000c10d0000f70d00006f0e0000b1
:100c5800a10e0000d50e0000490f0000190f00007a
:100c6800cb0f00001510000047100000771000009f
:100c7800a7100000cf100000ff100000771100003f
:100c8800bb110000f91100002912000059120000e0
:100c9800d1120000d11200003b6a93f84630012bb4
:100ca80040f047833b6a93f88930002b40f0438338
:100cb800386a0df08bf8f861fb69002b04d13b6aa8
:100cc800002283f885203fe33b6a022283f88920cb
:100cd800fb6902221a723b6a93f84830002b04d150
:100ce800fb695b695a02fb695a61fb695b7f002bf0
:100cf8000fd1fb699b69012b03d1fb6908221a7785
:100d080002e0fb6909221a773b6a022283f88520f0
:100d18001ae3fb699b69012b03d1fb690a221a7745
:100d280002e0fb690b221a773b6a032283f88520cd
:100d38000ae3fb69197ffb695b691a46786800f06a
:100d4800e1fd3b6a93f887300c2b11d13b6a93f88d
:100d58008c30002b07d13b6a0022da743b6a0522eb
:100d680083f88520e9e23b6a192283f88520e4e2ca
:100d78003b6a93f887300b2b40f0df823b6a1922dd
:100d880083f88520d9e23b6a93f88230dbb2012be5
:100d980006d13b6a93f884203b6a83f88520cee22b
:100da8003b6a93f88230dbb2022b40f0c8823b6a80
:100db800192283f88520c2e23b6a9b6a0122194600
:100dc800386a09f0defe0346002b08d03b6a06228b
:100dd80083f884203b6a042283f88520b4e23b6ac6
:100de8000022da743b6a192283f88520ace23b6a58
:100df8009b6a1b78fe2b0ad13b6a072283f8852061
:100e0800386a0cf064fc3b6a0022da749ce23b6aa4
:100e1800db7c83f00103dbb2002b11d0fa21386aa6
:100e28000bf05afe034683f00103dbb2002b04d01b
:100e38003b6a192283f8852086e23b6a0122da742c
:100e48003b6a93f82130dbb2002b07d03b6a0022c3
:100e5800da743b6a192283f8852075e23b6a052219
:100e680083f8852070e2fb691b694ff4007219460c
:100e7800386a09f086fe0346002b08d03b6a082230
:100e880083f884203b6a042283f885205ce23b6a6d
:100e9800192283f8852057e23b6a9b6a0222194689
:100ea800386a09f06efe0346002b08d03b6a092217
:100eb80083f884203b6a042283f8852044e23b6a55
:100ec800192283f885203fe2f0140020fb691b7f7c
:100ed800092b18d1fb699b695a1efb699a61fb694a
:100ee8009b69002b04d13b6a0a2283f885202be2f8
:100ef800fb691b6903f50072fb691a613b6a0522ed
:100f080083f8852020e23b6a0b2283f885201be2c8
:100f18003b6a9b6a01221946386a09f032fe034689
:100f2800002b08d03b6a182283f884203b6a0422ed
:100f380083f8852008e23b6a192283f8852003e2ba
:100f480000220521786800f0ddfc3b6a93f88730c1
:100f58000c2b04d13b6a0b2283f88520f1e13b6a14
:100f680093f887300b2b40f0ec813b6a192283f809
:100f78008520e6e1fb69197ffb695b691a46786899
:100f880000f0c0fc3b6a93f887300c2b0ed13b6a0b
:100f980093f88c30002b04d13b6a0c2283f885200f
:100fa800d1e13b6a192283f88520cce13b6a93f8aa
:100fb80087300b2b40f0c7813b6a192283f88520c4
:100fc800c1e1fb691b7f0b2b04d13b6a9b6afc22a6
:100fd8001a7003e03b6a9b6afe221a703b6a9b6a9e
:100fe80001221946386a09f081fd0346002b08d012
:100ff8003b6a0d2283f884203b6a042283f885200b
:10100800a2e13b6a192283f885209de1fb691b69ef
:101018004ff400721946386a09f068fd0346002b40
:1010280008d03b6a0e2283f884203b6a042283f8a6
:10103800852089e13b6a192283f8852084e13b6a8f
:10104800db6a02221946386a09f050fd0346002b74
:1010580008d03b6a0f2283f884203b6a042283f875
:10106800852071e13b6a192283f885206ce13b6a8f
:101078009b6a01221946386a09f083fd0346002b52
:1010880008d03b6a102283f884203b6a042283f844
:10109800852059e13b6a192283f8852054e13b6a8f
:1010a8009b6a1b7803f01f03052b04d03b6a1922a7
:1010b80083f8852048e13b6a112283f885203b6a42
:1010c8000022da7440e13b6a9b6a01221946386ab9
:1010d80009f057fd0346002b08d03b6a122283f81b
:1010e80084203b6a042283f885202de13b6a19227b
:1010f80083f8852028e13b6a9b6a1b78002b2bd15b
:101108003b6adb7c83f00103dbb2002b11d0fa21b0
:10111800386a0bf0e1fc034683f00103dbb2002bd5
:1011280004d03b6a192283f885200de13b6a01222d
:10113800da743b6a93f82130dbb2002b07d03b6aa4
:101148000022da743b6a192283f88520fce03b6aa6
:10115800112283f88520f7e0386a0cf0b8fa3b6a68
:101168000022da743b6a132283f88520ece0fb69dd
:101178001b7f0b2b18d1fb699b695a1efb699a616f
:10118800fb699b69002b04d13b6a142283f88520f4
:10119800dae0fb691b6903f50072fb691a613b6ab7
:1011a8000c2283f88520cfe03b6a0b2283f8852048
:1011b800cae03b6a9b6afd221a703b6a9b6a01225d
:1011c8001946386a09f092fc0346002b0bd03b6a9b
:1011d800152283f884203b6a042283f885203b6a21
:1011e8000022da74b0e03b6a192283f88520abe06c
:1011f8003b6a9b6a01221946386a09f0c2fc034619
:10120800002b08d03b6a162283f884203b6a04220c
:1012180083f8852098e03b6a192283f8852093e0bb
:101228003b6a9b6a01221946386a09f0aafc034600
:10123800002b08d03b6a172283f884203b6a0422db
:1012480083f8852080e03b6a192283f885207be0bb
:101258003b6a9b6a1b78002b2bd13b6adb7c83f0b3
:101268000103dbb2002b11d0fa21386a0bf034fcf1
:10127800034683f00103dbb2002b04d03b6a19223a
:1012880083f8852060e03b6a0122da743b6a93f8b0
:101298002130dbb2002b07d03b6a0022da743b6aac
:1012a800192283f885204fe03b6a162283f88520af
:1012b8004ae0386a0cf00bfa3b6a0022da743b6a9f
:1012c800182283f885203fe03b6a93f88530182b75
:1012d80006d1fb6900221a72002387f8273005e03f
:1012e800fb69ff221a72012387f82730fb695b68c4
:1012f800dbb21a013b6a5b681344bb61bb695b687c
:10130800002b08d0bb695b68fa69d168ba69926832
:1013180097f827009847386a0bf03cff3b6a002291
:1013280083f889203b6a002283f885200ce000bfff
:101338000ae000bf08e000bf06e000bf04e000bf0d
:1013480002e000bf00e000bf3b6a9433fb60fb682b
:10135800002b02d0fb6801221a7000bf2837bd4657
:0413680080bd00bf85
:020000040000fa
:10136c0080b584b000af78607b68c42202fb03f3c5
:10137c00c14a1344fb60fb6893f88830172b00f2ca
:10138c009e8201a252f823f0f513000021140000f4
:10139c00cb1800004914000077140000bf140000a3
:1013ac002715000061150000a1150000591600005a
:1013bc00b5160000d9160000071700004f170000e3
:1013cc00cb180000cb18000077170000b5170000f1
:1013dc00fd170000251800005118000083180000ac
:1013ec00b7180000c1180000fb6800221a64fb68e3
:1013fc00002283f84820fb6893f9803018460cf0e3
:10140c00befd9e49f8680af08bfdfb68012283f84b
:10141c00882071e2fb68db6a0a221946f8680af038
:10142c009bfa0346002b04d0fb68032283f8882028
:10143c0062e2fb68172283f888205de2fb6893f870
:10144c008230dbb2012b04d1fb68042283f88820a4
:10145c0037e2fb6893f88230dbb2022b40f031822a
:10146c00fb68172283f888202be200220021786881
:10147c0000f046fafb6893f887300c2b0ed1fb6812
:10148c0093f88c30012b04d1fb68052283f888205b
:10149c0019e2fb68012283f8882014e2fb6893f8b8
:1014ac0087300b2b40f00f82fb68172283f88820c3
:1014bc0009e24ff4d5720221786800f021fafb683a
:1014cc0093f887300c2b1dd1fb68d3f89030c3f305
:1014dc000b03b3f5d57f0cd1fb6893f88c3003f07c
:1014ec000403dbb2002b04d1fb68012283f8232018
:1014fc0003e0fb68002283f82320fb68062283f8b4
:10150c008820e2e1fb6893f887300b2b40f0dd81fb
:10151c00fb68172283f88820d7e100221021786815
:10152c0000f0eef9fb6893f887300c2b07d1fb68c1
:10153c00072283f88820fb680022da74c7e1fb6875
:10154c0093f887300b2b40f0c281fb68172283f88d
:10155c008820bce100220f21786800f0d1f9fb68eb
:10156c0093f887300c2b04d1fb68082283f8882071
:10157c00afe1fb6893f887300b2b40f0aa81fb6836
:10158c00172283f88820f8680cf09ff8fb6800227b
:10159c00da749ee1fb6893f823309b071a461221fc
:1015ac00786800f0adf9fb6893f887300c2b3cd1d0
:1015bc00fb6893f88c30002b0ad1fb68092283f866
:1015cc008820f8680cf081f8fb680022da7482e15c
:1015dc00fb68db7c83f00103dbb2002b12d04ff4f1
:1015ec007a71f8680bf076fa034683f00103dbb2ec
:1015fc00002b04d0fb68172283f888207ce1fb6861
:10160c000122da74fb6893f82130dbb2002b07d08f
:10161c00fb68172283f88820fb680022da745ae1f1
:10162c00fb68072283f8882055e1fb6893f8873024
:10163c000b2b40f05081f8680cf047f8fb68002247
:10164c00da74fb68172283f8882044e10022102109
:10165c00786800f055f9fb6893f887300c2b18d19b
:10166c00fb68d3f8903003f08043002b08d0fb6864
:10167c00012283f8482007e0f0140020801a0600ad
:10168c00fb68002283f84820fb680a2283f8882034
:10169c0023e1fb6893f887300b2b40f01e81fb682d
:1016ac00172283f8882018e1fb689b6b1946f868b1
:1016bc000af036fcfb689b6a0a221946f86809f0a6
:1016cc005efafb680b2283f8882015e1fb6893f81f
:1016dc008230dbb2012b04d1fb680c2283f888200a
:1016ec00fde0fb6893f88230dbb2022b40f0f78010
:1016fc00fb68172283f88820f1e000220321786828
:10170c0000f0fef8fb6893f887300c2b0ed1fb68c9
:10171c0093f88c30002b04d1fb680d2283f88820c1
:10172c00dfe0fb68172283f88820dae0fb6893f887
:10173c0087300b2b40f0d580fb68172283f888206c
:10174c00cfe0fb681b6b14221946f86809f017faf6
:10175c000346002b04d0fb68102283f88820cbe0d2
:10176c00fb68172283f88820c6e0fb6893f8823068
:10177c00dbb2012b0cd1fb681b6b184607f006fe85
:10178c000246fb681a64fb68112283f88820aae0e1
:10179c00fb6893f88230dbb2022b40f0a480fb682c
:1017ac00172283f888209ee000220421786800f03c
:1017bc00a7f8fb6893f887300c2b0ed1fb6893f8d5
:1017cc008c30002b04d1fb68122283f888208ce02b
:1017dc00fb68172283f8882087e0fb6893f8873032
:1017ec000b2b40f08280fb68172283f888207ce06a
:1017fc00fb685b6b14221946f86809f0c0f90346c4
:10180c00002b04d0fb68132283f8882074e0fb685b
:10181c00172283f888206fe0fb6893f88230dbb2e4
:10182c00012b04d1fb68142283f888205fe0fb684d
:10183c0093f88230dbb2022b59d1fb68172283f864
:10184c00882054e000221121786800f059f8fb68d8
:10185c0093f887300c2b04d1fb68152283f8882071
:10186c0047e0fb6893f887300b2b42d1fb681722bb
:10187c0083f888203de04ff400720721786800f06f
:10188c003ff8fb6893f887300c2b04d1fb681622c9
:10189c0083f888202fe0fb6893f887300b2b2ad134
:1018ac00fb68172283f8882025e0fb68002283f868
:1018bc00882021e0fb68002283f888201ce000bf10
:1018cc001ae000bf18e000bf16e000bf14e000bf34
:1018dc0012e000bf10e000bf0ee000bf0ce000bf44
:1018ec000ae000bf08e000bf06e000bf04e000bf54
:1018fc0002e000bf00e000bf00bf1037bd4680bd56
:020000040000fa
:10190c0080b586b000aff8600b467a60fb72fb685e
:10191c00c42202fb03f3b64a13447b617b6993f840
:10192c0087300c2b00f2768201a252f823f000bf14
:10193c0071190000e5190000231a00006f1a00004d
:10194c00bb1a0000fb1c0000571d0000051c00000a
:10195c00d71d0000031e00000d1e0000171e000006
:10196c00171e00007b6900229a747b683b61fb7a2e
:10197c00a04a12f833207b699b6a42f04002d2b233
:10198c001a707b699b6a0133fa7c1a707b699b6abb
:10199c000233ba7c1a707b699b6a03337a7c1a70a7
:1019ac007b699b6a04333a7c1a70fb7a7a69926a77
:1019bc0005329049db000b445b7813707b699b6aa2
:1019cc000633ff221a707b690a2283f824207b6974
:1019dc00012283f887202ce27b699b6a0622194638
:1019ec00786909f081f8034683f00103dbb2002b20
:1019fc0004d07b690a2283f887201ae2fb7a052b34
:101a0c0004d07b69032283f8872012e27b690222cf
:101a1c0083f887200de27b6993f88230dbb2012bcf
:101a2c0013d17b699b6a01221946786909f0a7f8e2
:101a3c000346002b04d07b69032283f88720ebe15b
:101a4c007b690a2283f88720e6e17b6993f8823070
:101a5c00dbb2022b40f0e0817b690a2283f88720fd
:101a6c00dae17b6993f88230dbb2012b13d17b690d
:101a7c009b6a01221946786909f081f80346002b0c
:101a8c0004d07b69042283f88720c7e17b690a2292
:101a9c0083f88720c2e17b6993f88230dbb2022b9a
:101aac0040f0bc817b690a2283f88720b6e17b6910
:101abc0093f88230dbb2012b40f08c807b699b6aff
:101acc001a787b6983f88c207b6993f88c30ff2b18
:101adc0016d17b6993f82430013bdab27b6983f829
:101aec0024207b6993f82430002b04d17b690a22d3
:101afc0083f887209de17b69032283f8872098e196
:101b0c00fb7a3c4adb0013449b78042b6ed801a271
:101b1c0052f823f0351b0000911b00005d1b0000e8
:101b2c00f91b0000b91b00007b699b6a0122194656
:101b3c00786909f024f80346002b04d07b6908224d
:101b4c0083f8872053e07b690a2283f887204ee0d4
:101b5c007b6993f88c207b6983f88d207b699b6a69
:101b6c0001221946786909f00af80346002b04d0c3
:101b7c007b69052283f8872039e07b690a2283f888
:101b8c00872034e07b699b6a01221946786908f04a
:101b9c00f6ff0346002b04d07b69072283f88720cd
:101bac0025e07b690a2283f8872020e07b699b6a09
:101bbc0004221946786908f0e2ff0346002b04d092
:101bcc007b69062283f8872011e07b690a2283f85f
:101bdc0087200ce07b6993f88230dbb2022b40f05b
:101bec001f817b690a2283f8872019e100bf17e166
:101bfc00f0140020b0a600007b6993f88230dbb2b1
:101c0c00012b68d17b699b6a1a787b6983f88c20dd
:101c1c007b6993f88c30002b1cd078690bf03efd5f
:101c2c007b6900229a747b69db6a01221946786908
:101c3c0008f05aff034683f00103dbb2002b04d0fb
:101c4c007b690a2283f88720ece07b69082283f801
:101c5c008720e7e07b699b7c83f00103dbb2002be0
:101c6c0011d0642178690af011ff034683f0010357
:101c7c00dbb2002b04d07b690a2283f88720d8e0e2
:101c8c007b6901229a747b6993f82030dbb2002bbc
:101c9c0007d07b690a2283f887207b6900229a741b
:101cac00c7e07b699b6a01221946786908f067ffd7
:101cbc000346002b04d07b69072283f88720b1e010
:101ccc0078690bf0ebfc7b6900229a747b690a2221
:101cdc0083f88720a6e07b6993f88230dbb2022b75
:101cec0040f0a0807b690a2283f887209ae07b6908
:101cfc0093f88230dbb2012b1cd17b699b6a1a787a
:101d0c007b6983f88d207b69db6a0122194678692f
:101d1c0008f0eafe034683f00103dbb2002b04d08b
:101d2c007b690a2283f887207ee07b69082283f88e
:101d3c00872079e07b6993f88230dbb2022b73d178
:101d4c007b690a2283f887206ee07b6993f88230e6
:101d5c00dbb2012b2ed17b699b6ada787b6983f825
:101d6c0090207b699b6a9a787b6983f891207b69c8
:101d7c009b6a5a787b6983f892207b699b6a1a78f4
:101d8c007b6983f893207b69db6a012219467869a9
:101d9c0008f0aafe034683f00103dbb2002b04d04b
:101dac007b690a2283f8872040e07b69082283f84c
:101dbc0087203be07b6993f88230dbb2022b35d174
:101dcc007b690a2283f8872030e07b6993f88230a4
:101ddc00dbb2012b04d17b69092283f8872027e031
:101dec007b6993f88230dbb2022b21d17b690a220a
:101dfc0083f887201ce07b690c2283f8872018e08d
:101e0c007b690b2283f8872013e07b69002283f81f
:101e1c0087200ee000bf0ce000bf0ae000bf08e026
:101e2c0000bf06e000bf04e000bf02e000bf00e01e
:0c1e3c0000bf00bf1837bd4680bd00bfce
:020000040000fa
:101e480080b5aab000aff860b9607a607b68c7f85f
:101e58008030002387f8333007f13403f9681846d7
:101e68000bf061ffbb685a1cba601b7887f8873093
:101e780097f88730002b00f0698297f88730252b78
:101e880008d097f8872007f134031146184609f05f
:101e9800f4fc5ae20023c7f89c30d7f89c30c7f806
:101ea8009830202387f886304ff0ff33c7f89030fa
:101eb800bb685a1cba601b7887f8873097f8873058
:101ec800302b09d1302387f88630bb685a1cba609a
:101ed8001b7887f887300ce097f887302d2b08d1ce
:101ee8000223c7f89830bb685a1cba601b7887f879
:101ef800873097f887302a2b21d1d7f880301a1de0
:101f0800c7f880201b68c7f89c30bb685a1cba60a9
:101f18001b7887f887301ae0d7f89c2013469b0077
:101f280013445b001a4697f887301344303bc7f8d0
:101f38009c30bb685a1cba601b7887f8873097f8c2
:101f480087302f2b03d997f88730392be4d997f8a6
:101f580087302e2b37d1bb685a1cba601b7887f89c
:101f6800873097f887302a2b0ed1d7f880301a1d82
:101f7800c7f880201b68c7f89030bb685a1cba6045
:101f88001b7887f887301ee00023c7f8903012e0ee
:101f9800d7f8902013469b0013445b001a4697f825
:101fa80087301344303bc7f89030bb685a1cba607e
:101fb8001b7887f8873097f887302f2b03d997f845
:101fc8008730392be4d997f887306c2b0bd1d7f8a9
:101fd800983043f00403c7f89830bb685a1cba60bd
:101fe8001b7887f8873097f88730002b00f0b0818e
:101ff80097f88730583b202b00f2d78001a252f87f
:1020080023f000bfa9200000b3210000b321000085
:10201800b3210000b3210000b3210000b321000068
:10202800b3210000b3210000b3210000912000007b
:10203800b1200000a1200000b3210000b32100005e
:10204800b3210000b3210000b3210000b321000038
:10205800b3210000b3210000b3210000b321000028
:1020680099200000b3210000b3210000b321000033
:10207800cd200000b3210000a1200000b321000002
:10208800b3210000a92000000223c7f8943095e08e
:102098000823c7f8943091e00a23c7f894308de0fc
:1020a8001023c7f8943089e0d7f880301a1dc7f894
:1020b80080201b68dab207f134031146184609f08c
:1020c800dcfb42e1d7f880301a1dc7f880201b6876
:1020d800c7f88830d7f88830002b03d107f13303cd
:1020e800c7f888300023c7f8a03004e0d7f8a0303c
:1020f8000133c7f8a030d7f88820d7f8a0301344a8
:102108001b78002bf2d1d7f89030002b17dbd7f8cb
:102118009030d7f8a0209a4211d9d7f89030c7f854
:10212800a0300ce097f8862007f1340311461846d2
:1021380009f0a3fbd7f8a0300133c7f8a030d7f8cf
:10214800983003f00203002b12d1d7f8a020d7f85b
:102158009c309a42e6d30be0d7f888305a1cc7f86f
:1021680088201a7807f134031146184609f085fbd0
:10217800d7f888301b78002b0dd0d7f890305a1e2e
:10218800c7f89020002be7d105e007f134032021a0
:10219800184609f072fbd7f8a0305a1cc7f8a020df
:1021a800d7f89c209a42f0d8cfe097f8872007f11b
:1021b80034031146184609f060fbc6e0d7f898309a
:1021c80003f00403002b08d0d7f880301a1dc7f895
:1021d80080201b68c7f88c3012e097f88730642b92
:1021e80006d1d7f880301a1dc7f880201b6805e093
:1021f800d7f880301a1dc7f880201b68c7f88c30c4
:1022080097f88730642b0ed1d7f88c30002b0ada78
:10221800d7f88c305b42c7f88c30d7f8983043f049
:102228000103c7f898300023c7f8a430d7f88c30da
:10223800d7f89420b3fbf2f2d7f8941001fb02f21e
:102248009b1a87f88530d7f88c20d7f89430b2fbe2
:10225800f3f3c7f88c3097f88530092b0bd997f82a
:102268008730782b01d1272200e0072297f88530a4
:10227800134487f88530d7f8a4305a1cc7f8a4202f
:1022880097f885203032d2b207f1a8010b4403f841
:10229800982cd7f88c30002b03d0d7f8a4301f2bfc
:1022a800c4d9d7f8983003f00103002b0ad0d7f827
:1022b800a4305a1cc7f8a42007f1a80213442d2201
:1022c80003f8982cd7f8a430c7f8a0300ce097f89a
:1022d800862007f134031146184609f0cefad7f8dc
:1022e800a0300133c7f8a030d7f8983003f00203c4
:1022f800002b05d1d7f8a020d7f89c309a42e6d316
:10230800d7f8a430013bc7f8a43007f11002d7f87a
:10231800a43013441a7807f134031146184609f01b
:10232800acfad7f8a430002bead105e007f1340362
:102338002021184609f0a1fad7f8a0305a1cc7f88e
:10234800a020d7f89c209a42f0d88be500bf00e087
:1023580000bf07f1340318460af02cfb0346184661
:08236800a837bd4680bd00bf8f
:020000040000fa
:1023700080b58ab000af786039603b681b68bb608d
:102380007b681b68db683b6100237b6107f1080306
:10239000184608f0cffef860fb68b3f1ff3f01d1ab
:1023a00006230ae2fb68b3f5803f09d3fb68190cea
:1023b0007b695a1c7a615b003a6913448ab21a80bd
:1023c000fb68bb84bb8c1f2b20d9bb8c2f2b1dd053
:1023d000bb8c5c2b1ad0bb8c7f2b09d8bb8c1946cd
:1023e000ab480bf031ff0346002b01d00623e4e19c
:1023f0007b69fe2b01d90623dfe17b695a1c7a61d8
:102400005b003a691344ba8c1a80bfe7bb8c1f2b60
:1024100006d8042387f8263014e0bb680133bb607c
:10242000bb681b782f2bf8d0bb681b785c2bf4d0d3
:10243000002387f82630bb681b781f2b02d80423a3
:1024400087f82630ba683b681a607b69012b09d18e
:102450007b6903f10043013b5b003a6913441b882d
:102460002e2b16d07b69022b4ed17b6903f10043e2
:10247000013b5b003a6913441b882e2b44d17b69d6
:1024800003f10043023b5b003a6913441b882e2b87
:102490003ad17b695b003a69134400221a80002319
:1024a0003b620fe03a6a7b699a4201d22e2100e03a
:1024b00020217a683b6a134424330a461a703b6a27
:1024c00001333b623b6a0a2becd997f8263043f084
:1024d0002003d9b27a683b6a134424330a461a703f
:1024e00000236ae17b6903f10043013b5b003a6929
:1024f00013441b88bb84bb8c202b02d0bb8c2e2b9f
:1025000006d17b69013b7b617b69002bead100e04e
:1025100000bf7b695b003a69134400221a807b6923
:10252000002b01d1062348e10023bb6102e0bb6917
:102530000133bb61bb695b003a6913441b88202be4
:10254000f5d0bb69002b06d1bb695b003a69134427
:102550001b882e2b09d197f8263043f0030387f808
:10256000263002e07b69013b7b617b69002b09d04f
:102570007b6903f10043013b5b003a6913441b880c
:102580002e2befd17b6824330b22202118460bf031
:1025900051fe002387f8273000233b620823fb61ac
:1025a000bb695a1cba615b003a6913441b88bb843f
:1025b000bb8c002b00f0b780bb8c202b06d0bb8cd3
:1025c0002e2b0ad1ba697b699a4206d097f8263039
:1025d00043f0030387f82630a4e03a6afb699a4285
:1025e00003d2ba697b699a4224d1fb690b2b06d1cd
:1025f00097f8263043f0030387f8263096e0ba694f
:102600007b699a4205d097f8263043f0030387f898
:102610002630ba697b699a4200f287807b69bb6188
:1026200008233b620b23fb6197f827309b0087f858
:10263000273077e0bb8c7f2b18d997f8263043f0f2
:10264000020387f82630bb8c40f2b511184609f01a
:102650006df80346bb84bb8c03f08003002b05d0d0
:10266000bb8c03f07f030b4ad35cbb84bb8cff2b7a
:102670001fd9fb69013b3a6a9a420dd397f826307d
:1026800043f0030387f82630fb693b624ae000bf52
:1026900054c60000dcb30000bb8c1b0a99b23b6a35
:1026a0005a1c3a62c9b27a6813440a4683f8242055
:1026b0002ee0bb8c002b07d0bb8c194641480bf099
:1026c000c3fd0346002b08d05f23bb8497f8263058
:1026d00043f0030387f826301ae0bb8c402b08d95f
:1026e000bb8c5a2b05d897f8273043f0020387f8a4
:1026f0002730bb8c602b0bd9bb8c7a2b08d897f872
:10270000273043f0010387f82730bb8c203bbb8484
:102710003b6a5a1c3a62ba8cd1b27a6813440a46b0
:1027200083f824203ce700bf00e000bf7b6893f8fb
:102730002430e52b03d17b68052283f82420fb6934
:10274000082b04d197f827309b0087f8273097f89b
:10275000273003f00c030c2b05d097f8273003f03b
:102760000303032b05d197f8263043f0020387f8c3
:10277000263097f8263003f00203002b17d197f884
:10278000273003f00103002b05d097f8263043f0e3
:10279000100387f8263097f8273003f00403002b46
:1027a00005d097f8263043f0080387f826307b6879
:1027b00097f8262083f82f20002318462837bd4697
:0827c00080bd00bf60c60000ef
:020000040000fa
:1027c80080b590b000aff860b9601346fb71bb6884
:1027d80000221a60f86808f043fbf862fb6a002bd5
:1027e80001da0b23ebe1a94afb6a52f82330bb62fa
:1027f800bb6a002b01d10c23e1e1bb68ba6a1a60fd
:10280800fb7923f00103fb71bb6a1b78002b1ad0fc
:10281800bb6a5b7818460bf0affc034687f8273095
:1028280097f8273003f00103002b0cd1fb79002b1c
:1028380007d097f8273003f00403002b01d00a23b0
:10284800bde10023bbe1bb6a00221a70bb6a5b785a
:1028580018460bf0ebfa034687f8273097f827302d
:1028680003f00103002b01d00323a8e1fb79002b1f
:1028780007d097f8273003f00403002b01d00a2370
:102888009de1834afb6a5b0013445b781946b86a8a
:1028980007f0daf938633b6b042b01d101238ee191
:1028a8003b6b012b01d90d2389e1bb6a5b6b3b6252
:1028b800bb6a40330b3318460af0aafe0346b3f549
:1028c800007f01d00d237ae1bb6a403316331846e6
:1028d8000af09efe0346bb63bb6b002b06d1bb6aa6
:1028e8004033243318460af03bfab863bb6aba6b24
:1028f8001a62bb6a93f85020bb6ada70bb6adb784d
:10290800012b05d0bb6adb78022b01d00d2356e1e1
:10291800bb6adb781a46bb6b02fb03f3bb63bb6a7b
:1029280093f84d309ab2bb6a5a81bb6a5b89002b17
:1029380008d0bb6a5b891a46bb6a5b89013b1340b6
:10294800002b01d00d233ae1bb6a403311331846fe
:102958000af05efe03461a46bb6a1a81bb6a1b89e7
:1029680003f00f039bb2002b01d00d2327e1bb6ab4
:102978004033133318460af04bfe0346fb63fb6be8
:10298800002b06d1bb6a4033203318460af0e8f919
:10299800f863bb6a40330e3318460af039fe034623
:1029a800fb83fb8b002b01d10d2308e1fa8bbb6b5a
:1029b8001344ba6a1289120992b21344bb61fa6bc2
:1029c800bb699a4201d20d23f9e0fa6bbb69d31aad
:1029d800ba6a5289b3fbf2f37b617b69002b01d1a0
:1029e8000d23ece000233b637b692a4a934201d81c
:1029f80003233b637b694ff6f572934201d80223a8
:102a08003b637b6940f6f572934201d801233b632f
:102a18003b6b002b01d10d23d1e07b699a1cbb6a6b
:102a2800da61bb6a3a6a5a62fa8b3b6a1a44bb6a31
:102a38009a623a6abb691a44bb6a1a633b6b032bf6
:102a48001ed1bb6a40332a3318460af0e1fd03461b
:102a5800002b01d00d23b2e0bb6a1b89002b01d0eb
:102a68000d23ace0bb6a40332c3318460af078f9e2
:102a78000246bb6ada62bb6adb699b007b6324e0bf
:102a8800bb6a1b89002b07d10d2398e04c18002046
:102a9800141a0020f5ffff0fbb6a9a6abb6b1a4431
:102aa800bb6ada623b6b022b03d1bb6adb695b0052
:102ab8000ae0bb6ada6913465b0013445a08bb6a2a
:102ac800db6903f0010313447b63bb6a1a6a7b6bff
:102ad80003f2ff135b0a9a4201d20d236fe0bb6a2f
:102ae8004ff0ff325a61bb6a5a69bb6a1a61bb6a06
:102af80080225a713b6b032b49d1bb6a4033303378
:102b080018460af085fd0346012b40d13b6a013384
:102b18001946b86a09f00dfc0346002b37d1bb6a89
:102b280000225a71bb6a403303f5ff7318460af056
:102b38006ffd03461a464af655239a4227d1bb6ac7
:102b4800403318460af00cf902461f4b9a421ed130
:102b5800bb6a403303f5f27318460af001f90246de
:102b68001a4b9a4213d1bb6a403303f5f4731846e3
:102b78000af0f6f80246bb6a5a61bb6a403303f5ad
:102b8800f67318460af0ecf80246bb6a1a613b6b0a
:102b9800dab2bb6a1a700e4b1b8801339ab20c4b1f
:102ba8001a800b4b1a88bb6ada80bb6a094ada605a
:102bb800bb6a00229a61b86a0af01ef80023184618
:102bc8004037bd4680bd00bf5252614172724161bb
:082bd800121a0020f010002089
:020000040000fa
:102be00080b59ab000aff860b9601346fb71fb681e
:102bf000002b01d10923b3e1fb7903f03f03fb7103
:102c0000fa7907f1140107f108031846fff7dcfd14
:102c1000034687f8673097f86730002b40f09781bc
:102c20007b69bb61ba6807f118031146184605f0c5
:102c30002bfe034687f8673097f86730002b1ad1d0
:102c400097f847305bb2002b03da062387f867302a
:102c500011e0fb7923f00103002b14bf01230023b3
:102c6000dbb21a4607f118031146184607f006fbb7
:102c7000034687f86730fb7903f01c03002b7fd0f5
:102c800097f86730002b17d097f86730042b0ed1d8
:102c90000af0d2f80346002b06d007f118031846b5
:102ca00002f034fe034600e0122387f86730fb7918
:102cb00043f00803fb7110e0bb7f03f01103002b0e
:102cc00003d0072387f8673007e0fb7903f004039c
:102cd000002b02d0082387f8673097f86730002b65
:102ce00068d1fb7903f00803002b63d009f006fddf
:102cf000b865bb6b0e33b96d184609f0d1fbbb6be1
:102d00001633b96d184609f0cbfb7b69ba6b1146d7
:102d100018460af081fa7865bb6b0b3320221a70d3
:102d20007b69b96b002218460af0f8f9bb6b1c33bb
:102d30000021184609f0b4fb7b6901221a717b6df2
:102d4000002b37d07b695b6b3b6507f118030022d2
:102d5000796d184607f0b0f8034687f8673097f8a2
:102d60006730002b26d17b69396d184609f0e5faea
:102d7000034687f867307b697a6d013a1a6119e07a
:102d800097f86730002b15d1bb7f03f01003002ba1
:102d900003d0042387f867300ce0fb7903f00203cb
:102da000002b07d0bb7f03f00103002b02d00723c9
:102db00087f8673097f86730002b28d1fb7903f04c
:102dc0000803002b03d0fb7943f04003fb717b69c0
:102dd0005a6bfb685a62ba6bfb689a62fb7923f004
:102de0000103002b14bf01230023dbb21a4607f1b5
:102df00018031146184605f0b9fc0246fb681a6133
:102e0000fb681b69002b02d1022387f8673097f813
:102e10006730002b40f09b807b69ba6b11461846e7
:102e20000af0faf90246fb689a60bb6b1c3318463d
:102e300009f09aff0246fb68da607a69fb681a605b
:102e40007b69da88fb689a80fb68fa791a75fb68f7
:102e500000225a75fb6800221a62fb6800229a6100
:102e6000fb6830334ff40072002118460bf0e2f992
:102e7000fb7903f02003002b69d0fb68db68002b93
:102e800065d0fb68da68fb689a617b695b895b02e5
:102e9000fb64fb689b683b66fb68db68fb6516e0d0
:102ea000fb68396e184604f0f0fe38663b6e012b65
:102eb00002d8022387f867303b6eb3f1ff3f02d19f
:102ec000012387f86730fa6dfb6cd31afb6597f81e
:102ed0006730002b03d1fa6dfb6c9a42e0d8fb6897
:102ee0003a6eda6197f86730002b27d1fb6dc3f398
:102ef0000803002b22d07b69396e18460af06df961
:102f000038653b6d002b03d1022387f8673015e04d
:102f1000fb6d5a0a3b6d1a44fb681a627b6958784c
:102f2000fb6803f13001fb681a6a01230af0eafb2f
:102f30000346002b02d0012387f8673097f86730eb
:102f4000002b04d0fb681b69184608f0c5fa97f8f7
:102f50006730002b02d0fb6800221a6097f86730b8
:082f600018466837bd4680bd2c
:020000040000fa
:102f680080b594b000aff860b9603b601346fb7160
:102f78004ff0ff33fb640023bb64002387f847301e
:102f8800002387f84630002387f83f30002387f86e
:102f9800453000233b64fb68002b0ed0bb68002b38
:102fa8000bd0fb79012b0ed0fb79022b0bd0fb79d0
:102fb800032b08d0fb79042b05d0a84b13221a70d9
:102fc8004ff0ff3346e1f86807f00cfa034683f048
:102fd8000103dbb2002b05d0a04b03221a704ff07f
:102fe800ff3337e19d4b00221a70002387f84730e2
:102ff8000ce097f847309a4a12f83330fa799a4237
:1030080009d097f84730013387f8473097f84730a9
:10301800012beed100e000bf97f84730002b05d018
:103028008e4b15221a704ff0ff3313e107f114038a
:103038001946f86808f034f8034687f8453097f8d9
:10304800453083f00103dbb2002b05d0834b01220e
:103058001a704ff0ff33fde03b7efa799a4208d0b0
:103068003b7e002b05d07d4b16221a704ff0ff33a4
:10307800f0e07c4bbb634ff0ff337b63bb6b1b788b
:10308800012b04d1bb6b00221a70012300e000233e
:1030980087f83f3097f93f30012b05d06f4b072257
:1030a8001a704ff0ff33d5e0002387f8453000232e
:1030b80087f8463015e097f846301b016a4a1344f2
:1030c800bb64bb6c1b7883f00103dbb2002b03d01d
:1030d800012387f8453008e097f84630013387f830
:1030e800463097f84630012be5d197f8453083f004
:1030f8000103dbb2002b0dd05a4b3b633b6b002b1b
:1031080002d03b6b01221a70544b14221a704ff0f4
:10311800ff339fe0bb6cfa795a7097f84730504af2
:10312800db0013445a68bb6c5a60bb6c00221a73ec
:10313800bb6805333b6408e03b6c01333b64bb6c04
:103148001b7b0133dab2bb6c1a733b6c1b782f2bd9
:1031580003d03b6c1b78002beed1bb685a1dbb6caf
:103168009a607b69dab2bb6c5a73bb6c0e33fb6234
:103178004ff0ff33bb62fb6a1b78012b04d1fb6a5b
:1031880000221a70012300e0002387f83f3097f9e6
:103198003f30012b0dd0314b07221a70314b7b6227
:1031a8007b6a002b02d07b6a01221a704ff0ff3332
:1031b80050e0bb6c5b689b6c002b07d0bb6c5b68fa
:1031c8009b6cba6c527b1046984702e0234b17223f
:1031d8001a70bb6c5b681b68002b11d0bb6c5b68fa
:1031e8001b68ba6c527b10469847f864fb6cdab2dd
:1031f8001a4b1a70fb6c0d2b08d10023fb6405e0f9
:10320800164b17221a704ff0ff33fb64bb6c0e335a
:103218003b623b6a002b02d03b6a01221a70fb6cae
:10322800002b08d1bb6c01221a70104b01221a70b6
:103238000e4abb6c53600b4bfb61fb69002b02d041
:10324800fb6901221a70fb6c002b01d1002301e0fd
:103258004ff0ff3318465037bd4680bd191a00207d
:1032680044180020181a0020d0190020f81900204e
:020000040000fa
:1032780080b58cb000aff860b9607a603b60bb681d
:10328800fb613b6800221a60fb6807f110021146d7
:10329800184608f0dffc034687f82f3097f82f30e0
:1032a800002b07d1fb685b7d87f82f3097f82f300c
:1032b800002b02d097f82f303fe1fb681b7d03f00d
:1032c8000203002b01d1072337e1fb689a697b6869
:1032d8001a44fb689b699a4280f02181fb689b69cc
:1032e800db437b601be1fb689b69c3f30803002b8e
:1032f80040f0d780fb689b695b0a3a695289013aba
:103308001340bb61bb69002b37d1fb689b69002b5d
:103318000cd1fb689b68bb62bb6a002b0ed1fb68b3
:103328000021184603f014fbb86207e0fa68fb684e
:10333800db691946104603f00bfbb862bb6a002b29
:1033480000f0f280bb6a012b04d1fb6802225a7597
:103358000223f2e0bb6ab3f1ff3f04d1fb6801220c
:103368005a750123e9e0fb68ba6ada61fb689b6871
:10337800002b02d1fb68ba6a9a60fb681b7d5bb2be
:10338800002b18da3b695878fb6803f13001fb68b9
:103398001a6a012308f028fe0346002b04d0fb68b4
:1033a80001225a750123c8e0fb681b7d03f07f03e7
:1033b800dab2fb681a753a69fb68db691946104688
:1033c80009f007ff78617b69002b04d1fb680222b2
:1033d8005a750223b1e07a69bb6913447b617b6843
:1033e8005b0a3b623b6a002b3cd0ba693b6a1344d8
:1033f8003a695289934205d93b695b891a46bb6988
:10340800d31a3b623b6958783b6a7a69f96908f0d4
:10341800ebfd0346002b04d0fb6801225a750123fb
:103428008be0fb681a6a7b69d31a3a6a9a4215d903
:10343800fb6803f13000fb681a6a7b69d31a5b02e8
:10344800fa6913444ff4007219460af061fefb68ea
:103458001b7d03f07f03dab2fb681a753b6a5b02d7
:103468007b623fe0fb681b6a7a699a4216d0fb6868
:103478009a69fb68db689a4210d23b695878fb6806
:1034880003f1300101237a690af038f90346002b69
:1034980004d0fb6801225a7501234ee0fb687a6963
:1034a8001a62fb689b69c3f30803c3f500737b6268
:1034b8007a6a7b689a4201d97b687b62fb6803f170
:1034c8003002fb689b69c3f3080313447a6af969fd
:1034d80018460af01dfefb681b7d63f07f03dab215
:1034e800fb681a757a687b6ad31a7b603b681a682e
:1034f8007b6a1a443b681a60fa697b6a1344fb6169
:10350800fb689a697b6a1a44fb689a61fb68da6807
:10351800fb689b699a4238bf1a46fb68da607b6889
:10352800002b7ff4e0ae00e000bffb681b7d43f09a
:103538004003dab2fb681a75002318463037bd46d7
:0235480080bd44
:020000040000fa
:10354a002de9f04f099f154604468e461e46002b6c
:10355a0040f0cc808a42b2fa82fc4cd9bcf1000f0e
:10356a000bd0ccf1200801fa0cfe20fa08f802fa76
:10357a000cf548ea0e0e00fa0cf44fea15491ffa48
:10358a0085f8befbf9fa210c09fb1ae30afb08fbd2
:10359a0041ea03439b452ad9eb180af1ff3004d2ca
:1035aa009b4502d9aaf102002b44a3eb0b03a4b258
:1035ba00b3fbf9f209fb123302fb08f844ea0344ad
:1035ca00a04516d92c1902f1ff3303d2a04501d91f
:1035da00931e2c44a4eb080443ea004027b124fac2
:1035ea000cf400233c607b603146bde8f08f504606
:1035fa00dbe71346eee702b9ffdebcf1000f2ed17e
:10360a008b1a01264fea154eaab2b3fbfef8210c1b
:10361a000efb183308fb02f941ea0343994561d9c5
:10362a00eb1808f1ff3004d2994502d9a8f102003b
:10363a002b44a3eb0903a4b2b3fbfef10efb113337
:10364a004a4344ea0344a2424ed92c1901f1ff33fa
:10365a0003d2a24201d98b1e2c44a41abce7ccf196
:10366a00200e02fa0cf521fa0ef901fa0cf320faef
:10367a000efe4eea03034fea154800fa0cf4b9fbb2
:10368a00f8f11ffa85fe08fb1192180c01fb0ef6e1
:10369a0040ea0242964221d9aa1801f1ff3003d228
:1036aa00964201d9881e2a44921b9bb2b2fbf8f9b2
:1036ba0008fb192209fb0efe43ea02439e450fd975
:1036ca00eb1809f1ff3604d29e4502d9a9f1020688
:1036da002b44a3eb0e0346ea004693e70846e3e7ca
:1036ea004e46f6e74046a4e70b46b6e78b4206d9b4
:1036fa00002f7ed00026c7e90001304674e7b3faee
:10370a0083fcbcf1000f0fd18b4201d3824209d84e
:10371a00841a61eb030e0120002f6dd0c7e9004e19
:10372a00002661e76046f7e7ccf1200e03fa0cf3b6
:10373a0022fa0ef521fa0ef41d4301fa0cf320facf
:10374a000ef10b434fea154a00fa0cf6b4fbfaf9ec
:10375a001ffa85f80afb19401c0c09fb08f144ea18
:10376a000044a14202fa0cf23fd92c1909f1ff30a8
:10377a0004d2a14202d9a9f102002c44641a9bb2d4
:10378a00b4fbfaf90afb194409fb08f843ea0441b5
:10379a0088452cd9691809f1ff3304d2884502d922
:1037aa00a9f10203294443ea0040a1eb0801a0fb66
:1037ba0002894945c2464c4602d306d1464504d23f
:1037ca00b8eb020a69eb05040138afb1b6eb0a039c
:1037da0061eb040606fa0efe23fa0cf34eea030323
:1037ea0026fa0cf6c7e900369ae74846c6e74b467a
:0c37fa00d9e73e463846f7e63e46f5e6c5
:020000040000fa
:02380600704709
:020000040000fa
:1038080080b584b000af78600023fb737b68c42266
:1038180002fb03f39b4a1344bb60bb6893f88630f2
:10382800082b00f21f8101a252f823f0593800003a
:1038380083380000e1380000ab3800003d39000053
:1038480063390000c5390000013a00006d3a0000f4
:10385800bb68012283f889208b49b86808f062fbad
:103868000346002b04d0bb68012283f8862004e1bc
:10387800bb68002283f88920ffe0bb68012283f837
:103888008920bb68db6a0a221946b86808f066f81e
:103898000346002b00f0e880bb68032283f88620eb
:1038a800e2e0bb6893f88230dbb2012b04d1bb683d
:1038b800022283f88620d9e0bb6893f88230dbb215
:1038c800022b40f0d380bb68012283f88620bb68b6
:1038d800002283f88920c9e0002200217868fef7d9
:1038e80011f8bb6893f887300c2b14d1bb68002201
:1038f80083f88920bb6893f88c30012b04d0bb680f
:10390800012283f88620b3e0bb68082283f886206a
:103918000123fb73ace0bb6893f887300b2b40f0b6
:10392800a780bb68002283f88920bb68012283f83e
:1039380086209de0bb6893f88930022b02d10123d1
:10394800fb739ae00123fb73bb68012283f889208b
:10395800bb68052283f886208fe00123fb730022d1
:1039680004217868fdf7ceffbb6893f887300c2bed
:1039780014d1bb6893f88c30002b04d1bb680622a5
:1039880083f8862076e0bb68002283f88920bb682c
:10399800012283f886200023fb736be0bb6893f851
:1039a80087300b2b66d1bb68002283f88920bb685f
:1039b800012283f886200023fb735be00123fb735d
:1039c8007b685b01314a134414221946b86807f032
:1039d800d8f80346002b04d0bb68072283f886205a
:1039e8004be0bb68002283f88920bb68012283f87a
:1039f80086200023fb7340e00123fb73bb6893f828
:103a08008230dbb2012b1cd1bb68002283f88920ed
:103a1800bb68586b7b685b011c4a13441322194628
:103a28000af068fb0346002b04d1bb68042283f824
:103a3800862021e0bb68012283f886200023fb73df
:103a48001ae0bb6893f88230dbb2022b14d1bb6852
:103a5800002283f88920bb68012283f8862000238e
:103a6800fb7309e000bf08e000bf06e000bf04e008
:103a780000bf02e000bf00e000bffb7b1846103724
:103a8800bd4680bdf0140020801a06009018002062
:020000040000fa
:103a980090b589b002af0023fb74ff23bb740023e9
:103aa800fb710023bb7100237b610023fb600023b3
:103ab800bb60984b1b689849184605f038fe0346ca
:103ac800fb74fb7cff2b00f01981924b1968fa7c80
:103ad80013469b001344db000b44bb60bb685b7957
:103ae800012b09d1bb681b7b042b02d1894b002217
:103af8005a75bb6800221a73bb681b7b042b00f243
:103b0800ff8001a252f823f0c73c0000253b0000cb
:103b18005f3b0000c13b0000473c0000bb689b685e
:103b28005b6aba68d2880321104698470246bb6888
:103b38005a61bb685b69b3f1ff3f00f0e380bb6883
:103b48009b681b69ba685069ba6874499847bb682a
:103b580002221a73d6e0bb689b681b68ba68526970
:103b6800104698470346002b16d0bb6893f82030c0
:103b7800002b0cd1bb689b685b68ba685269104619
:103b880098470246bb685a62bb6803221a73bb682f
:103b9800012283f82020bae0bb6893f82030012b7b
:103ba80005d1b86808f0c0f8bb6800221a71bb6874
:103bb800002283f82020aae0564b5b7d002b40f0c2
:103bc800a380544b01225a7501237b61bb685b6a51
:103bd8001b691b68fb60fb68b3f5007f08d24ff4d4
:103be8000072fb68b2fbf3f27b6902fb03f37b61b3
:103bf800484b1b694ff40072002118460af016fb67
:103c0800bb68022283f82120bb689b689c68bb685c
:103c18005869bb6803f11c013e4b1a697b69009324
:103c28000023a047bb68db69b3f1ff3f03d0bb6843
:103c380004221a736be0374b00225a7567e0bb68a1
:103c480093f92130022b0cd1bb689b68db6a002bef
:103c58005cd0bb689b68db6aba68126910469847f3
:103c680054e0bb6893f92130002b06d0294b002281
:103c78005a75bb6803221a7349e0264b1869bb685a
:103c8800591cfb1dba1d02f034ff0346bb74bb7cf4
:103c9800ff2b07d1bb79002b02d00123fb7101e078
:103ca8000023fb71b979fa79bb7cb86801f024fc70
:103cb800184b00225a75bb6802221a7327e0bb68aa
:103cc80093f82030012b02d1b86808f02df8bb68b2
:103cd80000221a70bb68002283f82020bb680022eb
:103ce8005a71bb6800229a70bb680022da70bb6800
:103cf80000225a70bb6800221a7108e000bf06e073
:103d080000bf04e000bf02e000bf00e000bf1c37b6
:103d1800bd4690bd3c1a0020501a002051c000003a
:020000040000fa
:103d280080b5d0b000af3b1d18600a46fb1c1a7066
:103d38004ff0ff33c7f83c310023a7f83a3100238e
:103d480087f82f310023c7f834310023c7f8103122
:103d580007f10c0318464ff481731a4600210af044
:103d680065fa0023c7f83031002387f82e3107f1b0
:103d78000c0207f588713b1d186803f081fd0346a6
:103d880083f00103dbb2002b02d04ff0ff3303e1d5
:103d9800d7f810315b78022b09d1fb1c1b78002b5c
:103da80005d0804b07221a704ff0ff33f4e07e4baa
:103db800c7f828314ff0ff33c7f82431d7f8283136
:103dc8001b78012b05d1d7f8283100221a7001235e
:103dd80000e0002387f82e3197f92e31012b05d00a
:103de800704b07221a704ff0ff33d5e00023a7f875
:103df8003a3120e0b7f83a2113461b0113441b015e
:103e08006a4a1344c7f83431d7f834311b7883f041
:103e18000103dbb2002b09d0d7f8343101221a7024
:103e2800d7f81021d7f834315a6008e0b7f83a319a
:103e38000133a7f83a31b7f83a31012bdad95a4b9e
:103e4800c7f82031d7f82031002b03d0d7f820311c
:103e580001221a70b7f83a31012b05d9514b1222b9
:103e68001a704ff0ff3397e007f10c030333c7f8dc
:103e7800303107f10c039b782f2b04d007f10c038a
:103e88000233c7f830310023a7f83a3116e0b7f803
:103e98003a31d7f830211178d7f8342113440a463b
:103ea8001a74d7f830315a1cc7f830211b78002b08
:103eb80009d0b7f83a310133a7f83a31b7f83a31af
:103ec800fe2be4d900e000bfd7f810310e33c7f855
:103ed8001c314ff0ff33c7f81831d7f81c311b7865
:103ee800012b05d1d7f81c3100221a70012300e0fc
:103ef800002387f82e3197f92e31012b09d0294b51
:103f080007221a70d7f8343100221a704ff0ff33a5
:103f180042e0fb1c1b7887f82f31224b00221a70d5
:103f2800d7f810315b689b68002b14d0d7f8103194
:103f38005b689b68d7f834210832104697f82f2120
:103f480007f10c019847c7f83c01d7f83c31dab2c1
:103f5800144b1a7002e0134b17221a70d7f810315d
:103f68000e33c7f81431d7f81431002b03d0d7f823
:103f7800143101221a70d7f83c31002b03d0d7f83e
:103f8800343100221a70d7f83c31002b02d1d7f80f
:103f9800343101e04ff0ff33184607f5a077bd46ee
:103fa80080bd00bf191a0020181a0020d00e00206a
:020000040000fa
:103fb80090b591b002afb9607a603b600346fb816f
:103fc8000023fb617b687b630023bb6100233b63a9
:103fd8000023fb620023bb6200237b6100237b621a
:103fe8004ff400633b62fb89002b02d04ff0ff3394
:103ff80015e18d4b1968fa8913469b001344db00c1
:104008000b44fb61fb695b69b3f1ff3f02d14ff0e1
:10401800ff3304e1fb695b6a1b6908331b687b613a
:104028007b69b3f5007f03d97b695b0afb6218e003
:104038007b69b3f5007f04d10123fb6201237b6216
:104048000fe04ff400727b69b2fbf3f37b62bb684d
:104058007a6a02fb03f3bb603b687a6a02fb03f3ec
:104068003b60fb6a012b02d07b6a002b13d0fb69f3
:10407800022283f82120fb699b68dc68fb69586988
:10408800fb6903f11c013b680093bb687a68a04791
:10409800fb69db69c3e0644b01229a75a3e0ba6847
:1040a800fb6ab2fbf3f33b63bb68fa6ab3fbf2f259
:1040b800f96a01fb02f29b1abb61fa6abb69d31a5f
:1040c800bb623a68bb6a9a4201d23b68bb62ba6a71
:1040d800fb6a9a4246d0fb69022283f821207b6959
:1040e800b3f5006f01d27b693b62fb699b689c68f2
:1040f800fb695869fb6903f11c013b6b7a6902fb98
:1041080003f23b6a00931346484aa0470be0fb6959
:104118009b68db6a002b06d0fb699b68db6afa693f
:10412800126910469847fb6993f92130022beed0ab
:10413800fb6993f92130002b05d03b4b00229a757f
:104148004ff0ff336be0bb695b02bb61bb69374a69
:104158009818bb6a5b021a46796809f0d9ff334b95
:104168007b6301e07b687b633a68bb6a9a423fd015
:10417800fb69022283f82120fb699b68dc68fb69e4
:104188005869fb6903f11c01012300933b6b7a6baf
:10419800a0470be0fb699b68db6a002b06d0fb6934
:1041a8009b68db6afa69126910469847fb6993f9bc
:1041b8002130022beed0fb6993f92130002b05d07a
:1041c800194b00229a754ff0ff3328e03a68bb6a12
:1041d800d31a3b60ba68bb6a1344bb60bb6a5b0214
:1041e8007a6813447b603b68002b7ff458af00e08b
:1041f80000bf0d4b00229a75fb69022283f821202b
:10420800fb699b68dc68fb695869fb6903f11c0161
:10421800012300933b6b7a6ba047fb69db69184667
:104228003c37bd4690bd00bf3c1a0020000000206e
:020000040000fa
:10423800501900201c000000000000001c1a00207b
:104248001e00000001000000546869732069732093
:104258006d6963726f534420436c69636b204578c2
:10426800616d706c65000000881900201000000066
:1042780000000000a019002020000000000000003d
:10428800501800206000000000000000c019002045
:104298001000000000000000f0140020c40000001e
:1042a80000000000b01800206000000000000000be
:1042b800f01700202c00000000000000111a002058
:1042c800010000000000000098190020080000000c
:1042d800000000004c18002004000000000000004e
:1042e800121a00200200000000000000161a002028
:1042f800010000000000000010190020200000004c
:1043080000000000f0100020000200000000000083
:10431800f01900200800000000000000541a0020d6
:10432800140000000100000054de000058de000008
:104338005cde000064de000068de00001c1800205f
:1043480028000000000000006c1900201c0000007c
:10435800000000000000002000080000000000002d
:10436800f012002000020000000000003c1a0020ab
:1043780018000000010000001c1800206c19002023
:10438800e416002000000000f012002000000000e9
:10439800141a00200200000000000000800c002019
:1043a8005002000000000000000800208004000007
:1043b80000000000f016002070000000000000005f
:1043c800171a002001000000000000004418002017
:1043d8000800000000000000d019002010000000b4
:1043e80000000000f819002008000000000000008c
:1043f800d00e00202002000000000000301900202c
:104408002000000000000000181a00200200000030
:1044180000000000b017002040000000000000006d
:10442800b4150020a0000000000000001a1a0020a7
:10443800020000000100000001000000e019002057
:10444800100000000000000054160020900000003a
:1044580000000000001a0020080000000000000012
:10446800e41600200c00000000000000101a0020d4
:104478000100000000000000081a002004000000ed
:10448800000000006017002050000000000000003d
:104498000c1a0020040000000000000000000000ca
:1044a800000000006666666666666666666666663c
:020000040000fa
:1044b80080b588b000af03463960fb803b68bb61bc
:1044c80000237b61fb88002b02d04ff0ff3312e101
:1044d800fb88c42202fb03f3894a13447b617b698e
:1044e8001b78002b02d04ff0ff3304e1c4220021d7
:1044f800786909f09bfe7b6994333b613b69002b2b
:1045080001d1002303e03b6901221a700123002b2b
:1045180002d14ff0ff33eee07b699533fb60fb6817
:10452800002b01d1002303e0fb6801221a7001234c
:10453800002b02d14ff0ff33dde0bb691a687b69bd
:104548009a65bb69da687b695a66bb699a687b6950
:104558001a66bb695a687b69da65bb695a697b69ff
:10456800da66bb691a697b699a66bb699a697b696d
:104578001a67bb69da697b695a677b6900229a7096
:104588007b6901221a707b6900229a60bb695a6aaa
:104598007b69da60bb691a6c7b691a65bb69da6b7f
:1045a8007b69da64bb699a6a7b695a607b69002215
:1045b8005a65bb6993f92d207b6983f88120bb6913
:1045c80093f92c207b6983f88020bb695a6b7b693f
:1045d8009a63bb699a6b7b69da637b6901221a82e9
:1045e8007b69002283f844207b69002283f84520f8
:1045f8007b69002283f846207b69002283f88320a8
:104608007b69002283f885207b69002283f8862055
:104618007b69002283f888207b69012283f8822045
:10462800fb881b01374a1a447b699a62fb885b0145
:10463800354a1a447b691a63fb885b01334a1a447a
:104648007b695a63fb881b01314a1a447b69da6229
:104658000023fb6108e07b69da6afb691344ff22e7
:104668001a70fb690133fb61fb69092bf3d97b697c
:1046780093f98030184609f084fc7b69254a9a67cb
:104688000023fb6107e0234afb691344ff221a70e9
:10469800fb690133fb61fb690f2bf4d97b699b6ec6
:1046a800b3f1ff3f13d07b69db6eb3f1ff3f0ed050
:1046b8007b699b6e7a691849184608f023fe7b6966
:1046c800db6e7a691549184608f01cfe06e07b691e
:1046d8009b6d5b697a69114611489847bb6993f8e5
:1046e8002030002b03d0fb88184609f07dfa7b693f
:1046f80002229a70fb8818462037bd4680bd00bf4d
:10470800f0140020a0190020501800207018002074
:10471800b0190020c01900204fe1000041c8000076
:0447280065da00004e
:020000040000fa
:10472c0080b58eb000aff860b9607a603b60bb6852
:10473c007b623b6800221a60fb6807f11402114689
:10474c00184607f085fa034687f8373097f8373064
:10475c00002b07d1fb685b7d87f8373097f8373033
:10476c00002b02d097f8373009e1fb681b7d03f072
:10477c000103002b01d1072301e1fb68da68fb6818
:10478c009b69d31a3b627a683b6a9a4240f2f28088
:10479c003b6a7b60eee0fb689b69c3f30803002b6c
:1047ac0040f0ba80fb689b695b0a7a695289013ace
:1047bc001340fb61fb69002b23d1fb689b69002b29
:1047cc0003d1fb689b683b6307e0fa68fb68db6915
:1047dc001946104603f053fa38633b6b012b04d88f
:1047ec00fb6802225a750223c9e03b6bb3f1ff3f11
:1047fc0004d1fb6801225a750123c0e0fb683a6bb7
:10480c00da617a69fb68db691946104608f0dffc4f
:10481c00b861bb69002b04d1fb6802225a750223d4
:10482c00ade0ba69fb691344bb617b685b0abb6290
:10483c00bb6a002b39d0fa69bb6a13447a69528976
:10484c00934205d97b695b891a46fb69d31abb6213
:10485c007b695878bb6aba69796a08f04dff0346e0
:10486c00002b04d0fb6801225a75012387e0fb68fa
:10487c001b7d5bb2002b14dafb681a6abb69d31a76
:10488c00ba6a9a420dd9fb681a6abb69d31a5b02e1
:10489c007a6ad018fb6830334ff40072194609f06d
:1048ac0035fcbb6a5b02fb6250e0fb681b6aba69b1
:1048bc009a422ed0fb681b7d5bb2002b18da7b6909
:1048cc005878fb6803f13001fb681a6a012307f082
:1048dc0089fb0346002b04d0fb6801225a75012387
:1048ec004de0fb681b7d03f07f03dab2fb681a75a1
:1048fc007b695878fb6803f130010123ba6908f031
:10490c00fbfe0346002b04d0fb6801225a750123e1
:10491c0035e0fb68ba691a62fb689b69c3f308034c
:10492c00c3f50073fb62fa6a7b689a4201d97b6813
:10493c00fb62fb6803f13002fb689b69c3f308035d
:10494c001344fa6a1946786a09f0e0fb7a68fb6a44
:10495c00d31a7b603b681a68fb6a1a443b681a607e
:10496c007a6afb6a13447b62fb689a69fb6a1a4495
:10497c00fb689a617b68002b7ff40daf002318460f
:06498c003837bd4680bd76
:020000040000fa
:1049920080b5dcb000af3b1d18603b4619603b1d83
:1049a2001b68c7f860313b1d1b6800221a7007f5af
:1049b20092713b1d00221846fdf705ff034687f85a
:1049c2006f3197f86f31002b40f00781d7f824310f
:1049d200c7f828313b461b68c7f86831d7f824313d
:1049e2009b69c7f83031b8e007f594732021184667
:1049f20004f069fb034687f86f3197f86f31002b9b
:104a020040f0b580d7f82431d7f844211146184632
:104a120007f092fc034687f86f3197f86f31002b4d
:104a220040f0a780d7f82431d7f84821114618461c
:104a320008f0f1fb0346c7f8303107f59473002103
:104a4200184604f040fb034687f86f3197f86f3140
:104a5200002b40f0908007f594730021184602f075
:104a6200c6ff034687f86f3197f86f31002b1ad1d2
:104a7200d7f82431d7f848211146184608f0cbfb65
:104a82000246d7f85c3193420fd007f594730021a8
:104a9200184603f01cfc034687f86f3197f86f3114
:104aa200002bd8d002e000bf00e000bf97f86f31c2
:104ab200042b02d1022387f86f3197f86f31002b54
:104ac2005bd107f10c0207f594731146184600f00a
:104ad200fbfb0023c7f8643104e0d7f864310133eb
:104ae200c7f8643107f10c02d7f864311344163366
:104af2001b78002bf1d1d7f864310133d7f8682144
:104b02009a421ad2112387f86f3137e0d7f864310d
:104b1200013bc7f864313b1d1a68d7f86831013b85
:104b2200c7f86831d7f86831134407f10c01d7f898
:104b320064210a44163212781a70d7f86431002bb5
:104b4200e4d13b1d1a68d7f86831013bc7f86831d8
:104b5200d7f8683113442f221a70d7f83031c7f8ca
:104b62005c31d7f85c31002b7ff43eaf06e000bf2a
:104b720004e000bf02e000bf00e000bf97f86f3121
:104b8200002b2ad13b46d7f868211b689a420bd1e9
:104b92003b1d1a68d7f86831013bc7f86831d7f86e
:104ba200683113442f221a7097f86f31002b14d1f9
:104bb2003b1d1a68d7f86831591cc7f868111a44a6
:104bc200d7f86031591cc7f8601112781a703b4649
:104bd200d7f868211b689a42ead3d7f860310022dd
:104be2001a7097f86f31184607f5b877bd4680bd41
:020000040000fa
:104bf20080b588b000af786039607b6807f1080241
:104c02001146184607f029f80346fb77fb7f002b75
:104c120002d17b685b7dfb77fb7f002b01d0fb7fa2
:104c22000fe17b68db683a689a4208d97b681b7d92
:104c320003f00203002b02d17b68db683b607b68d8
:104c42009b693b6100237b617b687a699a613b685f
:104c5200002b00f0a780bb685b895b02fb603b69ad
:104c6200002b1bd03b685a1efb68b2fbf3f23b6978
:104c7200591efb68b1fbf3f39a420fd33b695a1eec
:104c8200fb685b421a407b689a617b689b693a6861
:104c9200d31a3b607b68db69bb6122e07b689b685f
:104ca200bb61bb69002b19d17b680021184601f05a
:104cb20052feb861bb69012b04d17b6802225a758e
:104cc2000223bee0bb69b3f1ff3f04d17b6801223e
:104cd2005a750123b5e07b68ba699a607b68ba6944
:104ce200da61bb69002b5dd03ae03a68fb68d31aff
:104cf2003b607b689a69fb681a447b689a617b68af
:104d02001b7d03f00203002b0bd07b68b9691846a8
:104d120001f021feb861bb69002b08d100233b6082
:104d220022e07b68b969184602f0aeffb861bb6940
:104d3200b3f1ff3f04d17b6801225a75012380e061
:104d4200bb69012b04d9bb68db69ba699a4204d3f7
:104d52007b6802225a75022373e07b68ba69da61c2
:104d62003a68fb689a42c0d87b689a693b681a44e1
:104d72007b689a613b68c3f30803002b12d0bb68bf
:104d8200b969184608f028fa78617b69002b04d1ca
:104d92007b6802225a75022353e03b685b0a7a69f8
:104da20013447b617b689a697b68db689a420ad903
:104db2007b689a697b68da607b681b7d43f04003fd
:104dc200dab27b681a757b689b69c3f30803002b10
:104dd20036d07b681b6a7a699a4231d07b681b7d28
:104de2005bb2002b18dabb6858787b6803f130019c
:104df2007b681a6a012307f0faf80346002b04d0f5
:104e02007b6801225a7501231be07b681b7d03f03e
:104e12007f03dab27b681a75bb6858787b6803f146
:104e2200300101237a6908f06cfc0346002b04d0a0
:104e32007b6801225a75012303e07b687a691a6252
:0a4e4200fb7f18462037bd4680bdf7
:020000040000fa
:104e4c0080b58eb000afb9607b600346fb73134630
:104e5c00bb7307f11002fb7b0121184606f025fc01
:104e6c000346002b01d0012308e13b693b623f2341
:104e7c00fb77082387f8273004e097f827305b008e
:104e8c0087f8273097f82730002b0ad097f827306f
:104e9c003a6ab2fbf3f2fb7fb2fbf3f3b3f5806f2c
:104eac00ebd897f82730002b02d1ff2387f8273057
:104ebc004ff400720021786809f0b6f97b6803f5ad
:104ecc00df73bb6200237b63fb7f3b63b5e07b6bd3
:104edc009b00ba6813441b68fb62fb6a642b0dd8f9
:104eec00fb6a642b08d03b6a664aa2fb03235b096e
:104efc00fa6a02fb03f300e03b6afb623a6bfb6a63
:104f0c0013443a6a9a4205d33a6bfb6a13443a6be0
:104f1c009a4203d93a6a3b6bd31afb62fb6a002ba9
:104f2c0000f09780bb6a0833396b184607f0b2fa69
:104f3c00bb6a0c33f96a184607f0acfabb6a043347
:104f4c00ba7b1a70fb7f3a6bb2fbf3f297f82730ff
:104f5c00b2fbf3f3bb61fb7f3a6bb2fbf3f397f855
:104f6c002720b3fbf2f102fb01f29b1afb75fa7fcf
:104f7c003b6bb3fbf2f102fb01f29b1adbb2013388
:104f8c00bb75bb6a0133fa7d1a70bb699b08dbb237
:104f9c0023f03f03d9b2bb6a0233ba7d0a43d2b2c3
:104fac001a70bb6a0333ba69d2b21a703a6bfb6ad5
:104fbc0013445a1efb7fb2fbf3f297f82730b2fb77
:104fcc00f3f3bb613a6bfb6a13445a1efb7fb2fbd3
:104fdc00f3f397f82720b3fbf2f102fb01f29b1ad3
:104fec00fb753a6bfb6a1344013bfa7fb3fbf2f19e
:104ffc0002fb01f29b1adbb20133bb75bb6a0533b2
:10500c00fa7d1a70bb699b08dbb223f03f03d9b25f
:10501c00bb6a0633ba7d0a43d2b21a70bb6a073335
:10502c00ba69d2b21a70bb6a1033bb627b6b0133a4
:10503c007b633a6bfb6a13443b637b6b032b09d892
:10504c003b6b002b06d03a6b3b6a9a42fff43fafa6
:10505c0000e000bf7b6803f5ff734af65521184644
:10506c0008f086f9f87b01230022796806f0baff74
:10507c000346002b01d0012300e0002318463837eb
:08508c00bd4680bd1f85eb51fc
:020000040000fa
:10509400b0b5a8b000af786039603b46184605f05b
:1050a400e1fe07f190013b1d02221846fdf78afb41
:1050b400034687f89f3097f89f30002b40f0fd801f
:1050c400d7f89030fb657a6807f15c0311461846ff
:1050d40003f0d8fb034687f89f3097f89f30002be6
:1050e40008d197f88b3003f0a003002b02d00623dd
:1050f40087f89f3097f89f30002b08d107f15c03a5
:105104000221184605f0b8f8034687f89f3097f84f
:105114009f30002b40f0d180fb6f07f108041d463f
:1051240028686968aa68eb680fc428696969aa696c
:10513400eb690fc407f1280407f15c050fcd0fc418
:105144000fcd0fc40fcd0fc42b6823603a6807f14d
:1051540028031146184603f095fb034687f89f3051
:1051640097f89f30002b0cd13a6b7b6e9a4205d195
:10517400fa6b3b6f9a4201d1042300e0082387f8bd
:105184009f3097f89f30042b7fd107f128031846ee
:1051940000f0bafb034687f89f3097f89f30002b46
:1051a40073d1bb6cc7f89830d7f8983003f10d0071
:1051b40007f108030d331322194608f0abffd7f8a3
:1051c40098300b33fa7c1a70d7f898300b331b786d
:1051d40003f01003002b0ad1d7f898300b331a7858
:1051e400d7f898300b3342f02002d2b21a70d7f8b5
:1051f400903001221a71d7f898300b331b7803f0e2
:105204001003002b41d07a6e3b6b9a423dd0d7f805
:105214009040d7f89030d7f89810184607f0faff66
:1052240003461946204607f0d6ffc7f89400d7f87e
:105234009430002b03d1022387f89f3025e0d7f860
:105244009030d7f89410184607f075f8034687f89d
:105254009f30d7f8903040332033c7f8983097f810
:105264009f30002b11d1d7f8983001331b782e2ba7
:105274000bd1d7f890303a6bd7f89810184607f04e
:105284004bffd7f8903001221a7197f89f30002b0a
:1052940013d107f15c03184605f0c0fc034687f8f8
:1052a4009f3097f89f30002b07d1d7f890301846dd
:1052b40004f01efb034687f89f3097f89f3018468a
:0652c400a037bd46b0bd9d
:020000040000fa
:1052ca0080b588b000af786039607b681b68fb6086
:1052da003b6800229a757b68db69002b00f0068127
:1052ea007b681b6bb3f1ff3f4dd00023bb61bb69e9
:1052fa00fb6100237b8233e0fb68da68fb69591c97
:10530a00f9615b0013441b88bb827b8a002b0ad19c
:10531a00bb8ab3f5584f06d3bb8ab3f5604f02d2a6
:10532a00bb8a7b821ce07b8a1a04bb8a42ea03009e
:10533a00bb6910333a681344991dbb69c3f1ff0373
:10534a001a4606f061fab860bb68002b02d1002346
:10535a00bb610de0ba69bb681344bb6100237b8261
:10536a00fb68da68fb695b0013441b88002bc3d116
:10537a007b8a002b01d00023bb613a68bb691344c6
:10538a00163300221a700023bb61bb69fb6126e059
:10539a007b681a6afb69591cf96113441b78bb8242
:1053aa00bb8a202b00d11ae0bb8a052b01d1e52349
:1053ba00bb82fb69092b09d1bb690b2b06d8bb69d8
:1053ca005a1cba613a6813442e225a72bb695a1c93
:1053da00ba61ba8ad1b23a6813440a465a72fb6968
:1053ea000a2bd5d93a68bb691344093300221a70cb
:1053fa003b689b7d002b52d1bb69002b07d1bb694f
:10540a005a1cba613a6813443f229a7538e000235d
:10541a00bb61bb69fb610823fb752ae03a68fb693b
:10542a00134409331b78bb82bb8a2e2b01d110236c
:10543a00fb75bb8a402b0ed9bb8a5a2b0bd87b68cb
:10544a001b6a0c331a78fb7d1340dbb2002b02d0a7
:10545a00bb8a2033bb82bb8ad9b23a68bb69134480
:10546a0016330a461a70fb690133fb61bb690133c3
:10547a00bb613a68fb69134409331b78002bcdd111
:10548a003a68bb691344163300221a707b681b6a98
:10549a000c331b78002b02d13b6800225a727b68be
:1054aa001b6a0b331b7803f03f03dab23b681a72ac
:1054ba007b681b6a1c33184607f051fc02463b689e
:1054ca001a607b681b6a1633184608f0a0f8034670
:1054da001a463b68da807b681b6a1833184608f05c
:1054ea0096f803461a463b689a8000e000bf2037c8
:0454fa00bd4680bd6e
:020000040000fa
:0254fe00fee7c7
:020000040000fa
:1055000080b586b000af7860084611461a4603465b
:10551000fb700b46bb7013467b700023fb750023aa
:10552000bb737a4b5b683b610023fb730023bb8139
:10553000764b1b69bb600023fb75dde03b691b7884
:10554000002b03d03b691c333b61d2e07b681b79a5
:105550000133dab27b681a717b681b7e1a466c4b8a
:1055600053f82230184608f02ffe0346bb733b6900
:10557000981c7b681b7e1a46654b53f82230ba7b19
:10558000194608f0c9fdbb7b7a6891783a691344e3
:105590000a469a70bb7b0133bb737b681a79bb7b6d
:1055a0003032d1b23a6913440a469a70bb7b013358
:1055b000bb73bb7b3a69134400229a703b697a68db
:1055c0009a613b697a785a70bb78002b74d0bb78ab
:1055d00003f00103002b06d00023fb73bb7823f0fc
:1055e0000103bb7022e0bb7803f00203002b06d05e
:1055f0000123fb73bb7823f00203bb7016e0bb787a
:1056000003f00403002b06d00223fb73bb7823f0c6
:105610000403bb700ae0bb7803f00803002b05d03d
:105620000323fb73bb7823f00803bb707b78ff2b4d
:1056300042d0fb7b374a32f81330bb81bb89ba6852
:1056400013441a783b695a70bb890b33ba68134408
:105650001b781a06bb890a33b9680b441b781b04f4
:105660001a44bb890933b9680b441b781b021344e5
:10567000ba890832b9680a4412781a443b695a61f7
:10568000bb890733ba6813441b781a06bb890633f3
:10569000b9680b441b781b041a44bb890533b968ed
:1056a0000b441b781b021344ba890432b9680a44bc
:1056b00012781a443b691a61fb78002b09d07b6889
:1056c000d978fb7b0133dab2fb7d184607f03afe4e
:1056d00006e07b68d978fb7d0022184607f032fe91
:1056e0003b6901221a70bb78002b0ad03b691c333e
:1056f0003b61fb7d0133fb75fb7d002b3ff41eaf4f
:1057000000e000bf00bf1837bd4680bd3c1a002036
:08571000541a002030e30000f0
:020000040000fa
:1057180061001a03e0001703f8000703ff00010007
:1057280078010001300132010601390110014a01f6
:105738002e017901060180014d0043028101820199
:1057480082018401840186018701870189018a0118
:105758008b018b018d018e018f01900191019101c7
:1057680093019401f60196019701980198013d0271
:105778009b019c019d0120029f01a001a001a201a3
:10578800a201a401a401a601a701a701a901aa01d8
:10579800ab01ac01ac01ae01af01af01b101b20187
:1057a800b301b301b501b501b701b801b801ba0138
:1057b800bb01bc01bc01be01f701c001c101c201ae
:1057c800c301c401c501c401c701c801c701ca0199
:1057d800cb01ca01cd011001dd0101008e01de01fe
:1057e8001201f3010300f101f401f401f8012801a9
:1057f800220212013a020900652c3b023b023d02db
:10580800662c3f0240024102410246020a0153024d
:10581800400081018601550289018a0158028f01e1
:105828005a0290015c025d025e025f02930161020e
:10583800620294016402650266026702970196019a
:105848006a02622c6c026d026e029c017002710287
:105858009d01730274029f01760277027802790231
:105868007a027b027c02642c7e027f02a6018102fe
:105878008202a9018402850286028702ae014402df
:10588800b101b20145028d028e028f02900291028f
:10589800b7017b030300fd03fe03ff03ac03040011
:1058a8008603880389038a03b1031103c203020034
:1058b800a303a303c4030803cc0303008c038e03d0
:1058c8008f03d8031801f2030a00f903f303f40362
:1058d800f503f603f703f703f903fa03fa033004b1
:1058e800200350041007600422018a043601c10411
:1058f8000e01cf040100c004d00444016105260450
:04590800000000bfdc
:020000040000fa
:10590c0080b58cb000af78607b681b68fb617b68ee
:10591c0093f82f3003f0a003002b01d00623e0e016
:10592c0000237b6202e07b6a01337b62fb69da68ed
:10593c007b6a5b0013441b88002bf4d17b6803f15a
:10594c00240207f10c0310685168926807c3fb7db1
:10595c0003f00103002b32d07b68402283f82f2008
:10596c000123bb6216e07b6803f12400fb69da6853
:10597c0007f10c01bb6a02f0dcf8786801f0d5fb8a
:10598c00034687f82f3097f82f30002b06d1bb6acf
:10599c000133bb62bb6a632be5d900e000bfbb6a75
:1059ac00642b01d107239ce097f82f30042b02d0f5
:1059bc0097f82f3095e0fa7d7b6883f82f20fb7ddc
:1059cc0003f00203002b07d07b6a0c33474aa2fb7f
:1059dc0003239b08013300e001233b62396a78689a
:1059ec0005f014fb034687f82f3097f82f30002b67
