:020000040000fa
:10000000f0ff0320651700006f210000df210000d2
:10001000c7220000f72200004b2300000000000070
:10002000000000000000000000000000631e00004f
:100030002722000000000000631e0000631e000075
:10004000631e0000631e0000631e0000631e0000ac
:10005000631e0000631e0000631e0000631e00009c
:10006000631e0000631e0000631e000045200000a8
:100070001121000031210000631e0000631e0000fa
:10008000631e0000631e0000631e0000631e00006c
:10009000631e0000631e0000631e0000631e00005c
:1000a000631e0000631e0000631e0000631e00004c
:1000b000631e0000631e0000631e00002923000071
:1000c000631e0000631e0000631e0000631e00002c
:1000d000631e0000631e0000631e0000631e00001c
:1000e000631e0000631e000000000000000000000e
:1000f00000000000631e0000631e0000631e00007d
:10010000631e0000631e0000631e0000631e0000eb
:10011000631e0000631e0000631e0000631e0000db
:10012000631e0000631e0000631e0000631e0000cb
:10013000631e0000631e0000631e0000631e0000bb
:10014000631e0000631e0000631e0000631e0000ab
:10015000631e0000631e0000410e0000410e0000ff
:10016000410e0000410e0000631e0000631e0000ef
:10017000631e0000631e0000631e0000631e00007b
:10018000631e0000631e0000631e0000631e00006b
:10019000631e0000631e0000631e0000631e00005b
:1001a000631e0000631e0000631e0000631e00004b
:1001b000631e0000631e0000631e0000631e00003b
:1001c000631e0000631e0000631e0000631e00002b
:1001d000631e0000631e0000631e0000631e00001b
:1001e000631e0000631e0000631e0000631e00000b
:1001f000631e0000631e0000631e0000631e0000fb
:10020000631e0000631e0000631e0000631e0000ea
:10021000631e0000631e0000631e0000631e0000da
:10022000631e0000631e0000631e0000631e0000ca
:10023000631e0000631e0000631e0000631e0000ba
:10024000631e0000631e0000631e0000631e0000aa
:10025000631e0000631e0000631e0000631e00009a
:04026000631e000019
:020000040000fa
:10026400f8b500bff8bc08bc9e467047891e000064
:10027400f8b500bff8bc08bc9e467047651e000078
:020000040000fa
:08028400c006000001000000ab
:020000040000fa
:04028c000020704797
:020000040000fa
:100290002de980489fb06422002105a802f000f8f3
:1002a000002001f0e5fe0021b34802f02bf8002306
:1002b000adf810308df8123001238df81030032284
:1002c00004a9182001f00cfeac4b1a78002afcd0cf
:1002d000aa4b00221a7008238df8103003238df8e2
:1002e0001130022204a9182001f0fafda34b1a785c
:1002f000002afcd00024a14b1c702246a0492046b5
:1003000001f0e2ff22469f49204601f06bfe2246a3
:100310009d49012001f066fe21469c4801f0ecff5a
:100320009b4c9c4d0fcd0fc40fcd0fc495e807001b
:1003300003c4227001f054ff974c4ff00008dff81f
:100340009c920ff22c2bdbe900ab32e0934b1b7835
:1003500023b1934b1b78002b40f08280914b1b788c
:100360003bb3904b00221a708f4b1b78002b00f090
:100370009a80012b00f09f80022b00f0a480032bb9
:1003800000f0a980002001f04fff874b1a7802eba4
:100390008202864b03eb8202854905a801f012ff19
:1003a00005a801f029ff0346224605a9002000f018
:1003b000d1ff804b1b78002bc8d0784b1b78002bcb
:1003c00040f091806d4b1b78002bf2d06b4b0022dc
:1003d0001a70744b1b78002b40f09180764a10788d
:1003e00000f01f03507800eb0320b0f5805fa8bf3a
:1003f000a0f50050714e3578edb201f078fe42461e
:100400004b4600f0fbfd01f0bffc01f0d1fd524670
:100410005b4600f0f3fd0022694b00f0f1fb01f0b8
:10042000b3fc07ee900afceee77acded037a9df877
:100430000c2064495648284401f0c4fe0023337060
:10044000614b4ff40012c3f81c21514d284601f0b6
:10045000d3fe034622462946002000f07bffa8e792
:1004600000254e4b1d704e4b1d70574b4ff4001224
:10047000c3f81c21514f38784b4b1a7802eb82029b
:10048000434e4a4b03eb82025049304401f09afe3e
:100490003d70304601f0b0fe034622463146284604
:1004a00000f058ff5ae7404b01221a704ff4806069
:1004b00001f0c4fe66e73c4b02221a704ff4006064
:1004c00001f0bcfe5ee7384b03221a704ff48050f7
:1004d00001f0b4fe56e7344b00221a704ff400705e
:1004e00001f0acfe4ee72d4b00221a700223009360
:1004f000314b01223649182001f00cfd62e7002043
:10050000284b187001f090fe274b1b7843b1012b4c
:100510001cd0022b64d0032b74d001f061fe94e751
:10052000214b01221a701a4d2a4e0fce0fc50fce45
:100530000fc596e8030045f8040b25f8021b090ccb
:1005400029704ff4806001f079fee6e7164b022235
:100550001a700f4d204e0fce0fc50fce0fc596e867
:10056000030085e803004ff4006001f067fed4e764
:10057000cdccccccccccfc3f7922000009020020b1
:100580006522000071210000d916000051220000f0
:10059000c00000202c110000283400400802002078
:1005a0000d020020070200200b0200209c1c00000e
:1005b000741100000a02002004020020060200203c
:1005c000000040409c1100000080004158110000d4
:1005d0000c020020b4110000dc1100000000b03f4c
:1005e000124b03221a70124d124e0fce0fc50fceb2
:1005f0000fc596e8030085e803004ff4805001f032
:100600001dfe8ae7094b00221a70094d0a4e0fced3
:100610000fc50fce0fc596e8030045f8040b2970ef
:100620004ff4007001f00afe77e700bf0b020020d4
:0c063000c0000020041200002c1200008a
:020000040000fa
:10063c002de9f041aeb00646154605910027059907
:10064c000b78002b00f0fa8000244ff0ff33cde93b
:10065c0009430eab0c9380230b940d930b5d0bb1e4
:10066c00252b26d134b12246304601f026fd059bc0
:10067c0023440593059b1a78252a40f0d78003f173
:10068c000108cdf81480059803782b2b1ad025d8a7
:10069c00202b1bd0232b1dd02a2b27d001f0b8fbed
:1006ac000b90059b1a78303a092a2ed80133059302
:1006bc00f7e70134d2e7099b43f0010301300993ba
:1006cc000590e0e7099b43f00403f7e7099b43f02f
:1006dc000803f3e7099b43f01003efe72d2bead057
:1006ec00302bd9d1099b43f00203e7e72b681a1d85
:1006fc001b682a600130002b05900b9305da099ad0
:10070c005b4282f0010209920b93099bda0744bf0a
:10071c0023f002030993059b1a782e2a0dd100228f
:10072c00581c0a9205905a782a2a25d1023305932f
:10073c002b681a1d1b682a600a9305a801f0acfbf4
:10074c00059b0390187801f0c9fd6928039979d0ad
:10075c0032dc632800f0cb8019dc252800f0d9802e
:10076c00612853d000234ff0ff32cdf81480099349
:10077c000b930a920093d4e001f04afb0a90059b7c
:10078c001a78303a092ad8d801330593f7e7642848
:10079c0058d06728e6dc2a4606a801f079fc002828
:1007ac0000f0a180059b5a1c05921b7806aa09a98a
:1007bc00304601f0c2fd38e0702873d015dc6e288d
:1007cc0000f08c806f28cdd12b46002206a800f0bb
:1007dc0087fe002800f08780059b06aa013309a933
:1007ec003046059301f0a7fd1fe075283ad0782814
:1007fc0048d07328b6d1802975d1059b2a6801335e
:10080c000593131d2b60126800237de02a4606a871
:10081c0001f03efc002866d0059b5a1c05921b7803
:10082c0006aa09a9304601f088fd04443c44a742bd
:10083c007add3e4b4f221a604ff0ff3738462eb010
:10084c00bde8f0812b46012206a800f049fe0028e5
:10085c0049d0059b06aa013309a93046059300f03f
:10086c0095fee2e72b46002206a800f039fe002890
:10087c0039d0059b06aa013309a93046059301f02e
:10088c005afdd2e72b46002206a800f029fe50b3f1
:10089c00059b5a1c05921b7806aa09a9304601f043
:1008ac004cfdc2e72b460022f02106a800f018fef2
:1008bc00c8b1059b01330593dde9062313430bd126
:1008cc001b4801f093fc099b009319490b9b0246b2
:1008dc00304601f009f8a8e77823dde72b463a19f2
:1008ec0006a801f043f8059b013305939ee7802988
:1008fc00f9d1059b013305932b681a1d1b682a60df
:10090c008df8183006aa012309a9304601f06af9be
:10091c008be78029e7d1059b01330593099b009355
:10092c000b9b04490122d3e7274688e600020020ee
:08093c00322300003823000003
:020000040000fa
:100944002de9f04f099f154604468e461e46002b9e
:1009540040f0cc808a42b2fa82fc4cd9bcf1000f40
:100964000bd0ccf1200801fa0cfe20fa08f802faa8
:100974000cf548ea0e0e00fa0cf44fea15491ffa7a
:1009840085f8befbf9fa210c09fb1ae30afb08fb04
:1009940041ea03439b452ad9eb180af1ff3004d2fc
:1009a4009b4502d9aaf102002b44a3eb0b03a4b28a
:1009b400b3fbf9f209fb123302fb08f844ea0344df
:1009c400a04516d92c1902f1ff3303d2a04501d951
:1009d400931e2c44a4eb080443ea004027b124faf4
:1009e4000cf400233c607b603146bde8f08f504638
:1009f400dbe71346eee702b9ffdebcf1000f2ed1b0
:100a04008b1a01264fea154eaab2b3fbfef8210c4d
:100a14000efb183308fb02f941ea0343994561d9f7
:100a2400eb1808f1ff3004d2994502d9a8f102006d
:100a34002b44a3eb0903a4b2b3fbfef10efb113369
:100a44004a4344ea0344a2424ed92c1901f1ff332c
:100a540003d2a24201d98b1e2c44a41abce7ccf1c8
:100a6400200e02fa0cf521fa0ef901fa0cf320fa21
:100a74000efe4eea03034fea154800fa0cf4b9fbe4
:100a8400f8f11ffa85fe08fb1192180c01fb0ef613
:100a940040ea0242964221d9aa1801f1ff3003d25a
:100aa400964201d9881e2a44921b9bb2b2fbf8f9e4
:100ab40008fb192209fb0efe43ea02439e450fd9a7
:100ac400eb1809f1ff3604d29e4502d9a9f10206ba
:100ad4002b44a3eb0e0346ea004693e70846e3e7fc
:100ae4004e46f6e74046a4e70b46b6e78b4206d9e6
:100af400002f7ed00026c7e90001304674e7b3fa20
:100b040083fcbcf1000f0fd18b4201d3824209d880
:100b1400841a61eb030e0120002f6dd0c7e9004e4b
:100b2400002661e76046f7e7ccf1200e03fa0cf3e8
:100b340022fa0ef521fa0ef41d4301fa0cf320fa01
:100b44000ef10b434fea154a00fa0cf6b4fbfaf91e
:100b54001ffa85f80afb19401c0c09fb08f144ea4a
:100b64000044a14202fa0cf23fd92c1909f1ff30da
:100b740004d2a14202d9a9f102002c44641a9bb206
:100b8400b4fbfaf90afb194409fb08f843ea0441e7
:100b940088452cd9691809f1ff3304d2884502d954
:100ba400a9f10203294443ea0040a1eb0801a0fb98
:100bb40002894945c2464c4602d306d1464504d271
:100bc400b8eb020a69eb05040138afb1b6eb0a03ce
:100bd40061eb040606fa0efe23fa0cf34eea030355
:100be40026fa0cf6c7e900369ae74846c6e74b46ac
:0c0bf400d9e73e463846f7e63e46f5e6f7
:020000040000fa
:100c000030b591ea030f00f18280841a71eb030c76
:100c100005d2121953eb0c03001b71eb0c0140f2cf
:100c2000000ccff6e07c1cea430f52d0bceb410f26
:100c30005fd90c0da4eb135e5ff0010c6cf31f5138
:100c40006cf31f53def1200c2ad303fa0cf5401984
:100c500041f1000122fa0ef5401923fa0ef569411f
:100c600012fa0cf2cd0208d349085fea30005feabd
:100c7000320228bf42f001020134013c5fea500c0d
:100c800072f1004250f1000051eb04514ff4001397
:100c900013eb410f38bf30bd6ff31301002030bd9f
:100ca000bef1200ebef1200f1ed223fa0ef5401920
:100cb00041f10001cef1200c124218bf012203facb
:100cc0000cf52a43cee711ea5c0f04bf0020002197
:100cd00030bd1cea410f04bf01f00041002030bdcf
:100ce00001f00041002030bd21f4801101eb0451de
:100cf00030bd004218bf41f00101bceb410f08bffd
:100d000030bd4ff0fe4141f47801002030bd83f04a
:100d10000043841a71eb030e07d28ef0004e001bc5
:100d200071eb0e01121953eb0e0340f2000ccff6db
:100d3000e07c1cea430fc6d0bceb410f72d90c0d0e
:100d4000a4eb135ec90241ea5051c00241f00041d8
:100d5000db0243ea5253d20243f00043def1200c9f
:100d600041d312fa0cf522fa0ef203fa0cf542ea1c
:100d7000050218bf42f0010223fa0ef3801a9941ce
:100d8000e30ac4f30a0411f0404f03d418d0013c25
:100d900040004941013c23d44205c00a40ea415089
:100da000c90a51eac3715fea500c72f1004250f176
:100db000000051eb045130bd01002fd00020203c39
:100dc0000029f9d0b1fa81fcdcf1200e11fa0cf106
:100dd00030fa0ef510fa0cf02943a4eb0c04d9e715
:100de0000020d90730bdaef1200ebef1200f0dd28c
:100df000cef1200c03fa0cf533fa0ef32a4318bf98
:100e000043f00103c01a61f10001b9e721f000418c
:100e1000c00a40ea4150c90a01eb045130bd00202c
:100e2000002130bd004218bf41f00101bceb410f71
:0e0e30007ff467afbceb430f3ff463af30bd00
:020000040000fa
:020e3e007047fb
:020000040000fa
:100e40006c4b9b7d002b00f0d38010b56a4b9c6ae5
:100e5000684b5b8b13f0020f16d0674bff2283f8b1
:100e60002020022283f82120634b93f820305bb2cc
:100e7000b3f1ff3f00f08a805f4b93f820305bb204
:100e8000062b00f09c8010bd5a4b5b8b13f0010fba
:100e900007d0594bff2283f82020022283f821201b
:100ea000e2e7544b5b8b13f0040f07d0524bff2249
:100eb00083f82020012283f82120d5e74e4b93f8b8
:100ec00020305bb2032b42d0042b10d0022bcbd1ad
:100ed000494b1b692bb1484b9888002100f02eff2d
:100ee000c2e7454b9888012100f028ffbce7424a41
:100ef000936912699a420bd03f4a9268d15c3d4a8d
:100f00009162591cd369002bfcd13b4b9961abe733
:100f1000394b5b6973b1384b9b885b0043f001032d
:100f2000344a5362d369002bfcd1334b032283f83c
:100f3000202099e72f4a536843f440335360d36924
:100f4000002bfcd12c4b062283f820208ce72a4b67
:100f5000d9695b69013b8b420bd0264ad369002bd0
:100f6000fcd1244b986a244bda6850540131d96182
:100f70007ae7204a536843f4e0235360d369002b97
:100f8000fcd11d4b062283f82020e6e71a4b0022f5
:100f900083f82020174a536843f440335360d369e1
:100fa000002bfcd1134b83221a76134b5b6a002b68
:100fb0003ff469af104b5b6a2046984763e70e4bde
:100fc000002283f8202083f821200a4b83221a76fe
:100fd0001a46538b03f03003102bfad1064b5b6a91
:100fe000002b3ff450af044b5b6a204698474ae71a
:0c0ff000704700bf00080043740100209f
:020000040000fa
:100ffc00f0b540f2ff7681ea030c16ea115e1ebfd3
:10100c00b64516ea1355b54252d021ea465141f481
:10101c008011a1fb024723ea465343f48013ae44ec
:10102c00a0fb03650cf0004c36197d41a1fb034776
:10103c0047f10003a0fb0217f619654153f10003b9
:10104c00094218bf46f0010640f2fe74b3f5007f6a
:10105c0013d2aef5806ea64523d24cea0331280399
:10106c0041ea155140ea16503203450872f100422c
:10107c0050f1000051eb0e51f0bdaef2ff3ea64513
:10108c000fd24ceac321e80241ea555140ea5650ce
:10109c00f202450872f1004250f1000051eb0e5182
:1010ac00f0bd1eea0e0f2dd50cf000410020f0bd56
:1010bc0016ea115f04bf01f000410020004218bf86
:1010cc0041f0010116ea135f04bf03f00043002254
:1010dc00124218bf43f0010306ea1354b44218bf7e
:1010ec00b64503d00cf000410020f0bd21f00041ca
:1010fc0023f00043b1eb065f0cd8b3eb065f09d8c5
:10110c0041b13bb10cf0004141f0fe4141f47001a2
:10111c000020f0bd40f20001c7f6f8710020f0bdd0
:020000040000fa
:10112c00546f67676c696e67204c4544206174206e
:10113c00353030206d696c6c697365636f6e6473e8
:10114c002072617465200d0a00000000546f6767ff
:10115c006c696e67204c45442061742025732072a5
:10116c00617465200d0a00004c454420546f67677c
:10117c006c696e67207261746520697320636861a5
:10118c006e67656420746f2025730d0a00000000e3
:10119c0054656d7065726174757265203d202530e3
:1011ac00326420460d0a000053616d706c696e67e5
:1011bc002054656d70657261747572652065766515
:1011cc0072792031207365636f6e64200d0a000004
:1011dc0053616d706c696e672054656d70657261da
:1011ec00747572652065766572792032207365633b
:1011fc006f6e6473200d0a0053616d706c696e67bd
:10120c002054656d706572617475726520657665c4
:10121c0072792034207365636f6e6473200d0a003d
:10122c0053616d706c696e672054656d7065726189
:10123c007475726520657665727920353030206d55
:08124c0073200d0a000000bf31
:020000040000fa
:10125400384b00221a7403f50063374a9a621a461f
:10126400536813f0100ffbd1344b4222c3f884208f
:101274001a4600bfd2f8843013f0400ffad0304b36
:1012840000229a6377225a631a46d36b13f0040f31
:10129400fbd12b4b022283f830201a46d36b13f078
:1012a400020ffbd1264a136c03f00303032bfad17c
:1012b400244b01225a711a46d37813f0010ffbd044
:1012c4001e4b214a1a621a46536813f0040ffbd1cd
:1012d4001a4b1e4a5a621a46536813f0080ffbd180
:1012e400164b4122c3f890201a4600bfd2f8903022
:1012f40013f0400ffad0114b4122c3f8a0201a4634
:10130400d2f8a03013f0400ffad00c4b4122c3f8ae
:1013140010211a46d2f8103113f0400ffad0094bbd
:101324006ff07f421a6142f2ff725a6104221a621c
:10133400704700bf0014004006013000001c00404c
:1013440000100040000800400701010007010200ee
:020000040000fa
:1013540070b40401354d25442d7b04f1824404f519
:10136400204494f84e4014f0030f02d1edb2002d46
:1013740055d1040104f1824505f52045032685f87d
:101384004e602a4d254401262e73294d2c5b14f4fe
:10139400806f19bfc91805eb0014254c04eb001429
:1013a40061600101224c615a11f4006f27d01a4484
:1013b40004eb00118a601e4902018c18895a9bb201
:1013c400c1f301210b419bb2638002f1824303f517
:1013d40020431a6c42f002021a641a6c12f4fe4f93
:1013e4001fd193f8463013f0400f1dd111490c69f9
:1013f400012202fa00f323430b61104612e00d4967
:10140400498811f4404f04d1094901eb00118a6065
:10141400d1e71168064a02eb00129160cbe7002085
:1014240000e0012070bc70470120fbe7d0010020e0
:08143400c001002000a00041ee
:020000040000fa
:10143c00a00100201c00000000000000c0010020e2
:10144c00300000000000000000000020c000000080
:10145c0000000000f00100200c0000000000000063
:10146c00740100202c000000000000000602002087
:10147c000200000000000000040200200200000036
:10148c000000000008020020040000000000000022
:10149c00c000002064000000000000000c020020ce
:1014ac00020000000100000005010000bc0100204a
:1014bc000400000000000000240100205000000087
:1014cc0000000000fc0100200800000000000000eb
:1014dc0000000000000000006666666666666666d0
:020000040000fa
:1014ec00882910b536d012dc812943d003dc802941
:1014fc0040d0002010bd82290ed08429f9d1196862
:10150c0002b30a1d1a60b1f90020d3171ee0a029fe
:10151c002bd00bdc9029ecd11968073121f0070195
:10152c0001f108021a60d1e900230fe0c02901d0b3
:10153c00f029ded11a68111d1960136803600023ad
:10154c00436005e00a1d1a600a880023c0e90023e5
:10155c000120cfe7196822b10a1d1a6091f9002009
:10156c00d3e70a1d1a600a78efe71a68111d196093
:10157c001268cae719681ab10a1d1a600a68c4e72a
:0c158c000c1d1c600b68c0e90032e1e798
:020000040000fa
:101598002de9f041d2e900230c4686b007465fea00
:1015a800d37820684968a5680590e66841d052421a
:1015b80063eb4303002908db20f002000590b8f133
:1015c800000f02d1059948072ad5691e05a802907f
:1015d8000a20cde90010204600f008fab8f1000f03
:1015e80002d1059b59071fd5b8f1000f00f1ff3054
:1015f80014bf2d232b2333542269059b0093013af2
:101608002b46121a3118384600f070f97b68db0552
:1016180003d563689842b8bf184606b0bde8f081a4
:101628000807d2d42946d1e71a07e5d5013820237f
:08163800e1e70029c0dac5e773
:020000040000fa
:10164000234ad36823f4e0631b041b0c43f0bf63fd
:1016500043f40033d360bff35f8f62b61d4be021cc
:1016600083f80b134ff40060186083f80c134ff4e9
:101670008050186083f80d134ff40050186083f801
:101680001f134ff00040186083f846134020986005
:1016900083f847138020986083f848134ff48070d4
:1016a000986083f849134ff400719960536a43f4ca
:1016b00080235362536943f010035361536a43f428
:1016c00000335362536a43f480335362704700bf60
:0816d00000ed00e000e100e084
:020000040000fa
:1016d8001c4bd3f8a03113f0020f32d070b51a4b5f
:1016e8001b78bbb9184b01221a70184e3446184d96
:1016f8000fcd0fc40fcd0fc40fcd0fc42b6824f826
:10170800023b1b0c2370304600f072fdc0b2114b37
:10171800187070bd0c4b00221a700c4e34460e4dda
:101728000fcd0fc40fcd0fc40fcd0fc495e8070020
:1017380003c42270304600f05bfdc0b2054b187040
:10174800e7e77047008000410a020020c00000203f
:0c1758006c1a000006020020a01a00001d
:020000040000fa
:1017640008b5194b9847194b9847eff3108172b697
:10177400174ad2f8883043f47003c2f88830bff3b4
:101784004f8fbff36f8f01b962b6124a936823f08b
:10179400010393601346da6812f0010ffbd10d4b7d
:1017a40024225a6001229a6000f0e6fb0a4b23f0df
:1017b4007f03074a9360094b9847094b9847094ba5
:1017c4009847fef763fdfee7512300005123000014
:1017d40000ed00e000600041000000003d1b00003f
:0817e400512300005123000015
:020000040000fa
:1017ec0010b582b000230193030103f1824303f58a
:1017fc00204393f84e30dbb20193019b13f0020fa0
:10180c000dd0010101f1824202f52042022382f83f
:10181c004e30134b0b4400221a73012400e00224b7
:10182c00019b13f0010f0cd0010101f1824202f572
:10183c002042012382f84e30094b0b4400221a73cc
:10184c000224074b03eb00135b6833b1044a02eb31
:10185c00001399685b682046984702b010bd00bf22
:04186c00d001002087
:020000040000fa
:101870001e4a137843f001031370536813f0010fed
:10188000fbd11a490b7843f010030b709923cb61fd
:1018900000220a6203230b634a630b61144b1a8113
:1018a00001229a8210221a849a851a87a3f844206a
:1018b000a3f85020a3f85c20a3f86820a3f87420b4
:1018c000a3f88020a3f88c20a3f89820a3f8a420e4
:1018d000a3f8b020a3f8bc200b7843f002030b70f0
:1018e0000a46536813f0020ffbd1704700280040ee
:0418f00000000020d4
:020000040000fa
:1018f4002de9ff471d460c9b13f0010906468a4655
:10190400144601d195420bd822465146304600f088
:10191400d8fba54204d82546284604b0bde8f08784
:101924002f1b102f3a464ff0200128bf1022684683
:10193400b84600f0b3fc00bfb8f10f0f11d83b0953
:101944006ff00f0202fb03726946304600f0b9fbe8
:10195400b9f1000fe0d122465146304600f0b1fb08
:10196400dae710226946304600f0abfba8f1100814
:04197400e2e700bfe7
:020000040000fa
:10197800842910b523d00cdc812903d0822913d007
:1019880080290bd119680c1d1c600b6803601a6054
:1019980013e0902921d003dc882917d0002010bd3e
:1019a800a029efd0c029ece719680c1d1c600b6852
:1019b8000360d1171046c3e900010120efe7196859
:1019c8000c1d1c600b6803601a80f6e719680c1d73
:1019d8001c600b6803601a70efe719680c1d1c6027
:0c19e80009680160d317c1e90023e6e79d
:020000040000fa
:1019f4002de9f84f04460c9f6668d4f80cb02469ae
:101a040010463a68013c002502f0020a0b9a0bf8d2
:101a14000450002e1946b8bf0126012390464fea10
:101a2400e279002c03dcd3b12046bde8f88f50eafc
:101a3400010209d1721b002a06dc0a9a521b002af1
:101a4400f1ddbaf1000feed042464b4600f0e0fa69
:101a5400013c134630320bf804200135e1e73b68c2
:081a640023f010033b60dfe7f3
:020000040000fa
:101a6c002a2a2a2a2a2a2a2a2a2a2a2a2a20507266
:101a7c00696e74696e672054656d706572617475fa
:101a8c007265202a2a2a2a2a2a2a2a2a2a2a2a2a31
:101a9c000d0a00002a2a2a2a2a2a2a2a2a2a2a2a2b
:101aac002a205072696e74696e6720546f67676c78
:101abc00696e67204c45442072617465202a2a2a7d
:101acc002a2a2a2a2a2a2a2a2a2a0d0a000000bf90
:020000040000fa
:101adc00144b01221a601a46d369002bfcd1114b0e
:101aec004ff480725a601a46d369002bfcd10d4b0f
:101afc00ff22da600c4a1a601a46d369002bfcd11b
:101b0c00084b10225a831a46d369002bfcd1074b81
:101b1c00002283f8212083f82020024b83229a751f
:101b2c00704700bf0008004316001000740100202d
:020000040000fa
:101b3c000e4a38b5002313600d4a0e4c13600e4a42
:101b4c000e4d13600e4a13600e4a13600e4a536218
:101b5c0013610123936000f0f6fb00f0f4fbac4240
:101b6c0000d338bd54f8043b9847f8e7fc0100203b
:101b7c0030010020700200002c01002074020000d3
:0c1b8c002401002028010020340100206a
:020000040000fa
:101b980010b4104a002111705160916011730e4cfd
:101ba8000e4b5c630e489863586940f08130586169
:101bb8000c48186440f20940208083f84510012140
:101bc8001170032283f84d2040f602721a805df8e6
:101bd800044b7047d0010020c001002000a0004144
:081be800e001002000072000cd
:020000040000fa
:101bf0002de9ff41134dd1f80080af88adf80c708e
:101c000006462868029002aca8798df80e00002ada
:101c100018bf1446d1e901571a461bb9204600f0f7
:101c2000ebfa0246002d02dbaa4228bf2a46cdf875
:101c300000803b4621463046fff75cfe04b0bde81d
:081c4000f08100bf3a2300000f
:020000040000fa
:101c4800134b01221a801a46136913f0010ffbd1b6
:101c58000f4b48f280121a801a46136913f4004f8a
:101c6800fbd10b4b4ff400721a621a46136913f03a
:101c7800200ffbd1064b00225a621a46136913f053
:101c8800400ffbd1024b4ff480725a81704700bf5e
:041c980000240040e4
:020000040000fa
:101c9c00353030206d696c6c695365636f6e64739d
:101cac000000000031205365636f6e64000000007b
:101cbc00000000000000000032205365636f6e646a
:101ccc007300000000000000000000003420536589
:101cdc00636f6e64730000000000000000000000e1
:020000040000fa
:101cec0030b589b015464ff0ff32019202f2031263
:101cfc00029200b96846cde9030151b14c1e00298e
:101d0c00059408da094b4f221a604ff0ff3009b0e6
:101d1c0030bd0c46f3e700220270cde906001a46ee
:101d2c00294601a800f03afaf1e700bf00020020b2
:020000040000fa
:101d3c00104b00229a61da610f4b83221a765a6893
:101d4c0022f480225a601a46d369002bfcd161b16f
:101d5c00084b032283f8202041ea4001064b5962cc
:101d6c001a46d369002bfcd17047024b042283f82e
:0c1d7c002020f1e7740100200008004363
:020000040000fa
:101d880001f000428b1aa3f16051b1f5801f0adb04
:101d9800b1f17f6f09d242eac102c10071f100417d
:101da80042eb507070471046704701285b4113f5ad
:101db800001f02d842f0ff407047c90041ea507046
:0c1dc800104340f4800040f08040704761
:020000040000fa
:101dd400104b4ff40012c3f80021002283f8552160
:101de400012183f85b1183f83a21202083f83d0117
:101df4000320c3f89001052083f8c00183f8c101d2
:101e040083f8c81183f8c91183f8b021332283f809
:081e1400b42170470080004179
:020000040000fa
:101e1c0010b50278202a034600f10100f9d0a2f196
:101e2c0009010429f5d92b2a07d02d2a11d101211a
:101e3c000133013b00200a2403e00021f8e7604352
:101e4c00801a13f8012f303a092af8d901b9404207
:061e5c0010bd0021ede7be
:020000040000fa
:021e6200fee799
:020000040000fa
:101e640010b5054c227832b9044b13b10448aff3d2
:101e740000800123237010bda00100200000000099
:101e84000000000008b5034b1bb103490348aff33e
:101e9400008008bd00000000a40100200000000034
:020000040000fa
:101ea40030b50d4a002300bf12f8134024b902ebe9
:101eb40043035b78184630bd01680d78a54209bf1d
:101ec40002eb430301335b78013114bfdbb20160e1
:0c1ed4000a2be9d9eee700bf1022000045
:020000040000fa
:101ee0000b4b93f820305bb20bb10020704710b55c
:101ef0000c46074b98800021d96059619c601a619b
:101f00009970197083f82110fff718ff012010bd98
:041f10007401002038
:020000040000fa
:101f140010b50b4c94f8204064b20cb1002010bdf5
:101f2400074ca080e360029b6361a16022610021f1
:101f3400a170217084f82110fff7fefe0120eee766
:041f44007401002004
:020000040000fa
:101f48000a4b0b4a1a604ff622029a814ff48032ec
:101f58005a601a46d369002bfcd1044a136843f02f
:101f680002031360d369002bfcd170470034004092
:041f78000401104010
:020000040000fa
:101f7c0070b50a480a4d4ff6ff76016811b94368ef
:101f8c0003b970bd83684268334000f10c0455f806
:101f9c0023302046984704eb8000eee73c14000009
:041fac008c22000083
:020000040000fa
:101fb000c0f3c75191b142004fea40704fead201dd
:101fc0004fea310101f16051b2f17f4f38bf7047e4
:101fd00001f1605118bf41f40021704710f0004139
:041fe0000020704726
:020000040000fa
:101fe40030b400eb4004094b03eb84031b899bb220
:101ff400834201d030bc7047044b44002518ad0027
:102004005951204403eb80035a60f3e70000002099
:020000040000fa
:1020140053b94ab9002908bf00281cbf4ff0ff314b
:102024004ff0ff3000f090b9adf1080c6de904ce2b
:10203400fef786fcddf804e0dde9022304b0704716
:020000040000fa
:1020440008b5084b9a8992b207494a604cf2ff32ac
:102054009a819b890b6823b10b46486889681b6881
:0c206400984708bd00240040f001002057
:020000040000fa
:1020700008b500f031f9fff7adfefff7ebf8fff719
:1020800063fffef7dcfefff729fdfff785fdfff795
:0c209000effbfff7d9fdfff7d3fa08bd06
:020000040000fa
:10209c00802910db812901dd83290cd113680733da
:1020ac0023f0070303f108011160d3e90023c0e911
:0a20bc000023012070470020704748
:020000040000fa
:1020c60038b50569954228bf154604465db12a46ce
:1020d600406900f058f8636922692b44551b0022b9
:0820e600636125611a7038bd29
:020000040000fa
:1020ee0010f0004160b148bf40420a0d02f21d429d
:1020fe00b0fa80f3d21a9840c30a400503eb02519e
:02210e00704718
:020000040000fa
:1021100008b5054b01225a61044b1b681bb1034be8
:1021200058681b68984708bd002800400000002040
:020000040000fa
:1021300008b5054b02225a61044bdb681bb1034b07
:102140001869db68984708bd00280040000000209f
:020000040000fa
:1021500010b50023934206d113f0030018bf0120ed
:0e21600000eb930010bdc45ccc540133f2e7d9
:020000040000fa
:02216e00fee78a
:020000040000fa
:10217000044bd3f8a03113f0010f02d0024b01221f
:0c2180001a707047008000410702002028
:020000040000fa
:10218c005ab110b40a44431e11f8014b03f8014f25
:0c219c009142f9d15df8044b7047704788
:020000040000fa
:1021a80013b50446019201aafef744fa636813f0d6
:0c21b800100f18bf4ff0ff3002b010bd38
:020000040000fa
:1021c4000eb403b503aa52f8041b019200f0a4f85c
:0a21d40002b05df804eb03b07047a1
:020000040000fa
:0221de00fee71a
:020000040000fa
:1021e000044a138843f002031380136913f0020fab
:0821f000fbd170470024004000
:020000040000fa
:1021f80003783bb1034600bf13f8012f002afbd137
:08220800181a704718467047d0
:020000040000fa
:1022100068076c094c836a9074a07ac00080688853
:0622200000846c820081c5
:020000040000fa
:02222600fee7d1
:020000040000fa
:10222800034b98611a46136913f0080ffbd17047e6
:04223800002400403e
:020000040000fa
:10223c00034b18621a46136913f0200ffbd1704739
:04224c00002400402a
:020000040000fa
:1022500010f4807f02d0024b01221a70704700bf39
:042260000802002050
:020000040000fa
:10226400012800d07047024b01221a70fae700bf20
:042274000d02002037
:020000040000fa
:1022780008b500f049f810b9014b01221a7008bde1
:042288000902002027
:020000040000fa
:10228c00b5220000512100008d0200008d020000db
:04229c008d020000af
:020000040000fa
:1022a00032b1c9b20244034603f8011b9342fbd189
:0422b000704700bfb4
:020000040000fa
:1022b4000a440023914201d10020704701f8013bf8
:0222c400f8e739
:020000040000fa
:0222c600fee731
:020000040000fa
:1022c800024b03eb0010416082607047d001002090
:020000040000fa
:1022d800024b40f204521a80704700bf0040004190
:020000040000fa
:0e22e800a0f14103192b98bf40f02000704771
:020000040000fa
:0222f600fee701
:020000040000fa
:0c22f800014b186099607047f001002055
:020000040000fa
:0c230400014b5862996270477401002080
:020000040000fa
:0c231000014b93f821007047740100207d
:020000040000fa
:0c231c0013460a466ff00041fff7e2bcd8
:020000040000fa
:0a23280008b50020fff75efa08bdbb
:020000040000fa
:08233200286e696c29002500ea
:020000040000fa
:07233a00286e756c6c290090
:020000040000fa
:0423420000207047c0
:020000040000fa
:0423460000207047bc
:020000040000fa
:02234a00fee7ac
:020000040000fa
:04234c00704700bf17
:020000040000fa
:022350007047d4
:020000040000fa
:022352007047d2
:020000040000fa
:0200000400807a
:044000003912003c35
:020000040000fa
:0200000400807a
:044004008000a82a66
:020000040000fa
:0200000400807a
:04400800ffffffffb8
:00000001FF
