:020000040000fa
:020000040040ba
:10000000f0ff452061144000732d40003330400064
:100010009b374000eb3d4000e33e40000000000005
:100020000000000000000000000000008f224000df
:10003000a3344000000000008f2240008f224000c7
:100040008f2240008f2240008f2240008f224000ec
:100050008f2240008f2240008f2240008f224000dc
:100060008f224000000000008f2240008f224000bd
:100070008f2240008f224000713140008f224000cb
:100080008f2240008f2240008f224000bd1240008e
:100090008f2240008f2240008f2240005d3d4000b3
:1000a0008f2240008f2240008f2240008f2240008c
:1000b0008f2240008f2240008f2240008f2240007c
:1000c0008f2240008f2240008f2240008f2240006c
:1000d0008f2240008f2240008f2240008f2240005c
:1000e0008f2240008f2240008f2240008f2240004c
:1000f0008f2240008f2240008f2240008f2240003c
:100100008f2240008f2240008f2240008f2240002b
:100110008f224000000000000000000000000000ee
:100120008f2240008f224000ed3240008f2240009d
:100130008f2240008f224000000000008f224000ec
:100140008f2240008f2240008f2240008f224000eb
:100150008f2240008f2240008f2240008f224000db
:080160008f2240008f224000b5
:020000040000fa
:020000040040ba
:10016800f8b500bff8bc08bc9e467047053840008b
:10017800f8b500bff8bc08bc9e467047e1374000a0
:020000040000fa
:020000040040ba
:08018800a80a000001000000bc
:020000040000fa
:020000040040ba
:100190002de9f04f2ded0a8b1d4692ed008bd1e934
:1001a0000073b5eec08b8bb0f1ee10fa02930b69c1
:1001b0000690d1f808800593cc6806d4790731d42d
:1001c00017f0080630d0202302e02d23b1ee488b33
:1001d000237008f1ff39012618ee903adff868b372
:1001e00018ee100a23f000414ff0000a594508bfed
:1001f00050451bd1413d192d04eb060094bfce495b
:10020000ce4904f085f8cd4803f026ff009702465a
:1002100043462146069802f06ffc0bb0bdec0a8bfa
:10022000bde8f08f2b23d3e7c146d5e78b45a5f179
:10023000410308bf8245039309d2192b04eb060042
:1002400094bfbf49bf4904f063f8be48dce73022e1
:10025000a255b5ee408b039ab7ee009b1a2a06f121
:10026000010334bf58227822f1ee10fae25406f16d
:100270000206a9f102094ff0000a40f0e180b0ee59
:1002800049bbb0ee48cb029b9feda5ab002bb8bf9e
:1002900018234ff0000b00bf8cee0b0b079302f0fe
:1002a0005bf80bf101030493029b00ee4bcb002b98
:1002b0002bee0abb079b04dab5ee40cbf1ee10fa49
:1002c00004d05b4500f3e08001330493b2ee007b81
:1002d0002bee077bb4eec7cbf1ee10fa00f1d7801e
:1002e000b4ee47cbf1ee10fa09d1bdeec00b9fed95
:1002f0008e6b10ee103a13f0010f06fe077b38eefe
:10030000078b18ee903a23f000418f4b18ee100a3d
:100310000022994208bf90423ff46caf4ff0000baf
:10032000354659465b4605980538a8422a461fd9e6
:1003300088ee090bcde90831079202f00df8fdeec9
:10034000c07bb0ee40bb17ee900adde907230999a8
:10035000002840f09f80002b00f09c800bf1010be7
:10036000049a0bee498b01339a4229ee0a9bdad1ab
:10037000d9b9bbf1000f00f0e980029b002b40f3dc
:10038000e580fa0700f1e28063192e221a700beb68
:1003900005022244302100bf03f8011f9a42fbd11d
:1003a0005d446fea0b0b0135d944059b059900228a
:1003b0006019013b92450270c1f1020ee254bcbfcc
:1003c000caf1000a01220a21baf1000f40f095801b
:1003d0000eeb030cbcf1010f00f08f80002a03f13b
:1003e000ff3114bf2d222b226254039a023b1a2a9a
:1003f00004eb030134bf502270229d420a7001dadf
:1004000003f086ff07f00303022b12d1a9f10209c2
:10041000b9f1000f0ddd204603f01efe04eb0903c9
:10042000b04277da4a463021a01903f069fe4ff056
:1004300000082046e8e600bf0af1010ab0ee479b3b
:1004400039ee097bb4eec78bf1ee10faf4d5b6eeb7
:10045000007bb0ee475b9fed366b00bfb4eec98bff
:10046000f1ee10fa7ff50baf29ee074bb5ee404bde
:10047000f1ee10fa04bf29ee069b28ee068b29ee5a
:10048000059b0af1ff3ae9e7ddf810b004e79fedbc
:10049000267b34e731b92bb12e21a154013509f166
:1004a000ff39012104eb0b0204eb050c2a444ff049
:1004b000300e01e00cf801eb9445fbd105eb0b028b
:1004c000039d0928d4bf30305730192da9eb0b09f3
:1004d0000cd840f02005613d192d07d8cde9081250
:1004e000079303f0a2fedde90812079ba054551cf8
:1004f00009f1ff394ff0000b32e7bafbf1fc013b89
:1005000001fb1caa0af1300a04f803a009f1ff3923
:10051000e24659e7225c1a54013881e7aff30080c4
:10052000000000000000b03f0000000000000000dc
:100530000000000000005043e0414000e441400062
:10054000e8414000ec4140000000f07ffb067ff5f1
:0c0550002caf2e236355013527e700bfb8
:020000040000fa
:020000040040ba
:04055c0000207047c4
:020000040000fa
:020000040040ba
:100560002de9f04f2ded0a8b92ed00ab8fb0b5ee7b
:10057000c0ab04938b680393f1ee10fa0b690690fd
:100580008a46d1e900750793cc6806d47a0732d43d
:1005900017f0080631d0202302e02d23b1ee4aab3c
:1005a0002370039b012603f1ff3b1aee903adff81c
:1005b00064931aee100a23f000414ff000084945f9
:1005c00008bf40451cd1049b413b192b94bfcc492b
:1005d000cc49a01903f09cfe204603f03dfd009796
:1005e0000246039b0698214602f086fa0fb0bdec46
:1005f0000a8bbde8f08f2b23d2e7ddf80cb0d4e7ef
:10060000894508bf804508d2049b413b192b04eb68
:10061000060094bfbc49bd49dce7b5ee40abf1ee46
:1006200010fab2ee04cbb7ee009b4ff0000819d1e0
:10063000049803f0f3fd002dc0b2c0f26f8167286b
:100640002ed1002d08bf012518f1040f02dba845ab
:10065000c0f246814ff0650934e000bf08f101089f
:10066000b0ee479b29ee0c7bb4eeca7bf1ee10fa9c
:10067000f4dd0023a64a9fed9e7b0be0904505da52
:1006800023b92aee07ab29ee079b012308f1ff38b7
:1006900089ee0c9bb4eec9abf1ee10faeed4c7e7cd
:1006a0008146b9f1660f05f101050bd1b8f1000fd4
:1006b00003dab7ee009b4ff00008672818bf4544e7
:1006c0004ff066090023b0ee498bb0ee4abb00bf85
:1006d0008bee080b0893059001f03efe089b90ee10
:1006e00008bbfdeec07b01339d4217ee902ab1eeb0
:1006f0004bbb88ee0c8b0598ead1b1ee047b28ee5b
:10070000078bb4eec8bbf1ee10fa73d4b4ee48bb5d
:10071000f1ee10fa05d19fed786b12f0010f06fe95
:10072000088b3aee088b29ee0cabb4eec8abf1eeb9
:1007300010fa62d8b9f1660f08f101085fd10135ee
:1007400041464b1b00220a93354605920a9b99426b
:1007500040f08280059b002b00f0ab8060190022e6
:10076000b9f1650f02702dd1079b0799013b9045a8
:10077000e254c1f1030ebcbfc8f1000801220a21f6
:10078000b8f1000f40f09b800eeb030cbcf1000fa2
:1007900000f39580002a03f1ff3114bf2d222b2294
:1007a0006254049a023b413a192a04eb030198bfb0
:1007b0004ff045099d4281f80090abf1020b01da40
:1007c00003f0a6fd07f00303022b7ff405afbbf196
:1007d000000f7ff701af204603f03efc04eb0b0354
:1007e000864279dd5a463021a01903f089fc0023a6
:1007f0000393f1e69fed408b93e7b0ee49abb9f17f
:10080000650f14bf414600219be7059b5bb900299a
:1008100009da089b4ff02e0c04f803c001230135c0
:100820000bf1ff3b059304eb020c6319ac444ff052
:10083000300e01e003f801eb9c45fbd1099b02eb74
:10084000050cabeb020b30330cf1010504f80c3056
:100850000bf1ff3b002224e0daf810300895053b4d
:10086000ab427ff677af88ee0a0bcde90c200b91f7
:1008700001f072fdfdeec07bdde90b1217ee903a40
:10088000092ba8bf092317ee90ca099307f010039c
:1008900053ea0c030d98b8d16728b6d10029c2da03
:1008a00001329aee008b0139b1ee488b8aee0cab27
:1008b0004ce7fb0642bf2e23635501354ee7b8fbdc
:1008c000f1fc013b01fb1c8808f1300804f80380af
:1008d0000bf1ff3be04653e7225c1a5401387fe7f7
:1008e000b8f1000fbff6ecae4ff06609d9e600bfd5
:1008f0000000000000005043000000000000000065
:10090000f0414000f4414000f8414000fc4140000b
:10091000d4feffff0000f07f062595e66728fbd098
:0809200081460625bde600bf7b
:020000040000fa
:020000040040ba
:100928002de9f041aeb00646154605910027059918
:100938000b78002b00f0fa8000244ff0ff33cde94c
:1009480009430eab0c9380230b940d930b5d0bb1f5
:10095800252b26d134b12246304603f0e7f9059b12
:1009680023440593059b1a78252a40f0d78003f184
:100978000108cdf81480059803782b2b1ad025d8b8
:10098800202b1bd0232b1dd02a2b27d002f0defed4
:100998000b90059b1a78303a092a2ed80133059313
:1009a800f7e70134d2e7099b43f0010301300993cb
:1009b8000590e0e7099b43f00403f7e7099b43f040
:1009c8000803f3e7099b43f01003efe72d2bead068
:1009d800302bd9d1099b43f00203e7e72b681a1d96
:1009e8001b682a600130002b05900b9305da099ae1
:1009f8005b4282f0010209920b93099bda0744bf1c
:100a080023f002030993059b1a782e2a0dd10022a0
:100a1800581c0a9205905a782a2a25d10233059340
:100a28002b681a1d1b682a600a9305a802f0acff00
:100a3800059b0390187803f0edfb6928039979d09a
:100a480032dc632800f0cb8019dc252800f0d9803f
:100a5800612853d000234ff0ff32cdf8148009935a
:100a68000b930a920093d4e002f070fe0a90059b63
:100a78001a78303a092ad8d801330593f7e7642859
:100a880058d06728e6dc2a4606a803f026f900288d
:100a980000f0a180059b5a1c05921b7806aa09a99b
:100aa8003046fff759fd38e0702873d015dc6e2802
:100ab80000f08c806f28cdd12b46002206a801f0cb
:100ac8000bfe002800f08780059b06aa013309a9c0
:100ad8003046059302f070fa1fe075283ad078285e
:100ae80048d07328b6d1802975d1059b2a6801336f
:100af8000593131d2b60126800237de02a4606a883
:100b080003f0ebf8002866d0059b5a1c05921b7869
:100b180006aa09a93046fff737fb04443c44a7421c
:100b28007add3e4b4f221a604ff0ff3738462eb021
:100b3800bde8f0812b46012206a801f0cdfd002872
:100b480049d0059b06aa013309a93046059301f04f
:100b580019fee2e72b46002206a801f0bdfd002899
:100b680039d0059b06aa013309a93046059302f03e
:100b780069fcd2e72b46002206a801f0adfd50b370
:100b8800059b5a1c05921b7806aa09a9304600f055
:100b9800f9fec2e72b460022f02106a801f09cfdd1
:100ba800c8b1059b01330593dde9062313430bd137
:100bb8001b4803f04dfa099b009319490b9b024609
:100bc800304601f095ffa8e77823dde72b463a1970
:100bd80006a802f04ff8059b013305939ee780298c
:100be800f9d1059b013305932b681a1d1b682a60f0
:100bf8008df8183006aa012309a9304602f0f6fb41
:100c08008be78029e7d1059b01330593099b009366
:100c18000b9b04490122d3e7274688e64404402079
:080c2800344340003a43400050
:020000040000fa
:020000040040ba
:100c30002de9f04f099f154604468e461e46002baf
:100c400040f0cc808a42b2fa82fc4cd9bcf1000f51
:100c50000bd0ccf1200801fa0cfe20fa08f802fab9
:100c60000cf548ea0e0e00fa0cf44fea15491ffa8b
:100c700085f8befbf9fa210c09fb1ae30afb08fb15
:100c800041ea03439b452ad9eb180af1ff3004d20d
:100c90009b4502d9aaf102002b44a3eb0b03a4b29b
:100ca000b3fbf9f209fb123302fb08f844ea0344f0
:100cb000a04516d92c1902f1ff3303d2a04501d962
:100cc000931e2c44a4eb080443ea004027b124fa05
:100cd0000cf400233c607b603146bde8f08f504649
:100ce000dbe71346eee702b9ffdebcf1000f2ed1c1
:100cf0008b1a01264fea154eaab2b3fbfef8210c5f
:100d00000efb183308fb02f941ea0343994561d908
:100d1000eb1808f1ff3004d2994502d9a8f102007e
:100d20002b44a3eb0903a4b2b3fbfef10efb11337a
:100d30004a4344ea0344a2424ed92c1901f1ff333d
:100d400003d2a24201d98b1e2c44a41abce7ccf1d9
:100d5000200e02fa0cf521fa0ef901fa0cf320fa32
:100d60000efe4eea03034fea154800fa0cf4b9fbf5
:100d7000f8f11ffa85fe08fb1192180c01fb0ef624
:100d800040ea0242964221d9aa1801f1ff3003d26b
:100d9000964201d9881e2a44921b9bb2b2fbf8f9f5
:100da00008fb192209fb0efe43ea02439e450fd9b8
:100db000eb1809f1ff3604d29e4502d9a9f10206cb
:100dc0002b44a3eb0e0346ea004693e70846e3e70d
:100dd0004e46f6e74046a4e70b46b6e78b4206d9f7
:100de000002f7ed00026c7e90001304674e7b3fa31
:100df00083fcbcf1000f0fd18b4201d3824209d892
:100e0000841a61eb030e0120002f6dd0c7e9004e5c
:100e1000002661e76046f7e7ccf1200e03fa0cf3f9
:100e200022fa0ef521fa0ef41d4301fa0cf320fa12
:100e30000ef10b434fea154a00fa0cf6b4fbfaf92f
:100e40001ffa85f80afb19401c0c09fb08f144ea5b
:100e50000044a14202fa0cf23fd92c1909f1ff30eb
:100e600004d2a14202d9a9f102002c44641a9bb217
:100e7000b4fbfaf90afb194409fb08f843ea0441f8
:100e800088452cd9691809f1ff3304d2884502d965
:100e9000a9f10203294443ea0040a1eb0801a0fba9
:100ea00002894945c2464c4602d306d1464504d282
:100eb000b8eb020a69eb05040138afb1b6eb0a03df
:100ec00061eb040606fa0efe23fa0cf34eea030366
:100ed00026fa0cf6c7e900369ae74846c6e74b46bd
:0c0ee000d9e73e463846f7e63e46f5e608
:020000040000fa
:020000040040ba
:100eec002de9f04f85b0109f9df844804fb31d46ff
:100efc001646039102904ff0ff333b6002f04afb21
:100f0c008346f0b1b8f1010f0cd0b8f1020f1bd031
:100f1c00b8f1080f18d0a5b19eb10f9b8bb10e9be9
:100f2c0023b90ee00f9b63b10e9b53b1dbf800901d
:100f3c00c9eb091a6f4b03eb8a0a504601f0befc51
:100f4c0038b905b0bde8f08f002dfad0002eedd1e8
:100f5c00f7e7dbf800c0cceb0c12664b03eb82031b
:100f6c005c6a186a002800f0c08023785bb104f139
:100f7c002c0200230133984200f0b780144612f87b
:100f8c002c1b0029f6d1012222700022a262dbf870
:100f9c000020120292b2cceb0c10564901eb8001ee
:100fac00888d42ea0042dbb2134323628b8d0133fe
:100fbc009bb24ff6ff72934208bf01238b85039bb4
:100fcc0063800e9b63600f9ba360e6602561029bb0
:100fdc00a361002384f8243001222277637584f8fe
:100fec001480236a3b60daf828306bb1c9eb09191d
:100ffc00404b03eb8909d9f82830002b55d09a6a5d
:10100c00002a4ed11a464fe0caf82840c9eb091302
:10101c00384a02eb83035a69dbf814309a420dd03c
:10102c00c9eb0915334b03eb8505eb685b690021b4
:10103c000bf114009847dbf814306b610223237713
:10104c00b8f1010f35d0b8f1020f40d063682269b6
:10105c00e1686088c9eb0915264e06eb8505ee683c
:10106c00a5680095b568a847f8b94ff0ff333b6009
:10107c00c9eb09191f4b03eb8909d9f80c301b6913
:10108c00984784f8240094f82430dbb2002b0cbf72
:10109c0001234ff0ff336375504603f03ff804e033
:1010ac001a46936a002bfbd19462504601f060fd06
:1010bc0047e7c9eb09130f4a02eb8303db681b6894
:1010cc00a2686168608898470028eed1cde7c9eb2b
:1010dc000913084a02eb8303db685b682269e16849
:1010ec00608898470028e0d1bfe7504601f040fdea
:0810fc0027e700bfe0024020dd
:020000040000fa
:020000040040ba
:1011040070b586b0654b1b78042b00f29680dfe83f
:1011140003f0032e7696af000321002000f0c6fcf6
:101124005e4b9860b0f1ff3f03d15c4b05221a700f
:1011340083e01c4619465a4b41f8043f02f0b3fec3
:1011440000225849a06802f0affc574b1868b0f170
:10115400ff3f03d1514b05221a706ee0534b01221d
:1011640004f1170103f00af80423237065e04b48e7
:1011740090f93b3000228df8172090f83c2002743f
:101184004374022380f83e3000f10c02009200f117
:1011940010025021806802f005ff404a92f83e3068
:1011a400dbb2022bfad03d4c4ff0020604f10c05e1
:1011b40084f83e60009501230df117025021a068c8
:1011c40002f0f0fe94f83e30dbb2022bfad094f831
:1011d4003e30dbb2012bebd0304b93f83c30013383
:1011e400dbb2042b06d82d4a82f83c302b4b042268
:1011f4001a7022e0294b002283f83c20f6e72748a6
:1012040000230374022380f83e3000f10c030293a0
:101214000523019300f112030093012300f110024e
:101224005021806802f04dfe1c4a92f83e30dbb239
:10123400022bfad0194b03221a7006b070bd1c4b56
:101244001b78002bf9d01a4b00221a70134c94f817
:101254003c1004f1120001f0e9f9144b012204f1ed
:1012640017011148006802f089ff04232370e4e7a2
:101274000a4b93f83d3033b1084b002283f83d20ec
:1012840001221a70d9e70b4b1b78002bd5d0094be0
:1012940000221a70014b02221a70cee7a0024020ed
:1012a400801a0600a53d400030044020340440204c
:0812b4004804402049044020d9
:020000040000fa
:020000040040ba
:1012bc0038b5664b5c6a664b1b6a13f4807f04d0ae
:1012cc00624aff2111770121517713f0010106d0f9
:1012dc005f4a08201060042010600720906213f40d
:1012ec00007f02d0594a01201077584a527f8ab9a0
:1012fc00564a127f52b2013a032a0bd8dfe802f0a9
:10130c0002561c7b514bdb6883b1504b1888002173
:10131c0000f0b8ff4d4b1b7f5bb2b3f1ff3f70d0b9
:10132c004a4b1b7f5bb2052b7cd038bd474b1888d2
:10133c00012100f0a7ffede713f0040fead04349b9
:10134c004d69ca680969013aaa4200d179b93f4a84
:10135c00d268013aaa4216d03c4a5268515d3c4ac6
:10136c0051630135394b5d61394b1b6ad2e772b65b
:10137c00374a0421916235494968495d5163013509
:10138c0002f0c2fbeee7314a5268515d304a5163bc
:10139c0001350223136004239362136a13f0010fc7
:1013ac002a4b14bf052204221a77dbe713f0020f35
:1013bc00b0d0264a93691269023a9a420bd0244a59
:1013cc00106b224a9168c854013312699a4206d0b4
:1013dc001e4a93619ee71e4a02211160efe71c4ae8
:1013ec0002219162126a12f0010f184a14bf0521f2
:1013fc0004211177ece700298cd0144b05221a77c5
:10140c0088e7124a00231377114b072199620821b0
:10141c00196004211960136a002b81d0136a2046cd
:10142c0098477de7094b00225a771a77084a07211b
:10143c00916208211160042111601b6a002b3ff49a
:10144c0074af024b1b6a204698476ee7b8034020e6
:04145c0000800140cb
:020000040000fa
:020000040040ba
:1014600008b54f4b98474f4b9847eff3108172b632
:101470004d4ad2f8883043f47003c2f88830bff385
:101480004f8fbff36f8f01b962b6484b484a5a601d
:101490009a6812f0010ffbd0444bdb6813f4c07f55
:1014a00013d0444b0c221a60404b434a5a609a684e
:1014b00012f0010ffbd03d4b404a5a609a6812f07f
:1014c000010ffbd03e4b3f4a1a60bff34f8fbff373
:1014d0006f8f354cd4f8903223f00103c4f890326a
:1014e000d4f8943223f00103c4f89432bff34f8f41
:1014f000bff36f8f02f028fb334b23f07f03a36011
:10150000324b9847636913f4003f12d1bff34f8ffa
:10151000bff36f8f0022c4f85022bff34f8fbff389
:101520006f8f626942f400326261bff34f8fbff385
:101530006f8f1d4b5b6913f4803f29d11a4b00223a
:10154000c3f88420bff34f8fd3f88030c3f3c906ac
:10155000c3f34e335a0143f6e075134802ea05041b
:10156000334644ea8371c0f86012013bb3f1ff3f98
:10157000f7d1203a12f1200ff0d1bff34f8f0a4a72
:10158000536943f480335361bff34f8fbff36f8fc1
:101590000f4b98470f4b984702f039fefee700bf0c
:1015a000f73f4000f73f400000ed00e0000c0e4028
:1015b0000d00005a5c0240200c08005a0c07005a2b
:1015c00000180e40010000a50000400091324000cc
:0815d000f73f4000f73f400027
:020000040000fa
:020000040040ba
:1015d800002b00f09d802de9f84f1d464ff0ff339a
:1015e8002b60a2b199b114460e46074602f01ef8c8
:1015f800834660b1b0f8009009eb49084fea4818f3
:10160800444b03eb080a504600f02efc08b9bde82d
:10161800f88fbbf800e00eeb4e023e4b03eb421393
:10162800d969d3f818c0bcf1000f67d00b79002b2b
:101638004fd001f124030022013262455ed01946e1
:10164800187924330028f7d101230b7100234b614b
:101658000eeb4e032f4800eb4310b0f814c09bf874
:1016680000301b0243ea0c43d2b21a430a62838a4f
:1016780001339bb24ff6ff72934208bf0123838266
:101688008e60cc6000230b610f60cb6101220a766b
:101698004b760b6a2b609df8283093421bd01d4b6c
:1016a80008f1240803eb080209eb490903eb49197f
:1016b800d9f8240030b313683bb15a6922b15b6989
:1016c8001bb15a69002afad15961504600f076fddb
:1016d8009de70022b8e70f4b08f1200803eb08024a
:1016e80009eb490903eb4919d9f820000028e2d190
:1016f80043f80810504601f0b1fbe6e7504600f009
:101708005dfd84e743f80810504601f0f1fadce784
:08171800704700bf540140209e
:020000040000fa
:020000040040ba
:1017200010b584b0454b1b78032b53d8dfe803f08a
:10173000023e546f0321002000f0baf93f4b58607d
:10174000b0f1ff3f03d13d4b04221a7042e01c462a
:1017500019463b4b41f80c3f02f0a7fb00223949e8
:10176000606802f0a3f901234ff47a720021364831
:1017700001f0ecfea368b3f1ff3f03d12f4b04222d
:101780001a7027e00321002000f012fa2f4b186096
:10179000b0f1ff3f03d1294b04221a701ae0002256
:1017a0002b4902f09df90322227013e0234c2246bc
:1017b000002302f8143f04f1100302930223019363
:1017c00004f11503009301234b21606802f07bfbb9
:1017d0000323237004b010bd1e4b1b78002bf9d0df
:1017e0001c4b00221a70154c04f1150001f006fa8a
:1017f000024684f83700184904f1170002f036fb5e
:1018000094f9370002f05efc03232370e2e70b4bf0
:1018100093f8363033b1094b002283f83620012289
:101820001a70d7e7054b93f83530002bd2d0034b15
:10183000002283f8352002221a70cbe71c034020d7
:10184000a0860100b1404000553f400030044020d8
:0c185000753a4000480440204040400031
:020000040000fa
:020000040040ba
:10185c00e00340201c00000000000000e0024020db
:10186c003c0000000000000054014020600000001b
:10187c0000000000280440200800000000000000c8
:10188c00b803402028000000000000005403402052
:10189c003400000000000000fc0340201000000099
:1018ac00000000006002402040000000000000002a
:1018bc00b4004020a0000000000000004a044020ba
:1018cc00020000000100000001000000880340201d
:1018dc003000000000000000b4014020580000005f
:1018ec000000000000004020b400000000000000d8
:1018fc000c0440201c000000000000005c02402092
:10190c00040000000000000048044020010000001a
:10191c00000000003004402008000000000000001f
:10192c004904402001000000000000003804402061
:10193c0004000000000000001c03402038000000e0
:10194c0000000000a0024020400000000000000049
:10195c003c04402004000000000000000c02402069
:10196c00500000000000000040044020080000006f
:10197c0000000000000000000000000066666666c3
:020000040000fa
:020000040040ba
:10198c002de9f04f0e4649683568d6f80890f7688f
:10199c008bb0cde903230029acbf25f00205012152
:1019ac0015f010030593039b8346d3e900232fd036
:1019bc0052ea03002cd0a9f10208346915f0080092
:1019cc0004f1ff3408904ff00000385518bf08f1af
:1019dc00ff388a46012c1ddc059b002b54d1089b3b
:1019ec0013b1013c20233b5532690095013a4b461b
:1019fc00121b3919584601f079f8dbf80430db0575
:101a0c0003d573689842b8bf18460bb0bde8f08f89
:101a1c00c846d2e752ea030009d1baf1000f06dc3e
:101a2c00a8eb010050440028d6dda807d4d502f05d
:101a3c000f000928d4bf00f1300e00f1570e0498a6
:101a4c00a0f1410cbcf1190f04f1ff3410d84ef089
:101a5c00200cacf1610cbcf1190f09d8704609913e
:101a6c00cde9062302f0dbfbdde906230999864666
:101a7c00100940ea03704fea131c07f804e00af15e
:101a8c00ff3a02466346a5e7039bd3e9000150eaff
:101a9c000103a4d03a19049b02f8013c023c302308
:041aac003b559ce723
:020000040000fa
:020000040040ba
:101ab000002877d13d4b93f83430012b02d04ff002
:101ac000ff307047394b002283f8342093f90130fe
:101ad000022b47d1354b1b78002b43d0334b9b78df
:101ae000002b46d1314b5b68002b49d130b42f4bd2
:101af0009d68002d4ed0da69104653794bb11832eb
:101b000000230133ab4245d0104618324479002cf3
:101b1000f7d10122427111f0080f02d0234a0124ab
:101b20009470224a546801345460948ddbb243eac5
:101b300004430361938d01339bb24ff6ff729342ce
:101b400008bf0123194a9385012382f8343000230a
:101b5000036041f004010171126942618360c36056
:101b600000691de0114b012283f834204ff0ff3053
:101b700070470e4b012283f834204ff0ff3070473e
:101b800011f0080fb2d0094b012283f834204ff036
:101b9000ff307047054b012283f834204ff0ff30af
:101ba00030bc70474ff0ff30704700bfe00240206c
:020000040000fa
:020000040040ba
:101bb00000286ed13b4b93f90230022b6cd1394b8c
:101bc0001b78002b6bd0374b93f83c30012b02d0a5
:101bd0004ff0ff307047334b002283f83c205b7896
:101be000002b3dd12f4b9b68002b40d130b42d4ba7
:101bf000dd68002d45d01a691046d3784bb11032fc
:101c000000230133ab423cd010461032c478002c84
:101c1000f7d10122c27011f0080f02d0214a01242d
:101c20005470204a946801349460948adbb243ea89
:101c30000443c360938a01339bb24ff6ff72934211
:101c400008bf0123174a9382012382f83c3041f0f8
:101c5000040181700023436083600380c06816e044
:101c6000104b012283f83c204ff0ff30704711f0f9
:101c7000080fbbd00b4b012283f83c204ff0ff3004
:101c80007047084b012283f83c204ff0ff3030bcf6
:101c900070474ff0ff3070474ff0ff3070474ff004
:081ca000ff30704754014020a1
:020000040000fa
:020000040040ba
:101ca8002de9f0410478002c67d090f90240022c0d
:101cb80063d101290cbf076a476a002f5dd0164619
:101cc8000d4604463968c1f3072202eb42022e484a
:101cd80000eb42125ffa81f8126902eb0818d8f893
:101ce8000c20914241d17e767a7e52b2b2f1ff3f0a
:101cf8001cd0fb683b613f6a2946204602f060f829
:101d0800d8f80430002b34d094f82830013384f804
:101d18002830d8f80430d8f8082039463046984793
:101d280094f82830013b84f8283022e0226bb2f185
:101d3800ff3f02d000233b61dde7e26c1168994266
:101d480010d051688b420bd09268934206d0002382
:101d5800fb616368db6898473861cce7022302e0df
:101d6800012300e000230133f2e72946204602f070
:101d780027f825b9204600f0bbffbde8f0812046d2
:0c1d880001f06cf8f9e700bf54014020a6
:020000040000fa
:020000040040ba
:101d9400f8b5344c656b63689b699847606160690a
:101da40002f028f9d4e90a67321847f10003c4e9bc
:101db4000a23002d4cd094f83030013384f83030ad
:101dc40001f0dafe646b2cb1a3681bb9012500276e
:101dd400244e10e0244d00242e461fe0e06901f05b
:101de40099fde3680bb120699847746b002cf1d01e
:101df400a368002beed125756575a37813b9e36844
:101e0400002bebd1204601f075fba378002be8d121
:101e14006770e6e701342035052c13d006eb441334
:101e24005b7d002bf6d006eb441300225a75ab7889
:101e3400012befd16b6806eb44118b60284600f050
:101e440089fde7e7074a92f83030013b82f83030e9
:101e540002f062fa044600f0dffa204602f060fa6b
:0c1e6400f8bd00bf60024020b400402028
:020000040000fa
:020000040040ba
:101e700090f8283043b990f83d30012b01d0002074
:101e80007047002380f83d3070b50446056d02f0c0
:101e900045fa06462b78e3b96868b0f1ff3f2dd1cb
:101ea000a868b0f1ff3f2fd1e868b0f1ff3f31d112
:101eb0002869b0f1ff3f33d1e36ab3f1ff3f35d179
:101ec000236bb3f1ff3f38d1304602f02bfa0120eb
:101ed00070bd95f9040001f061fc84f85a00e36ad2
:101ee000b3f1ff3f03d1236bb3f1ff3fecd095f982
:101ef000040001f053fc84f85b00e5e740b201f018
:101f00004dfc84f85400cbe740b201f047fc84f864
:101f10005500c9e740b201f041fc84f85600c7e71c
:101f200040b201f03bfc84f85700c5e795f9140076
:101f300001f034fc84f85800c2e795f9180001f06c
:081f40002dfc84f85900bfe7f5
:020000040000fa
:020000040040ba
:101f480010b4304b0022c3f81421d3f8141141f017
:101f58001001c3f814112c492c4b4b602c4b0b600f
:101f68004ff0ff334b650b66c1f89030c1f8a030d5
:101f7800202008616ff020044c618863c1f81821a3
:101f880001f5007110200867486748606ff010007d
:101f980008604b650b66c1f89030c1f8a0300a6143
:101fa8004b618a63c1f8182101f500710b604b651c
:101fb8000b66c1f89030c1f8a0300a614b618a63a2
:101fc800c1f8182101f500710b604b650b66c1f86b
:101fd8009030c1f8a0300a614b618a63c1f81821ba
:101fe80001f500710b604b650b66c1f89030c1f8c4
:101ff800a0300a614b618a63c1f818215df8044b6f
:10200800704700bf00800840000e0e4018002000f6
:04201800e7ffdfff00
:020000040000fa
:020000040040ba
:04201c00704700bf4a
:020000040000fa
:020000040040ba
:10202000002957d0f8b50d46002850d12e4c012379
:1020300084f838300b686360db689847e0600246dc
:102040000027c300410f181a61eb07035e0146ea3f
:10205000d0664101881846eb07018b0043ea907374
:102060008200104619461ea3d3e9002301f09efd0d
:102070000230206295f904302372394627614ff609
:10208000ff73a36147f6ff73e36100220023c4e9f5
:102090000a23676384f8307063681b6813489847a5
:1020a00063681b690bb1208b98470f4ce06963682c
:1020b0005b6980b2984763685b689847a0220021fb
:1020c0000b4802f01df8022323702046f8bd4ff0a4
:1020d000ff30fbe74ff0ff30704700bfaff30080e9
:1020e00000a3e1110000000060024020951d4000a7
:0420f000b4004020d8
:020000040000fa
:020000040040ba
:1020f400002855d138b52d4b1b78002b53d12b4bd1
:10210400012083f83d0083f83c0018700c685c6083
:1021140000229a604d68dd608d681d619882c86aee
:102124009861086bd8611a625a6283f828204a6b56
:102134001a65ca68da620a691a634a695a638a695b
:102144009a63ca691a640a6a5a644a6a9a648a6a05
:10215400da648a6bda65db6ab3f1ff3f12d1636933
:10216400124913489847114b1b6bb3f1ff3f10d131
:102174000e494b681b680f4898470c4b02229a7013
:10218400002038bd094ad06a0b49c0b202f01ef8db
:10219400e9e7064a106b0949c0b202f017f8ece708
:1021a4004ff0ff3070474ff0ff30eae75401402012
:1021b40001424000b93c4000093c4000dd3b400086
:020000040000fa
:020000040040ba
:1021c40070b50446056d02f0a7f806462b780bbbe4
:1021d4006868b0f1ff3f32d1a868b0f1ff3f34d155
:1021e400e868b0f1ff3f36d12869b0f1ff3f38d13c
:1021f400e36ab3f1ff3f3ad1236bb3f1ff3f3dd123
:10220400304602f08df894f8283013b9012384f88d
:102214003d3070bd94f85a1095f9040001f014fe95
:10222400e36ab3f1ff3f03d1236bb3f1ff3fe7d080
:1022340094f85b1095f9040001f006fee0e794f8c9
:10224400541040b201f000fec6e794f8551040b2b5
:1022540001f0fafdc4e794f8561040b201f0f4fd21
:10226400c2e794f8571040b201f0eefdc0e794f8cd
:10227400581095f9140001f0e7fdbde794f85910e2
:0a22840095f9180001f0e0fdbae73b
:020000040000fa
:020000040040ba
:02228e00fee769
:020000040000fa
:020000040040ba
:1022900008b57f281fd9030203f4fe0343f48073bb
:1022a0002b4a5360c0b2d0602a4b00225a619a6117
:1022b000002948d1db68012b11d0264b03221a7765
:1022c0005a68127822494a635a6901325a610523d1
:1022d0004b62012008bd00041d4b5860e4e71d4b14
:1022e0001b6973b91b4b04221a775a681178184a74
:1022f000516359690131596102231360012353620b
:10230000e7e772b6134b5a681078114a50635a695e
:1023100001325a610e4a136a13f0050ffbd10c4bc0
:102320001b6a13f0040f0ed14ef660230848026ab0
:1023300012f0040f07d1013bf9d1064b02225a7764
:1023400062b60846c6e701f0e5fb0120c2e700bf20
:0823500000800140b8034020a9
:020000040000fa
:020000040040ba
:1023580053ec102bc3f30a512de9f04140f2fd7004
:102368004e1e86421d4644d8a1f2ff30002835dbb8
:10237800332831dc264bc0f120084ff0ff3c03fa2c
:1023880008f2a1f21f412cfa00fc10ee104a4ceaa8
:10239800020c23fa01f24cea020c23fa00fe04eaca
:1023a8000c0605ea0e0724ea0c0256ea070425ea99
:1023b8000e030fd0002a73f100040bda4ff48015d6
:1023c80005fa08f425fa01f10c43121925fa00f070
:1023d80040eb030343ec102bbde8f0819fed0a7b33
:1023e800bfee000b002a73f1000327fe000bbde8c7
:1023f800f0810029f0d10a4603f0004343ec102b8a
:10240800eae700bfaff30080000000000000000012
:04241800ffff0f00b3
:020000040000fa
:020000040040ba
:10241c002de9f8432a4b5a6b59691961002a40d0af
:10242c009368b3f5004f33d3254b5b6947f6ff74c4
:10243c00002514eb030845f10009214e73689b69d4
:10244c00984782b200233169814206d94ff6ff7159
:10245c0052184ff0000141eb03031949096a561851
:10246c0043f10007b94508bfb04524d20a44144bc8
:10247c00da61134bdb699bb213b9114b0122da61a0
:10248c000f4bd8695b685b6980b29847bde8f883ed
:10249c0094680b4b5b69002514eb030845f10009ac
:1024ac00cbe7074b5b6947f6ff74002514eb030879
:1024bc0045f10009c1e7024bc3f81c80d9e700bf06
:0424cc00600240204a
:020000040000fa
:020000040040ba
:1024d0002de9f04182b00546284e0de00223237716
:1024e000eb685b682269e1686088984741e02246b2
:1024f0003946284601f07af8ac6a002c3bd0237f9d
:10250000012b38d1a369c3f30722c2eb021206ebf9
:102510008202dbb203eb4303d76907ebc3076a69a7
:102520007b699a4207d0eb685b69002107f11400d0
:1025300098477b696b61237d022bcfd0042b0ed192
:1025400002232377d4f804c02269e1686088a36875
:102550000093eb68d3f808806346c04709e0012b7d
:1025600009d102232377eb681b68a2686168608841
:1025700098470028bbd002b0bde8f081e0024020bf
:020000040000fa
:020000040040ba
:102580002de9f04106460d4690461f4601f056fae9
:10259000002841d0224b93f90030022b06d04ff097
:1025a000ff3401f0edfb2046bde8f081002d30d076
:1025b000b5422ed31b4b1b7853b11b4b01241a7809
:1025c00042b101342033052cf9d14ff0ff34e8e754
:1025d0000024144b01221a7000225a701a755a7581
:1025e0009df818209a705d60c3f80c801f61ad1bc8
:1025f0009d600e4a1288a4b244ea0244dc61531c76
:102600009bb24ff6ff72934208bf0123074a138023
:10261000c7e74ff0ff34c4e74ff0ff34c3e700bf14
:1026200060024020b4004020d40040204a044020f2
:020000040000fa
:020000040040ba
:102630002de9f04780460e46234b244a92e80300da
:1026400083e80300042e3cd808eb060508f10107d7
:10265000bb19c6f1040753fa87f70724dff868a00f
:10266000dff86c9015f9012b49460aeb040001f0e4
:10267000b5fc0444e4b2bd42f4d196b108f1ff3593
:10268000013e58fa86f6dff84080114f15f9012f08
:10269000394608eb040001f0a1fc0444e4b2b54261
:1026a000f4d109490a190b4b18889b780853937089
:1026b000a21c094bd2b20948006801f059fdbde8df
:1026c000f0870724d9e700bfb8024020d840400077
:1026d000e0404000e8404000380440203004402002
:020000040000fa
:020000040040ba
:1026e000882910b536d012dc812943d003dc80293b
:1026f00040d0002010bd82290ed08429f9d119685c
:1027000002b30a1d1a60b1f90020d3171ee0a029f8
:102710002bd00bdc9029ecd11968073121f007018f
:1027200001f108021a60d1e900230fe0c02901d0ad
:10273000f029ded11a68111d1960136803600023a7
:10274000436005e00a1d1a600a880023c0e90023df
:102750000120cfe7196822b10a1d1a6091f9002003
:10276000d3e70a1d1a600a78efe71a68111d19608d
:102770001268cae719681ab10a1d1a600a68c4e724
:0c2780000c1d1c600b68c0e90032e1e792
:020000040000fa
:020000040040ba
:10278c002de9f041d2e900230c4686b007465feafa
:10279c00d37820684968a5680590e66841d0524214
:1027ac0063eb4303002908db20f002000590b8f12d
:1027bc00000f02d1059948072ad5691e05a8029079
:1027cc000a20cde90010204600f00afbb8f1000ffa
:1027dc0002d1059b59071fd5b8f1000f00f1ff304e
:1027ec0014bf2d232b2333542269059b0093013aec
:1027fc002b46121a3118384600f078f97b68db0545
:10280c0003d563689842b8bf184606b0bde8f0819e
:10281c000807d2d42946d1e71a07e5d50138202379
:08282c00e1e70029c0dac5e76d
:020000040000fa
:020000040040ba
:10283400204b93f82c30002b34d1f0b403f0ff0478
:102844001c4b1b7d83f0010300280cbf002303f005
:10285400010313b91846f0bc70470268164d0029ed
:1028640008bf294615018d4214d8b1fbf5f10026a5
:10287400b1f5803f1bd2114c6768826845682a43d2
:102884000f4d3d402a43c06802433243626089b21f
:102894002162dfe7d2008a4207d8b1fbf2f14ff49c
:1028a4000026e5e70023184670472346d2e723466f
:1028b400d0e700bf5403402080d1f00800800240dc
:0428c4003fc1f5ff1c
:020000040000fa
:020000040040ba
:1028c80070b58569036b4bb990f83530012b02d090
:1028d8000026304670bd002380f8353004462e7837
:1028e80036b195f9040000f055ff84f83a00f0e796
:1028f80001f010fd06466868b0f1ff3f10d1a868e6
:10290800b0f1ff3f12d1e868b0f1ff3f14d1286958
:10291800b0f1ff3f16d1304601f000fd0126d8e79f
:1029280040b200f037ff84f83600e8e740b200f024
:1029380031ff84f83700e6e740b200f02bff84f857
:102948003800e4e740b200f025ff84f83900e2e7f8
:020000040000fa
:020000040040ba
:1029580030b32de9f0418646204b5a6bd0f80880f9
:10296800c2b193684046002198451bd30024002536
:102978009368e41845f100059369dbb1d3f808c002
:1029880014eb0c0645f10007b94208bfb04211d359
:102998001a46ede7c0f80880104b586301201ae08a
:1029a800002070470d4bc3f834e0cef818200024ff
:1029b800012004e0cef81830c2f818e00020a8eb97
:1029c8000404cef80840def8183023b1def8081009
:1029d8009a68521a9a60bde8f08100bf60024020f0
:020000040000fa
:020000040040ba
:1029e8001e4b1f4a9a629a6e12f0020ffbd01b4ac6
:1029f800136b23f07003136313469a6e12f0080fdb
:102a0800fbd0164a136b23f4407343f480731363ab
:102a180013469a6e12f0080ffbd0104a136b23f07e
:102a2800030343f00203136313469a6e12f0080f70
:102a3800fbd00a4b4ff480425a604ff4f871996505
:102a48001a609a6e12f4804ffbd0044b054a1a6143
:102a58004ff08062c3f80021704700bf00060e40a7
:082a6800013f1820005c8b0007
:020000040000fa
:020000040040ba
:102a7000002836d003681d4a934234d810b41c4a4b
:102a8000002908bf11465b00b1fbf3f10339ff29b0
:102a900024d9002340f2ff1400e011460133dbb2d9
:102aa0004a08a14294bf00200120062b88bf0020c5
:102ab0000028f2d1b1f5007f0dd20e4c2069d1b2c1
:102ac00041ea022200f07c510a431b0403f4e02394
:102ad0001343236101205df8044b70470a4600232d
:102ae000ebe7002070470020704700bf00093d0061
:082af00080d1f00800800140d4
:020000040000fa
:020000040040ba
:102af8002de9ff471d460c9b13f0010906468a463f
:102b0800144601d195420bd822465146304601f071
:102b18000df9a54204d82546284604b0bde8f0873b
:102b28002f1b102f3a464ff0200128bf102268466d
:102b3800b84601f0e1fa00bfb8f10f0f11d83b0910
:102b48006ff00f0202fb03726946304601f0eef89f
:102b5800b9f1000fe0d122465146304601f0e6f8bf
:102b6800dae710226946304601f0e0f8a8f11008cb
:042b7800e2e700bfd1
:020000040000fa
:020000040040ba
:102b7c0070b5044685692b785bb190f83a1095f9dd
:102b8c00040001f05df9236b13b9012384f835308f
:102b9c0070bd01f0bdfb06466868b0f1ff3f0fd178
:102bac00a868b0f1ff3f11d1e868b0f1ff3f13d135
:102bbc002869b0f1ff3f15d1304601f0adfbe2e7db
:102bcc0094f8361040b201f03bf9e9e794f837106d
:102bdc0040b201f035f9e7e794f8381040b201f053
:102bec002ff9e5e794f8391040b201f029f9e3e741
:020000040000fa
:020000040040ba
:102bfc0082b00278437843ea02231bb2002b21db1c
:102c0c00db1107ee103abaeeef7bbdeec77b17ee89
:102c1c00103a1bb207ee103ab8eec77af2ee027a0f
:102c2c0027ee277af1ee046ac7ee267a9fed0f7a2b
:102c3c0077ee877afdeee77acded017a9df9040007
:102c4c0002b070475b4243f3c8131bb207ee103a55
:102c5c00b8eec77bbeee006b27ee067bbdeec77be6
:102c6c0017ee103a1bb207ee103ad5e700000042ff
:020000040000fa
:020000040040ba
:102c7c00842910b523d00cdc812903d0822913d0f0
:102c8c0080290bd119680c1d1c600b6803601a603d
:102c9c0013e0902921d003dc882917d0002010bd27
:102cac00a029efd0c029ece719680c1d1c600b683b
:102cbc000360d1171046c3e900010120efe7196842
:102ccc000c1d1c600b6803601a80f6e719680c1d5c
:102cdc001c600b6803601a70efe719680c1d1c6010
:0c2cec0009680160d317c1e90023e6e786
:020000040000fa
:020000040040ba
:102cf80038b5456a002d37d02b7e012b34d10446d8
:102d080002232b76036bb3f1ff3f28d043685b6a3d
:102d18009847e36d032b12d9e9684900a86800f0c9
:102d280051fe206b4ff4006101f047f9206beb680e
:102d38005b00aa68a16bc0b200f078fa14e0e968f9
:102d4800a86800f03ffe206b002101f036f9206be7
:102d5800eb68aa68a16bc0b200f068fa04e04368a7
:0a2d68005b68e968a868984738bd69
:020000040000fa
:020000040040ba
:022d7200fee77a
:020000040000fa
:020000040040ba
:102d7400002830d010b40446194b1b7d002b2cd1f5
:102d8400174b1860596000229a6001221a7558681e
:102d94009b68144a526912f0020f13d0984211d959
:102da40010494a6812f4003f14bf34f81320e25c5f
:102db400c2f30802ca6101334a6912f0020f01d05a
:102dc4009842eed8064a9360064b02229a6001208c
:102dd4005df8044b7047002070470020f8e700bfff
:082de40054034020008002406e
:020000040000fa
:020000040040ba
:102dec002de9f84f04460c9f6668d4f80cb02469a2
:102dfc0010463a68013c002502f0020a0b9a0bf8c7
:102e0c000450002e1946b8bf0126012390464fea04
:102e1c00e279002c03dcd3b12046bde8f88f50eaf0
:102e2c00010209d1721b002a06dc0a9a521b002ae5
:102e3c00f1ddbaf1000feed042464b4600f0b0fe89
:102e4c00013c134630320bf804200135e1e73b68b6
:082e5c0023f010033b60dfe7e7
:020000040000fa
:020000040040ba
:102e640038b5046a002c34d0237e012b31d10546b9
:102e740002232376c36ab3f1ff3f25d0c36d032b2e
:102e840012d9e1684900a06800f0bafde86a4ff47d
:102e9400006101f094f8e86ae3685b006a6ba1687a
:102ea400c0b200f0c5f914e0e168a06800f0a8fd24
:102eb400e86a002101f083f8e86ae3686a6ba168b4
:102ec400c0b200f0b5f904e043689b69e168a0680a
:042ed400984738bd26
:020000040000fa
:020000040040ba
:102ed800194bd96821f4e0610904090c174a0a431f
:102ee800da60bff35f8f62b6154ae02182f80e13ed
:102ef8004ff48040106082f813134ff400201060e4
:102f080082f817134ff40000106082f83a134ff05c
:102f1800806151605a6a42f480225a625a6942f0ca
:102f280010025a615a6a42f400325a625a6a42f4ea
:102f380080325a62704700bf00ed00e00000fa05d9
:042f480000e100e0c4
:020000040000fa
:020000040040ba
:102f4c0038b51a4b1c681d681b7d002b2cd0174bf9
:102f5c0058689b68164a526912f0020f13d09842b7
:102f6c0011d913494a6812f4003f14bf35f81320e5
:102f7c00e25cc2f30802ca6101334a6912f0020f23
:102f8c0001d09842eed8094a9360936883420bd3e0
:102f9c00134600221a75064a0221d160db681bb168
:102fac00024b1869db68984738bd00bf54034020ba
:042fbc00008002404f
:020000040000fa
:020000040040ba
:102fc000f0b50c4649682368a768e56887b0002912
:102fd0000593a4bf23f00203059305ab02930823d6
:102fe000cde900730646d2e900232046fff7fefe36
:102ff000059bd90642bf00f1ff3030232b54059bbf
:103000001a0742bf00f1ff3020232b542269059b91
:103010000093013a3b46121a29183046fff76cfd1f
:103020007368db0503d563689842b8bf184607b0dc
:02303000f0bdf1
:020000040000fa
:020000040040ba
:02303200fee7b7
:020000040000fa
:020000040040ba
:1030340010b501f0abf8fff7d5fcfef783ff00f005
:103044000dfe4ff40043104a5360b03a536000f051
:10305400cbfe00f0e3fb00f021fc0c49002000f063
:103064001df80b4c20600b490020fff741f860600d
:1030740009490020fef7d2ffa06000f0d3ff01f061
:1030840039f9fff727ff10bd00190e40e43e400058
:0c3094001c044020543940002c43400034
:020000040000fa
:020000040040ba
:1030a000002827d138b5164b1b7833bb144c0123ad
:1030b00084f8343084f8353023700a68e260486957
:1030c000a0614868e0618868a06008696062c868bb
:1030d00020620025a5626560a5702563a3858b69c4
:1030e0002361636193692146064898470223637010
:1030f000284638bd4ff0ff3070474ff0ff30f8e7fb
:08310000e0024020a53440006c
:020000040000fa
:020000040040ba
:1031080070b5174b9d699e6993f82c303bb3144bef
:10311800dc691b6a13494a6912f0010f0dd09c4201
:103128000bd98a69c2f30802486810f4003f14bf3b
:1031380026f81320ea540133ede7094a1362136aab
:10314800a3420cd31346002283f82c20054ae12120
:10315800d1605b6a1bb1024b986a5b6a984770bd85
:083168005403402000800240e6
:020000040000fa
:020000040040ba
:1031700010b5164b5b6913f0e0030fd1134b5b697d
:1031800013f0010f1bd1114b5b6913f0020f04d038
:103190000e4b1b6913f0020f14d110bd0c4c2363ae
:1031a00000f048fd094be122da60002384f82c305e
:1031b000636a002be2d0a06a636a9847dee7fff7f4
:1031c000a3ffe0e7fff7c2fee7e700bf0080024091
:0431d0005403402044
:020000040000fa
:020000040040ba
:1031d400f0b59bb004460d46164600214c2207a8c4
:1031e4001f4600f08bff4ff0ff33029303f20313eb
:1031f400039304b901accde9044555b16a1e002d11
:10320400069208da094b4f221a604ff0ff301bb0c8
:10321400f0bd2a46f3e71cbf002323703a4631462b
:1032240002a8cde9074400f0affef0e744044020d3
:020000040000fa
:020000040040ba
:10323400f0b482b000240194124c04eb0014247bfb
:103244002cb1114c646ac44014f0010f18d10e4f14
:1032540007eb8015ec6d0194019c0a4e06eb0016f9
:103264000124347329666a6623f07f432b67bff316
:103274005f8f04fa00f0f861204602b0f0bc70479a
:0c3284000020fae7fc0340200080074017
:020000040000fa
:020000040040ba
:103290000e4a38b5002313600d4a0e4c13600e4ad7
:1032a0000e4d13600e4a13600e4a13600e4a5362ad
:1032b00013610123936000f0e6fe00f0e4feac42ef
:1032c00000d338bd54f8043b9847f8e74004402049
:1032d0001802402074014000140240207801400090
:0c32e0000c024020100240201c02402084
:020000040000fa
:020000040040ba
:1032ec0008b5134b1a78996892b1124b5b6913f0bd
:1032fc00010f0dd00f4bdb6d13f0700f09d00c4b81
:10330c0000221a735b681bb1094b5b68022098475b
:10331c0008bd13f0010ffbd0054b00221a735b683c
:10332c00002bf5d0024b5b6801209847f0e700bffb
:08333c00fc0340200080074063
:020000040000fa
:020000040040ba
:103344002de978480546134c63689b69984760618a
:10335400606900f04ffe064600f00efc00f0dcff52
:10336400d4e90abc1beb06024cf10003c4e90a23ae
:1033740000f0d6ff2846fff7edfa08b9bde87888d3
:1033840000f0caff0446fff747f8204600f0c8ffe4
:08339400f4e700bf60024020d5
:020000040000fa
:020000040040ba
:10339c0038b5044600f04cfb10b3204600f098fa08
:1033ac000546b0b14378b3b983680bb94368836001
:1033bc000c4b93f8303043b92846fff7bdff00247f
:1033cc002c756c7501236b7006e02846fff7befa6e
:1033dc00f5e7012400e0002400f0ccfc204638bdc9
:0833ec000124fbe76002402010
:020000040000fa
:020000040040ba
:1033f4002de9ff41134dd1f80080af88adf80c7072
:1034040006462868029002aca8798df80e00002abe
:1034140018bf1446d1e901571a461bb9204600f0db
:1034240019fe0246002d02dbaa4228bf2a46cdf827
:1034340000803b4621463046fff75cfb04b0bde804
:08344400f08100bf3c43400091
:020000040000fa
:020000040040ba
:10344c00f0b50c4649682368a668e76887b0002980
:10345c000593a4bf23f00203059305ab02930a2343
:10346c00cde900630546d2e900232046fff7b8fcfe
:10347c002269059b0093013a3346121a39182846e3
:10348c00fff734fb6b68db0503d563689842b8bf64
:06349c00184607b0f0bd68
:020000040000fa
:020000040040ba
:0234a200fee743
:020000040000fa
:020000040040ba
:1034a40038b50378ebb190f90130022b19d10446f9
:1034b400826a9169c1f30723c3eb03130c4800eb41
:1034c4008300cdb205eb4503c56905ebc3052b6944
:1034d400994207d0204600f025fe29462046fef7f3
:1034e400f5ff38bd2946204600f07ef8f5e700bf19
:0434f400e002402092
:020000040000fa
:020000040040ba
:1034f8000146134b5a6b0ab1824203d1134600228c
:1035080005e01a469369002b18bf9942f9d1abb16f
:1035180010b48b691bb18c689868204498603ab1e4
:103528008b699361002000238b615df8044b704721
:10353800034b5a6b92695a630120f4e700207047e5
:0435480060024020bd
:020000040000fa
:020000040040ba
:10354c0070b582b0002b08bf00281bd00646cab14c
:10355c001d4610460c460e4bd9684ff47a72002368
:10356c00a1fb000100f01cfb0095234632460146ee
:10357c000020fef7ffff0446b0f1ff3f04d0fff739
:10358c0007ff01e04ff0ff34204602b070bd00bfd2
:04359c006002402069
:020000040000fa
:020000040040ba
:1035a000431e13f1030f16d810f47f4f15d1c3b289
:1035b0000d4a9268934212d203eb43020a4bdb6935
:1035c00003ebc2031a6982420bd15a79002a08bf61
:1035d0000023184670470023fbe70023f9e7002388
:0c35e000f7e70023f5e700bfe002402001
:020000040000fa
:020000040040ba
:1035ec00f8b504460e461546c3681b69984785f81e
:1035fc00240095f82430dbb2002b0cbf01274ff0d0
:10360c00ff376f752d6a204600f088fdb36853b103
:10361c00236b01332363b368f26829463846984715
:08362c00236b013b2363f8bd91
:020000040000fa
:020000040040ba
:10363400431e13f1030f14d810f47f4f13d1c2b2f9
:103644000c4bdb689a4210d20a4b1b6903eb021342
:10365400da6882420bd1da78002a08bf00231846c0
:1036640070470023fbe70023f9e70023f7e7002373
:08367400f5e700bf54014020fe
:020000040000fa
:020000040040ba
:10367c0008b50f4b1b7f5bb2bbb90e4b1b6a03f03b
:10368c004073b3f1407f04d0094b02225a770020db
:10369c0008bd074b188099601a6100225a60da60e5
:1036ac005a770121fef7eefdf2e70020f0e700bfac
:0836bc00b8034020008001402a
:020000040000fa
:020000040040ba
:1036c4000f4b1b7f5bb2c3b90e4b1b6a03f04073f5
:1036d400b3f1407f04d00a4b02225a77002070478e
:1036e40010b50b46064c20800021a1602161636067
:1036f400e2606177fef7cafd10bd0020704700bf8d
:08370400b803402000800140e1
:020000040000fa
:020000040040ba
:10370c0010b50f4c247f64b2bcb90e4c246a04f083
:10371c004074b4f1407f04d0094b02225a77002048
:10372c0010bd074c2080a360029b23616160e260a6
:10373c0000216177fef7a6fdf2e70020f0e700bf5d
:08374c00b80340200080014099
:020000040000fa
:020000040040ba
:1037540010b50278202a034600f10100f9d0a2f145
:1037640009010429f5d92b2a07d02d2a11d10121c9
:103774000133013b00200a2403e00021f8e7604301
:10378400801a13f8012f303a092af8d901b94042b6
:0637940010bd0021ede76d
:020000040000fa
:020000040040ba
:02379a00fee748
:020000040000fa
:020000040040ba
:10379c0038b5044600f0cbfc002c16db63090c4951
:1037ac0051f8235004f01f04e54005f001050122f7
:1037bc0002fa04f4203341f82340bff34f8fbff3d8
:1037cc006f8f00f0bdfc284638bd0025f9e700bf1f
:0437dc0000e100e028
:020000040000fa
:020000040040ba
:1037e00010b5054c227832b9044b13b10448aff33d
:1037f00000800123237010bde00340200000000082
:103800000000000008b5034b1bb103490348aff3a8
:10381000008008bd00000000e4034020000000001c
:020000040000fa
:020000040040ba
:103820000d4b80221a6028221a60196901f07c5120
:103830004bf2c0120a431a614ff080721a600722dd
:103840009a624ff440725a6204221a60034b0022bb
:103850005a771a77704700bf00800140b8034020b4
:020000040000fa
:020000040040ba
:10386000b8b138b505460c4a92f82c200ab10020b0
:1038700038bd0c4600f0def9074b00221a639d614b
:10388000dc611a62012083f82c00044be1229a606b
:10389000eee70020704700bf540340200080024044
:020000040000fa
:020000040040ba
:1038a0000c4b4ff486721a6050221a604ff40c626f
:1038b0005a6051221a62084b00229a61da611a6238
:1038c00083f82c205a621a605a609a601a75da607e
:0c38d0001a63704700800240540340203f
:020000040000fa
:020000040040ba
:1038dc00431e13f1030f0fd883b2042b0ed80a4ae0
:1038ec0002eb4312d26982420ad15a0106498a5c20
:1038fc0042b101eb43107047002070470020704725
:0c390c000020704700207047b4004020ed
:020000040000fa
:020000040040ba
:1039180010b5044600f08ef8b0b12046fff7daff84
:10392800044678b1437843b900202075607520704b
:10393800044600f021fa204610bdfff7d9fd002308
:0c3948006370f1e70124f4e70124f4e7c8
:020000040000fa
:020000040040ba
:103954008c3c4000010000000c04402000000000ea
:10396400ffffffff1c800240000000009c4040005d
:1039740010404000e0424000d442400005000000f6
:0c398400000040201c3f40000300000039
:020000040000fa
:020000040040ba
:1039900030b50d4a002300bf12f8134024b902ebe2
:1039a00043035b78184630bd01680d78a54209bf16
:1039b00002eb430301335b78013114bfdbb20160da
:0c39c0000a2be9d9eee700bf7040400080
:020000040000fa
:020000040040ba
:1039cc000c4b5b6913f4803f01d0002900dc70477d
:1039dc0000f01f021144bff34f8f064a0144c2f896
:1039ec005c0220300b1a002bf9dcbff34f8fbff3b6
:0839fc006f8fece700ed00e025
:020000040000fa
:020000040040ba
:103a04000c4b5b6913f4803f01d0002900dc704744
:103a140000f01f021144bff34f8f064a0144c2f85d
:103a2400680220300b1a002bf9dcbff34f8fbff371
:083a34006f8fece700ed00e0ec
:020000040000fa
:020000040040ba
:103a3c000c4b93f830309bb90a4b93f83830012b70
:103a4c0001d00020704710b5064c002384f83830a4
:103a5c0094f90800fff79cfe84f83100012010bd9a
:083a6c000120704760024020b8
:020000040000fa
:020000040040ba
:103a7400012800d07047084b1b688b4207d0074bc6
:103a84001b688b42f6d1064b01221a70f2e7054bf4
:103a940001221a70f3e700bf3804402034044020a8
:083aa4004904402048044020c1
:020000040000fa
:020000040040ba
:103aac00f8b50f461646fff775fd50b10546006890
:103abc00c0eb0010064c04eb80042046fef7fefe23
:103acc0000b9f8bdaf60ee602046fff751f8f8e79b
:043adc00e0024020a4
:020000040000fa
:020000040040ba
:103ae000f8b50f461646fff7a5fd50b1054600880c
:103af00000eb4000064c04eb40142046fef7b8f9fa
:103b000000b9f8bd6f60ae602046fef75bfbf8e7da
:043b100054014020fc
:020000040000fa
:020000040040ba
:103b14000a4a022313770a494b6843f480534b60e3
:103b24001369012b07d0064b01221a6062b6044bbd
:103b340003225a62704703220a60f7e7b803402061
:043b440000800140bc
:020000040000fa
:020000040040ba
:103b480070b50a480a4d4ff6ff76016811b9436807
:103b580003b970bd83684268334000f10c0455f81e
:103b680023302046984704eb8000eee75c184000bd
:043b7800ec404000dd
:020000040000fa
:020000040040ba
:103b7c000a4b5b6b73b168b1002105e09a68801a3f
:103b8c0099609b6933b128b19a688242f6d39a68de
:103b9c00101a9860014b5a691a61704760024020f4
:020000040000fa
:020000040040ba
:103bac0053b94ab9002908bf00281cbf4ff0ff3198
:103bbc004ff0ff30fef72cbaadf1080c6de904ced6
:103bcc00fdf730f8ddf804e0dde9022304b07047be
:020000040000fa
:020000040040ba
:103bdc0010b50c46012802d0022807d010bd0023d6
:103bec00012219462046fef759f8f7e700234ff05b
:0c3bfc00ff3219462046fef751f8efe7b3
:020000040000fa
:020000040040ba
:103c080010b50c46012802d0022807d010bd0023a9
:103c1800012211462046fef743f8f7e700234ff04c
:0c3c2800ff3201212046fef73bf8efe7d9
:020000040000fa
:020000040040ba
:103c3400094b5b6913f0e00f0dd0074b4ff4807212
:103c44001a605b6913f0010f05d0034b9a695a6936
:0c3c540012f0010ffad17047008002400e
:020000040000fa
:020000040040ba
:103c6000074b00221a705a609a601a73054a064977
:103c70009167712111650121d1601970704700bff2
:0c3c8000fc0340200080074011400109b7
:020000040000fa
:020000040040ba
:103c8c008d42400061384000a5424000bd424000da
:103c9c000d3d400081424000752d4000994240008e
:0c3cac00b1424000c141400035284000fa
:020000040000fa
:020000040040ba
:103cb80010b5044643685b6a984730b9002301226f
:103cc80019462046fdf7ecff10bd03464ff0ff32c2
:0a3cd80000212046fdf7e4fff6e7a7
:020000040000fa
:020000040040ba
:103ce200802910db812901dd83290cd11368073378
:103cf20023f0070303f108011160d3e90023c0e9af
:0a3d020000230120704700207047e5
:020000040000fa
:020000040040ba
:103d0c00074b93f82c3043b1064be122da60044b9d
:103d1c00002283f82c201a62da610120704700bf60
:083d2c00540340200080024016
:020000040000fa
:020000040040ba
:103d340038b50569954228bf154604465db12a4643
:103d4400406900f013f9636922692b44551b002272
:083d5400636125611a7038bd9e
:020000040000fa
:020000040040ba
:103d5c0008b5064b186a064b59681b6810f014001e
:103d6c0003d013b1024b1b68984708bd00c000403c
:043d7c0028044020b7
:020000040000fa
:020000040040ba
:103d800010b5074c94f8311094f9080000f05ef873
:103d900094f8303013b9012284f8382010bd00bfe8
:043da000600240205d
:020000040000fa
:020000040040ba
:103da400b0f1ff3f06d0012808d1054b002283f86b
:103db4003e207047024b012283f83e20704700bf2b
:043dc400a0024020f9
:020000040000fa
:020000040040ba
:103dc80001290ad000f12402436a2bb15969116014
:103dd80000221a765a611a71704700f12002036aac
:023de800f3e7ff
:020000040000fa
:020000040040ba
:023dea00fee7f2
:020000040000fa
:020000040040ba
:103dec00054b4ff440425a600022da6104215962bb
:103dfc00024b1a60704700bf00c0004028044020ee
:020000040000fa
:020000040040ba
:103e0c00054b00225a771a77044b07229a62082234
:103e1c001a6004221a607047b803402000800140e9
:020000040000fa
:020000040040ba
:103e2c0010b4012202fa00f4044b1c6203eb801361
:103e3c00996710465df8044b704700bf008007403f
:020000040000fa
:020000040040ba
:103e4c00002800db01b97047420900f01f00012374
:103e5c0003fa00f0014b43f82200f4e700e100e024
:020000040000fa
:020000040040ba
:103e6c0010b5044600f0b4f8034bc2b22146034827
:103e7c00006800f077f910bd380440203004402071
:020000040000fa
:020000040040ba
:103e8c0010b50023934206d113f0030018bf012094
:0e3e9c0000eb930010bdc45ccc540133f2e780
:020000040000fa
:020000040040ba
:103eaa0041b110b50c46fff776fb28b12268426192
:0c3eba00012010bd002070470020fae736
:020000040000fa
:020000040040ba
:103ec60010b584b004240394089c0294079c0194c2
:0c3ed600069c0094fdf707f804b010bd36
:020000040000fa
:020000040040ba
:023ee200fee7f9
:020000040000fa
:020000040040ba
:103ee400003f400088034020020000000200000060
:0c3ef400b401402088404000801a060005
:020000040000fa
:020000040040ba
:103f00007d364000c53640000d3740000d3e400074
:0c3f1000b1414000712a4000a141400076
:020000040000fa
:020000040040ba
:103f1c00010000003a00000000000000000000005a
:0c3f2c0000000000000000000000000089
:020000040000fa
:020000040040ba
:103f38007542400039424000454240004543400038
:0c3f4800514240005d42400069424000d0
:020000040000fa
:020000040040ba
:103f5400044b012283f83620034a936b83f0200339
:0c3f6400936370471c034020000e0e40c9
:020000040000fa
:020000040040ba
:103f70005ab110b40a44431e11f8014b03f8014f23
:0c3f80009142f9d15df8044b7047704786
:020000040000fa
:020000040040ba
:103f8c0013b50446019201aafcf7c8fc636813f050
:0c3f9c00100f18bf4ff0ff3002b010bd36
:020000040000fa
:020000040040ba
:103fa80010b584b002240394069c02940024019462
:0a3fb8000094fcf797ff04b010bd61
:020000040000fa
:020000040040ba
:103fc20038b50d46c4b2204600f07df920f4c05148
:0a3fd20029432046fff729ff38bd00
:020000040000fa
:020000040040ba
:103fdc000eb403b503aa52f8041b019200f08cf93d
:0a3fec0002b05df804eb03b070476b
:020000040000fa
:020000040040ba
:023ff600704712
:020000040000fa
:020000040040ba
:103ff800044b1b69834201d2c01a7047c3f5803352
:084008001844704760024020db
:020000040000fa
:020000040040ba
:104010000008000000000000000200000006000090
:0840200000040000000c000088
:020000040000fa
:020000040040ba
:10402800034b00221a70034b01221a70704700bf1d
:084038001c0340204804402055
:020000040000fa
:020000040040ba
:1040400054656d7065726174757265203d202564dc
:0840500020460d0a000000bf2c
:020000040000fa
:020000040040ba
:1040580003783bb1034600bf13f8012f002afbd1b8
:08406800181a70471846704752
:020000040000fa
:020000040040ba
:1040700068076c094c836a9074a07ac000806888d5
:0640800000846c82008147
:020000040000fa
:020000040040ba
:02408600704781
:020000040000fa
:020000040040ba
:104088000100000013000000000000000000000014
:044098000000000024
:020000040000fa
:020000040040ba
:10409c00000000004000000080000000c000000094
:0440ac00000002000e
:020000040000fa
:020000040040ba
:1040b000012800d07047024b012283f83520f9e730
:0440c0001c0340207d
:020000040000fa
:020000040040ba
:1040c400034b83f83b00012283f83d20704700bf77
:0440d400a0024020e6
:020000040000fa
:020000040040ba
:1040d800454550524f4d3a002564467c000000008b
:0440e8000d0a0000bd
:020000040000fa
:020000040040ba
:1040ec005f4140008d3e40005d0540005d05400095
:0440fc005d0540001e
:020000040000fa
:020000040040ba
:1041000032b1c9b20244034603f8011b9342fbd10a
:04411000704700bf35
:020000040000fa
:020000040040ba
:10411400034600bf11f8012b184603f8012b002aaf
:04412400f8d1704717
:020000040000fa
:020000040040ba
:10412800836a2bb19a6a826200221a779a621a709d
:024138007047ce
:020000040000fa
:020000040040ba
:10413a00eff3108072b6bff35f8fb0fa80f04009d8
:02414a007047bc
:020000040000fa
:020000040040ba
:10414c0018b1bff35f8f62b6704772b6bff35f8f63
:02415c007047aa
:020000040000fa
:020000040040ba
:10415e000a440023914201d10020704701f8013b2f
:02416e00f8e770
:020000040000fa
:020000040040ba
:1041700010b582b001240094fdf72efa02b010bdf4
:020000040000fa
:020000040040ba
:1041800010b582b000240094fdf726fa02b010bded
:020000040000fa
:020000040040ba
:10419000014b024a1a607047000c0e4000060004f2
:020000040000fa
:020000040040ba
:1041a00010b1024b18625962704700bfb80340203b
:020000040000fa
:020000040040ba
:1041b000024b587f00225a77704700bfb803402057
:020000040000fa
:020000040040ba
:1041c000024b186b00221a63704700bf5403402053
:020000040000fa
:020000040040ba
:1041d000024b03eb0010416082607047fc034020fb
:020000040000fa
:020000040040ba
:1041e000494e4600696e66004e414e006e616e009b
:020000040000fa
:020000040040ba
:1041f000494e4600696e66004e414e006e616e008b
:020000040000fa
:020000040040ba
:0e42000008b5002301221146fdf74efd08bd52
:020000040000fa
:020000040040ba
:0e420e0008b50020fef70fff00f069f8fce78e
:020000040000fa
:020000040040ba
:0e421c00a0f14103192b98bf40f0200070471d
:020000040000fa
:020000040040ba
:0e422a00a0f16103192b98bf00f05f007047f0
:020000040000fa
:020000040040ba
:0c423800014b05221a60704700c00040d6
:020000040000fa
:020000040040ba
:0c424400014b02221a60704700c00040cd
:020000040000fa
:020000040040ba
:0c425000014bd861704700bf00c0004067
:020000040000fa
:020000040040ba
:0c425c00014b5861704700bf00c00040db
:020000040000fa
:020000040040ba
:0c426800014b186980b2704700c0004094
:020000040000fa
:020000040040ba
:0c427400014b186059607047280440207e
:020000040000fa
:020000040040ba
:0c428000014bd8601961704754034020c6
:020000040000fa
:020000040040ba
:0c428c00014b58629962704754034020b7
:020000040000fa
:020000040040ba
:0c429800014b187d704700bf540340200c
:020000040000fa
:020000040040ba
:0c42a400014b93f82c007047540340209d
:020000040000fa
:020000040040ba
:0c42b000014b9868704700bf5403402089
:020000040000fa
:020000040040ba
:0c42bc00014b186a704700bf54034020fb
:020000040000fa
:020000040040ba
:0c42c8008001014b1858704778800740b7
:020000040000fa
:020000040040ba
:0c42d400200000008000000040000000fe
:020000040000fa
:020000040040ba
:0c42e000000000000010000000200000a2
:020000040000fa
:020000040040ba
:0c42ec0008b5fdf717fafcf707ff08bd46
:020000040000fa
:020000040040ba
:0c42f800014b00221a707047a002402009
:020000040000fa
:020000040040ba
:0c43040013460a466ff00041fef762bf4e
:020000040000fa
:020000040040ba
:0c43100010b50446fff7fefe204610bd6d
:020000040000fa
:020000040040ba
:08431c0008b5fff70cff08bd16
:020000040000fa
:020000040040ba
:0843240008b5fff711ff08bd09
:020000040000fa
:020000040040ba
:08432c00383f400017000000bb
:020000040000fa
:020000040040ba
:08433400286e696c29002500c8
:020000040000fa
:020000040040ba
:07433c00286e756c6c29006e
:020000040000fa
:020000040040ba
:064344004ff47a7070478f
:020000040000fa
:02000004d0002a
:0400000002000000fa
:00000001FF
