:020000040000fa
:10000000f03f0020b50900007f0d0000fd0d00004d
:1000100000000000000000000000000000000000e0
:10002000000000000000000000000000c30100000c
:100030000000000000000000c3010000c301000038
:10004000c3010000c3010000c3010000c3010000a0
:10005000c3010000c3010000c3010000c301000090
:10006000c3010000c301000089070000c3010000b4
:10007000c3010000c301000031080000c3010000fb
:10008000c3010000c3010000c3010000c301000060
:10009000c30100000000000000000000c3010000d8
:1000a000c3010000c3010000c3010000c301000040
:0800b00000000000c301000084
:020000040000fa
:1000b800f8b5c046f8bc08bc9e46704795090000d4
:1000c800f8b5c046f8bc08bc9e4670476d090000ec
:020000040000fa
:0800d800080000000100000017
:020000040000fa
:1000e000f0b5060085b00f0015001c008b4265d8e6
:1000f00001d1824262d82100280000f021fe39009f
:100100000090300000f01cfe009b21001b1a1a001a
:100110002800039300f008fe00900191019bbb4270
:1001200046d802d1009bb34242d8009b019c039a5f
:1001300001200021f61aa74100f0f6fd039b002bd9
:100140002fd0019b009adb0754081c43019b5d08dc
:10015000039b9c46bd422ed801d1b4422bd832001d
:100160003b00121bab41012692185b410027b618d9
:100170005f4101235b429c446346002bead1801916
:100180007941039a04000d003000390000f0c0fdf1
:10019000039a06000f0000f0c7fd241a8d412000cd
:1001a00029000a9b002b01d01e605f6005b0f0bde6
:1001b00000200021c2e7b6197f41dae700200021c4
:0201c000efe767
:020000040000fa
:0201c200fee756
:020000040000fa
:1001c400f0b583b0002000f05dfd00f081fb00215c
:1001d400264800f0dffd0021254800f0d5fd002170
:1001e400244800f0e3fd0021234800f0d9fd01215b
:1001f4006b46d81d00f000fc01216b46d81d00f0b1
:100204001dfc1e4d2f001e4c260020e000233b70d9
:1002140001216b46d81d00f087f91be000233370e1
:1002240001216b46d81d00f0e7fb16e0154b0022b8
:100234001a7001216b46d81d00f03cf911e0124bf5
:1002440000221a7001216b46d81d00f0f7fb2b78b1
:10025400002bdbd12378002be0d10a4b1b78002b39
:10026400e4d1094b1b78002bf1d0e8e7c90d00005d
:10027400bd0d0000e10d0000d50d0000d7000020e9
:0c028400da000020d8000020d900002083
:020000040000fa
:100290001c4b00229a619a8c80218a439a841a000e
:1002a0001023d1680b42fcd0174b1b689b0e3f2bd1
:1002b00025d09b02802292001343124a936210239e
:1002c000d1680b42fcd00f4b02229a841a001023f3
:1002d000d1680b42fcd00d4b0d4a5a601a0053787e
:1002e0005bb2002bfbdb094b0a4a5a800a4a5a8050
:1002f0000a4b0b4a1a62034b00221a627047203bda
:10030000d7e7c0460008004024608000000c004091
:1003100000070100154000001940000000040040e3
:040320008800010050
:020000040000fa
:10032400002934d00123002210b488422cd30124a4
:100334002407a14204d2814202d209011b01f8e739
:10034400e400a14204d2814202d249005b00f8e7f2
:10035400884201d3401a1a434c08a04202d3001b1e
:100364005c0822438c08a04202d3001b9c08224351
:10037400cc08a04202d3001bdc082243002803d08f
:100384001b0901d00909e3e7101c10bc704701b533
:10039400002000f02ffd02bd0029f8d003b5fff7bf
:0c03a400c1ff0ebc4243891a1847c04636
:020000040000fa
:1003b000f8b51e4b1b7d002b37d01c4a9368516843
:1003c0001b4a127ed2071dd599421bd91849072610
:1003d000164a944617001500012409e03a68d25cd9
:1003e0000a85013368680a7e22420bd0984209d9f7
:1003f0004a683240012af1d1624612685800825a96
:100400000a85eee7094a936052689a420dd8074b75
:1004100000221a755a60064a01211175db68002b0b
:1004200003d0024b1869db689847f8bd50000020e4
:04043000000c00427a
:020000040000fa
:10043400f8b51e4b1b7d002b37d01c4a93685168be
:100444001b4a127ed2071dd599421bd9184907268b
:10045400164a944617001500012409e03a68d25c54
:100464000a85013368680a7e22420bd0984209d972
:100474004a683240012af1d1624612685800825a11
:100484000a85eee7094a936052689a420dd8074bf1
:1004940000221a755a60064a01211175db68002b87
:1004a40003d0024b1869db689847f8bd8000002030
:0404b400001c0042e6
:020000040000fa
:1004b80070b5002830d0194b1a7d0023002a29d1a5
:1004c800164b1860596001321a755c68144b1b7e14
:1004d800db0716d5002c17d0002311490726012564
:1004e80007e0c25c0a8501330a7e2a420bd09c428f
:1004f8000ad04a683240012af3d15a00825a0a8542
:10050800f1e7002400e01c00044b9c60044b01222e
:100518009a750123180070bd0023fbe750000020e6
:04052800000c004281
:020000040000fa
:10052c0070b5002830d0194b1a7d0023002a29d130
:10053c00164b1860596001321a755c68144b1b7e9f
:10054c00db0716d5002c17d00023114907260125ef
:10055c0007e0c25c0a8501330a7e2a420bd09c421a
:10056c000ad04a683240012af3d15a00825a0a85cd
:10057c00f1e7002400e01c00044b9c60044b0122ba
:10058c009a750123180070bd0023fbe78000002042
:04059c00001c0042fd
:020000040000fa
:1005a00010b5194a2c23d35c002b18d01300d26944
:1005b0001b6a934213d2144b986a14490a8d92b263
:1005c0001b6a4c6807212140012909d00e4989691d
:1005d000ca5401330c4a1362d2699a4205d010bd45
:1005e000094989695c006252f3e7074b00222c211c
:1005f0005a54da61054a583111755b6a002beed006
:10060000014b5b6a9847eae750000020000c00426b
:020000040000fa
:1006100010b5194a2c23d35c002b18d01300d269d3
:100620001b6a934213d2144b986a14490a8d92b2f2
:100630001b6a4c6807212140012909d00e498969ac
:10064000ca5401330c4a1362d2699a4205d010bdd4
:10065000094989695c006252f3e7074b00222c21ab
:100660005a54da61054a583111755b6a002beed095
:10067000014b5b6a9847eae780000020001c0042bb
:020000040000fa
:1006800000230e4a10b513600d4a13600d4a136023
:100690000d4a13600d4a13600d4a53621361013312
:1006a000936000f0acfb00f0aafb0a4c0a4b9c42a2
:1006b00000d310bd08cc9847f8e7c046d000002012
:1006c0000c00002008000020000000200400002092
:0c06d00010000020c4000000c800000062
:020000040000fa
:1006dc0070b504001500fa229200002308000021d6
:1006ec0000f0caf922006a43002300f0e7f9040085
:1006fc00fa2189002000fff70ffe094b1880000437
:10070c00020c5001801a80008018c000201ac00012
:10071c00fa218900fff700fe024b187070bdc0462d
:08072c00d4000020d6000020db
:020000040000fa
:10073400114b124a1a60d22252429a81c02292026a
:100744005a601a00d369002bfcd10b4a13680221aa
:100754000b431360d369002bfcd1094b00229a612f
:10076400da611a622c215a545a621a605a609a60e9
:100774001a75da60da857047000c004204011040f3
:040784005000002001
:020000040000fa
:1007880010b5134b9b7d002b1ad0114a137edbb298
:10079800927d52b2002a14db0d4a137edbb2927da1
:1007a800d20703d5db0701d5fff7fefd084a137e04
:1007b800dbb2927d520703d55b0701d5fff7ecfe4c
:1007c80010bd5bb2002be7da00f0b8f9e4e7c046e9
:0407d800000c0042cf
:020000040000fa
:1007dc00114b124a1a60d22252429a81c0229202c2
:1007ec005a601a00d369002bfcd10b4a1368022102
:1007fc000b431360d369002bfcd1094b00229a6187
:10080c00da611a622c215a545a621a605a609a6040
:10081c001a75da60da857047001c0042040120402a
:04082c008000002028
:020000040000fa
:1008300010b5134b9b7d002b1ad0114a137edbb2ef
:10084000927d52b2002a14db0d4a137edbb2927df8
:10085000d20703d5db0701d5fff7ecfd084a137e6d
:10086000dbb2927d520703d55b0701d5fff7d0febf
:1008700010bd5bb2002be7da00f082f9e4e7c04676
:04088000001c004216
:020000040000fa
:10088400b00000201c000000000000005000002008
:100894006000000000000000d400002007000000f9
:1008a40000000000cc000020040000000000000054
:1008b400000000205000000000000000d0000020d4
:1008c4000400000000000000000000000000000020
:020000040000fa
:1008d40010b500f089fa010010220c48fff7fcfe65
:1008e40000f0f4f90a4a116880239b010b4313605a
:1008f400084b1b88db04db0c0749097849030b43cd
:100904009bb2938100f0d2f910bdc046f82a0000d2
:0c091400000c0042d4000020d60000209f
:020000040000fa
:1009200010b50e4b0e4a934207d30e4801680029ba
:1009300007d14368002b04d110bd00211970013389
:10094000f1e704008368084a9bb20c349b009b5873
:1009500042682000984780002018e7e70000002048
:0c0960000000002084080000580d00007a
:020000040000fa
:10096c0010b5064c2378002b07d1054b002b02d079
:10097c00044800e000bf0123237010bdb00000202c
:10098c000000000000000000044b10b5002b03d049
:10099c000349044800e000bf10bdc0460000000041
:0809ac00b4000020000000006f
:020000040000fa
:1009b40010b50a4b98470a4b9847fff7afff094b0e
:1009c400ff229343084a9360084b9847084b984783
:1009d400084b9847fff7f4fbfee7c0460f0d0000f5
:1009e4000f0d00000000000000ed00e08106000093
:0809f4000f0d00000f0d0000c3
:020000040000fa
:1009fc0070b504000d00002815d00c4a2c23d35cd4
:100a0c000020002b00d070bd00f00cf9074b9c614e
:100a1c00dd6100221a622c2101205854da85044b26
:100a2c0084329a75efe70020ede7c04650000020b5
:040a3c00000c004268
:020000040000fa
:100a400070b504000d00002815d00c4a2c23d35c8f
:100a50000020002b00d070bd00f000f9074b9c6116
:100a6000dd6100221a622c2101205854da85044be2
:100a700084329a75efe70020ede7c0468000002041
:040a8000001c004214
:020000040000fa
:100a8400f7b597b201933b00140c86b2050c73437f
:100a94006f4366436543f6191c0ca4199c46a74290
:100aa40002d980235b02ed186346260c75192404d1
:100ab4009eb2019ba4194343200051435b1959186a
:040ac40003b0f0bdce
:020000040000fa
:100ac800002b11d1002a0fd1002900d1002802d013
:100ad8000021c943081c07b4024802a1401802902b
:100ae80003bdc0460d03000003b4684601b5029873
:100af800fff7f2fa019b9e4602b00cbc7047c04655
:020000040000fa
:100b080010b5bff35f8f62b60a4bc22080001a5837
:100b1800094c2240c02109040a431a508022d200fd
:100b28001a6004301a582240114319508022d20109
:0c0b38001a6010bd00e100e0ffff00ffac
:020000040000fa
:100b440010b50c4b5b8b0722134000d110bd0a4c2f
:100b5400e38500f06bf8074b84221a752c230022de
:100b6400e254636a002bf1d0034b986a5b6a98479e
:0c0b7400ece7c046000c004250000020de
:020000040000fa
:100b800010b50c4b5b8b0722134000d110bd0a4cf3
:100b9000e38500f063f8074b84221a752c230022aa
:100ba000e254636a002bf1d0034b986a5b6a984762
:0c0bb000ece7c046001c00428000002062
:020000040000fa
:100bbc001c2101231b04984201d3000c10391b0a81
:100bcc00984201d3000a08391b09984201d3000945
:100bdc00043902a2105c40187047c046040302029c
:0c0bec00010101010000000000000000f9
:020000040000fa
:100bf8000c4b012250215a5401315a5401315a5494
:100c080001315a5403315a543439382019540130b7
:100c180019541f39023019549b301a54ba32995456
:080c28007047c0460044004182
:020000040000fa
:100c3000094b5b8b5b070dd0074b80221a76793a04
:100c40005a831b7e5b0705d5034b04211a8d1a7e40
:0c0c50000a42fbd17047c046000c004275
:020000040000fa
:100c5c00094b5b8b5b070dd0074b80221a76793ad8
:100c6c005a831b7e5b0705d5034b04211a8d1a7e14
:0c0c7c000a42fbd17047c046001c004239
:020000040000fa
:100c880010b5084b06225a60fff7b2fffff7fcfacf
:100c980000f072f8fff74afdfff79cfdfff730ff01
:080ca80010bdc04600400041f0
:020000040000fa
:100cb000064b1b689b0707d4044a136802210b43a9
:100cc0001360d369002bfcd17047c046000c004272
:020000040000fa
:100cd000064b1b689b0707d5044a136802218b4308
:100ce0001360d369002bfcd17047c046000c004252
:020000040000fa
:100cf000002310b5934206d103201840421e9041b4
:0e0d00009b08c01810bdc45ccc540133f2e750
:020000040000fa
:020d0e0070472c
:020000040000fa
:100d1000d0400b1cd1409c46203ad340184352424d
:080d200063469340184370473d
:020000040000fa
:100d28009140031c90409c46203a934019435242fc
:080d38006346d34019437047e4
:020000040000fa
:100d400010b5002903d1fff739ff203002e0081c5d
:080d5000fff734ff10bdc0469f
:020000040000fa
:100d58006d0d0000f10c0000f50d0000f50d000010
:040d6800f50d000085
:020000040000fa
:100d6c008a18914201d10020704700230b70013189
:020d7c00f7e797
:020000040000fa
:020d7e00fee78e
:020000040000fa
:0c0d8000014b82225a6070470040004185
:020000040000fa
:0c0d8c00014bd860196170475000002036
:020000040000fa
:0c0d9800014b5862996270475000002027
:020000040000fa
:0c0da400014bd8601961704780000020ee
:020000040000fa
:0c0db000014b58629962704780000020df
:020000040000fa
:0c0dbc00014b01221a707047d900002082
:020000040000fa
:0c0dc800014b01221a707047d700002078
:020000040000fa
:0c0dd400014b01221a707047da00002069
:020000040000fa
:0c0de000014b01221a707047d80000205f
:020000040000fa
:080dec0000487047006cdc02b6
:020000040000fa
:040df4000020704724
:020000040000fa
:040df8007047c0463a
:020000040000fa
:020dfc00fee710
:020000040000fa
:020dfe0070473c
:020000040000fa
:0200000400807a
:0440000077c700d8a6
:020000040000fa
:0200000400807a
:044004005c00ffff5e
:00000001FF
